:020000040800F2
:10000000400A002001010008632B0008192700089E
:10001000612B0008A10A0008B536000800000000A6
:100020000000000000000000000000008D3000080B
:10003000DD0B000800000000712F0008C13000082F
:100040001B0100081B0100081B0100081B01000820
:100050001B0100081B0100081B0100081B01000810
:100060001B0100081B0100081B0100081B01000800
:100070001B0100081B0100081B0100081B010008F0
:100080001B0100081B0100081B0100081B010008E0
:100090001B0100081B0100081B010008F50B0008EC
:1000A0001B010008413100081B0100081B0100086A
:1000B0001B0100081B0100081B0100081B010008B0
:1000C0001B0100081B0100081B0100081B010008A0
:1000D0001B0100081B0100081B0100081B01000890
:1000E000DF0B00081B0100081B010008DFF80CD023
:1000F00000F040FB00480047ED390008400A0020AE
:100100000648804706480047FEE7FEE7FEE7FEE7B1
:10011000FEE7FEE7FEE7FEE7FEE7FEE73D3100080B
:10012000ED000008202A04DB203A21FA02F0002129
:10013000704721FA02F3D040C2F1200291400843F7
:1001400019467047D2B201E000F8012B491EFBD2DC
:1001500070470022F6E710B513460A4604461946D2
:10016000FFF7F0FF204610BDF0B480EA0102D40F83
:100170004200B2EB410F02D20246084611464A0045
:1001800042D0C30DDDB2C1F3C752AD1A202D35DA0E
:10019000C1F3160141F4000204B15242C5F1200638
:1001A00002FA06F12A411044B3EBD05F23D0C4B168
:1001B000012DA0EBC35009DCF0BC4FF0004202EA75
:1001C000C352DBB200F5000000F048BA400000F175
:1001D000807000EBC350A0F1807040EAD1704900FC
:1001E00009E0490841EAC071A0EBC35000F50000E6
:1001F000400800EBC350F0BC00F027BA6142012276
:1002000002EB4101001BF6E7F0BC704781F00041B2
:10021000AAE780F00040A7E780EA010210B502F0EB
:100220000043400022D04A001FD0010E01EB1261B2
:10023000C0F35600C2F3560240F4000042F400023C
:10024000A0FB022000047F39140400D0401C50EAB7
:10025000124001D44000491EC2B20C0604EBD0107B
:10026000401C4008802A02D003E0002010BD20F08E
:100270000100002900DA0020184310BD2DE9FE4FCF
:10028000804681EA0300C00F0C46009021F0004137
:1002900023F00045B8EB0200A94105D240462146B3
:1002A00090461C460B46024623F00040104347D0C0
:1002B000270DC7F30A00C3F30A510290401A0190B8
:1002C00040286BDAC3F3130040F4801B0098924679
:1002D00020B10023D2EB030A63EB0B0B01985946C4
:1002E000C0F14002504600F08FF906460D465046D8
:1002F0005946019A00F097F910EB0800614100247B
:1003000087EA115284EAE7731A4340D0009A62B335
:10031000019A012A4FEA075215DC001B61EB02012A
:100320004FF0004202EA0752CDE90042001C41F5BD
:10033000801132462B4600F0CEF903B0BDE8F08FB5
:1003400040462146F9E7001B61EB0201001C41F524
:10035000801300185B412018A2F5001747EB03013A
:1003600040EAD570B6196D4111E06D084FEA3606C6
:1003700045EAC0754FEA0752001B61EB0201001C01
:1003800041F5801149084FEA3000001951413246C9
:100390002B4603B0BDE8F04F00F08EB90098012263
:1003A00040000023D0EB020263EBE073009821468B
:1003B0004FEAE074B8EB000061EB0401E9E783F079
:1003C00000435BE781F0004158E72DE9FE4F81EAE9
:1003D000030404F0004421F0004100944FF0000BAE
:1003E00023F0004350EA01045ED052EA03045BD0DC
:1003F000C3F30A54C1F30A552C44A4F2F334019414
:10040000A0FB0254C1F3130141F48011C3F31303A1
:1004100043F4801301FB024400FB034E840A970A55
:1004200044EA815447EA8357A4FB076802958D0A82
:1004300005FB07854FEA932C04FB0C542705029D0E
:100440004FEA065847EA1637B5EB08056EEB070C7E
:10045000870E920E47EA811742EA8312A7FB020138
:10046000B6EB0B0164EB00042B0D43EA0C335E1872
:1004700044EB1C50DA465146E7FB0201C5F3130476
:100480004FEA0B3343EA14534FEA0432019C43EA28
:100490000603A4F10C040294009CCDE900B400F022
:1004A0001AF903B0BDE8F08F00200146F9E770B5F6
:1004B00021F0004303430CD0C1F30A550024D5EBCF
:1004C000040564EB0403D617AD1AB34102DB002028
:1004D000014670BD201841EB025170BDC10F80EA8A
:1004E000E0700844CA079623002100F0B7B89623AD
:1004F0000022114600F0B2B80EB540F2334102912D
:100500000021CDE900110A460B4600F0E4F803B0E3
:1005100000BD00F0004220F00040C10DC0F3160005
:1005200040F400007F2901DA00207047962903DC9F
:10053000C1F19601C84001E096398840002AF4D004
:100540004042704720F00040C10DC0F3160040F457
:1005500000007F2901DA00207047962903DCC1F1F1
:100560009601C840704796398840704770B5C1F30E
:100570000A5201F000450024C1F3130140F2FF3399
:1005800041F480119A4201DA002070BD40F23343F9
:100590009A42A2F2334203DC5242FFF7C3FD00E06D
:1005A00090402C43F1D0404270BD00F0004230F04A
:1005B00000400AD0C10D01F56071C0F3160042EA97
:1005C0000151C2084007114370470020014670479F
:1005D00001F0004330B421F0004150EA010206D09E
:1005E0000A0DA2F56072C1F31301002A02DC30BCCF
:1005F00000207047440F44EAC104C100E01830BC39
:1006000000EBC25000F021B8202A04DB203A00FAA7
:1006100002F1002070479140C2F1200320FA03F359
:10062000194390407047202A06DBCB17203A41FA45
:1006300002F043EAE07306E041FA02F3D040C2F16F
:10064000200291400843194670470029A8BF70470F
:10065000401C490008BF20F00100704710B4B0FAF8
:1006600080FC00FA0CF050EA010404BF10BC704793
:1006700049B1CCF1200421FA04F411FA0CF118BFAD
:10068000012121430843A3EB0C01CB1D4FEA00617C
:100690004FEA102042BF002010BC704700EBC3504F
:1006A00010440029A4BF10BC7047401C490008BF7B
:1006B00020F0010010BC704710B5141E73F1000447
:1006C00008DA401C41F1000192185B411A4301D144
:1006D00020F0010010BD2DE9F04D92469B4611B16E
:1006E000B1FA81F202E0B0FA80F220329046FFF7D0
:1006F0008BFF04460F4640EA0A0041EA0B015346CD
:100700005A46084313D0114653EA010019D0C8F1E4
:1007100040025046FFF706FD05460E465046594634
:100720004246FFF771FF084305D0012004E0204650
:100730003946BDE8F08D0020054346EAE0762C43BB
:1007400037430A986305E40AA0EB08000022FD0A7B
:1007500044EA47540A3002D500200146E9E7010582
:1007600010196941DDE9084500196941BDE8F04DFE
:10077000A2E70000064C074D06E0E06840F00103E8
:1007800094E8070098471034AC42F6D3FFF7B2FC68
:1007900008E7000828E7000870B50446006881688B
:1007A000C943C90717D1816821F00101816000F0B8
:1007B00001FF05460AE000BF00F0FCFE401B0228D6
:1007C00004D920688068C043C00706D020688068CC
:1007D000C043C007F0D0002070BDA06A40F01000F8
:1007E000A062E06A40F00100E062012070BD0000FC
:1007F000F8B500260446009600688168C943C90719
:100800002DD0816841F001018160164816490068C9
:10081000B0FBF1F000E0401E00900028FBD100F09A
:10082000C9FE054616E000BF00F0C4FE401B0228CA
:1008300010D920688068C043C0070BD0A06A40F080
:100840001000A062E06A40F00100E06284F82460D9
:100850000120F8BD20688068C043C007E4D10020B3
:10086000F8BD00005400002040420F002DE9F05F69
:10087000624C634F00262078DFF88881012518BB81
:10088000E078401CE070E188386802F0C1FBDFF8D6
:100890007891C9F8000042F66500E08002F00CFF94
:1008A000E07801280CD13868A0F51850FC382928C8
:1008B00006D3E67042F21070E08088F8005003E042
:1008C000D9F8000002F0E4FB6089DFF840A1401C89
:1008D0000004000C608152D04D49DAF80000421843
:1008E0004C498A424BD266812189DFF82C91DFF88E
:1008F0002CB159B94A4B4C4AC9F80030494B1360E6
:100900004B4A4A4B13604B4BCBF80030491C89B221
:1009100021810A2933D9257000F09EF8606420896E
:100920006D281BD96E280BD143493F48C9F80010E8
:10093000424901603E48424901604249CBF80010FB
:10094000732020816079401CC0B2607104280CD9EA
:10095000386802F00FFBA064667106E03A49E0884F
:100960000860386802F006FBA064A68102F0A4FECD
:10097000D4E91101401A2449086002F089FB574666
:10098000DFF8C890DAF80000DFF8C4A0484501DDC0
:10099000504511DBE07802280ED9608960B92570D6
:1009A000002002F075FBA089401C80B2A081C828FD
:1009B00002D9A68188F800503868484501DD5045C5
:1009C00005DBE078022802D96089782805D821481B
:1009D00040F25641006888420EDA96206081257008
:1009E000002002F055FBA089401C80B2A081C828DD
:1009F00002D9A68188F80050BDE8F09F6C00002065
:100A000038000020000000203C00002044000020AE
:100A1000FF1FD4BAFFBF2B000800002014000020E5
:100A20000000F041000016430C000020000070415F
:100A3000100000200000FA43000048420000744308
:100A40000000C84100001644040000200080224538
:100A5000000061454000002070B50D49FFF7D6FB4E
:100A60000C4E0446316DFFF7D1FB0B490968FFF7C7
:100A7000D3FB054609482146006880F00040FFF797
:100A8000CBFB2946FFF7C2FBFFF743FD346570BD82
:100A900000C041456C0000200C0000200800002030
:100AA000FEE7000070B513480121006800F06CF803
:100AB00011480068FFF712FD022100F065F80321DC
:100AC000002000F061F8032000F01EF80B4900221E
:100AD0000B4B48700A700B4D1C1D06E01E68760615
:100AE000FCD5AE5C2660521C0A70D2B28242F5D3AD
:100AF00070BD00004400002038000020C400002029
:100B000000380140140600200A2839D890B31D4946
:100B100024220B280A7033D2DFE800F032060A0ED6
:100B200012161A1E22272D00052048710620704734
:100B3000092048720A2070470D2048730E20704724
:100B400011204874122070471520487516207047F0
:100B5000192048761A2070471D2048771E207047BC
:100B6000212081F8210022207047252081F82500CE
:100B70002620704704E0292081F829002A20F8E780
:100B80000020F6E71406002003B50A2912D8002930
:100B900010D00B290ED2DFE801F00D06080E10125E
:100BA0001416181A1C00012200E005220A496846A2
:100BB00000F02BF80CBD0922F8E70D22F6E7112210
:100BC000F4E71522F2E71922F0E71D22EEE72122D1
:100BD000ECE72522EAE7000014060020704710B574
:100BE0004FF4006000F0E4FBBDE810404FF480508B
:100BF00000F0DEBB10B5202000F0DAFBBDE81040AD
:100C0000802000F0D5BB72B6FEE703788B54114408
:100C100043784B7082788A70C078C8707047000043
:100C20000EB501210328CDE9000102D0062802D02B
:100C300003E0002000E0072002906946074800F02A
:100C4000B1F8064800F08EFA0A21044800F0ECF9E9
:100C5000024800F025F980B20EBD0000C800002057
:100C60002DE9F04100250E4607462C4605E03846A2
:100C7000FFF7D6FF641C0544E4B2B442F7D3B5FBDA
:100C8000F6F080B2BDE8F08110B50620FFF7C8FF8E
:100C9000FFF732FC4FF06632094BFFF796FB00225C
:100CA000084BFFF792FB0022074BFFF78EFB6FF01C
:100CB0000B02FFF7FCFBBDE81040FFF757BC00003C
:100CC00066660A400000264000005940F8B500253D
:100CD0000446009590F82400012808D0012084F8EB
:100CE00024002046FFF758FD060002D053E0022002
:100CF000F8BDA06A20F4885040F00200A0620220F3
:100D000000F0FAFC26490968B1FBF0F0400000E071
:100D1000401E00900028FBD12046FFF769FD2068A7
:100D2000816841F00801816000F044FC074608E05A
:100D300000F040FCC01B0A2803D920688068000727
:100D400015D4206880680007F2D42068816841F0DB
:100D50000401816000F02EFC074612E000F02AFC3E
:100D6000C01B0A280DD920688068400709D5A06AF1
:100D700020F0020040F01000A06284F8245001200E
:100D8000F8BD206880684007E8D4A06A20F002001F
:100D900040F00100A06284F824503046F8BD000005
:100DA00054000020F8B50024009490F82420254633
:100DB000012A12D0012280F824204A681F23072A22
:100DC0000DD20668776B521E02EB820293409F435E
:100DD0000B6893401F43776319E00220F8BD066853
:100DE0000D2A0AD2376BD21F02EB820293409F4337
:100DF0000B6893401F43376309E0F76A0D3A02EB33
:100E0000820293409F430B6893401F43F7620A6836
:100E1000072306680A2A0AD3F7680A3A02EB420255
:100E200093409F438B6893401F43F76008E0376906
:100E300002EB420293409F438B6893401F4337610C
:100E40000A68102A01D0112A20D1124B02689A4256
:100E500017D193681B0219D4936843F4000393607D
:100E60000968102912D10C490C4A0968B1FBF2F14A
:100E700001EB8101490000E0491E00910029FBD1EE
:100E800004E0816A41F020018162012480F824504D
:100E90002046F8BD002401405400002040420F00CD
:100EA0000068C06C704700002DE9F0414FF000076A
:100EB00004003D467ED0A06A002628B9E66284F888
:100EC0002460204600F07EF82046FFF765FCA16A0A
:100ED00001F01001014304D0A06A40F01000A062AC
:100EE00068E0A16A21F4885141F00201A1626268C0
:100EF000E169237B0A4347EA43010A43A1684FF4AF
:100F00008077B94208D0012906D0002194F814C096
:100F1000BCF1010F02D00AE03946F7E7F3B1A36A4A
:100F200043F02003A362E36A43F00103E362236812
:100F3000D3F804C02CF4694C4CEA010CC3F804C08B
:100F400023689968DFF870C001EA0C0111439960C9
:100F5000A168B9420BD0012909D00CE0DFF85CC0D0
:100F6000A3690CEB43330B4343F40061DFE7218AB1
:100F70000D05A5F580152168CB6A23F470032B437A
:100F8000CB62216889680E4B1940914208D1E66214
:100F9000A16A21F0020141F00101A162BDE8F081E6
:100FA000A06A20F0020040F01000A062E06A40F069
:100FB0000100E0620120F1E7FDF7E1FF00E0FFFF43
:100FC000FE0E1FFF00B585B0002100910191029136
:100FD00003910068104988421BD11048816941F48F
:100FE00000718161816901F400710491816941F0AE
:100FF000040181618069694600F004000490482082
:10100000009003200190064800F0DEF90548FFF744
:101010005DFE05B000BD000000240140001002404C
:1010200000080140C80000202DE9F84300270D46C4
:101030000446009700F0BEFA804620688168C90522
:1010400008D5A06A40F02000A06284F82470012036
:10105000BDE8F8834168C90503D4C06A10F4700F75
:101060002AD0022000F048FB3B490968B1FBF0F6AA
:101070002068036939490B424FEA61014FEAA11226
:101080001FD1C3684FEA611C13EA0C0F19D1036921
:101090000B4225D1C068104222D1142023E0681CE5
:1010A0000AD02DB100F086FAA0EB0800A84203D9BF
:1010B00020680068800725D5206800688007EED585
:1010C0002DE003690B4202D1C168114206D00269CA
:1010D00023490A4206D1C068084203D1542002E0E5
:1010E000292000E0FC204643009816E0681C11D03F
:1010F0002DB100F05FFAA0EB0800A8420AD90098D1
:10110000B04207D2A06A40F00400A06284F82470C4
:1011100003209DE70098401C0090B042E6D3216870
:101120006FF012000860A06A40F40070A0622068AE
:101130008068C0F3424007280CD1207B50B9A06AD8
:1011400020F48070A062A06AC00403D4A06A40F0BA
:101150000100A06200207BE7540000202449922473
:101160004992240070B5044690F8240001280DD05F
:10117000012084F824002046FFF73AFB02004FF0DC
:10118000000005D084F82400104670BD022070BD18
:10119000A16A40F20123994341F48071A1621F4D7D
:1011A00023681F49AB4218D10E6816F4702F14D073
:1011B000A66A46F48016A6620E68760505D5A66A6C
:1011C00026F4005646F48056A662A66AF6040AD5AE
:1011D000E66A26F00606E66206E0A66A26F48016AF
:1011E000A6625E68E9E7E06284F824006FF002001E
:1011F000186020688368C3F34243072B05D1A842D7
:1012000008D1096811F4702F04D0816841F480116D
:101210008160B9E7816841F4A001F9E70028014045
:101220000424014070B5044600F0C4F90546601C72
:1012300002D004480078044400F0BCF9401BA042EE
:10124000FAD370BD480000202DE9F05F0520FFF7BC
:10125000E9FF4B48D0F814114A4C4B4D4B4EDFF888
:101260003091C1B1D0F81C214A494FF0814A4FF06A
:101270007E53C2B1D0F83081474A484FDFF820C1D1
:10128000DFF820B1DFF820E1B8F1000F19D0D0F875
:101290002C0170B35DE04548017811B10021017067
:1012A00057E00121FBE70F68884638469B46194600
:1012B000FEF75AFFC8F8000057454AD1C8F800B0F9
:1012C00047E00868984204D111682068FEF79EFF45
:1012D00021E0B0F1804F07D060450BD1DBF8001062
:1012E0003068FEF793FF22E039682868FEF78EFF2A
:1012F00023E009E050452CD14F46DEF80010D9F824
:101300000000FEF783FF23E00868984205D11168CA
:101310002068FEF729FF20601BE0B0F1804F08D065
:1013200060450CD1DBF800103068FEF71DFF30601F
:101330000FE039682868FEF717FF286009E050457C
:1013400007D14F46DEF80010D9F80000FEF70CFF79
:10135000386021684FF400020020914200DA2060DA
:101360002968914200DA28603168914200DA3060E1
:10137000D9F80030934201DAC9F80000BDE8F09FC7
:1013800000002142080000200C0000201000002076
:10139000140000202000002024000020280000204D
:1013A000000040402C000020300000200000002001
:1013B000044910B50A68024202D00860FFF744FFF2
:1013C00010BD0000140401402DE9F84FDFF8B8917A
:1013D000002409F1040A0AF1040B23460F270BF13C
:1013E000040EC9E00125A5402A40AA427DD1674EDE
:1013F000D1F804C0ACEB0608B44532D014DCBCF123
:10140000030F3AD009DCBCF1000F2AD0BCF1010F68
:101410001CD0BCF1020F31D11DE0BCF1110F17D06F
:10142000BCF1120F2AD119E0B8F5881F19D006DCDB
:10143000B8F5803F15D0B8F5801F1FD111E0B8F581
:10144000001F0ED0B8F5041F18D10AE0CB6815E0D4
:10145000CB681B1D12E0CB6808330FE0CB680C3360
:101460000CE08B682BB1012B4FF0080303D04561D2
:1014700004E0042302E0056100E00023FF2A01D814
:10148000064601E000F104064FEA840501D9A5F102
:101490002005D6F8008007FA05FC28EA0C0803FAB4
:1014A00005F548EA0508C6F800804D68ED0062D5EC
:1014B000374DAE6946F00106AE61AD6924F0030612
:1014C00005F001050095334D06EB050CDCF80850DE
:1014D000A607360F07FA06F825EA0805DFF8B880F0
:1014E000404503D14FF0000817E044E0DFF8AC803E
:1014F000404502D14FF001080FE0DFF8A4804045DD
:1015000002D14FF0020808E0DFF89880404502D190
:101510004FF0030801E04FF0040808FA06F848EA23
:101520000508CCF808804D68D9F80060ED034D46F9
:1015300001D5164300E096432E604D68DAF800604E
:10154000AD03554601D5164300E096432E604D6825
:10155000DBF80060ED025D4601D5164300E09643DE
:101560002E604D68DEF80060AD02754601D5164369
:1015700000E096432E60641C0D682A46E5407FF427
:1015800031AFBDE8F88F00000004014000001110E9
:10159000001002400000014000080140000C014022
:1015A00000100140001401400AB1016170470904B4
:1015B000FBE70000014880687047000048000020F9
:1015C0000248816802781144816070474800002019
:1015D000074810B5016841F010010160032000F0D8
:1015E00079F8002000F006F800F024F8002010BD83
:1015F0000020024070B50D4D04464FF47A712878F2
:10160000B1FBF0F00A490968B1FBF0F000F0CAFB49
:1016100048B9102C07D200222146501E00F03AF89B
:1016200000206C6070BD012070BD000048000020EB
:10163000540000200E4808B5816941F00101816124
:10164000816901F001010091C16941F08051C161DE
:10165000C06900F080500090052000F03BF805487C
:10166000416821F0E06141F00071416008BD000077
:101670000010024000000140002809DB00F01F02BA
:10168000012191404009800000F1E020C0F80011E4
:1016900070470000F0B40E4B1B680C46C3F30223E6
:1016A000C3F10705042D00D90425191D072901D20E
:1016B000002300E0DB1E012606FA05F1491E214049
:1016C00099409E40761E16403143F0BC02F004B8AB
:1016D0000CED00E0064900F0070208684FF6FF0332
:1016E000184040EA0220034A104308607047000097
:1016F0000CED00E00000FA0510B529A401461DCC50
:1017000086B08DE81D002AA02A4C006804900020B5
:10171000012923D002293AD010291DD161682268FD
:10172000D20119D5C1F38342C9031DF8020009D5BE
:10173000616804AAC1F34041515C1F4AB2FBF1F158
:10174000484301E01D4948436168490204D4400010
:101750005FF00301B0FBF1F006B010BD226AC2F3E6
:101760000121012903D1920701D5C803F4E7022919
:1017700005D1626A920702D549F64040ECE7032999
:10178000EAD121688903E7D54FF22440E4E700F06D
:1017900033F96168C1F38131491C4900DAE700007F
:1017A00002030405060708090A0B0C0D0E0F1010A2
:1017B000010200000010024000127A0000093D0002
:1017C0002DE9F84305460078354CC00754D0E06950
:1017D0000026C00008D4E06940F08050E061E06974
:1017E000012600F0805000902E480168C90512D4EF
:1017F0000168804641F480710160FFF7DBFE074617
:1018000005E000BFFFF7D6FEC01B642823D8D8F838
:101810000000C005F6D5206A10F4407021D0A988D8
:1018200001F4407181421CD0206A1F49012220F43A
:1018300040700A6000220A602062C00711D0FFF7E2
:10184000B9FE074641F2883808E000BFFFF7B2FE54
:10185000C11B414502D90320BDE8F883206A8007F7
:10186000F4D5206A696820F44070084320621EB1F4
:10187000E06920F08050E0612878800705D5606835
:10188000A96820F44040084360602878C00605D568
:101890006068E96820F48000084360600020DBE7AE
:1018A0000010024000700040400442422DE9F04721
:1018B0000F46050061D0434E306800F00700B84283
:1018C00009D2306820F0070038433060306800F0FB
:1018D0000700B84251D128683B4C810712D5400718
:1018E00003D5606840F4E06060602878000703D5A5
:1018F000606840F4605060606068A96820F0F000A3
:10190000084360602878C00728D06868012810D094
:101910002168022810D0890700292EDA616821F099
:10192000030101436160FFF745FE804641F28839BB
:101930000DE021688903EFE78901EDE7FFF73AFE43
:10194000A0EB0801494502D90320BDE8F087606893
:10195000696800F00C00B0EB810FEFD1306800F047
:101960000700B8420BD9306820F0070038433060D8
:10197000306800F00700B84201D00120E5E7287880
:10198000400705D56068E96820F4E06008436060BE
:101990002878000706D56068296920F4605040EA7D
:1019A000C100606000F038F86168084AC1F30311B3
:1019B000515CC8400649086006480068FFF71AFEF7
:1019C0000020C2E700200240001002409A460008B2
:1019D000540000204C000020044805490068496874
:1019E000044AC1F30221515CC840704754000020F2
:1019F00000100240AA4600080448054900684968EA
:101A0000044AC1F3C221515CC84070475400002011
:101A100000100240AA46000812A185B00FC98DE847
:101A20000F0014A0144A006804905168134801F094
:101A30000C03042B10D0082B0ED1C1F38343C90330
:101A40001DF803000AD5516804AAC1F34041515C56
:101A50000A4A5043B0FBF1F005B0704708494843CB
:101A6000FAE7000002030405060708090A0B0C0D3B
:101A70000E0F1010010200000010024000127A0048
:101A800000093D002DE9F84F040070D02078C04DCA
:101A9000C00749D06868C0F38100012807D0686892
:101AA000C0F38100022809D16868C00306D5286800
:101AB000800339D560680028E7D035E06068B0F56C
:101AC000803F0BD010B1B0F5A02F11D0286820F4C2
:101AD00080302860286820F4802002E0286840F4E4
:101AE00080302860606890B1FFF764FD06460AE028
:101AF000286840F480202860F0E700BFFFF75AFD17
:101B0000801B642873D828688003F7D50CE0FFF7A2
:101B100051FD064605E000BFFFF74CFD801B642821
:101B2000F0D828688003F7D420789A4E80074FF0C9
:101B300001094FF0000839D5686810F00C0F07D084
:101B40006868C0F38100022809D16868C00306D420
:101B50002868800714D52069012808D110E0206981
:101B6000B0B1C6F80090FFF725FD074605E00AE191
:101B7000FFF720FDC01B0228C4D828688007F7D5CE
:101B80002868616920F0F80040EAC10028600DE093
:101B9000C6F80080FFF70EFD074604E0FFF70AFDD8
:101BA000C01B022823D828688007F7D420780007B4
:101BB0002CD57948A169D9B1C0F80090FFF7FAFC9B
:101BC000074604E0FFF7F6FCC01B02280FD8686A3E
:101BD0008007F7D571484FF4FA510068B0FBF1F077
:101BE000009000BF0098411E0091FAD20EE080E004
:101BF000C0F80080FFF7DEFC074604E0FFF7DAFCE0
:101C0000C01B022875D8686A8007F7D4207840077F
:101C100060D5E8690027C00008D4E86940F080502A
:101C2000E861E869012700F0805000905C48016895
:101C3000C90513D40168834641F480710160FFF740
:101C4000B9FC824606E000BFFFF7B4FCA0EB0A0037
:101C500064284ED8DBF80000C005F5D5E0680128FF
:101C60000AD008B1052813D0286A20F001002862A4
:101C7000286A20F0040002E0286A40F0010028628F
:101C8000E06841F2883B98B1FFF794FC82460BE094
:101C9000286A40F004002862EEE700BFFFF78AFCE4
:101CA000A0EB0A0159455AD8286A8007F6D50CE0FE
:101CB000FFF780FC824605E0FFF77CFCA0EB0A0101
:101CC00059454CD8286A8007F6D41FB1E86920F03E
:101CD0008050E861E06988B36968C1F38101022935
:101CE00044D00228C6F8608004D0FFF763FC0446A5
:101CF00038E034E0FFF75EFC074604E0FFF75AFCEB
:101D0000C01B02282BD828688001F7D4206AB0F5C0
:101D1000803F05D16868A16820F4003008436860FE
:101D2000D4E908010843696821F474110843686024
:101D3000C6F86090FFF73EFC044606E025E000BFD1
:101D4000FFF738FC001B022809D828688001F7D566
:101D50001BE000BFFFF72EFC001B022802D9032066
:101D6000BDE8F88F28688001F4D40EE00128F7D090
:101D70006868226A00F48031914204D1616A00F4FB
:101D80007010884201D00120EAE70020E8E7000057
:101D900000100240000042428004424254000020F1
:101DA0000070004010B5401EB0F1807F01D30120CB
:101DB00010BD4FF0E02460610F21601701F08CFC32
:101DC0000020A06107202061002010BD70477047EF
:101DD00070B590F83C20012A26D0012480F83C40C0
:101DE000022280F83D2003685A689D6822F0700640
:101DF0000A6832435A600D4B02689A4208D0B2F129
:101E0000804F05D00A4B9A4202D00A4B9A4204D125
:101E1000496825F080031943916080F83D40002116
:101E200080F83C10084670BD022070BD002C0140B7
:101E3000000400400008004010B5040003D094F8EE
:101E40003D0010B107E0012010BD002084F83C00E7
:101E5000204600F01FF8022084F83D00211D206874
:101E600001F074F9012084F8460084F83E0084F8FB
:101E70003F0084F8400084F8410084F8420084F870
:101E8000430084F8440084F8450084F83D000020B5
:101E900010BD000008B5114A01681148914211D1E6
:101EA000816941F4006181618069032200F400606E
:101EB000009001211920FFF7EDFBBDE80840192033
:101EC000FFF7DABB074A914207D1C16941F002012D
:101ED000C161C06900F00200009008BD002C014003
:101EE000001002400004004090F83D10012901D08C
:101EF00001207047022180F83D100168CA6842F055
:101F00000102CA6000680B49884208D0B0F1804FD6
:101F100005D00949884202D00849884204D1816825
:101F200001F00701062903D0016841F001010160B9
:101F300000207047002C01400004004000080040D1
:101F400070B5044690F83C00012817D0012584F8AC
:101F50003C50022084F83D002068826822F077021D
:101F600022F47F4282600868502830D00DDC20289F
:101F70004DD005DC98B310283BD148E0022070BD5D
:101F8000302844D0402834D139E0602828D0702847
:101F900006D0B0F5805F2CD0B0F5005F29D10AE003
:101FA000CB68D1E90121206801F013F9206881682C
:101FB00041F0770109E0CB68D1E90121206801F007
:101FC00008F92068816841F48041816011E0CA68A5
:101FD0004968206801F0B2F95021206807E016E056
:101FE000CA684968206801F0BAF96021206801F0E8
:101FF000FAF884F83D50002084F83C0070BDCA68AF
:102000004968206801F09AF940212068EFE72268CA
:1020100001461046EBE72DE9F0410D46040003D0E0
:1020200094F83D0018B108E00120BDE8F0810020DF
:1020300084F83C00204600F041F8022084F83D007E
:102040002068816844F2070291438160211D206865
:1020500001F07CF8226890689169166A2B68AF6974
:10206000034340F20330814341EA0721A868EF6946
:1020700008434FF6FC418843E96840EA07200143E2
:1020800028692F6A000140EA0730084369686D69D2
:1020900026F0220646EA05152943936022689061DE
:1020A00054F8460B0162012004F81F09E075207600
:1020B000E0762077A0750020B7E7000000B585B076
:1020C0000021009101910291039100680D4988421D
:1020D00016D10D48C16941F00401C161C16901F027
:1020E00004010491816941F00801816180696946B8
:1020F00000F008000490C02000900448FFF764F945
:1021000005B000BD0008004000100240000C014076
:1021100070B590F83E60044690F83F5090F8423019
:1021200090F84320022021B104290ED0012E1BD1AA
:1021300014E0012E18D1012B16D184F83E0084F84A
:10214000420001220021206820E0012D0CD1012A4B
:102150000AD184F83F0084F8430014E0012D03D134
:10216000012B01D1012A01D0012070BD84F83E006D
:1021700084F83F0084F8420084F8430001220021E3
:10218000206801F019F801220421206801F014F8F8
:102190002068016841F001010160002070BD7047B6
:1021A00070B50446006801694FF00005C94389070E
:1021B00015D4C168C943890711D4E91E0161012002
:1021C0002077206880698007204602D0FFF7E7FF6C
:1021D00004E000F0BFF8204600F04EF925772068B3
:1021E0000169C943490717D4C168C943490713D4D2
:1021F0006FF004010161022020772068806910F4EB
:10220000407F204602D0FFF7CAFF04E000F0A2F8AA
:10221000204600F031F9257720680169C943090794
:1022200016D4C168C943090712D46FF008010161CF
:10223000042020772068C0698007204602D0FFF77D
:10224000AEFF04E000F086F8204600F015F925778F
:1022500020680169C943C90617D4C168C943C906C2
:1022600013D46FF010010161082020772068C06945
:1022700010F4407F204602D0FFF791FF04E000F009
:1022800069F8204600F0F8F8257720680169C9430D
:10229000C90708D1C168C943C90704D1891E0161B2
:1022A000204600F039F920680169C943090609D4BC
:1022B000C168C943090605D46FF080010161204659
:1022C000FFF784FD20680169C943490609D4C16844
:1022D000C943490605D46FF040010161204600F072
:1022E000B1F920680169C94389060BD4C168C943A3
:1022F000890607D46FF0200101612046BDE87040D7
:10230000FFF765BD70BD000000B585B000210091EC
:1023100001910291039100680B49884211D10B4849
:10232000816941F0080181618069694600F0080017
:102330000490022000900190032003900448FFF7CE
:1023400043F805B000BD000000040040001002404A
:10235000000C0140704770B5044690F83C000D46F3
:1023600001280AD0012084F83C0042B1042A18D088
:10237000082A2AD00C2A4DD139E0022070BD2068ED
:1023800000F03AFF2068816941F00801816120680E
:10239000816921F004018161206881692A69114302
:1023A00011E0206800F050FF2068816941F400616D
:1023B00081612068816921F480618161206881697F
:1023C0002A6941EA0221816124E0206800F068FF67
:1023D0002068C16941F00801C1612068C16921F02C
:1023E0000401C1612068C1692A69114311E02068B4
:1023F00000F082FF2068C16941F40061C16120687A
:10240000C16921F48061C1612068C1692A6941EA1A
:102410000221C161002084F83C0070BD10B50400A9
:1024200003D094F83D0010B107E0012010BD00205A
:1024300084F83C00204600F01EF8022084F83D009D
:10244000211D206800F082FE012084F8460084F8F7
:102450003E0084F83F0084F8400084F8410084F88E
:10246000420084F8430084F8440084F8450084F86E
:102470003D00002010BD70477047000010B50446B5
:10248000022249B104290ED0082913D094F8410042
:10249000012816D0012010BD94F83E000128F9D182
:1024A00084F83E200FE094F83F000128F2D184F830
:1024B0003F2008E094F840000128EBD184F8402048
:1024C00001E084F841200122206800F075FE0F49E8
:1024D0002068884203D1426C42F400424264206882
:1024E000884208D0B0F1804F05D00949884202D017
:1024F0000849884204D1816801F00701062903D008
:10250000016841F001010160002010BD002C014074
:1025100000040040000800402DE9F0473F49884290
:1025200079D13F4908780025012808D13D48027833
:10253000521CD2B202700A2A01D105700D7004201B
:1025400000F08EFD384E0F2130600320FEF788FB2F
:10255000FDF7CDFFDFF8D490354FDFF8D8A0C9F8EC
:1025600000003878344C4FF0010810B1012838D001
:102570003BE0A078012801D1617819B16178012987
:1025800003D032E0FEF772F92FE0F8B9207930B9C4
:1025900084F80480042000F063FD28490860D9F81D
:1025A0000000FEF759FA60646079401CC0B26071A7
:1025B000042804D9306800F0DDFCA0646571DAF805
:1025C000000000F0F5FF10B187F800800DE001F089
:1025D00073F8D4E91101401A1949086000F058FD58
:1025E00003E0002000F054FD25713168206921616D
:1025F000081AE06401F028FA0F2801DD87F800804E
:10260000642000F0E3F8FEF73FFBCAF80000BDE8E5
:10261000F04700F097B8BDE8F0870000F800002010
:102620003500002034000020380000204400002045
:1026300000000020400000206C000020040000206A
:102640003C000020704770B5040004D094F83D00B1
:10265000002510B106E0012070BD84F83C502046F2
:1026600000F022F8242084F83D002068C16821F49D
:102670000051C160204600F0C1FF2068016921F4CB
:10268000904101612068416921F02A01416120687F
:10269000C16841F40051C1602564202084F83D00E8
:1026A00084F83E00002070BD30B585B00024009451
:1026B00001940294039400681449884224D1144878
:1026C000816941F480418161816901F48041049113
:1026D000816941F00401816180690E4D00F00400C0
:1026E00004904FF4007000900220019003200390AA
:1026F00069462846FEF768FE2815CDE900046946BC
:1027000028460294FEF760FE05B030BD0038014057
:102710000010024000080140FEE7000041060748A3
:10272000826942F0010282610548426822F0E0625B
:10273000426042680A434260704700000010024055
:10274000000001402DE9F0411A48002501270078DA
:10275000194C4FF4026601280BD11848184900683B
:1027600008441849884202D26770A57001E0A7703A
:102770006570642001F0B0F81349A062012812D0FE
:10278000022814D0E06A01280ED0022809D1086876
:10279000401E0860206B401C2063B04201D1E562FE
:1027A0002563BDE8F081E7620868401CF1E702207C
:1027B000E062ECE7000000206C00002044000020F4
:1027C000FF7FDDBAFF7F3E000400002010B5094AFC
:1027D000002360B108490C68641C0C60844205D178
:1027E000D2F89001C043C2F890010B6010BDC2F84E
:1027F000903110BD00002142580000200C480021FB
:1028000042891AB90B4BD3F81C310BB101810AE094
:1028100003895B1C9BB20381142B04D901224281E2
:10282000018110467047012A00D141810020704784
:102830005C000020000021423EB5002411480094B5
:10284000019402940E4984600160047304750125AB
:1028500005614FF460214460C161FEF725FB08B1BA
:10286000FEF7D1F90320CDE9000569460294054839
:10287000FEF798FA002801D0FEF7C5F93EBD00002A
:1028800000240140C80000202DE9F04385B0002558
:102890003D480095019502950395816941F020011D
:1028A0008161816901F020010491816941F0040195
:1028B0008161816901F004010491816941F008019D
:1028C00081618069DFF8C48000F008000490012273
:1028D00010214046FEF768FEDFF8B490002243F274
:1028E00038014846FEF760FE4FF4004700223946A3
:1028F0004046FEF759FE0420CDE900050124694653
:1029000002944046FEF760FD1020CDE90004032646
:10291000CDE9024669464046FEF756FD4FF4C550E4
:1029200000901C48CDE9010469464046FEF74CFD85
:1029300043F218008DE8710069464846FEF744FDF1
:1029400001AA009782E8700069464046FEF73CFD08
:1029500020208DE831000220039069464846FEF7AA
:1029600033FD022211461720FEF794FE1720FEF7D2
:1029700083FE022211462820FEF78CFE2820FEF757
:102980007BFE05B0BDE8F083001002400008014066
:10299000000C01400000211010B586B000241A4838
:1029A00000940194029403940494164905940160E0
:1029B00041F61F41C0E901143121C0E9031444610B
:1029C0008461FFF739FA08B1FEF71DF94FF4805022
:1029D000009069460C48FFF7B3FA08B1FEF713F907
:1029E000049404A908480594FFF7F2F908B1FEF72A
:1029F0000AF90548FFF720FA0348FFF775FA06B011
:102A000010BD0000002C0140F800002010B58EB071
:102A100000240794089409940A940B941C21684696
:102A20000C94FDF796FB20481E49C0E9001441F6BE
:102A30001F41C0E9024104618461FFF7FDF908B15B
:102A4000FEF7E1F84FF48050079007A91648FFF70A
:102A500077FA08B1FEF7D7F81348FFF7DFFC08B1A3
:102A6000FEF7D1F80B940BA90F480C94FFF7B0F9BF
:102A700008B1FEF7C8F86020CDE9000402940C22EA
:102A8000694609480494FFF766FC08B1FEF7BBF8F5
:102A90000C210548FFF7F2FC0348FFF735FC0EB0A8
:102AA00010BD0000000400404001002010B58CB0B3
:102AB00024216846FDF74DFB00241A480994184963
:102AC0000A94C0E900144FF6FF71C0E902410461A5
:102AD00084610320CDE900040120CDE902040A212C
:102AE0000491CDE90540CDE9074169460D48FFF75E
:102AF00092FA08B1FEF787F8099409A909480A94DF
:102B0000FFF766F908B1FEF77EF8054942F210704A
:102B1000243108603C210348FFF7FAFA0CB010BDDD
:102B200000080040880100200C4810B50A490160E7
:102B30004FF4FA314160002181600C22C160C0E98C
:102B400004128161C161FFF77EFD002803D0BDE85A
:102B50001040FEF758B810BD00380140D0010020E9
:102B6000FEE7FEE710B40021084B0A465FF00000C4
:102B700003EBC004401CC0B262548028F8D3491C47
:102B8000C9B20829F2D310BC00F096B81402002094
:102B900010B57F2816D83F2914D80723A3EBD103FB
:102BA00001F00701C1F107040121A140064CDBB28D
:102BB00004EBC000002AC25CC9B201D00A4300E0A5
:102BC0008A43C25410BD00001402002010B5394CD5
:102BD0000020C4F88C01642004F5C674FEF722FBC3
:102BE000012020600021AE2000F09EF90021D520B8
:102BF00000F09AF90021502000F096F90021A82059
:102C000000F092F900213F2000F08EF90021D3203E
:102C100000F08AF90021084600F086F900214020E2
:102C200000F082F900218D2000F07EF900211420AF
:102C300000F07AF90021202000F076F9002102202E
:102C400000F072F90021A12000F06EF90021C020EF
:102C500000F06AF90021DA2000F066F90021122064
:102C600000F062F90021812000F05EF90021EF20E0
:102C700000F05AF90021D92000F056F90021F12086
:102C800000F052F90021DB2000F04EF90021302045
:102C900000F04AF90021A42000F046F90021A62006
:102CA00000F042F90021AF2000F03EF9BDE81040ED
:102CB000FFF758BF0080214270B5114E002400BFBD
:102CC00004F1B000C0B2002100F02EF90021084646
:102CD00000F02AF90021102000F026F95FF000052D
:102CE00006EBC5000121005D00F01EF96D1CEDB280
:102CF000802DF5D3641CE4B2082CE1D370BD000034
:102D0000140200202DE9FF4F203A1F460C46894649
:102D100002F0FF0A0025DDF834B032E00C2F09D0B4
:102D20001A4901EB0A104FF00008465D300607D53E
:102D30005A4609E016490AEB4A0001EB8000F2E727
:102D4000BBF1000F12D0002221460098FFF720FFB0
:102D50007006641C060EE4B2A4EB0900B84207D169
:102D600000984C46401CC0B2009008E00122EBE7FE
:102D700008F1010000F0FF08B8F1080FD6D36D1C70
:102D8000EDB2BD42CAD3BDE8FF8F0000284B00085A
:102D9000B44600082DE9F04F824618489B460C4681
:102DA0008846002500EBC219002619F82570380660
:102DB00001D55A4603E0BBF1000F16D00022214690
:102DC0005046FFF7E5FE7806641C070EE4B2A4EB5C
:102DD000080010280BD0761CF6B2082EE7D36D1C25
:102DE000EDB2202DE0D3BDE8F08F0122E7E70AF134
:102DF0000100444600F0FF0AF1E700001851000806
:102E00002DE9F04F0C46884682461849C2EBC200B5
:102E10009B46002501EB0019002619F8257038069D
:102E200001D55A4603E0BBF1000F16D0002221461F
:102E30005046FFF7ADFE7806641C070EE4B2A4EB23
:102E4000080010280BD0761CF6B2082EE7D36D1CB4
:102E5000EDB21C2DE0D3BDE8F08F0122E7E70AF1C7
:102E60000100444600F0FF0AF1E7000098A70008BF
:102E70002DE9FF4F81B00026DDF838A01D469346AE
:102E8000814634464FF001084FEA5A0727E0281BD5
:102E9000401EC1B20A2000F0DBFDBBFBF0F00A21AE
:102EA000B0FBF1F201FB120026B9691E8C4201DA77
:102EB00048B101263030C2B207FB0490C0B253467D
:102EC000CDF8008006E007FB0490C0B253462022F4
:102ED000CDF800800299FFF715FF641CE4B2AC4204
:102EE000D5D305B0BDE8F08FF8B516460D460446BB
:102EF000012714E07A2C02D900241035EDB23A2DC6
:102F000003D900242546FFF72DFE009732780C23C5
:102F100029462046FFF7F6FE0834E4B2761C3078E6
:102F20000028E7D1F8BD000070B50F4C0025012244
:102F300011B1C4F8BC2101E0C4F8BC510B4B002115
:102F4000C3F89451060602D5C3F8902101E0C3F8F6
:102F50009051C3F894214006491C000EC9B20829BB
:102F6000EED3C4F8BC2170BD000021420080214294
:102F7000704700002DE9F0411E490968401AFDF72D
:102F8000ADFA1D4C0546E069FDF70FFB1B4F1C4BCE
:102F90003A46FDF71AFAFDF71BFB06462846FDF7F1
:102FA00004FB3A46174BFDF710FA07460D4630462C
:102FB000FDF7FBFA3A462B46FDF760F9FDF708FBF3
:102FC000E0610546616DFDF721F902460E48656531
:102FD00001681046FDF720F904460C4801682846B0
:102FE000FDF71AF92146FDF7BFF8BDE8F041FDF7FE
:102FF00090BA0000040000206C0000209A99999972
:103000009999E93F9999C93F1400002010000020C8
:1030100070B5401AFDF762FA0E4C05460146E06BAA
:10302000FDF7A2F8E0632846216CFDF7EFF80A49A6
:103030000968FDF7F1F80646084829460068FDF7DB
:10304000EBF83146FDF790F82564BDE87040FDF7D8
:1030500060BA00006C0000201C0000201800002056
:10306000022805D0032807D0042807D00020704785
:103070004FF08040406A03E0024800E002480068E8
:1030800000B270472404004024080040704700004C
:1030900000B5002201230849002804DAC1F8B03144
:1030A000C1F8B42103E0C1F8B021C1F8B43100F097
:1030B000CBFC0249086000BD008021424004004072
:1030C000FEF77EBA30B593B028216846FDF741F887
:1030D00014210AA8FDF73DF8002501200F95109551
:1030E0001195010412958DE8230004904FF4E0102F
:1030F000CDE90810022407946846FEF7C3FC08B126
:1031000072B6FEE70AA90F2081E831004FF4806013
:10311000CDE90D0502210AA8FEF7C8FB08B172B679
:10312000FEE74FF4004011900F940FA8FEF748FB04
:10313000002801D072B6FEE713B030BD7047000022
:103140000148FFF72DB80000F8000020F0B5026834
:10315000164B174C174D4FF08047984205D0B84298
:1031600003D0A04201D0A84203D122F070064A68E1
:103170003243984205D0B84203D0A04201D0A842C1
:1031800003D122F44074CA6822434C6922F08002C1
:10319000224302608A68C2620A688262984201D150
:1031A0000969016301214161F0BD0000002C01406B
:1031B000000400400008004010B501F01F03012189
:1031C000046A99408C430462016A9A401143016287
:1031D00010BD10B5846842EA032224F47F440A43F8
:1031E0002243826010BD826822F070020A4342F0DE
:1031F000070181607047000030B5026A22F00102C9
:103200000262026A4368846924F073050C682C43E7
:1032100022F002058A682A430A4DA8420BD122F007
:103220000805CA6823F440732A434D6922F004025A
:103230001D438B692B43436084614968416302628B
:1032400030BD0000002C014030B5026A22F01002AF
:103250000262026A436884690D6824F4E64444EA21
:1032600005248D6822F0200242EA05120B4DA84287
:103270000ED1CD6822F0800242EA05124D6923F496
:10328000406343EA85038D6922F0400243EA8503E7
:103290004360846149688163026230BD002C014053
:1032A00030B5026A22F480720262036A4268C4691D
:1032B00023F4007324F073050C682C438D6843EAF3
:1032C00005230C4DA8420ED1CD6823F4006343EAD8
:1032D00005234D6922F4405242EA05128D6923F418
:1032E000806342EA05124260C4614968C1630362B7
:1032F00030BD0000002C014030B5026A22F480523B
:103300000262046A4268C3690D6823F4E64343EA33
:1033100005238D6824F4005444EA0534064DA84280
:1033200004D14D6922F4804242EA85124260C361B1
:1033300049680164046230BD002C014010B5036A85
:10334000046A24F001040462846924F0F00444EA6D
:10335000021423F00A020A438461026210BD10B510
:10336000036A23F0100303628369046A23F4704341
:1033700043EA023224F0A00343EA011182610162B0
:1033800010BD00002DE9F84FDFF804B2DFF8049219
:10339000DFF804A2814C4FF00008814D2878012805
:1033A0003DD000F05DFB00BFFFF728FA012858D0A0
:1033B00099F80000012877D1464689F80080FFF788
:1033C000D1FB0120287077480660DBF8001021F05F
:1033D0002001CBF80010DBF8001021F08001CBF8C1
:1033E0000010DBF8001021F40061CBF80010DBF8CE
:1033F000001021F48051CBF800106B48016801F0F7
:10340000FE01016000F03CFA054600F003FD1E20BD
:10341000FDF708FF052D28D00C2DF3D1BDE785F869
:103420000080DBF8001041F02001CBF80010DBF841
:10343000001041F08001CBF80010DBF8001041F4DF
:103440000061CBF80010DBF8001041F48051CBF89C
:1034500000105548016841F001010160FFF782FB4F
:10346000A2E7012089F80000A6E7FFF77BFB1E20FA
:10347000FDF7D8FE00F004FA054600F08AFD0B2D9A
:1034800004D00C2DF3D1FFF76DFBBBE7FFF76AFB10
:1034900000F062FE1E20FDF7C5FE00F0F1F90B28DA
:1034A00003D00C28F4D1E0E770E0FFF75BFB00BF2E
:1034B00000F017FF1E20FDF7B5FE00F0E1F90B2824
:1034C00002D00C28F4D1E1E7FFF74CFB55460F2161
:1034D0000320FDF7C5FBFDF70AF8286000F0CAFFDE
:1034E0003220FDF79FFE00F0CBF90C28DDD0052837
:1034F000EDD1FFF737FB0A2684F8008010270F2153
:103500000320FDF7ADFBFCF7F2FF286002233246F3
:10351000102158200097FFF7ABFC00F0FDF8607811
:10352000401C60701E20FDF77DFE6078C82820D802
:103530001E4A29681144B1F5882F10D82178491CFA
:10354000C9B2217096290AD9FFF70CFB4546657070
:1035500001F04AF800F094F90528F8D11DE714218C
:10356000B0FBF1F201FB12000128C8D1761EF6B2C1
:10357000C5E784F80180FFF7F5FA00F0F5F94FF49C
:10358000FA60FDF74FFEFFF7EDFAA0E7BDE8F88F10
:10359000000401400100002044000020C60000207B
:1035A00002000020400400400C2C0140008083BB3E
:1035B0000D4A117801290BD00C490D4B096899422D
:1035C00006DB0C4B994203DC40F25641884208DA94
:1035D00001201070084A0021C2F8B411C2F8B011DD
:1035E00070470020704700000000002044000020C9
:1035F00000C00F4500C073450080214270B50446ED
:1036000000680169E26821F44051114301612169B8
:10361000A0680843616908432168CA6841F20C63E5
:103620009A430243CA6020684169A26921F440714B
:10363000114341611E492068884202D1FEF7DCF93E
:1036400001E0FEF7C9F900EBC00101EB0012606870
:1036500064218000B2FBF0F3B3FBF1F36FF01806C6
:103660007343B2FBF0F5B2FBF0F605EB83053223B2
:1036700003EB0515B5FBF1F5B6FBF1F605F0F0052A
:1036800005EB0615B2FBF0F6B2FBF0F0B0FBF1F083
:103690006FF01802504306EB800003EB0010B0FB04
:1036A000F1F0216800F00F002844886070BD000030
:1036B00000380140FEE70000064941F6F42043428D
:1036C0000A689A4201DA0B6070478242FCDD0860AA
:1036D000704700003C0000200907090E002804DBA9
:1036E00000F1E02080F80014704700F00F0000F1B6
:1036F000E02080F8141D704702E008C8121F08C1BE
:10370000002AFAD170477047002001E001C1121F62
:10371000002AFBD17047000038B501233822002170
:103720001520FFF76DFB0123392200212320FFF72D
:1037300067FB01233A2200213120FFF761FB0123BF
:103740003B2200213F20FFF75BFB01233C220021AD
:103750004D20FFF755FB01233D2200215B20FFF7A1
:103760004FFB01233E2200216920FFF749FB012383
:103770003F2210210020FFF743FB012340221021AC
:103780000E20FFF73DFB0123412210211C20FFF7F3
:1037900037FB01231C2210212E20FFF731FB0123D0
:1037A0001C2210213520FFF72BFB01231C221021A6
:1037B0003C20FFF725FB01231C2210214320FFF7AB
:1037C0001FFB01231C2210214A20FFF719FB0123B4
:1037D0001C2210215120FFF713FB01230C22202172
:1037E0000E20FFF70DFB01232B2220211C20FFF7C9
:1037F00007FB01232C2220212A20FFF701FB0123B4
:10380000242220213820FFF7FBFA01232522202142
:103810004620FFF7F5FA01232D2220215420FFF73F
:10382000EFFA01232E2220216220FFF7E9FA01247A
:1038300010234122302118200094FFF763FA10234F
:103840004422302120200094FFF75CFA1023432209
:10385000302128200094FFF755FA08480068FCF74B
:1038600071FE024610200090042330214E20FFF705
:10387000FFFABDE83840FFF71FBA000044000020FF
:10388000134810B5C17849B1124CD4F8141149B19C
:10389000D4F82C1131B1D4F8301119B10121C17013
:1038A000002010BD0021C1703220FDF7BBFCD4F810
:1038B000140140B1D4F82C0138B1D4F830010028FB
:1038C000EED10C2010BD052010BD0B2010BD000056
:1038D0005C0000200000214230B5214BD3F80841A4
:1038E0002049002244B1CA80D3F808510C782543FE
:1038F0004FF0010404D004E0CC88641CCC80F3E7D2
:103900000C704D784DB90D78012D03D18D786D1C5B
:103910008D704C708C78022C04D0D3F80831012BB8
:1039200004D005E08A708A80022030BD0A704A7097
:103930008B78012B11D18B885B1C9BB28B808342CF
:1039400006D9CB88834203D28A708A80012030BD99
:10395000CB88834201D98A708A80002030BD000064
:10396000000021425C00002010B501233822102104
:103970001820FFF70FFA01235E2210212820FFF7FD
:1039800009FA0123642210213820FFF703FA0123EA
:10399000652210214820FFF7FDF90123662210213E
:1039A0005820FFF7F7F90123002220211820FFF704
:1039B000F1F90123672220212820FFF7EBF90123E9
:1039C000682220213820FFF7E5F901230522202174
:1039D0004820FFF7DFF90123062220215820FFF7B6
:1039E000D9F9BDE81040FFF767B90000FDF7F0FD19
:1039F000FFF768FB0220FEF791FE0120FEF78EFE26
:103A00004FF47A742046FDF70DFC2046FDF70AFCC2
:103A1000FEF73AFFFEF7FAFFFFF748F8FFF784F8E2
:103A2000FEF70AFFFEF7B8FFFFF7D0F80125054CB7
:103A3000FDF738F8FFF7A6FC257020780028FCD1A8
:103A4000F6E7000035000020002800DA4042704709
:103A50000246012000E05043491EC9B2FBD2704724
:103A6000F8B50021CBA20846FFF73EFACB4D2868F7
:103A7000FCF768FD02460C24032300212820009453
:103A8000FFF7F6F9C6A200213920FFF72DFAC54F3E
:103A900028683946FCF7C0FBFCF73BFD0A2590FB84
:103AA000F5F105FB1102012300213D200094FFF7F1
:103AB000DFF9BDA200215F20FFF716FABB480068BE
:103AC000FCF740FD0246022300216C200094FFF722
:103AD000CFF9B7A20A210020FFF706FAB64E3068E8
:103AE000FCF730FD024603230A2128200094FFF74B
:103AF000BFF9ABA20A213920FFF7F6F93946306841
:103B0000FCF78AFBFCF705FD90FBF5F105FB1102C4
:103B100001230A213D200094FFF7AAF9A2A20A215D
:103B20005F20FFF7E1F9A5480068FCF70BFD0246AE
:103B300002230A216C200094FFF79AF9A0A2142115
:103B40000020FFF7D1F9A04E3068FCF7FBFC0246DD
:103B50000323142128200094FFF78AF990A214214E
:103B60003920FFF7C1F939463068FCF755FBFCF7FF
:103B7000D0FC90FBF5F105FB1102012314213D203F
:103B80000094FFF775F988A214215F20FFF7ACF9C4
:103B90008E480068FCF7D6FC0246022314216C20F4
:103BA0000094FFF765F98AA21E210020FFF79CF917
:103BB000894E3068FCF7C6FC024603231E212820EC
:103BC0000094FFF755F976A21E213920FFF78CF9F2
:103BD00039463068FCF720FBFCF79BFC90FBF5F1C5
:103BE00005FB110201231E213D200094FFF740F93F
:103BF0006DA21E215F20FFF777F978480068FCF777
:103C0000A1FC024602231E216C200094FFF730F92C
:103C1000734801250068B0F17E5F17D0B0F1804F86
:103C20001FD07049884235D10C234E2200214B20F1
:103C30000095FFF767F80C234E220A214B200095D0
:103C4000FFF760F80C23592200951BE00C23592242
:103C500000214B200095FFF755F80C234E220095CC
:103C600009E00C234E2200214B200095FFF74AF873
:103C70000C23592200950A214B20FFF743F80C230F
:103C80004E22009514214B20FFF73CF80C234E22C6
:103C900000951AE0B0F1814F1BD10C234E22002178
:103CA0004B200095FFF72EF80C234E220A214B20C3
:103CB0000095FFF727F80C234E2214214B20009586
:103CC000FFF720F80C23592200951E214B20FFF707
:103CD00019F845A228215020FFF706F9434800941F
:103CE0000523026828215F20FFF7C2F840A228219F
:103CF0000020FFF7F9F82AA228212920FFF7F4F87D
:103D00003DA228213F20FFF7EFF83C4D6426022317
:103D10002868282190FBF6F21C200094FFF7A8F8F1
:103D20002868022390FBF6F106FB110228213320BC
:103D30000094FFF79DF8286890FBF6F106FB110050
:103D40000A2806DA0223002228212D200094FFF7FA
:103D50008FF82BA232215020FFF7C6F82948009493
:103D60000523026832215F20FFF782F826A2322164
:103D70000020FFF7B9F826480068FCF7E3FB02468D
:103D8000042332211E200094FFF772F8BDE8F840AA
:103D9000FEF792BF422D4B500000000008000020AB
:103DA0002E00000000002041413A000024000020C5
:103DB000422D4B44000000000C0000202800002091
:103DC000502D4B5000000000100000202C0000205F
:103DD000502D4B4400000000140000203000002053
:103DE0002000002000004040543A00000400002061
:103DF000564F4C3A000000005600000040000020E2
:103E0000503A0000380000204144433A00000000CE
:103E10004400002010B50022012311461C20FEF7AB
:103E2000EFFF01231A4600212A20FEF7E9FF0123B4
:103E3000022200213820FEF7E3FF012303220021A4
:103E40004620FEF7DDFF0123042200215420FEF767
:103E5000D7FF0123052200216220FEF7D1FF0123B5
:103E6000062200217020FEF7CBFF0123072210213C
:103E70000020FEF7C5FF0123082210210E20FEF7C7
:103E8000BFFF0123092210211C20FEF7B9FF0123E7
:103E90000A2210212A20FEF7B3FF01230B22102152
:103EA0003820FEF7ADFF01230C2210214620FEF73B
:103EB000A7FF01230D2210215420FEF7A1FF0123AB
:103EC0000E2210216220FEF79BFF01230F221021FA
:103ED0007020FEF795FF0123102220210020FEF71D
:103EE0008FFF0123112220210E20FEF789FF0123DD
:103EF000122220211C20FEF783FF01231322202100
:103F00002A20FEF77DFF0123142220213820FEF70E
:103F100077FF0123152220214620FEF771FF0123A0
:103F2000162220215420FEF76BFF012317222021A7
:103F30006220FEF765FF0123182220217020FEF782
:103F40005FFF0123192230210020FEF759FF0123D2
:103F50001A2230210E20FEF753FF01231B223021AD
:103F60001C20FEF74DFF01231C2230212A20FEF7E2
:103F700047FF01231C2230212E20FEF741FF0123A1
:103F80001C2230213220FEF73BFFBDE81040FEF737
:103F900093BE10B5002101230C220846FEF730FF26
:103FA00001231D2200210E20FEF72AFF01231E22DD
:103FB00000211C20FEF724FF01231F2200212A20BC
:103FC000FEF71EFF0123202200213820FEF718FFF4
:103FD0000123212200214620FEF712FF0123222285
:103FE00000215420FEF70CFF01230B220021622048
:103FF000FEF706FF0123232200217020FEF700FFB9
:104000000123242210210020FEF7FAFE012325229D
:1040100010210E20FEF7F4FE0123262210211C2081
:10402000FEF7EEFE0123272210212A20FEF7E8FEEC
:104030000123282210213820FEF7E2FE0123292245
:1040400010214620FEF7DCFE01232A2210215420F5
:10405000FEF7D6FE01232B2210216220FEF7D0FEB0
:1040600001232C2210217020FEF7CAFE01232D22ED
:1040700020210020FEF7C4FE01232E2220210E2045
:10408000FEF7BEFE0123132220211C20FEF7B8FEFE
:1040900001232F2220212A20FEF7B2FE0123302205
:1040A00020213820FEF7ACFE0123312220214620BA
:1040B000FEF7A6FE0123322220215420FEF7A0FEA7
:1040C0000123332220216220FEF79AFE01231822C9
:1040D00020217020FEF794FE0123292230210020A8
:1040E000FEF78EFE0123342230210E20FEF788FEDB
:1040F0000123352230211C20FEF782FE01231822E5
:1041000030212A20FEF77CFE01231922302138209D
:10411000FEF776FE0123362230214620FEF770FEA0
:104120000123372230215420FEF76AFE01231C228E
:1041300030216220FEF764FE01231C22302166201C
:10414000FEF75EFE01231C2230216A20FEF758FE96
:10415000BDE81040FEF7B0BD10B5002101233C22A0
:104160000846FEF717FE01233D2200211020FEF72E
:1041700011FE01233E2200212020FEF70BFE012329
:10418000072200213020FEF705FE0123082200212E
:104190004020FEF7FFFD01233F2200215020FEF7C3
:1041A000F9FD0123402200216020FEF7F3FD0123E9
:1041B000412200217020FEF7EDFD01234222102153
:1041C0000020FEF7E7FD1021012343220846FEF7F9
:1041D000E1FD0123442210212020FEF7DBFD012315
:1041E000452210213020FEF7D5FD01234622102163
:1041F0004020FEF7CFFD0123472210215020FEF77B
:10420000C9FD0123482210216020FEF7C3FD0123D0
:10421000492210217020FEF7BDFD01234A222021F2
:104220000020FEF7B7FD01234B2220211020FEF7CE
:10423000B1FD2021012313220846FEF7ABFD012327
:104240004C2220213020FEF7A5FD01231122202140
:104250004020FEF79FFD01234D2220215020FEF734
:1042600099FD0123302220216020FEF793FD0123D8
:10427000052220217020FEF78DFD0123062230212A
:104280000020FEF787FD0123072230211020FEF7D2
:1042900081FD0123082230212020FEF77BFD302103
:1042A00001231B220846FEF775FD01231C22302145
:1042B0004020FEF76FFD01231D2230215020FEF724
:1042C00069FD0123112230216020FEF763FD0123E7
:1042D000292230217020FEF75DFDBDE81040FEF779
:1042E000EBBC38B5002101234E220846FEF752FDF3
:1042F0000123072200211020FEF74CFD0123082294
:1043000000212020FEF746FD01232A220021302033
:10431000FEF740FD01232B2200214020FEF73AFD4D
:1043200001232C2200215020FEF734FD01232D22F1
:1043300000216020FEF72EFD01234F220021702076
:10434000FEF728FD01241023412219460020009485
:10435000FEF7D8FC10234422194608200094FEF7EB
:10436000D1FC10234322194618460094FEF7CAFCDC
:104370000123472210211820FEF70CFD01231F22E4
:1043800010212820FEF706FD01235022102138209D
:10439000FEF700FD1024042340F2F23221464820AB
:1043A0000094FEF765FD0123212210216820FEF70D
:1043B000F1FC042340F20642202100200094FEF785
:1043C00057FD2021012322220846FEF7E3FC0123AA
:1043D000232220213020FEF7DDFC012311222021A1
:1043E0004020FEF7D7FC01234D2220215020FEF76C
:1043F000D1FC0123302220216020FEF7CBFC0123D9
:10440000132220217020FEF7C5FC01235122302108
:104410000020FEF7BFFC01233D2230211020FEF7D3
:10442000B9FC01233E2230212020FEF7B3FC3021CD
:10443000012307220846FEF7ADFC012308223021A4
:104440004020FEF7A7FC01233F2230215020FEF739
:10445000A1FC0123402230216020FEF79BFC0123B8
:10446000412230217020FEF795FCBDE83840FEF770
:1044700023BC000038B50021012342220846FEF784
:1044800089FC0123432200211020FEF783FC012335
:10449000442200212020FEF77DFC0123452200213B
:1044A0003020FEF777FC0123462200214020FEF752
:1044B00071FC0123472200215020FEF76BFC0123F1
:1044C000482200216020FEF765FC012349220021DB
:1044D0007020FEF75FFC01234A2210210020FEF726
:1044E00059FC102101234B220846FEF753FC0123FF
:1044F000122210212020FEF74DFC0123052210215D
:104500003020FEF747FC0123062210214020FEF751
:1045100041FC01232E2210215020FEF73BFC0123F9
:104520002F2210216020FEF735FC012330221021BC
:104530007020FEF72FFC0123092220210020FEF726
:1045400029FC01230A2220211020FEF723FC202130
:1045500001230B220846FEF71DFC01230C2220211B
:104560003020FEF717FC01230D2220214020FEF70A
:1045700011FC01230E2220215020FEF70BFC012309
:10458000382220216020FEF705FC01235E22202135
:104590007020FEF7FFFB0124102341223021182058
:1045A0000094FEF7AFFB102344223021202000941A
:1045B000FEF7A8FB10234322302128200094FEF7A9
:1045C000A1FB08480068FBF7BDFF024610200090E1
:1045D000042330214E20FEF74BFCBDE83840FEF7A7
:1045E0006BBB00004400002010B50123052204210C
:1045F0002020FEF7CFFB0123062204213020FEF706
:10460000C9FB01232F2204214020FEF7C3FB012315
:10461000572204215020FEF7BDFB18210123092257
:104620000846FEF7B7FB01230A2218212820FEF7CF
:10463000B1FB01230B2218213820FEF7ABFB01232D
:104640000C2218214820FEF7A5FB01230D2218217A
:104650005820FEF79FFB01230E2218216820FEF749
:1046600099FB012358222C210020FEF793FB012304
:1046700059222C211020FEF78DFB01235A222C21D8
:104680002020FEF787FB01235B222C213020FEF740
:1046900081FBBDE81040FEF70FBB000000000000EA
:1046A00000000102030406070809000000000102DF
:1046B00003040000000000000000000000000000F3
:1046C000000000003F40000000000000000030003B
:1046D000400030004000000009000BC03D000BC04E
:1046E0003D00090018C024407FE0224031800000D6
:1046F000180024C01B000D803240018003801C4044
:1047000027401C80074000401000600000000000AF
:10471000000000000000000000001F80204040203A
:104720000000402020401F8000000000090006001B
:104730001F80060009000000040004003F80040000
:1047400004000000001000600000000000000000F5
:104750000400040004000400040000000000004005
:104760000000000000000000002001C0060038002A
:10477000400000001F802040204020401F8000009B
:10478000000010403FC000400000000018C0214061
:104790002240244018400000108020402440244043
:1047A0001B80000002000D0011003FC0014000000E
:1047B0003C80244024402440238000001F8024406B
:1047C00024403440038000003000200027C038001F
:1047D000200000001B802440244024401B80000057
:1047E0001C0022C0224022401F8000000000000068
:1047F000084000000000000000000000046000000D
:1048000000000000000004000A0011002080404069
:1048100009000900090009000900000000004040EB
:10482000208011000A00040018002000234024000A
:10483000180000001F802040274029401F40000032
:10484000004007C039000F0001C0004020403FC0B9
:10485000244024401B8000001F8020402040204036
:104860003080000020403FC0204020401F800000DA
:1048700020403FC024402E4030C0000020403FC0B8
:1048800024402E00300000000F0010802040224005
:104890003380020020403FC0040004003FC020409D
:1048A000204020403FC020402040000000602020E9
:1048B00020203FC02000200020403FC024400B00AB
:1048C00030C0204020403FC020400040004000C099
:1048D0003FC03C0003C03C003FC0000020403FC040
:1048E0000C4023003FC020001F802040204020407B
:1048F0001F80000020403FC024402400180000001A
:104900001F802140214020E01FA0000020403FC028
:104910002440260019C0004018C0244024402240F2
:1049200031800000300020403FC0204030000000B7
:1049300020003F80004000403F80200020003E00DB
:1049400001C0070038002000380007C03C0007C045
:1049500038000000204039C0060039C02040000067
:104960002000384007C0384020000000304021C0FF
:104970002640384020C00000000000007FE04020BA
:1049800040200000000070000C0003800040000088
:104990000000402040207FE00000000000002000D8
:1049A0004000200000000000001000100010001067
:1049B0000010001000000000400000000000000097
:1049C000000002800540054003C0004020003FC0B9
:1049D00004400440038000000000038004400440C1
:1049E0000640000000000380044024403FC0004017
:1049F0000000038005400540034000000000044023
:104A00001FC0244024402000000002E00550055053
:104A10000650042020403FC00440040003C0004072
:104A20000000044027C000400000000000100010FB
:104A3000041027E00000000020403FC001400700B4
:104A400004C00440204020403FC00040004000001F
:104A500007C0040007C0040003C00000044007C0F2
:104A60000440040003C000400000038004400440F0
:104A700003800000041007F004500440038000008D
:104A8000000003800440045007F00010044007C0F9
:104A900002400400040000000000064005400540FC
:104AA00004C00000000004001F800440004000001B
:104AB000040007800040044007C0004004000700D5
:104AC00004C0018006000400060001C0070001C008
:104AD00006000000044006C0010006C004400000BB
:104AE0000410071004E001800600040000000440E8
:104AF00005C00640044000000000000004007BE008
:104B000040200000000000000000FFF00000000056
:104B1000000040207BE00400000000004000800016
:104B200040002000200040000000000000000000C5
:104B300000000000000000000000000000001FCC8A
:104B4000000C0000000000000000080030006000C1
:104B50000800300060000000022003FC1E2002203C
:104B600003FC1E200220000000000E1811043FFF6D
:104B700010840C78000000000F0010840F3800C073
:104B8000077818840078000000780F8410C411247E
:104B90000E9800E40084000808006800700000001F
:104BA000000000000000000000000000000007E01E
:104BB00018182004400200000000400220041818C9
:104BC00007E00000000000000240024001800FF0FA
:104BD00001800240024000000080008000800FF849
:104BE00000800080008000000001000D000E000029
:104BF0000000000000000000000000800080008035
:104C000000800080008000800000000C000C00008C
:104C10000000000000000000000000060018006016
:104C20000180060018002000000007F008081004AA
:104C30001004080807F000000000080408041FFC26
:104C4000000400040000000000000E0C10141024EA
:104C5000104411840E0C000000000C181004110404
:104C6000110412880C700000000000E003200424EE
:104C700008241FFC0024000000001F981084110469
:104C80001104108810700000000007F0088811045B
:104C9000110418880070000000001C00100010FCB7
:104CA00013001C001000000000000E381144108496
:104CB000108411440E38000000000700088C1044D6
:104CC0001044088807F00000000000000000030CFA
:104CD000030C0000000000000000000000010106BD
:104CE00000000000000000000000008001400220E1
:104CF00004100808100400000220022002200220F4
:104D00000220022002200000000010040808041005
:104D1000022001400080000000000E001200100C74
:104D2000106C10800F00000003E00C1813E4142432
:104D300017C4082807D000000004003C03C41C402E
:104D4000074000E4001C000410041FFC11041104BF
:104D500011040E880070000003E00C181004100409
:104D6000100410081C10000010041FFC1004100494
:104D70001004080807F0000010041FFC11041104BF
:104D800017C410040818000010041FFC11041100BF
:104D900017C010000800000003E00C1810041004F5
:104DA00010441C780040000010041FFC1084008098
:104DB000008010841FFC10040000100410041FFC6D
:104DC0001004100400000000000300011001100195
:104DD0001FFE10001000000010041FFC11040380CF
:104DE0001464181C1004000010041FFC10040004BC
:104DF00000040004000C000010041FFC1F0000FC55
:104E00001F001FFC1004000010041FFC0C04030012
:104E100000E010181FFC100007F008081004100430
:104E20001004080807F0000010041FFC1084108014
:104E3000108010800F00000007F0081810241024C4
:104E4000101C080A07F2000010041FFC11041100D6
:104E500011C011300E0C000400000E1C110410844F
:104E6000108410441C3800001800100010041FFCAF
:104E7000100410001800000010001FF810040004B7
:104E8000000410041FF8100010001E0011E0001CA8
:104E9000007013801C0010001FC0103C00E01F00B9
:104EA00000E0103C1FC000001004180C163401C0B4
:104EB00001C01634180C100410001C00130400FC70
:104EC00013041C00100000000804101C106410845F
:104ED00013041C04101800000000000000007FFEF6
:104EE0004002400240020000000030000C0003803D
:104EF0000060001C0003000000004002400240026D
:104F00007FFE0000000000000000000020004000C4
:104F100040004000200000000001000100010001ED
:104F200000010001000100010000400040002000DD
:104F3000000000000000000000000098012401446F
:104F40000144014400FC000410001FFC008801041F
:104F50000104008800700000000000700088010457
:104F600001040104008800000000007000880104B2
:104F7000010411081FFC0004000000F80144014472
:104F80000144014400C800000000010401040FFCBA
:104F90001104110411001800000000D60129012994
:104FA000012901C90106000010041FFC0084010052
:104FB0000100010400FC000400000104190419FCB4
:104FC00000040004000000000000000300010101D3
:104FD000190119FE0000000010041FFC002400400D
:104FE00001B4010C010400000000100410041FFCB7
:104FF0000004000400000000010401FC01040100A1
:1050000001FC0104010000FC010401FC008401001A
:105010000100010400FC0004000000F80104010488
:105020000104010400F80000010101FF00850104F2
:105030000104008800700000000000700088010476
:105040000104010501FF00010104010401FC0084C9
:105050000104010001800000000000CC01240124B3
:10506000012401240198000000000100010007F85C
:105070000104010400000000010001F80004000424
:105080000004010801FC0004010001800170000C13
:10509000001001600180010001F0010C003001C02E
:1050A0000030010C01F0010000000104018C0074CB
:1050B0000170018C01040000010101810171000EE9
:1050C000001801600180010000000184010C01341E
:1050D00001440184010C00000000000000000000F9
:1050E00001003EFC40024002000000000000000001
:1050F000FFFF0000000000000000400240023EFCF4
:10510000010000000000000000006000800080003E
:1051100040004000200020000200000000000000CD
:10512000420000000000000033000000FE0000000C
:105130000000000004000000000000000800000063
:1051400022000000000000002A000000FF00000014
:105150002A000000A80000002A000000A8000000AB
:10516000FE000000A80000002A000000AA000000C5
:105170002A000000A90000002A000000FE00000034
:1051800022000000000000000200000000000000FB
:1051900000000000000000000800000020000000E7
:1051A00008000000C00000000B000000000000002C
:1051B000FF000000FF0000000900000000000000E8
:1051C00000000000800000007F000000FF000000E1
:1051D0004900000002000000490000000400000037
:1051E00049000000C000000049000000300000003D
:1051F00049000000280000007F000000440000007B
:10520000000000008200000000000000020000001A
:105210000000000000000000080000004200000044
:105220000800000041000000FF000000FE00000038
:1052300008000000800000000900000001000000DC
:1052400000000000060000007F000000F8000000E1
:105250004900000000000000490000003F0000007D
:1052600049000000220000004F000000E2000000A2
:105270004900000022000000490000002200000058
:10528000790000003F000000010000000000000065
:1052900000000000000000000800000020000000E6
:1052A000080000002200000008000000410000008B
:1052B000FF000000FE000000080000008000000069
:1052C0000900000001000000000000004200000092
:1052D0007F0000005C000000490000004200000068
:1052E0004900000041000000490000007F0000006C
:1052F000490000004900000049000000490000008A
:105300007F00000049000000000000004100000094
:105310000000000000000000020000000400000087
:105320000200000008000000420000001000000021
:105330004200000060000000420000000000000089
:1053400042000000020000004200000001000000D6
:1053500043000000FE0000004200000000000000CA
:1053600042000000000000004200000000000000B9
:105370004200000040000000420000002000000049
:105380000200000010000000020000000C000000FD
:10539000000000000000000002000000000000000B
:1053A000420000000000000033000000FC0000008C
:1053B00000000000080000000000000011000000D4
:1053C0007F000000FE00000041000000000000001F
:1053D000490000007800000049000000480000007B
:1053E0007F00000048000000490000004800000065
:1053F000490000007A0000004100000001000000A8
:105400007F000000FE00000000000000000000001F
:10541000000000000000000020000000000000006C
:105420002200000000000000220000000000000038
:105430002200000000000000FA0000000000000050
:10544000220000000000000023000000FF00000018
:105450002200000000000000220000000000000008
:105460002200000010000000FA0000000800000008
:10547000220000001000000023000000E0000000F7
:1054800020000000000000002000000000000000DC
:1054900000000000000000000800000040000000C4
:1054A0000800000042000000080000008100000029
:1054B000FF000000FE0000000900000000000000E6
:1054C0000200000020000000780000002200000020
:1054D0004900000027000000490000002A000000E9
:1054E00079000000320000004F000000E2000000E0
:1054F0007900000022000000490000002A0000009E
:105500004900000026000000780000002300000091
:105510000000000000000000080000002000000063
:1055200008000000C00000000B00000000000000A8
:10553000FF000000FF000000090000000000000064
:1055400008000000C0000000010000000000000092
:1055500041000000000000004100000000000000C9
:1055600041000000000000007F000000FF0000007C
:1055700041000000000000004100000000000000A9
:1055800041000000000000000100000000000000D9
:1055900000000000000000000800000040000000C3
:1055A0000800000042000000080000008100000028
:1055B000FF000000FE0000000900000000000000E5
:1055C00004000000000000001900000001000000BD
:1055D000110000002100000011000000D2000000B6
:1055E0009700000014000000710000000800000097
:1055F000110000001400000011000000E200000093
:10560000150000000100000019000000000000006B
:10561000000000000000000040000000000000004A
:1056200040000000000000004000000000000000FA
:1056300040000000000000004000000000000000EA
:1056400040000000000000007F000000FF0000009C
:1056500040000000000000004000000000000000CA
:1056600042000000000000004100000000000000B7
:1056700040000000800000004000000060000000CA
:10568000400000000000000040000000000000009A
:105690000000000000000000000000000100000009
:1056A00000000000060000007F000000F80000007D
:1056B00044000000400000004400000040000000E2
:1056C00044000000400000004400000040000000D2
:1056D0007F000000FE0000004400000040000000C9
:1056E00044000000400000004400000042000000B0
:1056F00044000000410000007F000000FE000000A8
:105700000000000000000000000000000000000099
:105710000000000000000000000000000000000089
:105720000000000001000000000000000600000072
:105730001F000000F80000001000000080000000C2
:1057400010000000800000009000000080000000B9
:1057500070000000800000001000000080000000C9
:105760001000000080000000100000008000000019
:1057700010000000800000001F000000C0000000BA
:105780000000000000000000000000000000000019
:1057900000000000000000000800000040000000C1
:1057A0000800000042000000080000008100000026
:1057B000FF000000FE0000000900000000000000E3
:1057C00004000000000000001900000001000000BB
:1057D000110000002100000011000000D2000000B4
:1057E0009700000014000000710000000800000095
:1057F000110000001400000011000000E200000091
:105800001500000001000000190000000000000069
:105810000000000000000000020000008000000006
:105820000C00000080000000F7000000FE000000F7
:105830002400000084000000240000008A00000012
:1058400001000000640000002700000018000000B4
:1058500039000000E4000000080000002200000001
:105860002A000000A20000002A000000A2000000A0
:10587000FF000000FA0000002A000000A200000063
:105880003E000000A200000008000000220000000E
:105890000000000000000000010000000000000007
:1058A0004100000001000000410000000200000073
:1058B000410000000C0000007F000000F00000002C
:1058C0004100000000000000410000000000000056
:1058D0004100000000000000410000000000000046
:1058E00041000000000000007F000000FF000000F9
:1058F0004100000000000000410000000000000026
:105900004100000000000000010000000000000055
:10591000000000000000000008000000020000007D
:1059200008000000440000000F000000A800000074
:10593000F8000000100000000800000068000000EF
:105940000F000000840000000000000000000000C4
:105950000200000000000000070000007F000000BF
:105960001A00000042000000E200000042000000B7
:1059700002000000420000000A0000004200000097
:10598000060000007F00000003000000000000008F
:105990000000000000000000000000000000000007
:1059A0000000000000000000000000001A000000DD
:1059B000000000001C0000000000000000000000CB
:1059C00000000000000000000000000000000000D7
:1059D00000000000000000000000000000000000C7
:1059E00000000000000000000000000000000000B7
:1059F00000000000000000000000000000000000A7
:105A00000000000000000000000000000000000096
:105A10000000000000000000000000000000000086
:105A2000000000000000000000000000180000005E
:105A3000000000002400000000000000240000001E
:105A4000000000001800000000000000000000003E
:105A50000000000000000000000000000000000046
:105A60000000000000000000000000000000000036
:105A70000000000000000000000000000000000026
:105A80000000000000000000000000000000000016
:105A900000000000000000000800000040000000BE
:105AA0000800000042000000080000008100000023
:105AB000FF000000FE0000000900000000000000E0
:105AC000040000000000000018000000800000003A
:105AD00010000000800000001000000082000000A4
