:020000040800F2
:10000000680A0020050100082B2F0008FD290008C0
:10001000292F0008F90B0008193B00080000000018
:10002000000000000000000000000000E9340008AB
:10003000350D000800000000393300081D350008A8
:100040001F0100081F0100081F0100081F01000810
:100050001F0100081F0100081F0100081F01000800
:100060001F0100081F0100081F0100081F010008F0
:100070001F0100081F0100081F0100081F010008E0
:100080001F0100081F0100081F0100081F010008D0
:100090001F0100081F0100081F0100084D0D000886
:1000A0001F0100089D3500081F0100081F010008FE
:1000B0001F0100081F0100081F0100081F010008A0
:1000C0001F0100081F0100081F0100081F01000890
:1000D0001F0100081F0100081F0100081F01000880
:1000E000370D00081F0100081F010008DFF810D0BD
:1000F00000F080FB004800474D3E0008AFF3008051
:10010000680A00200648804706480047FEE7FEE7E9
:10011000FEE7FEE7FEE7FEE7FEE7FEE7FEE7FEE7B7
:1001200099350008ED000008202A04DB203A21FA66
:1001300002F00021704721FA02F3D040C2F1200200
:100140009140084319467047D2B201E000F8012BF4
:10015000491EFBD270470022F6E710B513460A4647
:1001600004461946FFF7F0FF204610BDF0B480EAC0
:100170000102D40F4200B2EB410F02D20246084600
:1001800011464A0042D0C30DDDB2C1F3C752AD1AC9
:10019000202D35DAC1F3160141F4000204B15242B8
:1001A000C5F1200602FA06F12A411044B3EBD05FF4
:1001B00023D0C4B1012DA0EBC35009DCF0BC4FF03B
:1001C000004202EAC352DBB200F5000000F086BA3A
:1001D000400000F1807000EBC350A0F1807040EA55
:1001E000D170490009E0490841EAC071A0EBC35051
:1001F00000F50000400800EBC350F0BC00F065BA09
:100200006142012202EB4101001BF6E7F0BC70479E
:1002100081F00041AAE780F00040A7E780EA0102F0
:1002200010B502F00043400022D04A001FD0010E5A
:1002300001EB1261C0F35600C2F3560240F4000015
:1002400042F40002A0FB022000047F39140400D015
:10025000401C50EA124001D44000491EC2B20C06B4
:1002600004EBD010401C4008802A02D003E000209C
:1002700010BD20F00100002900DA0020184310BD55
:1002800030B480EA010202F0004530F0004221F073
:10029000004013D090B1C30DD40DC2F31601C0F3CA
:1002A0001600E41A41F4000140F400027D3491424A
:1002B00001D3641C00E04900002C02DA30BC0020AD
:1002C00070474FF400000023914201D3891A034381
:1002D00040084FEA4101F7D151B1914202D14FF0AC
:1002E000004105E002D24FF0010101E06FF0010191
:1002F00003EBC450284430BC00F0E7B92DE9FE4FB1
:10030000804681EA0300C00F0C46009021F00041B6
:1003100023F00045B8EB0200A94105D24046214632
:1003200090461C460B46024623F00040104347D03F
:10033000270DC7F30A00C3F30A510290401A019037
:1003400040286BDAC3F3130040F4801B00989246F8
:1003500020B10023D2EB030A63EB0B0B0198594643
:10036000C0F14002504600F08FF906460D46504657
:100370005946019A00F097F910EB080061410024FA
:1003800087EA115284EAE7731A4340D0009A62B3B5
:10039000019A012A4FEA075215DC001B61EB0201AA
:1003A0004FF0004202EA0752CDE90042001C41F53D
:1003B000801132462B4600F0CEF903B0BDE8F08F35
:1003C00040462146F9E7001B61EB0201001C41F5A4
:1003D000801300185B412018A2F5001747EB0301BA
:1003E00040EAD570B6196D4111E06D084FEA360646
:1003F00045EAC0754FEA0752001B61EB0201001C81
:1004000041F5801149084FEA300000195141324648
:100410002B4603B0BDE8F04F00F08EB900980122E2
:1004200040000023D0EB020263EBE073009821460A
:100430004FEAE074B8EB000061EB0401E9E783F0F8
:1004400000435BE781F0004158E72DE9FE4F81EA68
:10045000030404F0004421F0004100944FF0000B2D
:1004600023F0004350EA01045ED052EA03045BD05B
:10047000C3F30A54C1F30A552C44A4F2F334019493
:10048000A0FB0254C1F3130141F48011C3F3130321
:1004900043F4801301FB024400FB034E840A970AD5
:1004A00044EA815447EA8357A4FB076802958D0A02
:1004B00005FB07854FEA932C04FB0C542705029D8E
:1004C0004FEA065847EA1637B5EB08056EEB070CFE
:1004D000870E920E47EA811742EA8312A7FB0201B8
:1004E000B6EB0B0164EB00042B0D43EA0C335E18F2
:1004F00044EB1C50DA465146E7FB0201C5F31304F6
:100500004FEA0B3343EA14534FEA0432019C43EAA7
:100510000603A4F10C040294009CCDE900B400F0A1
:100520001AF903B0BDE8F08F00200146F9E770B575
:1005300021F0004303430CD0C1F30A550024D5EB4E
:10054000040564EB0403D617AD1AB34102DB0020A7
:10055000014670BD201841EB025170BDC10F80EA09
:10056000E0700844CA079623002100F0B7B896232C
:100570000022114600F0B2B80EB540F233410291AC
:100580000021CDE900110A460B4600F0E4F803B063
:1005900000BD00F0004220F00040C10DC0F3160085
:1005A00040F400007F2901DA00207047962903DC1F
:1005B000C1F19601C84001E096398840002AF4D084
:1005C0004042704720F00040C10DC0F3160040F4D7
:1005D00000007F2901DA00207047962903DCC1F171
:1005E0009601C840704796398840704770B5C1F38E
:1005F0000A5201F000450024C1F3130140F2FF3319
:1006000041F480119A4201DA002070BD40F2334378
:100610009A42A2F2334203DC5242FFF785FD00E02A
:1006200090402C43F1D0404270BD00F0004230F0C9
:1006300000400AD0C10D01F56071C0F3160042EA16
:100640000151C2084007114370470020014670471E
:1006500001F0004330B421F0004150EA010206D01D
:100660000A0DA2F56072C1F31301002A02DC30BC4E
:1006700000207047440F44EAC104C100E01830BCB8
:1006800000EBC25000F021B8202A04DB203A00FA27
:1006900002F1002070479140C2F1200320FA03F3D9
:1006A000194390407047202A06DBCB17203A41FAC5
:1006B00002F043EAE07306E041FA02F3D040C2F1EF
:1006C000200291400843194670470029A8BF70478F
:1006D000401C490008BF20F00100704710B4B0FA78
:1006E00080FC00FA0CF050EA010404BF10BC704713
:1006F00049B1CCF1200421FA04F411FA0CF118BF2D
:10070000012121430843A3EB0C01CB1D4FEA0061FB
:100710004FEA102042BF002010BC704700EBC350CE
:1007200010440029A4BF10BC7047401C490008BFFA
:1007300020F0010010BC704710B5141E73F10004C6
:1007400008DA401C41F1000192185B411A4301D1C3
:1007500020F0010010BD2DE9F04D92469B4611B1ED
:10076000B1FA81F202E0B0FA80F220329046FFF74F
:100770008BFF04460F4640EA0A0041EA0B0153464C
:100780005A46084313D0114653EA010019D0C8F164
:1007900040025046FFF7C8FC05460E4650465946F3
:1007A0004246FFF771FF084305D0012004E02046D0
:1007B0003946BDE8F08D0020054346EAE0762C433B
:1007C00037430A986305E40AA0EB08000022FD0AFB
:1007D00044EA47540A3002D500200146E9E7010502
:1007E00010196941DDE9084500196941BDE8F04D7E
:1007F000A2E70000064C074D06E0E06840F0010368
:1008000094E8070098471034AC42F6D3FFF772FC27
:10081000908E0008B08E000870B5044600688168AC
:10082000C943C90717D1816821F00101816001F036
:1008300009F805460AE000BF01F004F8401B022851
:1008400004D920688068C043C00706D0206880684B
:10085000C043C007F0D0002070BDA06A40F0100077
:10086000A062E06A40F00100E062012070BD00007B
:10087000F8B500260446009600688168C943C90798
:100880002DD0816841F00101816016481649006849
:10089000B0FBF1F000E0401E00900028FBD100F01A
:1008A000D1FF054616E000BF00F0CCFF401B022838
:1008B00010D920688068C043C0070BD0A06A40F000
:1008C0001000A062E06A40F00100E06284F8246059
:1008D0000120F8BD20688068C043C007E4D1002033
:1008E000F8BD00004C00002040420F002DE9F05FF1
:1008F000924C9348934AE37800680126924DDFF8C2
:100900004C92DFF84CA2DFF84CB21168002743B1DB
:100910002279012A7ED12269DFF83C82002A7AD02E
:1009200083E08E4ADFF8388201EB020C854A8D495C
:100930008D4B1268C4450A448049497905D2D4F8E0
:1009400070C0BCF5000F0BDA667294F808C0BCF1F9
:10095000010F06D094F809C0BCF1010F0CD016E0CD
:1009600026729A4213D2277242F21522E2660129B8
:100970000DD941F6957109E09A4208D2677241F6A5
:100980001352E266012902D941F65561E166DFF8AA
:10099000B081E16E02F022FD74496A4A744B08602E
:1009A0001268DFF8D0C11344634502D263795B1C3F
:1009B0006371714B1A44714B9A4232D2D8F80020BD
:1009C00040F6B733A2F5C0529D3A9A4229D26C4BF9
:1009D000226F9A4225D26B4B9A4222DA6279521CDC
:1009E0006271E268521CE260032A0DDDE670267136
:1009F000654A664B2A60C9F800304FF08243CAF856
:100A00000030634BCBF8003041F20402904205DC29
:100A1000604A01E003E006E0904200DA0A60BDE8C7
:100A2000F09FE760F0E7C8F80000084600F0BCF867
:100A30002064E079401CC0B2E071042805D9404828
:100A4000006802F07BFC6064E771216940F26B7220
:100A5000491CA1F16500216190420DD2D8F8002017
:100A600041F6A4739A4202DDA2F1010202E003DA28
:100A700002F10102C8F80020B1F5FA6F02DD40F280
:100A8000D1702061A079E0BB6089401C80B26421F4
:100A9000B0FBF1F2608101FB1200E0B9DFF8F880F1
:100AA00028684146FFF762FB286041464F46D9F867
:100AB0000000FFF75BFB38604FF07C515746DAF8D7
:100AC0000000FFF753FB386041465F46DBF800004B
:100AD000FFF74CFB386031482968814200DD28600F
:100AE000D9F800204946824200DD08602C4FDAF830
:100AF00000305246BB4200DD17605B46DFF8A4C001
:100B000000E015E0DBF80080E04501DDC3F800C03F
:100B10002D6885420CD1D9F80010814208D1DAF84D
:100B20000000B84204D1DBF80000604500D1A67196
:100B3000D4E91001411A0D48016070E764000020FB
:100B4000300000203C000020080000200C000020A5
:100B5000100000201400002004000020FFFF9EBBB6
:100B6000FF7F2D00FF7F8DBBFF3F1300340000206F
:100B7000FF4FD6BAFF1F3000FFBFC5BAFFFF0E0000
:100B80000000F0C10000F041000052430000164395
:100B90000000024314ECFFFF000020410000C843A6
:100BA0000000A0410000964370B50F49FFF730FBED
:100BB0000E4C0546A064E16CFFF72AFB0C4920654A
:100BC0000968FFF72BFB06460A482946006880F0B3
:100BD0000040FFF723FB3146FFF71AFBFFF7D9FC74
:100BE000E564606570BD000000C041456400002000
:100BF0000C00002008000020FEE7000070B513483C
:100C00000121006800F06CF811480068FFF7A6FCAD
:100C1000022100F065F80321002000F061F80320B4
:100C200000F01EF80B4900220B4B48700A700B4D68
:100C30001C1D06E01E687606FCD5AE5C2660521CC4
:100C40000A70D2B28242F5D370BD00003C00002091
:100C500030000020E8000020003801403806002065
:100C60000A2839D890B31D4924220B280A7033D2A0
:100C7000DFE800F032060A0E12161A1E22272D0097
:100C80000520487106207047092048720A207047E5
:100C90000D2048730E2070471120487412207047B1
:100CA0001520487516207047192048761A2070477D
:100CB0001D2048771E207047212081F82100222026
:100CC0007047252081F825002620704704E0292060
:100CD00081F829002A20F8E70020F6E738060020EE
:100CE00003B50A2912D8002910D00B290ED2DFE84B
:100CF00001F00D06080E10121416181A1C0001221D
:100D000000E005220A49684600F0AAF80CBD092255
:100D1000F8E70D22F6E71122F4E71522F2E719228F
:100D2000F0E71D22EEE72122ECE72522EAE70000AA
:100D300038060020704710B54FF4006000F080FCCA
:100D4000BDE810404FF4805000F07ABC10B5202070
:100D500000F076FCBDE81040802000F071BC72B657
:100D6000FEE700002DE9F047324C334DA078E0BBA0
:100D7000324941F6F569334EC1F800903049306888
:100D8000FFF7F4F9FFF710FFC11700EB5170DFF820
:100D9000B880C01020644746D8F8000002F06AFB13
:100DA00060643A6841F60E718A4204DA4946104698
:100DB00001F026FE01E0216C401A286023483168CA
:100DC000234F0E18BE420CD2D8F80000A0F5F05008
:100DD000C438632805D24FF07E51206AFFF7C6F968
:100DE0002062206ABE420AD200E014E0FFF71DFC38
:100DF000184A194BFFF782FAFFF72AFC20621749BD
:100E0000884208DD0120A0700020E070286041F6D3
:100E10005940E06608E0286840F6C411884202DCC8
:100E20004942884200DA29602868BDE8F04702F0AC
:100E30005DBB00006400002034000020040000209E
:100E4000006001453C00002030000020FFFFCBBBCC
:100E5000FFFF70009A9999999999B93F000048430A
:100E600003788B54114443784B7082788A70C07831
:100E7000C87070470EB501210328CDE9000102D0EA
:100E8000062802D003E0002000E007200290694617
:100E9000074800F0CDF8064800F0AAFA0A210448F5
:100EA00000F008FA024800F041F980B20EBD0000DF
:100EB000EC0000202DE9F04100250E4607462C46A7
:100EC00005E03846FFF7D6FF641C0544E4B2B4429F
:100ED000F7D3B5FBF6F080B2BDE8F08170B50B4CEE
:100EE000606F401C606705280FDD094DA16F286801
:100EF000FFF78EF9FFF74DFB01F0F6FFFFF72EFB32
:100F000020672868A0670020606770BD640000202B
:100F10003C00002010B50620FFF7ACFFFFF72CFBCC
:100F20004FF06632094BFFF790FA0022084BFFF7AB
:100F30008CFA0022074BFFF788FA6FF00B02FFF7DD
:100F4000F6FABDE81040FFF751BB000066660A40A4
:100F50000000264000005940F8B5002504460095E1
:100F600090F82400012808D0012084F824002046AD
:100F7000FFF752FC060002D053E00220F8BDA06A41
:100F800020F4885040F00200A062022000F0FCFC37
:100F900026490968B1FBF0F0400000E0401E0090D7
:100FA0000028FBD12046FFF763FC2068816841F0F0
:100FB0000801816000F046FC074608E000F042FCB2
:100FC000C01B0A2803D920688068000715D4206850
:100FD00080680007F2D42068816841F004018160D4
:100FE00000F030FC074612E000F02CFCC01B0A2881
:100FF0000DD920688068400709D5A06A20F002005A
:1010000040F01000A06284F824500120F8BD206850
:1010100080684007E8D4A06A20F0020040F0010098
:10102000A06284F824503046F8BD00004C00002037
:10103000F8B50024009490F824202546012A12D007
:10104000012280F824204A681F23072A0DD206684F
:10105000776B521E02EB820293409F430B689340D2
:101060001F43776319E00220F8BD06680D2A0AD2F3
:10107000376BD21F02EB820293409F430B68934071
:101080001F43376309E0F76A0D3A02EB820293408F
:101090009F430B6893401F43F7620A680723066863
:1010A0000A2A0AD3F7680A3A02EB420293409F43A6
:1010B0008B6893401F43F76008E0376902EB4202F8
:1010C00093409F438B6893401F4337610A68102AFF
:1010D00001D0112A20D1124B02689A4217D193688D
:1010E0001B0219D4936843F4000393600968102924
:1010F00012D10C490C4A0968B1FBF2F101EB8101F4
:10110000490000E0491E00910029FBD104E0816AFA
:1011100041F020018162012480F824502046F8BD6E
:10112000002401404C00002040420F000068C06CC9
:10113000704700002DE9F0414FF0000704003D46E4
:101140007ED0A06A002628B9E66284F82460204692
:1011500000F07EF82046FFF75FFBA16AC90600D4C5
:1011600020B1A06A40F01000A06269E0A16A21F4F9
:10117000885141F00201A1626268E169237B0A4360
:1011800047EA43010A43A1684FF48077B94209D086
:10119000012907D05FF0000194F814C0BCF1010FE1
:1011A00002D00AE03946F7E7F3B1A36A43F020031F
:1011B000A362E36A43F00103E3622368D3F804C047
:1011C0002CF4694C4CEA010CC3F804C021688B680C
:1011D000DFF870C003EA0C0313438B60A168B942C7
:1011E0000BD0012909D00CE0DFF85CC0A3690CEB3F
:1011F00043330B4343F40061DFE7218A0D05A5F576
:1012000080152168CB6A23F470032B43CB622168DD
:1012100089680E4B1940914208D1E662A16A21F01B
:10122000020141F00101A162BDE8F081A06A20F055
:10123000020040F01000A062E06A40F00100E062AD
:101240000120F1E7FDF7E1FF00E0FFFFFE0E1FFFC9
:1012500000B585B0002100910191029103910068D1
:10126000104988421BD11048816941F400718161A5
:10127000816901F400710491816941F00401816187
:101280008069694600F00400049048200090032023
:101290000190064800F0E0F90548FFF75DFE05B053
:1012A00000BD000000240140001002400008014081
:1012B000EC0000202DE9F84300270D460446009776
:1012C00000F0C0FA804620688168C90508D5A06A88
:1012D00040F02000A06284F824700120BDE8F8836B
:1012E0004168C90503D4C06A10F4700F2AD00220E7
:1012F00000F04AFB3B490968B1FBF0F6206803693E
:1013000039490B424FEA61014FEAA1121FD1C3686C
:101310004FEA611C13EA0C0F19D103690B4225D166
:10132000C068104222D1142023E0681C0AD02DB1DD
:1013300000F088FAA0EB0800A84203D920680068F2
:10134000800725D5206800688007EED52DE0036969
:101350000B4202D1C168114206D0026923490A42F8
:1013600006D1C068084203D1542002E0292000E0E1
:10137000FC204643009816E0681C11D02DB100F007
:1013800061FAA0EB0800A8420AD90098B04207D23F
:10139000A06A40F00400A06284F8247003209DE756
:1013A0000098401C0090B042E6D321686FF0120014
:1013B0000860A06A40F40070A06220688068C0F3F2
:1013C000424007280CD1207B50B9A06A20F48070DD
:1013D000A062A06AC00403D4A06A40F00100A06229
:1013E00000207BE74C0000202449922449922400ED
:1013F00070B5044690F8240001280DD0012084F82F
:1014000024002046FFF734FA02004FF0000005D018
:1014100084F82400104670BD022070BDA16A40F21D
:101420000123994341F48071A1621F4D23681F4934
:10143000AB4218D10E6816F4702F14D0A66A46F489
:101440008016A6620E68760505D5A66A26F40056B3
:1014500046F48056A662A66AF6040AD5E66A26F025
:101460000606E66206E0A66A26F48016A6625E68B4
:10147000E9E7E06284F824006FF002001860206859
:101480008368C3F34243072B05D1A84208D10968FA
:1014900011F4702F04D0816841F480118160B9E7A4
:1014A000816841F4A001F9E70028014004240140CB
:1014B00070B5044600F0C6F90546601C02D0044829
:1014C0000078044400F0BEF9401BA042FAD370BD7E
:1014D000400000202DE9F05F0520FFF7E9FF4B48B1
:1014E000D0F814114A4CDFF82CA14B4DDFF82C91A9
:1014F0000026B1B1D0F81C2149494FF0814B4FF083
:101500007E53D2B1D0F83081464A474FDFF81CC134
:10151000DFF81CE1B8F1000F1FD0D0F82C0178B330
:101520005CE04449087818B10020087010B155E01B
:101530000120FAE74048067050E00F6888463846B8
:101540004FF07E51FEF712FEC8F800005F4545D10E
:101550004FF07E50C8F8000040E00868984204D17F
:1015600011682068FEF754FE1EE0B0F1804F08D0ED
:10157000604509D1DEF800102868FEF749FE1FE03B
:101580000BE03968574604E0584527D12B484F46B1
:1015900001683868FEF73CFE1FE00868984205D1F4
:1015A00011682068FEF7E2FD206017E0B0F1804F7F
:1015B00008D0604509D1DEF800102868FEF7D6FD96
:1015C00028600BE03968574604E0584506D11B48AF
:1015D0004F4601683868FEF7C9FD386020684FF44F
:1015E0000001884200DA2660DAF800208A4201DA37
:1015F000CAF800602868884200DA2E60D9F8002016
:101600008A4201DAC9F80060BDE8F09F000021427B
:10161000080000200C000020100000201400002012
:10162000180000201C000020200000200000404086
:10163000240000200000002064000020280000207A
:10164000044910B50A68024202D00860FFF742FF61
:1016500010BD0000140401402DE9F84FDFF8B891E7
:10166000002409F1040A0AF1040B23460F270BF1A9
:10167000040EC9E00125A5402A40AA427DD1674E4B
:10168000D1F804C0ACEB0608B44532D014DCBCF190
:10169000030F3AD009DCBCF1000F2AD0BCF1010FD6
:1016A0001CD0BCF1020F31D11DE0BCF1110F17D0DD
:1016B000BCF1120F2AD119E0B8F5881F19D006DC49
:1016C000B8F5803F15D0B8F5801F1FD111E0B8F5EF
:1016D000001F0ED0B8F5041F18D10AE0CB6815E042
:1016E000CB681B1D12E0CB6808330FE0CB680C33CE
:1016F0000CE08B682BB1012B4FF0080303D0456140
:1017000004E0042302E0056100E00023FF2A01D881
:10171000064601E000F104064FEA840501D9A5F16F
:101720002005D6F8008007FA05FC28EA0C0803FA21
:1017300005F548EA0508C6F800804D68ED0062D559
:10174000374DAE6946F00106AE61AD6924F003067F
:1017500005F001050095334D06EB050CDCF808504B
:10176000A607360F07FA06F825EA0805DFF8B8805D
:10177000404503D14FF0000817E044E0DFF8AC80AB
:10178000404502D14FF001080FE0DFF8A48040454A
:1017900002D14FF0020808E0DFF89880404502D1FE
:1017A0004FF0030801E04FF0040808FA06F848EA91
:1017B0000508CCF808804D68D9F80060ED034D4667
:1017C00001D5164300E096432E604D68DAF80060BC
:1017D000AD03554601D5164300E096432E604D6893
:1017E000DBF80060ED025D4601D5164300E096434C
:1017F0002E604D68DEF80060AD02754601D51643D7
:1018000000E096432E60641C0D682A46E5407FF494
:1018100031AFBDE8F88F0000000401400000111056
:10182000001002400000014000080140000C01408F
:1018300000100140001401400AB101617047090421
:10184000FBE700000148806870470000400000206E
:10185000024881680278114481607047400000208E
:10186000074810B5016841F010010160032000F045
:1018700079F8002000F006F800F024F8002010BDF0
:101880000020024070B50D4D04464FF47A7128785F
:10189000B1FBF0F00A490968B1FBF0F000F0CAFBB7
:1018A00048B9102C07D200222146501E00F03AF809
:1018B00000206C6070BD012070BD00004000002061
:1018C0004C0000200E4808B5816941F0010181619A
:1018D000816901F001010091C16941F08051C1614C
:1018E000C06900F080500090052000F03BF80548EA
:1018F000416821F0E06141F00071416008BD0000E5
:101900000010024000000140002809DB00F01F0227
:10191000012191404009800000F1E020C0F8001151
:1019200070470000F0B40E4B1B680C46C3F3022353
:10193000C3F10705042D00D90425191D072901D27B
:10194000002300E0DB1E012606FA05F1491E2140B6
:1019500099409E40761E16403143F0BC02F0EEB82E
:101960000CED00E0064900F0070208684FF6FF039F
:10197000184040EA0220034A104308607047000004
:101980000CED00E00000FA0510B529A401461DCCBD
:1019900086B08DE81D002AA02A4C00680490002023
:1019A000012923D002293AD010291DD1616822686B
:1019B000D20119D5C1F38342C9031DF8020009D52C
:1019C000616804AAC1F34041515C1F4AB2FBF1F1C6
:1019D000484301E01D4948436168490204D440007E
:1019E0005FF00301B0FBF1F006B010BD226AC2F354
:1019F0000121012903D1920701D5C803F4E7022987
:101A000005D1626A920702D549F64040ECE7032906
:101A1000EAD121688903E7D54FF22440E4E700F0DA
:101A200033F96168C1F38131491C4900DAE70000EC
:101A300002030405060708090A0B0C0D0E0F10100F
:101A4000010200000010024000127A0000093D006F
:101A50002DE9F84305460078354CC00754D0E069BD
:101A60000026C00008D4E06940F08050E061E069E1
:101A7000012600F0805000902E480168C90512D45C
:101A80000168804641F480710160FFF7DBFE074684
:101A900005E000BFFFF7D6FEC01B642823D8D8F8A6
:101AA0000000C005F6D5206A10F4407021D0A98846
:101AB00001F4407181421CD0206A1F49012220F4A8
:101AC00040700A6000220A602062C00711D0FFF750
:101AD000B9FE074641F2883808E000BFFFF7B2FEC2
:101AE000C11B414502D90320BDE8F883206A800765
:101AF000F4D5206A696820F44070084320621EB162
:101B0000E06920F08050E0612878800705D56068A2
:101B1000A96820F44040084360602878C00605D5D5
:101B20006068E96820F48000084360600020DBE71B
:101B30000010024000700040400442422DE9F0478E
:101B40000F46050061D0434E306800F00700B842F0
:101B500009D2306820F0070038433060306800F068
:101B60000700B84251D128683B4C810712D5400785
:101B700003D5606840F4E06060602878000703D512
:101B8000606840F4605060606068A96820F0F00010
:101B9000084360602878C00728D06868012810D002
:101BA0002168022810D0890700292EDA616821F007
:101BB000030101436160FFF745FE804641F2883929
:101BC0000DE021688903EFE78901EDE7FFF73AFEB1
:101BD000A0EB0801494502D90320BDE8F087606801
:101BE000696800F00C00B0EB810FEFD1306800F0B5
:101BF0000700B8420BD9306820F007003843306046
:101C0000306800F00700B84201D00120E5E72878ED
:101C1000400705D56068E96820F4E060084360602B
:101C20002878000706D56068296920F4605040EAEA
:101C3000C100606000F038F86168084AC1F3031120
:101C4000515CC8400649086006480068FFF71AFE64
:101C50000020C2E70020024000100240224B000892
:101C60004C000020440000200448054900684968F1
:101C7000044AC1F30221515CC84070474C00002067
:101C800000100240324B00080448054900684968CA
:101C9000044AC1F3C221515CC84070474C00002087
:101CA00000100240324B000812A185B00FC98DE828
:101CB0000F0014A0144A006804905168134801F002
:101CC0000C03042B10D0082B0ED1C1F38343C9039E
:101CD0001DF803000AD5516804AAC1F34041515CC4
:101CE0000A4A5043B0FBF1F005B070470849484339
:101CF000FAE7000002030405060708090A0B0C0DA9
:101D00000E0F1010010200000010024000127A00B5
:101D100000093D002DE9F84F040070D02078C04D37
:101D2000C00749D06868C0F38100012807D06868FF
:101D3000C0F38100022809D16868C00306D528686D
:101D4000800339D560680028E7D035E06068B0F5D9
:101D5000803F0BD010B1B0F5A02F11D0286820F42F
:101D600080302860286820F4802002E0286840F451
:101D700080302860606890B1FFF764FD06460AE095
:101D8000286840F480202860F0E700BFFFF75AFD84
:101D9000801B642873D828688003F7D50CE0FFF710
:101DA00051FD064605E000BFFFF74CFD801B64288F
:101DB000F0D828688003F7D420789A4E80074FF037
:101DC00001094FF0000839D5686810F00C0F07D0F2
:101DD0006868C0F38100022809D16868C00306D48E
:101DE0002868800714D52069012808D110E02069EF
:101DF000B0B1C6F80090FFF725FD074605E00AE1FF
:101E0000FFF720FDC01B0228C4D828688007F7D53B
:101E10002868616920F0F80040EAC10028600DE000
:101E2000C6F80080FFF70EFD074604E0FFF70AFD45
:101E3000C01B022823D828688007F7D42078000721
:101E40002CD57948A169D9B1C0F80090FFF7FAFC08
:101E5000074604E0FFF7F6FCC01B02280FD8686AAB
:101E60008007F7D571484FF4FA510068B0FBF1F0E4
:101E7000009000BF0098411E0091FAD20EE080E071
:101E8000C0F80080FFF7DEFC074604E0FFF7DAFC4D
:101E9000C01B022875D8686A8007F7D420784007ED
:101EA00060D5E8690027C00008D4E86940F0805098
:101EB000E861E869012700F0805000905C48016803
:101EC000C90513D40168834641F480710160FFF7AE
:101ED000B9FC824606E000BFFFF7B4FCA0EB0A00A5
:101EE00064284ED8DBF80000C005F5D5E06801286D
:101EF0000AD008B1052813D0286A20F00100286212
:101F0000286A20F0040002E0286A40F001002862FC
:101F1000E06841F2883B98B1FFF794FC82460BE001
:101F2000286A40F004002862EEE700BFFFF78AFC51
:101F3000A0EB0A0159455AD8286A8007F6D50CE06B
:101F4000FFF780FC824605E0FFF77CFCA0EB0A016E
:101F500059454CD8286A8007F6D41FB1E86920F0AB
:101F60008050E861E06988B36968C1F381010229A2
:101F700044D00228C6F8608004D0FFF763FC044612
:101F800038E034E0FFF75EFC074604E0FFF75AFC58
:101F9000C01B02282BD828688001F7D4206AB0F52E
:101FA000803F05D16868A16820F40030084368606C
:101FB000D4E908010843696821F474110843686092
:101FC000C6F86090FFF73EFC044606E025E000BF3F
:101FD000FFF738FC001B022809D828688001F7D5D4
:101FE0001BE000BFFFF72EFC001B022802D90320D4
:101FF000BDE8F88F28688001F4D40EE00128F7D0FE
:102000006868226A00F48031914204D1616A00F468
:102010007010884201D00120EAE70020E8E70000C4
:102020000010024000004242800442424C00002066
:102030000070004010B5401EB0F1807F01D3012038
:1020400010BD4FF0E02460610F21601701F076FDB4
:102050000020A06107202061002010BD704770475C
:1020600070B590F83C20012A26D0012480F83C402D
:10207000022280F83D2003685A689D6822F07006AD
:102080000A6832435A600D4B02689A4208D0B2F196
:10209000804F05D00A4B9A4202D00A4B9A4204D193
:1020A000496825F080031943916080F83D40002184
:1020B00080F83C10084670BD022070BD002C014025
:1020C000000400400008004010B5040003D094F85C
:1020D0003D0010B107E0012010BD002084F83C0055
:1020E000204600F01FF8022084F83D00211D2068E2
:1020F00001F05AFA012084F8460084F83E0084F882
:102100003F0084F8400084F8410084F8420084F8DD
:10211000430084F8440084F8450084F83D00002022
:1021200010BD000008B5114A01681148914211D153
:10213000816941F4006181618069032200F40060DB
:10214000009001211920FFF7EDFBBDE808401920A0
:10215000FFF7DABB074A914207D1C16941F002019A
:10216000C161C06900F00200009008BD002C014070
:10217000001002400004004090F83D10012901D0F9
:1021800001207047022180F83D100168CA6842F0C2
:102190000102CA6000680B49884208D0B0F1804F44
:1021A00005D00949884202D00849884204D1816893
:1021B00001F00701062903D0016841F00101016027
:1021C00000207047002C014000040040000800403F
:1021D00070B5044690F83C00012817D0012584F81A
:1021E0003C50022084F83D002068826822F077028B
:1021F00022F47F4282600868502830D00DDC20280D
:102200004DD005DC98B310283BD148E0022070BDCA
:10221000302844D0402834D139E0602828D07028B4
:1022200006D0B0F5805F2CD0B0F5005F29D10AE070
:10223000CB68D1E90121206801F0F9F920688168B3
:1022400041F0770109E0CB68D1E90121206801F074
:10225000EEF92068816841F48041816011E0CA682C
:102260004968206801F098FA5021206807E016E0DC
:10227000CA684968206801F0A0FA6021206801F06E
:10228000E0F984F83D50002084F83C0070BDCA6835
:102290004968206801F080FA40212068EFE7226851
:1022A00001461046EBE72DE9F0410D46040003D04E
:1022B00094F83D0018B108E00120BDE8F08100204D
:1022C00084F83C00204600F041F8022084F83D00EC
:1022D0002068816844F2070291438160211D2068D3
:1022E00001F062F9226890689169166A2B68AF69FB
:1022F000034340F20330814341EA0721A868EF69B4
:1023000008434FF6FC418843E96840EA072001434F
:1023100028692F6A000140EA0730084369686D693F
:1023200026F0220646EA051529439360226890614B
:1023300054F8460B0162012004F81F09E07520766D
:10234000E0762077A0750020B7E7000000B585B0E3
:102350000021009101910291039100680D4988428A
:1023600016D10D48C16941F00401C161C16901F094
:1023700004010491816941F0080181618069694625
:1023800000F008000490C02000900448FFF764F9B2
:1023900005B000BD0008004000100240000C0140E4
:1023A00070B590F83E60044690F83F5090F8423087
:1023B00090F84320022021B104290ED0012E1BD118
:1023C00014E0012E18D1012B16D184F83E0084F8B8
:1023D000420001220021206820E0012D0CD1012AB9
:1023E0000AD184F83F0084F8430014E0012D03D1A2
:1023F000012B01D1012A01D0012070BD84F83E00DB
:1024000084F83F0084F8420084F843000122002150
:10241000206801F0FFF801220421206801F0FAF899
:102420002068016841F001010160002070BD704723
:1024300070B50446006801694FF00005C94389077B
:1024400015D4C168C943890711D4E91E016101206F
:102450002077206880698007204602D0FFF7E7FFD9
:1024600004E000F0BFF8204600F04EF92577206820
:102470000169C943490717D4C168C943490713D43F
:102480006FF004010161022020772068806910F458
:10249000407F204602D0FFF7CAFF04E000F0A2F818
:1024A000204600F031F9257720680169C943090702
:1024B00016D4C168C943090712D46FF0080101613D
:1024C000042020772068C0698007204602D0FFF7EB
:1024D000AEFF04E000F086F8204600F015F92577FD
:1024E00020680169C943C90617D4C168C943C90630
:1024F00013D46FF010010161082020772068C069B3
:1025000010F4407F204602D0FFF791FF04E000F076
:1025100069F8204600F0F8F8257720680169C9437A
:10252000C90708D1C168C943C90704D1891E01611F
:10253000204600F039F920680169C943090609D429
:10254000C168C943090605D46FF0800101612046C6
:10255000FFF784FD20680169C943490609D4C168B1
:10256000C943490605D46FF040010161204600F0DF
:10257000DBF920680169C94389060BD4C168C943E6
:10258000890607D46FF0200101612046BDE8704044
:10259000FFF765BD70BD000000B585B0002100915A
:1025A00001910291039100680B49884211D10B48B7
:1025B000816941F0080181618069694600F0080085
:1025C0000490022000900190032003900448FFF73C
:1025D00043F805B000BD00000004004000100240B8
:1025E000000C0140704770B5044690F83C000D4661
:1025F00001280AD0012084F83C0042B1042A18D0F6
:10260000082A2AD00C2A4DD139E0022070BD20685A
:1026100001F020F82068816941F00801816120689B
:10262000816921F004018161206881692A6911436F
:1026300011E0206801F036F82068816941F40061FA
:1026400081612068816921F48061816120688169EC
:102650002A6941EA0221816124E0206801F04EF8F4
:102660002068C16941F00801C1612068C16921F099
:102670000401C1612068C1692A69114311E0206821
:1026800001F068F82068C16941F40061C161206807
:10269000C16921F48061C1612068C1692A6941EA88
:1026A0000221C161002084F83C0070BD10B5040017
:1026B00003D094F83D0010B107E0012010BD0020C8
:1026C00084F83C00204600F01EF8022084F83D000B
:1026D000211D206800F068FF012084F8460084F87E
:1026E0003E0084F83F0084F8400084F8410084F8FC
:1026F000420084F8430084F8440084F8450084F8DC
:102700003D00002010BD70477047000010B5044622
:10271000022249B104290ED0082913D094F84100AF
:10272000012816D0012010BD94F83E000128F9D1EF
:1027300084F83E200FE094F83F000128F2D184F89D
:102740003F2008E094F840000128EBD184F84020B5
:1027500001E084F841200122206800F05BFF0F496E
:102760002068884203D1426C42F4004242642068EF
:10277000884208D0B0F1804F05D00949884202D084
:102780000849884204D1816801F00701062903D075
:10279000016841F001010160002010BD002C0140E2
:1027A00000040040000800402DE9F05F5249534FFB
:1027B00088427DD1524908780025012808D1514826
:1027C0000278521CD2B202700A2A01D105700D7033
:1027D000042000F073FE4C4E0A2130600320FEF707
:1027E00069FBFDF7C4FEDFF82481C8F80000FEF79E
:1027F00075FB474CDFF81CA14FF0010960780128F8
:1028000037D13878002863D1FEF7ACFAA0780128D8
:1028100001D1FEF76BF801F081F9E07842F2AC6B80
:1028200058B93068584503DA41F20C71884204DC2B
:10283000002000F05BFE87F800902079012814D179
:102840003549D8F80000884209DD3449884206DA63
:102850003068584503DA41F20C71884205DC0020EB
:1028600000F044FE87F8009003E0DAF8000000F082
:102870003DFE607860BB2A48006801F0C7F8207808
:1028800038B9284930680860E565E564E57184F881
:1028900000903878E0B9D8F80000FEF785F9206498
:1028A000E079401CC0B2E071042806D9306800E02D
:1028B00014E000F043FD6064E571D4E91001401AB2
:1028C0005446CAF8000001F029F9206800F00EFE15
:1028D0003878012802D1002000F008FE387810B9BD
:1028E000642000F019F9FEF715FB0D490860BDE8FA
:1028F000F05F00F0C5B800001C01002000000020BF
:102900002D0000202C000020300000203C00002082
:10291000640000203400002000401C450040674552
:102920003800002004000020704770B5040004D077
:1029300094F83D00002510B106E0012070BD84F838
:102940003C50204600F022F8242084F83D00206806
:10295000C16821F40051C160204601F081F820686F
:10296000016921F4904101612068416921F02A0147
:1029700041612068C16841F40051C1602564202094
:1029800084F83D0084F83E00002070BD30B585B06D
:10299000002400940194029403940068144988422E
:1029A00024D11448816941F480418161816901F435
:1029B00080410491816941F00401816180690E4D7B
:1029C00000F0040004904FF4007000900220019089
:1029D0000320039069462846FEF73EFE2815CDE900
:1029E0000004694628460294FEF736FE05B030BD65
:1029F000003801400010024000080140FEE70000DE
:102A00002DE9F041401AFDF7A9FD104E80463146F0
:102A1000FDF704FC0E4F3946FDF732FC0D4C054620
:102A20004046E16AFDF7F4FB3146FDF7F7FB394616
:102A3000FDF726FC2946FDF799FBA16AFDF796FBF9
:102A4000C4E90A08BDE8F041FDF7A3BD000020413C
:102A50000000A0416400002041060748826942F05E
:102A6000010282610548426822F0E06242604268E9
:102A70000A4342607047000000100240000001401D
:102A80002DE9F0414FF48268642001F057F91E4CA3
:102A900001271E4D00266061012807D0022809D0B9
:102AA000A069012803D0022806D00FE0A76128689A
:102AB000001D03E00220A0612868001F2860E06973
:102AC000001DE061404501D1A661E66100F05AF8C1
:102AD000012806D142F210702860607878B1002099
:102AE00060700B480078012807D1607809490128F7
:102AF00007D0002801D1C1F89071BDE8F081012014
:102B0000EEE7C1F89061F8E76400002004000020BF
:102B1000000000200000214210B5094A002360B1E6
:102B200008490C68641C0C60844205D1D2F89001FD
:102B3000C043C2F890010B6010BDC2F8903110BDC7
:102B400000002142500000200C48002142891AB99F
:102B50000B4BD3F81C310BB101810AE003895B1CDC
:102B60009BB20381142B04D90122428101811046BA
:102B70007047012A00D14181002070475400002095
:102B8000000021420C480021C2891AB90B4BD3F82E
:102B900008310BB181810AE083895B1C9BB2838180
:102BA000C82B04D90122C281818110467047012AB5
:102BB00000D1C18100207047540000200000214254
:102BC0003EB5002411480094019402940E4984609B
:102BD000016004730475012505614FF460214460B0
:102BE000C161FEF7A7FA08B1FEF7B9F80320CDE9F5
:102BF0000005694602940548FEF71AFA002801D03C
:102C0000FEF7ADF83EBD000000240140EC000020BE
:102C10002DE9F04385B000253D48009501950295CA
:102C20000395816941F020018161816901F02001F2
:102C30000491816941F004018161816901F004011D
:102C40000491816941F0080181618069DFF8C480E5
:102C500000F008000490012210214046FEF7ECFD30
:102C6000DFF8B490002243F238014846FEF7E4FD55
:102C70004FF40047002239464046FEF7DDFD0420B0
:102C8000CDE900050124694602944046FEF7E4FCC4
:102C90001020CDE900040326CDE9024669464046EE
:102CA000FEF7DAFC4FF4C55000901C48CDE9010452
:102CB00069464046FEF7D0FC43F218008DE87100EB
:102CC00069464846FEF7C8FC01AA009782E87000F2
:102CD00069464046FEF7C0FC20208DE83100022006
:102CE000039069464846FEF7B7FC022211461720BA
:102CF000FEF718FE1720FEF707FE022211462820D5
:102D0000FEF710FE2820FEF7FFFD05B0BDE8F083BA
:102D10000010024000080140000C0140000021109A
:102D200010B586B000241A480094019402940394CC
:102D3000049416490594016041F61F41C0E901144D
:102D40003121C0E9031444618461FFF7BDF908B182
:102D5000FEF705F84FF48050009069460C48FFF7E5
:102D600037FA08B1FDF7FBFF049404A9084805945D
:102D7000FFF776F908B1FDF7F2FF0548FFF7A4F970
:102D80000348FFF7F9F906B010BD0000002C014020
:102D90001C01002010B58EB00024079408940994FB
:102DA0000A940B941C2168460C94FDF7D4F9204832
:102DB0001E49C0E9001441F61F41C0E90241046107
:102DC0008461FFF781F908B1FDF7C9FF4FF4805026
:102DD000079007A91648FFF7FBF908B1FDF7BFFFF9
:102DE0001348FFF763FC08B1FDF7B9FF0B940BA97B
:102DF0000F480C94FFF734F908B1FDF7B0FF6020DD
:102E0000CDE9000402940C22694609480494FFF7B6
:102E1000EAFB08B1FDF7A3FF0C210548FFF776FC9C
:102E20000348FFF7B9FB0EB010BD000000040040DE
:102E30006401002010B58CB024216846FDF78BF9A1
:102E400000241A48099418490A94C0E900144FF65E
:102E5000FF71C0E90241046184610320CDE90004EF
:102E60000120CDE902040A210491CDE90540CDE914
:102E7000074169460D48FFF716FA08B1FDF76FFFE5
:102E8000099409A909480A94FFF7EAF808B1FDF77F
:102E900066FF054942F21070243108603C21034866
:102EA000FFF77EFA0CB010BD00080040AC01002016
:102EB0000C4810B50A4901604FF4FA314160002115
:102EC00081600C22C160C0E904128161C161FFF719
:102ED0002CFD002803D0BDE81040FDF740BF10BD19
:102EE00000380140F401002030B500210D4B0122D3
:102EF00003EB420533F81240521CD2B225F8024CC3
:102F0000042AF5D3D880002033F91020401CC0B229
:102F100011440428F8D3C81701EB907040F38F00D8
:102F200030BD0000E0000020FEE7FEE710B4002105
:102F3000084B0A465FF0000003EBC004401CC0B21F
:102F400062548028F8D3491CC9B20829F2D310BCB6
:102F500000F096B83802002010B57F2816D83F2917
:102F600014D80723A3EBD10301F00701C1F1070433
:102F70000121A140064CDBB204EBC000002AC25C78
:102F8000C9B201D00A4300E08A43C25410BD000018
:102F90003802002010B5394C0020C4F88C016420A0
:102FA00004F5C674FEF784FA012020600021AE20EB
:102FB00000F09EF90021D52000F09AF90021502060
:102FC00000F096F90021A82000F092F900213F209E
:102FD00000F08EF90021D32000F08AF90021084684
:102FE00000F086F90021402000F082F900218D20B8
:102FF00000F07EF90021142000F07AF90021202051
:1030000000F076F90021022000F072F90021A120E1
:1030100000F06EF90021C02000F06AF90021DA20EA
:1030200000F066F90021122000F062F900218120F1
:1030300000F05EF90021EF2000F05AF90021D920BC
:1030400000F056F90021F12000F052F90021DB20B8
:1030500000F04EF90021302000F04AF90021A420B0
:1030600000F046F90021A62000F042F90021AF202F
:1030700000F03EF9BDE81040FFF758BF0080214244
:1030800070B5114E002400BF04F1B000C0B20021A1
:1030900000F02EF90021084600F02AF90021102046
:1030A00000F026F95FF0000506EBC5000121005D88
:1030B00000F01EF96D1CEDB2802DF5D3641CE4B256
:1030C000082CE1D370BD0000380200202DE9FF4F2D
:1030D000203A1F460C46894602F0FF0A0025DDF81B
:1030E00034B032E00C2F09D01A4901EB0A104FF02E
:1030F0000008465D300607D55A4609E016490AEB36
:103100004A0001EB8000F2E7BBF1000F12D0002271
:1031100021460098FFF720FF7006641C060EE4B2FB
:10312000A4EB0900B84207D100984C46401CC0B23D
:10313000009008E00122EBE708F1010000F0FF0831
:10314000B8F1080FD6D36D1CEDB2BD42CAD3BDE8AD
:10315000FF8F0000B04F00083C4B00082DE9F04FF6
:10316000824618489B460C468846002500EBC2194B
:10317000002619F82570380601D55A4603E0BBF140
:10318000000F16D0002221465046FFF7E5FE7806D4
:10319000641C070EE4B2A4EB080010280BD0761CC8
:1031A000F6B2082EE7D36D1CEDB2202DE0D3BDE8BA
:1031B000F08F0122E7E70AF10100444600F0FF0A20
:1031C000F1E70000A05500082DE9F04F0C468846B5
:1031D00082461849C2EBC2009B46002501EB00194C
:1031E000002619F82570380601D55A4603E0BBF1D0
:1031F000000F16D0002221465046FFF7ADFE78069C
:10320000641C070EE4B2A4EB080010280BD0761C57
:10321000F6B2082EE7D36D1CEDB21C2DE0D3BDE84D
:10322000F08F0122E7E70AF10100444600F0FF0AAF
:10323000F1E70000A06000082DE9FF4F81B00026F3
:10324000DDF838A01D469346814634464FF001080C
:103250004FEA5A0727E0281B401EC1B20A2000F09F
:1032600027FEBBFBF0F00A21B0FBF1F201FB1200DC
:1032700026B9691E8C4201DA48B101263030C2B24B
:1032800007FB0490C0B25346CDF8008006E007FB70
:103290000490C0B253462022CDF800800299FFF777
:1032A00015FF641CE4B2AC42D5D305B0BDE8F08F85
:1032B000F8B516460D460446012714E07A2C02D9CB
:1032C00000241035EDB23A2D03D900242546FFF72E
:1032D0002DFE009732780C2329462046FFF7F6FE94
:1032E0000834E4B2761C30780028E7D1F8BD00003D
:1032F00070B50F4C0025012211B1C4F8BC2101E0CA
:10330000C4F8BC510B4B0021C3F89451060602D5FA
:10331000C3F8902101E0C3F89051C3F8942140060E
:10332000491C000EC9B20829EED3C4F8BC2170BDF7
:103330000000214200802142704700002DE9F04149
:103340001F490968401AFDF709F91E4C0746A06697
:10335000206EFDF76AF91C4D1C4B2A46FDF775F8E7
:10336000FDF776F906463846FDF75FF92A46184B11
:10337000FDF76BF807460D463046FDF756F93A461D
:103380002B46FCF7BBFFFDF763F920660546E16DB0
:10339000FCF73EFFE565024660660E480168104690
:1033A000FCF73CFF06460C4801682846FCF736FF50
:1033B0003146FCF7DBFEA065BDE8F041FDF7E9B85A
:1033C00004000020640000209A9999999999E93F96
:1033D0009999C93F14000020100000202DE9F04108
:1033E000401AFDF7BBF81D4C0546A066206EFDF7A0
:1033F0001CF91B4F1B4B3A46FDF727F8FDF728F940
:1034000006462846FDF711F93A46174BFDF71DF819
:1034100007460D463046FDF708F93A462B46FCF7BD
:103420006DFFFDF715F920660546E16DFCF7F0FE2E
:10343000E565024660660D4801681046FCF7EEFE41
:1034400006460B4801682846FCF7E8FE3146FCF7C3
:103450008DFEA065BDE8F041FDF79BB8640000203B
:103460009A9999999999E93F9999C93F140000202F
:103470001000002070B50D490968401AFDF76EF87C
:103480000B4D0446696BFCF7C3FE0A496C63FCF7FD
:10349000C5FE054608492046FCF7C0FE2946FCF754
:1034A00065FEBDE87040FDF774B800000400002020
:1034B00064000020000016440000C841022805D026
:1034C000032807D0042807D0002070474FF0804021
:1034D000406A03E0024800E00248006800B270471A
:1034E00024040040240800407047000000B500227A
:1034F00001230849002804DAC1F8B031C1F8B42129
:1035000003E0C1F8B021C1F8B43100F0CDFC0249AC
:10351000086000BD0080214240040040FEF798B9D9
:1035200030B593B028216846FCF715FE14210AA88F
:10353000FCF711FE002501200F951095119501044F
:1035400012958DE8230004904FF4E010CDE90810A7
:10355000022407946846FEF7DDFB08B172B6FEE769
:103560000AA90F2081E831004FF48060CDE90D05F4
:1035700002210AA8FEF7E2FA08B172B6FEE74FF49C
:10358000004011900F940FA8FEF762FA002801D0B6
:1035900072B6FEE713B030BD704700000148FEF779
:1035A00047BF00001C010020F0B50268164B174C05
:1035B000174D4FF08047984205D0B84203D0A04243
:1035C00001D0A84203D122F070064A6832439842E3
:1035D00005D0B84203D0A04201D0A84203D122F4C2
:1035E0004074CA6822434C6922F080022243026080
:1035F0008A68C2620A688262984201D109690163DD
:1036000001214161F0BD0000002C01400004004098
:103610000008004010B501F01F030121046A994021
:103620008C430462016A9A401143016210BD10B5D7
:10363000846842EA032224F47F440A4322438260DE
:1036400010BD826822F070020A4342F007018160D7
:103650007047000030B5026A22F001020262026A7D
:103660004368846924F073050C682C4322F002053A
:103670008A682A430A4DA8420BD122F00805CA687D
:1036800023F440732A434D6922F004021D438B69E1
:103690002B434360846149684163026230BD00008E
:1036A000002C014030B5026A22F010020262026A68
:1036B000436884690D6824F4E64444EA05248D686F
:1036C00022F0200242EA05120B4DA8420ED1CD682D
:1036D00022F0800242EA05124D6923F4406343EA76
:1036E00085038D6922F0400243EA850343608461CB
:1036F00049688163026230BD002C014030B5026A26
:1037000022F480720262036A4268C46923F400737F
:1037100024F073050C682C438D6843EA05230C4D97
:10372000A8420ED1CD6823F4006343EA05234D6916
:1037300022F4405242EA05128D6923F4806342EA82
:1037400005124260C4614968C163036230BD000074
:10375000002C014030B5026A22F480520262046AF1
:103760004268C3690D6823F4E64343EA05238D6884
:1037700024F4005444EA0534064DA84204D14D69AE
:1037800022F4804242EA85124260C36149680164C2
:10379000046230BD002C014010B5036A046A24F0B5
:1037A00001040462846924F0F00444EA021423F062
:1037B0000A020A438461026210BD10B5036A23F055
:1037C000100303628369046A23F4704343EA0232FC
:1037D00024F0A00343EA01118261016210BD0000E0
:1037E0002DE9F84FDFF804B2DFF80492DFF804A205
:1037F000814C4FF00008814D287801283DD000F021
:103800005FFB00BFFFF7A0F9012858D099F800002E
:10381000012877D1464689F80080FFF787FB012011
:10382000287077480660DBF8001021F02001CBF803
:103830000010DBF8001021F08001CBF80010DBF85D
:10384000001021F40061CBF80010DBF8001021F427
:103850008051CBF800106B48016801F0FE01016057
:1038600000F040FA054600F005FD1E20FDF720FEA1
:10387000052D28D00C2DF3D1BDE785F80080DBF8AD
:10388000001041F02001CBF80010DBF8001041F0EF
:103890008001CBF80010DBF8001041F40061CBF898
:1038A0000010DBF8001041F48051CBF800105548AF
:1038B000016841F001010160FFF738FBA2E7012038
:1038C00089F80000A6E7FFF731FB1E20FDF7F0FDA9
:1038D00000F008FA054600F08CFD0B2D04D00C2DED
:1038E000F3D1FFF723FBBBE7FFF720FB00F064FEFB
:1038F0001E20FDF7DDFD00F0F5F90B2803D00C28A4
:10390000F4D1E0E770E0FFF711FB00BF00F031FFFA
:103910001E20FDF7CDFD00F0E5F90B2802D00C28A4
:10392000F4D1E1E7FFF702FB55460F210320FDF735
:10393000C1FAFCF71CFE286001F00AF83220FDF7FE
:10394000B7FD00F0CFF90C28DDD00528EDD1FFF749
:10395000EDFA0A2684F8008010270F210320FDF7D6
:10396000A9FAFCF704FE28600223324610215820F1
:103970000097FFF761FC00F001F96078401C60706F
:103980001E20FDF795FD6078C82820D81E4A2968BA
:103990001144B1F5882F10D82178491CC9B2217083
:1039A00096290AD9FFF7C2FA4546657001F060F81A
:1039B00000F098F90528F8D11DE71421B0FBF1F2C9
:1039C00001FB12000128C8D1761EF6B2C5E784F8C3
:1039D0000180FFF7ABFA00F0F7F94FF4FA60FDF75A
:1039E00067FDFFF7A3FAA0E7BDE8F88F00040140E8
:1039F000010000203C000020EA000020020000201E
:103A0000400400400C2C0140008083BB30B50F49BE
:103A100004460122087801280ED000200C4B0D4DE1
:103A20001B68AB4205DD0C4DAB4202DAB4F52F7FCB
:103A300001DA0A70012030BD084D01200A70002310
:103A4000C5F8B431C5F8B031E8E700000000002047
:103A50003C0000200080224500006145008021429A
:103A600070B5044600680169E26821F440511143D1
:103A700001612169A0680843616908432168CA6837
:103A800041F20C639A430243CA6020684169A2690B
:103A900021F44071114341611E492068884202D1DE
:103AA000FEF7F2F801E0FEF7DFF800EBC00101EBF2
:103AB0000012606864218000B2FBF0F3B3FBF1F305
:103AC0006FF018067343B2FBF0F5B2FBF0F605EBAE
:103AD0008305322303EB0515B5FBF1F5B6FBF1F6D3
:103AE00005F0F00505EB0615B2FBF0F6B2FBF0F0C1
:103AF000B0FBF1F06FF01802504306EB800003EBCF
:103B00000010B0FBF1F0216800F00F00284488603D
:103B100070BD000000380140FEE70000064941F694
:103B2000F42043420A689A4201DA0B6070478242ED
:103B3000FCDD086070470000340000200907090E12
:103B4000002804DB00F1E02080F80014704700F04A
:103B50000F0000F1E02080F8141D704702E008C853
:103B6000121F08C1002AFAD170477047002001E0F7
:103B700001C1121F002AFBD17047000038B5012394
:103B8000382200211520FFF71FFB012339220021D5
:103B90002320FFF719FB01233A2200213120FFF7F0
:103BA00013FB01233B2200213F20FFF70DFB0123E4
:103BB0003C2200214D20FFF707FB01233D2200217D
:103BC0005B20FFF701FB01233E2200216920FFF764
:103BD000FBFA01233F2210210020FFF7F5FA012311
:103BE000402210210E20FFF7EFFA0123412210217D
:103BF0001C20FFF7E9FA01231C2210212E20FFF7D9
:103C0000E3FA01231C2210213520FFF7DDFA0123FE
:103C10001C2210213C20FFF7D7FA01231C2210217F
:103C20004320FFF7D1FA01231C2210214A20FFF77D
:103C3000CBFA01231C2210215120FFF7C5FA0123E2
:103C40000C2220210E20FFF7BFFA01232B22202176
:103C50001C20FFF7B9FA01232C2220212A20FFF78C
:103C6000B3FA0123242220213820FFF7ADFA0123E3
:103C7000252220214620FFF7A7FA01232D2220210B
:103C80005420FFF7A1FA01232E2220216220FFF702
:103C90009BFA012410234122302118200094FFF7C1
:103CA00015FA10234422302120200094FFF70EFA49
:103CB00010234322302128200094FFF707FA0848F8
:103CC0000068FCF77FFC024610200090042330219E
:103CD0004E20FFF7B1FABDE83840FFF7D1B9000038
:103CE0003C000020134810B5C17849B1124CD4F8FB
:103CF000141149B1D4F82C1131B1D4F8301119B1E3
:103D00000121C170002010BD0021C1703220FDF7DB
:103D1000CFFBD4F8140140B1D4F82C0138B1D4F859
:103D200030010028EED10C2010BD052010BD0B2065
:103D300010BD0000540000200000214230B5204B8F
:103D4000D3F808411F4900222CB1CA80D3F808518A
:103D5000012425B106E0CC88641CCC80F6E70D7800
:103D600005B90C704D784DB90D78012D03D18D78C2
:103D70006D1C8D704C708C78022C04D0D3F80831F7
:103D8000012B04D005E08A708A80022030BD0A70C1
:103D90004A708B78012B11D18B885B1C9BB28B8076
:103DA000834206D9CB88834203D28A708A8001205D
:103DB00030BDCB88834201D98A708A80002030BD13
:103DC000000021425400002010B501230E221021D2
:103DD0001820FFF7C3F901230F2210212820FFF735
:103DE000BDF91022012311463820FFF7B7F901234E
:103DF000112210214820FFF7B1F9012312221021CE
:103E00005820FFF7ABF90123132220211820FFF7D8
:103E1000A5F90123142220212820FFF79FF901236F
:103E2000152220213820FFF799F9012300222021B3
:103E30004820FFF793F901231A4620215820FFF765
:103E40008DF9BDE81040FFF71BB90000FDF708FD34
:103E5000FFF766FB0220FEF7FFFD0120FEF7FCFDE9
:103E60004FF47A742046FDF723FB2046FDF720FB34
:103E7000FEF7CEFEFEF78EFFFEF7DCFFFFF718F829
:103E8000FEF79EFEFEF74CFFFFF784F80125054C78
:103E9000FCF7B4FEFFF7A4FC257020780028FCD1C5
:103EA000F6E700002D000020002800DA40427047AD
:103EB0000246012000E05043491EC9B2FBD27047C0
:103EC000F8B50021CBA20846FFF7F2F9CB4D2868E0
:103ED000FCF778FB02460C240323002128200094E1
:103EE000FFF7AAF9C6A200213920FFF7E1F9C54F73
:103EF00028683946FCF792F9FCF74BFB0A2590FB42
:103F0000F5F105FB1102012300213D200094FFF78C
:103F100093F9BDA200215F20FFF7CAF9BB480068F2
:103F2000FCF750FB0246022300216C200094FFF7AF
:103F300083F9B7A20A210020FFF7BAF9B64E30681C
:103F4000FCF740FB024603230A2128200094FFF7D8
:103F500073F9ABA20A213920FFF7AAF93946306874
:103F6000FCF75CF9FCF715FB90FBF5F105FB110282
:103F700001230A213D200094FFF75EF9A2A20A2145
:103F80005F20FFF795F9A5480068FCF71BFB024688
:103F900002230A216C200094FFF74EF9A0A21421FD
:103FA0000020FFF785F9A04E3068FCF70BFB0246B6
:103FB0000323142128200094FFF73EF990A2142136
:103FC0003920FFF775F939463068FCF727F9FCF717
:103FD000E0FA90FBF5F105FB1102012314213D20CD
:103FE0000094FFF729F988A214215F20FFF760F9F8
:103FF0008E480068FCF7E6FA0246022314216C2082
:104000000094FFF719F98AA21E210020FFF750F94A
:10401000894E3068FCF7D6FA024603231E21282079
:104020000094FFF709F976A21E213920FFF740F925
:1040300039463068FCF7F2F8FCF7ABFA90FBF5F183
:1040400005FB110201231E213D200094FFF7F4F827
:104050006DA21E215F20FFF72BF978480068FCF75E
:10406000B1FA024602231E216C200094FFF7E4F807
:10407000734801250068B0F17E5F17D0B0F1804F22
:104080001FD07049884235D10C234E2200214B208D
:104090000095FFF71BF80C234E220A214B200095B8
:1040A000FFF714F80C23592200951BE00C2359222A
:1040B00000214B200095FFF709F80C234E220095B4
:1040C00009E00C234E2200214B200095FEF7FEFF55
:1040D0000C23592200950A214B20FEF7F7FF0C23F1
:1040E0004E22009514214B20FEF7F0FF0C234E22A8
:1040F00000951AE0B0F1814F1BD10C234E22002114
:104100004B200095FEF7E2FF0C234E220A214B20A4
:104110000095FEF7DBFF0C234E2214214B20009567
:10412000FEF7D4FF0C23592200951E214B20FEF7E9
:10413000CDFF45A228215020FFF7BAF8434800944C
:104140000523026828215F20FFF776F840A2282186
:104150000020FFF7ADF82AA228212920FFF7A8F8B0
:104160003DA228213F20FFF7A3F83C4D64260223FF
:104170002868282190FBF6F21C200094FFF75CF8D9
:104180002868022390FBF6F106FB11022821332058
:104190000094FFF751F8286890FBF6F106FB110038
:1041A0000A2806DA0223002228212D200094FFF796
:1041B00043F82BA232215020FFF77AF829480094C7
:1041C0000523026832215F20FFF736F826A232214C
:1041D0000020FFF76DF826480068FCF7F3F9024667
:1041E000042332211E200094FFF726F8BDE8F84092
:1041F000FEF746BF422D4B50000000000800002093
:104200002E00000000002041413A00001C00002068
:10421000422D4B44000000000C0000202000002034
:10422000502D4B5000000000100000202400002002
:10423000502D4B44000000001400002028000020F6
:104240001800002000004040543A00000400002004
:10425000564F4C3A00000000560000003800002085
:10426000503A0000300000204144433A0000000072
:104270003C00002010B50022012311461C20FEF74F
:10428000A3FF01231A4600212A20FEF79DFF0123E8
:10429000022200213820FEF797FF0123032200218C
:1042A0004620FEF791FF0123042200215420FEF74F
:1042B0008BFF0123052200216220FEF785FF0123E9
:1042C000062200217020FEF77FFF01230722102124
:1042D0000020FEF779FF0123082210210E20FEF7AF
:1042E00073FF0123092210211C20FEF76DFF01231B
:1042F0000A2210212A20FEF767FF01230B2210213A
:104300003820FEF761FF01230C2210214620FEF722
:104310005BFF01230D2210215420FEF755FF0123DE
:104320000E2210216220FEF74FFF01230F221021E1
:104330007020FEF749FF0123102220210020FEF704
:1043400043FF0123112220210E20FEF73DFF012310
:10435000122220211C20FEF737FF012313222021E7
:104360002A20FEF731FF0123142220213820FEF7F6
:104370002BFF0123152220214620FEF725FF0123D4
:10438000162220215420FEF71FFF0123172220218F
:104390006220FEF719FF0123182220217020FEF76A
:1043A00013FF0123192230210020FEF70DFF012306
:1043B0001A2230210E20FEF707FF01231B22302195
:1043C0001C20FEF701FF01231C2230212A20FEF7CA
:1043D000FBFE01231C2230212E20FEF7F5FE0123D7
:1043E0001C2230213220FEF7EFFEBDE81040FEF720
:1043F00047BE10B5002101230C220846FEF7E4FE5B
:1044000001231D2200210E20FEF7DEFE01231E22C5
:1044100000211C20FEF7D8FE01231F2200212A20A4
:10442000FEF7D2FE0123202200213820FEF7CCFE29
:104430000123212200214620FEF7C6FE012322226D
:1044400000215420FEF7C0FE01230B220021622030
:10445000FEF7BAFE0123232200217020FEF7B4FEEE
:104460000123242210210020FEF7AEFE0123252285
:1044700010210E20FEF7A8FE0123262210211C2069
:10448000FEF7A2FE0123272210212A20FEF79CFE20
:104490000123282210213820FEF796FE012329222D
:1044A00010214620FEF790FE01232A2210215420DD
:1044B000FEF78AFE01232B2210216220FEF784FEE4
:1044C00001232C2210217020FEF77EFE01232D22D5
:1044D00020210020FEF778FE01232E2220210E202D
:1044E000FEF772FE0123132220211C20FEF76CFE32
:1044F00001232F2220212A20FEF766FE01233022ED
:1045000020213820FEF760FE0123312220214620A1
:10451000FEF75AFE0123322220215420FEF754FEDA
:104520000123332220216220FEF74EFE01231822B0
:1045300020217020FEF748FE01232922302100208F
:10454000FEF742FE0123342230210E20FEF73CFE0E
:104550000123352230211C20FEF736FE01231822CC
:1045600030212A20FEF730FE012319223021382085
:10457000FEF72AFE0123362230214620FEF724FED4
:104580000123372230215420FEF71EFE01231C2276
:1045900030216220FEF718FE01231C223021662004
:1045A000FEF712FE01231C2230216A20FEF70CFECA
:1045B000BDE81040FEF764BD10B500210123422282
:1045C0000846FEF701FE0123432200210E20FEF7DC
:1045D000FBFD0123442200211C20FEF7F5FD0123F1
:1045E000242200212A20FEF7EFFD012325220021AD
:1045F0003820FEF7E9FD0123452200214620FEF781
:10460000E3FD0123022200215420FEF7DDFD0123FA
:10461000032200216220FEF7D7FD0123042200219E
:104620007020FEF7D1FD0123462210210020FEF765
:10463000CBFD0123472210210E20FEF7C5FD0123EB
:10464000482210211C20FEF7BFFD01234922102122
:104650002A20FEF7B9FD01234A2210213820FEF757
:10466000B3FD01234B2210214620FEF7ADFD0123AF
:104670004C2210215420FEF7A7FD01234D221021CA
:104680006220FEF7A1FD01234E2210217020FEF7CB
:104690009BFD01234F2220210020FEF795FD0123E1
:1046A000502220210E20FEF78FFD01230B22202116
:1046B0001C20FEF789FD0123512220212A20FEF72C
:1046C00083FD0123332220213820FEF77DFD0123C5
:1046D0003C2220214620FEF777FD01233D222021A8
:1046E0005420FEF771FD0123522220216220FEF7A3
:1046F0006BFD0123532220217020FEF765FD01236D
:10470000542230210020FEF75FFD01235522302185
:104710000E20FEF759FD01234D2230211C20FEF70B
:1047200053FD01234E2230212A20FEF74DFD0123A7
:10473000562230213820FEF747FD01235722302131
:104740004620FEF741FD01234C2230215420FEF784
:104750003BFD0123582230216220FEF735FD012365
:10476000592230217020FEF72FFDBDE81040FEF7E2
:1047700087BC10B50021012323220846FEF724FD43
:1047800001235A2200210E20FEF71EFD01232422C0
:1047900000211C20FEF718FD0123252200212A20DC
:1047A000FEF712FD0123262200213820FEF70CFD22
:1047B0000123272200214620FEF706FD012328229F
:1047C00000215420FEF700FD012329220021622050
:1047D000FEF7FAFC01235B2200217020FEF7F4FCB7
:1047E00001235C2210210020FEF7EEFC01235D2254
:1047F00010210920FEF7E8FC01235E22102112207F
:10480000FEF7E2FC01234C2210211B20FEF7DCFC0A
:1048100001235F2210212920FEF7D6FC0123392233
:1048200010213720FEF7D0FC012360221021452003
:10483000FEF7CAFC0123612210214E20FEF7C4FCC2
:104840000123602210215720FEF7BEFC01236122C4
:1048500010216020FEF7B8FC01236322102169209B
:10486000FEF7B2FC0123602220210020FEF7ACFC01
:104870000123612220210920FEF7A6FC01236222E8
:1048800020211220FEF7A0FC0123612220211B2001
:10489000FEF79AFC0123642220212420FEF794FCD9
:1048A0000123572220213220FEF78EFC01230B2208
:1048B00020214020FEF788FC0123512220214E2098
:1048C000FEF782FC0123332220215C20FEF77CFCD2
:1048D00001234F2220216A20FEF776FC0123652266
:1048E00030210020FEF770FC0123492230210E20E8
:1048F000FEF76AFC01234A2230211C20FEF764FCEB
:1049000001234B2230212A20FEF75EFC01234C229A
:1049100030213820FEF758FC01234D22302146205B
:10492000FEF752FC01234E2230215420FEF74CFCAE
:104930000123132230216220FEF746FC01233C2292
:1049400030217020FEF740FCBDE81040FEF798BB18
:1049500038B5002101233D220846FEF735FC01232E
:10496000312200210E20FEF72FFC012366220021B8
:104970001C20FEF729FC0123332200212A20FEF708
:1049800023FC0123142200213820FEF71DFC012303
:10499000152200214620FEF717FC012316220021D4
:1049A0005420FEF711FC0123172200216220FEF79C
:1049B0000BFC0123182200217020FEF705FC0123C7
:1049C000192210210020FEF7FFFB0123672210218E
:1049D0000E20FEF7F9FB0123682210211C20FEF7B0
:1049E000F3FB0123072210212A20FEF7EDFB012310
:1049F000082210213820FEF7E7FB01231C2210219A
:104A00004620FEF7E1FB01231C2210214A20FEF77D
:104A1000DBFB01231C2210214E20FEF7D5FB0124D5
:104A200010234122282118200094FEF74FFB102369
:104A30004422282120200094FEF748FB282110233F
:104A4000432208460094FEF741FB08480068FBF744
:104A5000B9FD024610200090042328214E20FEF7C5
:104A6000EBFBBDE83840FEF70BBB00003C0000202C
:104A700010B50123002204212020FEF76FFB012343
:104A80001A4604213020FEF769FB0123022204218B
:104A90004020FEF763FB0123032204215020FEF790
:104AA0005DFB1821012304220846FEF757FB012372
:104AB000052218212820FEF751FB01230622182188
:104AC0003820FEF74BFB0123072218214820FEF770
:104AD00045FB0123082218215820FEF73FFB012344
:104AE000092218216820FEF739FB01230A222C2114
:104AF0000020FEF733FB01230B222C211020FEF7B0
:104B00002DFB01230C222C212020FEF727FB012363
:104B10000D222C213020FEF721FBBDE81040FEF7CE
:104B2000AFBA000000000000000001020304060705
:104B3000080900000000010203040000000000005A
:104B40000000000000000000000000003F400000E6
:104B50000000000000003000400030004000000075
:104B600009000BC03D000BC03D00090018C02440E7
:104B70007FE0224031800000180024C01B000D801F
:104B80003240018003801C4027401C8007400040C9
:104B900010006000000000000000000000000000A5
:104BA00000001F80204040200000402020401F8047
:104BB00000000000090006001F8006000900000038
:104BC000040004003F8004000400000000100060A6
:104BD00000000000000000000400040004000400C5
:104BE0000400000000000040000000000000000081
:104BF000002001C006003800400000001F80204057
:104C0000204020401F800000000010403FC00040B6
:104C10000000000018C0214022402440184000003D
:104C200010802040244024401B80000002000D0022
:104C300011003FC0014000003C802440244024403B
:104C4000238000001F802440244034400380000063
:104C50003000200027C03800200000001B802440C6
:104C6000244024401B8000001C0022C0224022401F
:104C70001F8000000000000008400000000000004D
:104C800000000000046000000000000000000400BC
:104C90000A001100208040400900090009000900B5
:104CA0000900000000004040208011000A000400BC
:104CB0001800200023402400180000001F8020401E
:104CC000274029401F400000004007C039000F0066
:104CD00001C0004020403FC0244024401B80000011
:104CE0001F802040204020403080000020403FC0F6
:104CF000204020401F80000020403FC024402E4024
:104D000030C0000020403FC024402E003000000092
:104D10000F001080204022403380020020403FC01E
:104D2000040004003FC02040204020403FC02040FD
:104D3000204000000060202020203FC020002000F4
:104D400020403FC024400B0030C0204020403FC0E6
:104D500020400040004000C03FC03C0003C03C0079
:104D60003FC0000020403FC00C4023003FC0200057
:104D70001F802040204020401F80000020403FC076
:104D800024402400180000001F802140214020E022
:104D90001FA0000020403FC02440260019C0004052
:104DA00018C02440244022403180000030002040C0
:104DB0003FC020403000000020003F800040004005
:104DC0003F80200020003E0001C007003800200086
:104DD000380007C03C0007C038000000204039C040
:104DE000060039C0204000002000384007C038408D
:104DF00020000000304021C02640384020C0000084
:104E0000000000007FE04020402000000000700013
:104E10000C000380004000000000402040207FE0A4
:104E20000000000000002000400020000000000002
:104E30000010001000100010001000100000000012
:104E40004000000000000000000002800540054016
:104E500003C0004020003FC0044004400380000025
:104E6000000003800440044006400000000003806E
:104E7000044024403FC0004000000380054005403E
:104E800003400000000004401FC0244024402000D4
:104E9000000002E0055005500650042020403FC0AD
:104EA0000440040003C000400000044027C000404C
:104EB0000000000000100010041027E000000000B7
:104EC00020403FC00140070004C004402040204073
:104ED0003FC000400040000007C0040007C00400BD
:104EE00003C00000044007C00440040003C00040A9
:104EF000000003800440044003800000041007F019
:104F0000045004400380000000000380044004506B
:104F100007F00010044007C0024004000400000035
:104F2000000006400540054004C0000000000400E9
:104F30001F8004400040000004000780004004403F
:104F400007C000400400070004C001800600040000
:104F5000060001C0070001C006000000044006C0B2
:104F6000010006C0044000000410071004E00180A6
:104F7000060004000000044005C006400440000094
:104F80000000000004007BE0402000000000000062
:104F90000000FFF000000000000040207BE0040063
:104FA0000000000040008000400020002000400081
:104FB00000000000000000000000000000000000F1
:104FC0000000000000001FCC000C000000000000EA
:104FD00000000800300060000800300060000000A1
:104FE000022003FC1E20022003FC1E2002200000E1
:104FF00000000E1811043FFF10840C780000000020
:105000000F0010840F3800C0077818840078000063
:1050100000780F8410C411240E9800E40084000866
:1050200008006800700000000000000000000000A0
:1050300000000000000007E01818200440020000F3
:10504000000040022004181807E0000000000000E3
:105050000240024001800FF0018002400240000047
:105060000080008000800FF8008000800080000039
:105070000001000D000E0000000000000000000014
:1050800000000080008000800080008000800080A0
:105090000000000C000C00000000000000000000F8
:1050A00000000006001800600180060018002000C3
:1050B000000007F0080810041004080807F00000BA
:1050C0000000080408041FFC0004000400000000A5
:1050D00000000E0C10141024104411840E0C00005B
:1050E00000000C1810041104110412880C70000048
:1050F000000000E00320042408241FFC002400001A
:1051000000001F9810841104110410881070000012
:10511000000007F0088811041104188800700000CE
:1051200000001C00100010FC13001C001000000008
:1051300000000E3811441084108411440E38000011
:1051400000000700088C10441044088807F0000095
:10515000000000000000030C030C00000000000031
:105160000000000000010106000000000000000037
:105170000000008001400220041008081004000014
:105180000220022002200220022002200220000031
:1051900000001004080804100220014000800000F4
:1051A00000000E001200100C106C10800F000000A8
:1051B00003E00C1813E4142417C4082807D00000D7
:1051C0000004003C03C41C40074000E4001C000431
:1051D00010041FFC1104110411040E88007000005B
:1051E00003E00C1810041004100410081C10000038
:1051F00010041FFC100410041004080807F000003D
:1052000010041FFC1104110417C410040818000036
:1052100010041FFC1104110017C01000080000004A
:1052200003E00C181004100410441C780040000027
:1052300010041FFC10840080008010841FFC1004E8
:105240000000100410041FFC1004100400000000F3
:1052500000030001100110011FFE100010000000EB
:1052600010041FFC110403801464181C10040000B7
:1052700010041FFC1004000400040004000C0000D3
:1052800010041FFC1F0000FC1F001FFC1004000086
:1052900010041FFC0C04030000E010181FFC100099
:1052A00007F00808100410041004080807F00000B4
:1052B00010041FFC10841080108010800F0000006C
:1052C00007F0081810241024101C080A07F2000028
:1052D00010041FFC1104110011C011300E0C000449
:1052E00000000E1C11041084108410441C380000AF
:1052F0001800100010041FFC10041000180000001B
:1053000010001FF810040004000410041FF810001F
:1053100010001E0011E0001C007013801C00100023
:105320001FC0103C00E01F0000E0103C1FC0000048
:105330001004180C163401C001C01634180C1004E7
:1053400010001C00130400FC13041C0010000000DB
:105350000804101C1064108413041C0410180000AE
:105360000000000000007FFE4002400240020000FA
:10537000000030000C0003800060001C00030000EF
:1053800000004002400240027FFE000000000000DA
:10539000000000002000400040004000200000000D
:1053A00000010001000100010001000100010001F5
:1053B000000040004000200000000000000000004D
:1053C00000000098012401440144014400FC000451
:1053D00010001FFC00880104010400880070000018
:1053E000000000700088010401040104008800002E
:1053F0000000007000880104010411081FFC000473
:10540000000000F8014401440144014400C80000C8
:105410000000010401040FFC110411041100180024
:10542000000000D601290129012901C90106000057
:1054300010041FFC008401000100010400FC0004B2
:1054400000000104190419FC00040004000000001D
:105450000000000300010101190119FE0000000015
:1054600010041FFC0024004001B4010C01040000E2
:105470000000100410041FFC0004000400000000E1
:10548000010401FC0104010001FC0104010000FC15
:10549000010401FC008401000100010400FC00047F
:1054A000000000F8010401040104010400F80000F8
:1054B000010101FF00850104010400880070000063
:1054C00000000070008801040104010501FF0001D3
:1054D0000104010401FC00840104010001800000BA
:1054E000000000CC012401240124012401980000C3
:1054F00000000100010007F80104010400000000A1
:10550000010001F8000400040004010801FC00048B
:10551000010001800170000C001001600180010099
:1055200001F0010C003001C00030010C01F001005D
:1055300000000104018C00740170018C0104000062
:10554000010101810171000E00180160018001005C
:1055500000000184010C013401440184010C0000AD
:10556000000000000000000001003EFC400240027C
:105570000000000000000000FFFF0000000000002D
:105580000000400240023EFC01000000000000005C
:1055900000006000800080004000400020002000EB
:1055A00002000000000000004200000000000000B7
:1055B00033000000FC0000000000000008000000B4
:1055C00000000000110000007F000000FE0000004D
:1055D00041000000000000004900000078000000C9
:1055E00049000000480000007F0000004800000063
:1055F0004900000048000000490000007A00000057
:1056000041000000010000007F000000FE000000DB
:10561000000000000000000000000000000000008A
:105620002000000000000000220000000000000038
:105630002200000000000000220000000000000026
:10564000FA0000000000000022000000000000003E
:1056500023000000FF000000220000000000000006
:1056600022000000000000002200000010000000E6
:10567000FA000000080000002200000010000000F6
:1056800023000000E00000002000000000000000F7
:1056900020000000000000000000000000000000EA
:1056A00000000000010000000000000006000000F3
:1056B0001F000000F80000001100000000000000C2
:1056C00011000000080000001100000004000000AC
:1056D00011000000F80000001000000001000000B0
:1056E0001000000002000000FF0000008400000025
:1056F000100000006800000090000000180000008A
:105700005000000064000000130000008200000050
:10571000100000001F00000000000000000000005A
:105720001000000008000000100000000C00000045
:1057300010000000080000001F000000F80000003A
:105740001000000010000000100000001100000018
:105750001000000012000000080000000C00000013
:105760000800000070000000FF0000008000000042
:105770000800000002000000080000000100000016
:1057800008000000020000000F000000FC00000004
:105790000000000000000000000000000000000009
:1057A0000800000040000000080000004200000067
:1057B0000800000081000000FF000000FE00000063
:1057C00009000000000000000400000000000000CC
:1057D000190000000100000011000000210000007D
:1057E00011000000D200000097000000140000002B
:1057F000710000000800000011000000140000000B
:1058000011000000E200000015000000010000008F
:10581000190000000000000000000000000000006F
:1058200040000000000000004000000000000000F8
:1058300040000000000000004000000000000000E8
:1058400040000000000000004000000000000000D8
:105850007F000000FF00000040000000000000008A
:1058600040000000000000004200000000000000B6
:105870004100000000000000400000008000000027
:105880004000000060000000400000000000000038
:1058900040000000000000000000000000000000C8
:1058A00000000000010000000000000006000000F1
:1058B0007F000000F80000004400000040000000ED
:1058C00044000000400000004400000040000000D0
:1058D00044000000400000007F000000FE000000C7
:1058E00044000000400000004400000040000000B0
:1058F000440000004200000044000000410000009D
:105900007F000000FE00000000000000000000001A
:105910000000000000000000000000000000000087
:105920000000000000000000000000000100000076
:1059300000000000060000001F000000F80000004A
:105940001000000080000000100000008000000037
:105950009000000080000000700000008000000047
:105960001000000080000000100000008000000017
:105970001000000080000000100000008000000007
:105980001F000000C0000000000000000000000038
:105990000000000000000000000000000000000007
:1059A0000800000040000000080000004200000065
:1059B0000800000081000000FF000000FE00000061
:1059C00009000000000000000400000000000000CA
:1059D000190000000100000011000000210000007B
:1059E00011000000D2000000970000001400000029
:1059F0007100000008000000110000001400000009
:105A000011000000E200000015000000010000008D
:105A1000190000000000000000000000000000006D
:105A200002000000800000000C0000008000000068
:105A3000F7000000FE0000002400000084000000C9
:105A4000240000008A000000010000006400000043
:105A5000270000001800000039000000E4000000EA
:105A600008000000220000002A000000A200000040
:105A70002A000000A2000000FF000000FA00000061
:105A80002A000000A20000003E000000A20000006A
:105A900008000000220000000000000000000000DC
:105AA00002000000000000000200000002000000F0
:105AB000420000000400000033000000F800000075
:105AC00000000000040000000100000002000000CF
:105AD000110000000A000000110000003200000068
