:020000040800F2
:10000000780C0020CD0100088D170008B1120008FF
:10001000D91500086D090008B72F0008000000007E
:100020000000000000000000000000002521000882
:10003000310B0008000000003D1D00087922000877
:10004000E7010008E7010008E7010008E7010008F0
:10005000E7010008E7010008E7010008E7010008E0
:10006000E7010008E7010008E7010008E7010008D0
:10007000E7010008E7010008E7010008E7010008C0
:10008000E7010008E7010008E7010008E7010008B0
:10009000E7010008E7010008E7010008C90C0008B3
:1000A000E70100081D250008E7010008E701000836
:1000B000E7010008E701000815270008E70100082C
:1000C000E7010008E7010008E7010008E701000870
:1000D000E7010008952D0008E7010008E701000886
:1000E000350B0008E7010008E7010008E7010008F8
:1000F000E7010008E7010008E7010008E701000840
:10010000E7010008E7010008E7010008E70100082F
:10011000E7010008E7010008E7010008E70100081F
:10012000E7010008E7010008E7010008E70100080F
:1001300000F002F800F03AF80AA090E8000C8244BF
:100140008344AAF10107DA4501D100F02FF8AFF29C
:10015000090EBAE80F0013F0010F18BFFB1A43F0A5
:10016000010318473494000054940000103A24BF4F
:1001700078C878C1FAD8520724BF30C830C144BF0C
:1001800004680C607047000000230024002500264E
:10019000103A28BF78C1FBD8520728BF30C148BFEA
:1001A0000B6070471FB51FBD10B510BD00F033F8D0
:1001B0001146FFF7F7FF03F013F900F051F803B40D
:1001C000FFF7F2FF03BC02F00DFF00000948804773
:1001D00009480047FEE7FEE7FEE7FEE7FEE7FEE729
:1001E000FEE7FEE7FEE7FEE704480549054A064B41
:1001F000704700007D2200083101000878060020C9
:10020000780C00207808002078080020704770479C
:10021000704770477047754600F02CF8AE460500F1
:100220006946534620F00700854618B020B5FFF711
:10023000DBFFBDE820404FF000064FF000074FF015
:1002400000084FF0000B21F00701AC46ACE8C009F4
:10025000ACE8C009ACE8C009ACE8C0098D467047FD
:1002600010B50446AFF300802046BDE81040FFF70C
:10027000A6BF0000004870471806002021B1826820
:1002800042F00102826003E0826822F00102826093
:100290007047000010B504461248844208D101217D
:1002A000401501F08DFE0021601501F089FE17E078
:1002B0000D48844208D10121001501F081FE002182
:1002C000201501F07DFE0BE00848844208D1012191
:1002D000C80301F075FE00214FF4004001F070FEEC
:1002E00010BD00000024014000280140003C0140F6
:1002F000014600208A6802F004020AB1012000E0F1
:10030000002070470146C86C80B27047024600204A
:1003100013680B400BB1012000E00020704701463C
:1003200000208A6802F008020AB1012000E00020E3
:100330007047000030B502460020002350680F4C83
:1003400020400D790C6844EA0524204350609068F1
:100350000B4C2040D1E902542C434D7944EA45042A
:1003600020439060D06A20F470000C7C641EE4B2DC
:10037000234340EA0350D06230BD0000FFFEF0FF8F
:10038000FDF7F1FFF0B504460D4600200021092DD0
:1003900011DDE068A5F10A0606EB4607072606FA16
:1003A00007F18843A5F10A0606EB460603FA06F1B3
:1003B0000843E0600CE0206905EB4507072606FAD4
:1003C00007F1884305EB450603FA06F1084320616F
:1003D000072A0FDA606B561E06EB86071F2606FA01
:1003E00007F18843561E06EB860605FA06F1084318
:1003F000606322E00D2A0FDA206BD61F06EB86071A
:100400001F2606FA07F18843D61F06EB860605FA73
:1004100006F10843206310E0E06AA2F10D0606EB46
:1004200086071F2606FA07F18843A2F10D0606EBA0
:10043000860605FA06F10843E062F0BD816841F0E6
:1004400008018160704721B1826842F4A002826095
:1004500003E0826822F4A00282607047816841F064
:10046000040181607047000000B587B001214FF49E
:10047000017001F095FD4FF4004001F075FD48203A
:10048000ADF8040000208DF8070001A9174800F01E
:10049000E1FD1748FFF7FEFE002002908DF80C00EA
:1004A0008DF80D004FF4602004900020059001208D
:1004B0008DF8180002A90E48FFF73CFF01210C48F7
:1004C000FFF7DCFE0A48FFF7B9FF00BF0848FFF757
:1004D00026FF0028FAD10648FFF7C0FF00BF0448F6
:1004E000FFF706FF0028FAD107B000BD0008014061
:1004F000002401402DE9F041D048007800287DD14A
:10050000CF49D048006804F0F5FD18D2CE49CD4857
:10051000006804F0EFFC12D20021CC48006804F01F
:10052000E9FC03D80120CA49087008E00021C74847
:10053000006804F0DFFD02D20120C6490870C548FA
:10054000007801281AD1C449BE48006804F0D2FDE1
:1005500032D2C249BB48006804F0CCFC2CD2002047
:10056000BC49087042F21520BD490860BD480078BA
:10057000012821DD41F6957008601DE0B44800783F
:10058000012819D1B449AF48006804F0B3FD13D273
:10059000B249AC48006804F0ADFC0DD20020AC4973
:1005A000087041F61350AE490860AE480078012843
:1005B00002DD41F655600860A9480168AA48006854
:1005C00001F02CFCA9490860A9499E48006804F084
:1005D00091FC0AD2A7499B48006804F08BFD04D225
:1005E000A0480078401C9F490870A34995480068BE
:1005F00004F080FC2AD2A149924800E051E0006852
:1006000004F078FD22D29848006841F69C018842A7
:100610001CDD9548006842F25441884216DA984938
:100620008A48006804F066FD10D296498748006841
:1006300004F060FC0AD28B480078401C894908709D
:1006400091480068401C9049086002E000208E49F3
:1006500008608D480068032811DD01207749087083
:100660008A4908708A488B4908608B488B49086022
:100670004FF082408A4908608A488B4908607B486D
:10068000006841F20401884202DD084677490860AB
:10069000764800688549884202DA0846734908604E
:1006A000C9E07A4800780128FAD18148006818B971
:1006B0006D4800687F4908606248006800F016F9DC
:1006C0007D4908607D480078401CC0B27B490870B5
:1006D000042808DD6448006801F032FB78490860AE
:1006E00000207649087072480068401C7049086014
:1006F0000846006864281BDD08460068B0F5FA6FFC
:1007000016DA6C48006841F6A471884205DD694834
:100710000068401E674908600AE06648006841F6C4
:10072000A471884204DA63480068401C614908608B
:100730005F480068B0F5FA6F03DD40F2D1705C49A4
:1007400008606048007800286ED15F480088401C2F
:100750005D49088008460088642190FBF1F201FBA6
:10076000120010BB59494B48006804F0F7F9494999
:10077000086056494948006804F0F0F947490860A4
:100780004748006804F0BEF906460022504B03F0CB
:100790008FFD044603F05AFD414908604B49424829
:1007A000006804F0DBF9404908604A4939480068AC
:1007B00004F0A0FC02D24748364908604549374852
:1007C000006804F097FC02D242483449086042496C
:1007D0003348006804F08EFC02D23F48304908607C
:1007E0003E493148006804F085FC02D23B482E495E
:1007F000086038492748006804F0E0FA14D1354908
:100800002648006804F0DAFA0ED13349244800681B
:1008100004F0D4FA08D131492348006804F0CEFA34
:1008200002D101202749087023480068244909683B
:10083000401A0E490860BDE8F0810000BE000020AB
:10084000000061441800002000808E44C400002095
:10085000DD000020DC0000200080724400C08544E0
:10086000C0000020F0000020080000201000002040
:1008700000D0594500B029450040494500403A455F
:100880000000F0C10000F041C8000020CC000020B2
:10089000000052431C0000200000164320000020EE
:1008A00024000020000002432800002014ECFFFF79
:1008B000D00000200C0000208C00002094000020BC
:1008C00090000020F1000020F200002000002041F4
:1008D0000000E03F0000C8430000A0410000964334
:1008E000014908607047000000860D422DE9F04183
:1008F00004461749204604F02FFC164908601648A4
:1009000001681448006804F027FC14490860144882
:1009100001681248006804F021FB80461148006815
:1009200080F000470B480168384604F017FB064684
:10093000414604F011FC054604F074FA0A490860C7
:10094000044800680449086007480068BDE8F08171
:1009500000C04145980000209C000020A00000201D
:10096000200000201C000020A400002000BFFEE7A3
:1009700010B501211948006800F088F8184800688F
:1009800004F08CFA0446022100F080F803210020D4
:1009900000F07CF8032000F02DF8124908700020C8
:1009A0001149087012E000BF1048008800F04000B4
:1009B0000028F9D00E480C490978405C0B49091D04
:1009C000088009480078401C0749087006480078EC
:1009D000044909788842E6DB10BD000018000020B9
:1009E000080000201A0100201801002000380140F2
:1009F000EC05002001460A2900DC09B900207047F7
:100A00002420214A10700B293CD2DFE801F03B067C
:100A10000B10151A1F24292F350005201A4A507172
:100A20000620ECE70920184A50720A20E7E70D205B
:100A3000154A50730E20E2E71120134A5074122019
:100A4000DDE71520104A50751620D8E719200E4A08
:100A500050761A20D3E71D200B4A50771E20CEE790
:100A60002120094A82F821002220C8E72520064AD1
:100A700082F825002620C2E72920034A82F82900AF
:100A80002A20BCE70020BAE7EC05002013B50C468D
:100A90000A2C00DC04B91CBD0B2C43D2DFE804F0A7
:100AA00042060C12181E242A30363C0001221F492F
:100AB000684600F0A1FA35E005221C49684600F0BE
:100AC0009BFA2FE009221949684600F095FA29E0BF
:100AD0000D221649684600F08FFA23E011221349CF
:100AE000684600F089FA1DE015221049684600F0BA
:100AF00083FA17E019220D49684600F07DFA11E0EB
:100B00001D220A49684600F077FA0BE021220749C6
:100B1000684600F071FA05E025220449684600F0B5
:100B20006BFA00BF00BF00BFB5E70000EC05002076
:100B30007047000010B5052002F0C6FB574800685A
:100B400068BB4FF07E515648006804F037F908D171
:100B5000544801685448006804F0FEFA524908609D
:100B60002DE04FF080414E48006804F027F908D18D
:100B70004E4801684E48006804F0EEFA4C4908609F
:100B80001DE04C494648006804F018F908D14A486D
:100B900001684A48006804F0DFFA484908600EE03E
:100BA0004FF081413E48006804F008F907D14448FD
:100BB00001684448006804F0CFFA424908603748A9
:100BC000001F006868BB4FF07E513548006804F094
:100BD000F5F808D1334801683348006803F0BEFFD8
:100BE000314908602DE04FF080412D48006804F045
:100BF000E5F808D12D4801682D48006803F0AEFFE4
:100C00002B4908601DE02B492548006804F0D6F800
:100C100008D1294801682948006803F09FFF274947
:100C200008600EE04FF081411D48006804F0C6F8EE
:100C300007D1234801682348006803F08FFF21494A
:100C4000086000211848006804F054F902D8002018
:100C50001549086000211648006804F04BF902D8D5
:100C600000201349086000211448006804F042F98C
:100C700002D800201149086000211248006804F0E1
:100C800039F902D800200F4908604FF4006000F0E5
:100C900057F84FF4805000F053F810BD3001214256
:100CA0002C000020300000201C0000203400002018
:100CB00020000020000040403800002024000020D8
:100CC0003C0000202800002070B5052002F0FCFA4E
:100CD0001748006868B91748007808B9012000E093
:100CE0000020144908700846007810B90020124905
:100CF00008700F480830006898B910484FF07E51CE
:100D00000568006803F02AFF0C492C4608604FF084
:100D10008141204604F052F803D14FF07E5007493C
:100D20000860202000F00CF8802000F009F870BD69
:100D30001401214200000020950000202C0000201A
:100D40000149086070470000140401400021234954
:100D50008279002A3AD00A46126803689A430B4601
:100D60001A600A1D126803689A430B1D1A60027903
:100D700011440A6803681A430A60184A0832126864
:100D800003689A43154B08331A601A1D12680368EA
:100D90009A43124B0C331A604279102A0ED11A1F53
:100DA000126803681A430D4B08331A601A1D126843
:100DB00003681A43094B0C331A600DE00749427966
:100DC00011440A6803681A430A6005E00279114475
:100DD0000A6803689A430A607047000000040140F3
:100DE00000B587B00121042001F0CAF801210820D4
:100DF00001F0D6F8C020ADF8000004208DF8030003
:100E000069461D4800F026F904A801F013FE0020F1
:100E1000ADF810004FF6FF70ADF814000020ADF8EB
:100E20001600ADF8120004A9144801F0B1FD00232A
:100E30001A460321114801F097FC01A801F01CFD9E
:100E40000A20ADF80C0001A90C4801F0BFFC0121FB
:100E50000A4801F077FC01221146084801F015FD0F
:100E600042F21071054801F064FD0121034801F0D0
:100E70006FFC07B000BD0000000C014000080040FE
:100E80002DE9F0414B48007800287BD141F6F56010
:100E90004949086049494A48006803F05FFE054631
:100EA000FFF724FD0446C01704EB5070C0104549FD
:100EB00008604548006801F01DF844490860424850
:100EC000006841F60E71884208DA41F6F5613E4845
:100ED000006800F0EFF93E49086007E03948006813
:100EE00040423A4909680844394908603949344858
:100EF000006803F0FFFF19D237493148006804F059
:100F0000F9F813D23048006841F6C36188420DDD1C
:100F10002D48006841F62771884207DA4FF07E516C
:100F20002E48006803F01AFE2C490860294924481D
:100F3000006803F0DFFF13D227492148006804F05E
:100F4000D9F80DD22548006803F0DCFD0646244A96
:100F5000244B03F0ADF9044603F078F91F4908600B
:100F600021491E48006804F0C5F80BD20120114940
:100F7000087000201D4908701549086041F6594065
:100F80001B4908601248006840F6C411884202DD1F
:100F900008460F4908600E4800681649884202DA80
:100FA00008460B4908600A48006801F031F9BDE8BD
:100FB000F0810000BD0000200C0000200060014511
:100FC000180000208C000020080000209000002065
:100FD000100000200000A54400003444EC00002074
:100FE0009A9999999999B93F00004843BE00002009
:100FF000C00000203CF6FFFF30B503461C788C543F
:101000005D78541C0D559D78941C0D55DD78D41CCD
:101010000D5530BD30B500228B071C0F0F2303FA8E
:1010200004F20B4B8C1053F824309343084C8D1072
:1010300044F8253023468C1053F824308C07240FB5
:1010400000FA04F42343024C8D1044F8253030BDDF
:10105000080001402DE9F04102460025002600204D
:1010600000230024002791F803C00CF00F0591F82D
:1010700003C00CF0100CBCF1000F03D091F802C0BB
:101080004CEA050591F800C0BCF1000F31D014689E
:1010900000202BE04FF0010C0CFA00F3B1F800C077
:1010A0000CEA03069E4220D183004FF00F0C0CFA8D
:1010B00003F7BC4305FA03FC4CEA040491F803C0AF
:1010C000BCF1280F06D14FF0010C0CFA00FCC2F85D
:1010D00014C00AE091F803C0BCF1480F05D14FF0ED
:1010E000010C0CFA00FCC2F810C0401C0828D1D337
:1010F0001460B1F800C0BCF1FF0F34DD546800206B
:101100002EE000F1080C4FF0010808FA0CF3B1F8DA
:1011100000C00CEA03069E4221D183004FF00F0C61
:101120000CFA03F7BC4305FA03FC4CEA040491F8FB
:1011300003C0BCF1280F05D100F1080C08FA0CF827
:10114000C2F8148091F803C0BCF1480F07D100F138
:10115000080C4FF0010808FA0CF8C2F81080401C87
:101160000828CED35460BDE8F08141617047016129
:101170007047000010B50446062C06D10723012253
:1011800021460D48FFF7FEF807E0032C05D10023A8
:10119000012221460848FFF7F5F801210648FFF72C
:1011A00052F900BF02210448FFF7B0F80028F9D037
:1011B0000148FFF7A7F810BD002401402DE9F041D8
:1011C00007460C460025002608E03846FFF7D2FF08
:1011D0000544C82002F09EF8701CC6B2A642F4DB9B
:1011E000B5FBF4F080B2BDE8F081000070B51048A6
:1011F0000068401C0E490860052817DD0D4801688D
:101200000D48006803F0A8FF064603F00BFE0546F4
:1012100000F0BAF9044603F041FE084908600648A8
:1012200000680449086000200149086070BD0000A2
:10123000D4000020D800002018000020C4000020A6
:101240002DE9F04F87B00620FFF794FF019003F0DF
:101250005EFA80464FF06632104B03F06BFA0022C4
:101260000F4BCDE9020103F065FA00220D4BCDE9E9
:10127000040103F05FFA064600220B4B03F0C0F8AE
:1012800004460022094B03F0BBF8824603F010FA33
:101290000690069807B0BDE8F08F000066660A4029
:1012A00000002640000059400000F03F0000B04020
:1012B00000BFFEE72DE9F04704460D46601B03F032
:1012C000EDFD1849086008460168174803F046FE1E
:1012D0008146164903F0B0FC0746154801681148DD
:1012E000006803F039FF82460F4903F037FE81465C
:1012F0000E4903F0A1FC8046394603F02FFC064658
:101300000C480168304603F029FC0A49086005488A
:101310000068074908600748006803F083FDBDE8DE
:10132000F0870000F4000020000020410000A041F0
:10133000FC000020F800002001464906084A926996
:1013400042F00102064B9A61064A526822F0E062BE
:10135000044B5A601A4652680A435A6070470000AC
:10136000001002400000014008B50121042000F0F7
:1013700017FE40F6A400ADF8000048208DF80300E9
:1013800069460248FFF766FE08BD000000080140FC
:1013900010B54FF48264642001F00CFF2F490860FF
:1013A00008460068012801D12D4908602B480068D3
:1013B000022801D12A49086029480068012812D171
:1013C00028480068001D2749086027480068001D5C
:1013D0002549086008460068A04204D10020204941
:1013E0000860214908601E480068022812D11D4883
:1013F0000068001F1B4908601B480068001D1A494F
:10140000086008460068A04204D100201449086022
:101410001549086000F08EF801280BD142F21070D7
:10142000104908601148007808B9012000E0002048
:101430000E4908700E48007801280DD10B4800783D
:10144000012803D100200B49086005E00748007817
:1014500010B901200749086010BD0000E00000201D
:10146000E40000200C000020E8000020BC00002068
:10147000000000209001214208B50121042000F065
:101480008FFD1020ADF800008DF8030003208DF8CB
:10149000020069460348FFF7DDFD10210148FFF710
:1014A00066FE08BD0008014018B90021094A116014
:1014B0000FE009490968491C074A1160814208D1B7
:1014C00004490968C943054AC2F890110021024A3B
:1014D00011607047900121427400002000002142F9
:1014E0001148008840B91148006828B910480088A0
:1014F000401C0F49088002E000200D4908800C487C
:101500000088142807DD01200749088000200849C9
:1015100008800120704704480088012802D100207B
:10152000014908800020F5E7840000201C012142C9
:10153000820000201148008840B91148006828B98D
:1015400010480088401C0F49088002E000200D4927
:1015500008800C480088C82807DD0120074908805A
:1015600000200849088001207047044800880128AD
:1015700002D10020014908800020F5E78800002002
:10158000080121428600002070B503460022012197
:1015900008E0104830F81150481E0E4E26F8105042
:1015A000481CC1B20429F4DB18B20A4DE8800021BE
:1015B00005E0084830F911000244481CC1B2042972
:1015C000F7DB1046D51702EB9575AD102CB220460F
:1015D00070BD00000001002000BFFEE70EB5012134
:1015E000084600F0DDFCFFF7BFFE05210020FFF7F5
:1015F00011FD2020019000208DF808000C208DF8AE
:10160000090001208DF80A0001A8FFF79FFB0721C0
:101610000020FFF7FFFC8020019000208DF80800DB
:101620000C208DF8090001208DF80A0001A8FFF7B1
:101630008DFB0B210020FFF7EDFC4FF400600190C3
:1016400000208DF808000C208DF8090001208DF88D
:101650000A0001A8FFF77AFB0C210020FFF7DAFC53
:101660004FF48050019000208DF808000C208DF878
:10167000090001208DF80A0001A8FFF767FB172079
:101680008DF8000002208DF801008DF80200012085
:101690008DF80300684600F07BF828208DF80000E4
:1016A00002208DF801008DF8020001208DF8030062
:1016B000684600F06DF80EBD08B50121082000F065
:1016C0006FFC4FF44050ADF8000010208DF803007F
:1016D00003208DF8020069460448FFF7BBFC4FF475
:1016E00040510248FFF741FD08BD0000000C0140D9
:1016F00030B589B005460C46FFF7DEFF0121022018
:1017000000F03EFC0121082000F04AFC0220ADF868
:10171000200018208DF8230003208DF8220008A94E
:101720001848FFF797FCADF81850ADF814400120A9
:10173000ADF81A000020ADF8160005A9124801F016
:1017400027F96020ADF804000120ADF80600002064
:10175000ADF80A00ADF80C004FF40070ADF81200BF
:1017600001A9094801F09AF80821074801F0D4F8C6
:101770000121054800F0DAFF0121034800F0E8FFED
:1017800009B030BD000C014000040040704700006B
:1017900070B5002100230F22C47804B3154C2468CF
:1017A00004F4E064C4F5E064210AC1F10403CA4012
:1017B000447804FA03F184781440214309010E4C63
:1017C0000678A155047804F01F050124AC40057883
:1017D0006D11AD0005F1E025C5F8004109E0047880
:1017E00004F01F050124AC40044D0678761145F83D
:1017F000264070BD0CED00E000E400E080E100E078
:1018000002490143024A1160704700000000FA05D6
:101810000CED00E030B500240CE0002506E00020CF
:10182000074901EBC5010855681CC5B2802DF6DBE0
:10183000601CC4B2082CF0DB00F0E2F830BD000000
:10184000EC010020F0B5144600267F2801DC3F297A
:1018500000DDF0BD0B46CF1701EB5777FF10C7F146
:101860000707FAB2CF1701EB5777FF10A1EBC707B5
:10187000FDB2C5F107070123BB40DEB24CB10A4BF4
:1018800003EBC0039B5C3343074F07EBC007BB541C
:1018900008E0054B03EBC0039B5CB343024F07EB2F
:1018A000C007BB5400BFD4E7EC01002008B50121FC
:1018B000082000F075FB3820ADF8000010208DF8EE
:1018C000030002208DF8020069464948FFF7C2FB79
:1018D0000121042000F064FB4FF40040ADF800004B
:1018E00002208DF8020010208DF80300694641485F
:1018F000FFF7B0FB012000F01BFA002000F0DAFB3C
:101900000020FEF7EDFF002000F012FA00203A4917
:101910000860642001F0D8FC01203849C1F88C012E
:101920000021AE2000F0D8F90021D52000F0D4F934
:101930000021502000F0D0F90021A82000F0CCF9BF
:1019400000213F2000F0C8F90021D32000F0C4F9A5
:101950000021084600F0C0F90021402000F0BCF949
:1019600000218D2000F0B8F90021142000F0B4F916
:101970000021202000F0B0F90021022000F0ACF995
:101980000021A12000F0A8F90021C02000F0A4F956
:101990000021DA2000F0A0F90021122000F09CF9CB
:1019A0000021812000F098F90021EF2000F094F947
:1019B0000021D92000F090F90021F12000F08CF9ED
:1019C0000021DB2000F088F90021302000F084F9AC
:1019D0000021A42000F080F90021A62000F07CF96D
:1019E0000021AF2000F078F9FFF714FF08BD0000D8
:1019F000000C0140000801408C81214200802142FE
:101A000030B500241CE004F1B001C8B2002100F0A0
:101A100063F90021084600F05FF90021102000F072
:101A20005BF9002508E0084901EBC501085D0121CB
:101A300000F052F9681CC5B2802DF4DB601CC4B202
:101A4000082CE0DB30BD0000EC0100202DE9F04F58
:101A500080460C4615461E46A346A5F12000C5B299
:101A600000273EE00C2E07D105EB45001F4901EB96
:101A7000800010F8079004E01D4800EB051010F8F6
:101A800007904FF0000A26E009F0800028B12146B7
:101A90004046099AFFF7D6FE09E0099808B90120E7
:101AA00000E00020024621464046FFF7CBFE4FEA09
:101AB00049604FEA1069601CC4B2A4EB0B00B0424D
:101AC00005D15C4608F1010000F0FF0806E00AF1CC
:101AD000010000F0FF0ABAF1080FD5DB00BF781C47
:101AE000C7B2B742BEDBBDE8F08F00004452000829
:101AF000B85600082DE9F04F07460C4690461D46A3
:101B0000A346002631E01B4800EBC81010F82690D1
:101B10004FF0000A23E009F0800028B12A46214650
:101B20003846FFF78FFE08E00DB9012000E00020E5
:101B3000024621463846FFF785FE4FEA49604FEAE4
:101B40001069601CC4B2A4EB0B00102803D15C46E2
:101B5000781CC7B206E00AF1010000F0FF0ABAF1F2
:101B6000080FD8DB00BF701CC6B2202ECBDBBDE84F
:101B7000F08F0000A85C00082DE9F04F07460C46E6
:101B800090461D46A346002633E0C8EBC8001B491B
:101B900001EB001010F826904FF0000A23E009F046
:101BA000800028B12A4621463846FFF74BFE08E060
:101BB0000DB9012000E00020024621463846FFF71B
:101BC00041FE4FEA49604FEA1069601CC4B2A4EBC1
:101BD0000B00102803D15C46781CC7B206E00AF15E
:101BE000010000F0FF0ABAF1080FD8DB00BF701C3B
:101BF000C6B21C2EC9DBBDE8F08F0000A867000844
:101C00002DE9FF4F81B0074691461E460E9D4FF0CD
:101C1000000A002439E0301B401EC1B20A2001F046
:101C200022FCB9FBF0F00A21B0FBF1F201FB120833
:101C3000BAF1000F16D1701EA04213DDB8F1000FEB
:101C40000ED10120AB4605EBDB71491001FB04719D
:101C50000090C8B22B4620220299FFF7F7FE12E04F
:101C60004FF0010A0120AB4605EBDB71491001FB87
:101C700004710090C8B208F13001CAB22B46029933
:101C8000FFF7E4FE00BF601CC4B2B442C3DB05B082
:101C9000BDE8F08F78B505460E46144618E07A2D5B
:101CA00003DD002506F11000C6B23A2E04DD002047
:101CB00005460646FFF7AEFD0120009022780C2372
:101CC00031462846FFF7C2FE05F10800C5B2641C84
:101CD00020780028E3D178BD10B50A461AB1012357
:101CE000114C236002E000230F4C2360002114E01C
:101CF00000230E4C236000F080031BB10123241F3E
:101D0000236003E00023094C241F23600123074CB8
:101D100023604306180E4B1CD9B20829E8DB0123C7
:101D2000014C236010BD0000BC012142948121427E
:101D3000014908627047000000000E427047000031
:101D40002DE9FC4782462A490968AAEB010003F005
:101D5000A5F8284908602848006802F0D3FE044628
:101D6000264A274B02F0E6FC064602F06FFA2249AB
:101D700008602048006802F0C5FE06461F4A214B55
:101D800002F0D8FC04460D461B48006802F0BAFE7B
:101D9000804622462B4602F08BFACDE9000102F084
:101DA00055FA15490860184801681348006803F09F
:101DB000D3F91649086010480068134908601448B0
:101DC00001681248006803F0C9F804461148016828
:101DD0000948006803F0C2F80546214602F0BEFE3D
:101DE0000D4908600846006803F01CF8BDE8FC8750
:101DF0000C000020B8000020B00000209A999999AA
:101E00009999E93F9999C93FAC000020B40000209E
:101E10002800002024000020A80000202DE9FC5FFD
:101E200004468946A4EB090003F038F82749086006
:101E30002748006802F066FE0746264A264B02F055
:101E400079FC054602F002FA214908601F48006843
:101E500002F058FE05461F4A204B02F06BFC074675
:101E600088461B48006802F04DFE82463A464346CB
:101E700002F01EFACDE9000102F0E8F91449086009
:101E8000174801681248006803F066F915490860B0
:101E90000F4800681249086013480168114800683B
:101EA00003F05CF80546114801680948006803F032
:101EB00055F80646294602F051FE0D4908600846CD
:101EC000006802F0AFFFBDE8FC9F0000B8000020F2
:101ED000B00000209A9999999999E93F9999C93F39
:101EE000AC000020B40000202800002024000020C6
:101EF000A800002070B5044614490968601A02F071
:101F0000CDFF13490860134801681148006803F0C9
:101F100023F9114908600E4800680E4908600F490E
:101F20000D48006803F01AF805460D490848006896
:101F300003F014F80646294602F010FE094908602D
:101F40000846006802F06EFF70BD00000C00002023
:101F5000100100200C010020140100200000164494
:101F60000000C8410801002001460020034A5068D3
:101F700020F44040084350607047000000100240C9
:101F800029B1064AD2690243044BDA6104E0034AEC
:101F9000D2698243014BDA617047000000100240B1
:101FA00029B1064A92690243044B9A6104E0034A4C
:101FB00092698243014B9A61704700000010024011
:101FC00029B1064AD2680243044BDA6004E0034AAE
:101FD000D2688243014BDA60704700000010024073
:101FE00030B500210022002400232D4D6D6805F03E
:101FF0000C0121B1042905D0082923D105E0294D80
:10200000056022E0274D05601FE0254D6D6805F451
:102010007012234D6D6805F48034022505EB924261
:102020001CB9214D554305600BE01D4D6D6805F44D
:1020300000351DB11C4D5543056002E0194D554357
:10204000056002E0174D056000BF00BF144D6D68CC
:1020500005F0F0010909154D6B5C0568DD40456030
:102060000F4D6D6805F4E061090A104D6B5C456821
:10207000DD4085600A4D6D6805F46051C90A0B4D5D
:102080006B5C4568DD40C560054D6D6805F44041F9
:10209000890B074D6B5CC568B5FBF3F5056130BD79
:1020A0000010024000127A0000093D005400002098
:1020B0006400002000210B4A11700A4A203A82F87D
:1020C0002010012802D0042808D103E00121054A8C
:1020D000117004E00521034A117000E000BF00BF49
:1020E00070470000201002400146022904D0032955
:1020F00007D004290DD108E04FF08042928C10B235
:1021000009E0064A128810B205E0054A128810B2AA
:1021100001E0002000BF00BF704700002404004021
:1021200024080040704710B500F002F810BD000010
:102130000CB50020019000903348006840F48030D6
:102140003149086000BF3048006800F4003000905A
:102150000198401C0190009818B90198B0F5A06F43
:10216000F1D12948006800F4003010B1012000903E
:1021700001E0002000900098012843D12348006826
:1021800040F01000214908600846006820F0030074
:1021900008600846006840F0020008601A4840687D
:1021A000194948600846406848600846406840F45D
:1021B000806048600846406820F47C10486008460B
:1021C000406840F4E81048600846006840F08070BD
:1021D000086000BF0C48006800F000700028F9D0CB
:1021E0000948406820F003000749486008464068F5
:1021F00040F00200486000BF0348406800F00C0057
:102200000828F9D10CBD0000001002400020024057
:1022100000B50246002A07DA01200A4908600020BA
:102220000949C1F8B40106E0002006490860012010
:102230000549C1F8B401104601F00EF903490880C0
:1022400000BD0000B08121420080214240040040D6
:10225000042808D14FF0E021096941F004014FF052
:10226000E022116107E04FF0E021096921F004014B
:102270004FF0E022116170477047000010B513481D
:10228000006840F0010011490860084640681049A4
:1022900008400E494860084600680E4908400B494E
:1022A00008600846006820F48020086008464068FE
:1022B00020F4FE0048604FF41F008860FFF733FFF2
:1022C0004FF000600449086010BD0000001002409B
:1022D0000000FFF8FFFFF6FE08ED00E0F0B50C4649
:1022E000154600220021068C4FF6FE773E400684FC
:1022F000028B018C4FF60C7632407E1C06EA0316E8
:102300002E433243104EB0420ED0104EB0420BD08E
:10231000B0F1804F08D00E4EB04205D00D4EB04205
:1023200002D00D4EB04206D14FF6FD76314044F05A
:102330000106314305E04FF6F576314044F00106E1
:10234000314302830184F0BD002C01400034014080
:102350000004004000080040000C0040F0B50C46AE
:102360001546002200210026078C4FF6EF7C07EA75
:102370000C070784028B018C4FF6FF7707EA0416DF
:1023800040F6FF473A404FF6FF7707EA03373A43F4
:102390004FF6FF7707EA05273A43114FB8420ED0B0
:1023A000104FB8420BD0B0F1804F08D00E4FB8425A
:1023B00005D00E4FB84202D00D4FB84206D14FF6AD
:1023C000DF77394046F01007394305E04FF65F7775
:1023D000394044F01007394302830184F0BD000006
:1023E000002C01400034014000040040000800407F
:1023F000000C0040F0B50C461546002200210026D6
:10240000078C4FF6FF6C07EA0C070784828B018C60
:102410004FF6FF7707EA04264FF60C773A404FF65F
:10242000FF7707EA03172F433A43114FB8420ED004
:10243000104FB8420BD0B0F1804F08D00E4FB842C9
:1024400005D00E4FB84202D00D4FB84206D14FF61C
:10245000FF57394046F48077394305E04FF2FF5784
:10246000394044F48077394382830184F0BD000011
:10247000002C0140003401400004004000080040EE
:10248000000C0040F0B50C46154600220021002645
:10249000078C4EF6FF7C07EA0C070784828B018CC1
:1024A0004FF6FF7707EA043640F6FF473A404FF60B
:1024B000FF7707EA05273A434FF6FF7707EA033726
:1024C0003A43114FB8420ED0104FB8420BD0B0F182
:1024D000804F08D00E4FB84205D00E4FB84202D000
:1024E0000D4FB84206D14DF6FF77394046F480577C
:1024F000394305E047F6FF57394044F480573943E4
:1025000082830184F0BD0000002C014000340140B2
:102510000004004000080040000C004010B50121FC
:10252000674800F042F900287ED00121644800F09D
:102530000CF96448007801280BD163480078401CEE
:10254000C0B2614908700A2803D1002008705D49B3
:1025500008700420FFF7C8FD5C4908600A210320C9
:10256000FEF72CFE044602F0B1FC59490860FEF764
:102570003DFE58480078012849D157480078002886
:1025800045D1FEF77DFC55480078012801D1FDF7C3
:10259000B1FF00F013FD5248007888B94B4800683D
:1025A00042F2AC61884205DA4848006841F20C7199
:1025B000884205DC0020FFF72BFE01204649087009
:1025C0004848007801281ED147494148006802F078
:1025D00091FD11D245493E48006802F08BFC0BD2B8
:1025E0003A48006842F2AC61884205DA3748006830
:1025F00041F20C71884206DC0020FFF709FE012041
:102600003549087003E03A480068FFF701FE314899
:102610000078E0BB3748006800F08AFB3648007855
:1026200078B92A48006800E03BE03449086000209F
:1026300033490860334908603349087001202E4946
:1026400008702548007810BB21480068FEF74EF955
:102650002E4908602C480078401CC0B22A490870F6
:10266000042808DD19480068FFF76AFB284908605C
:102670000020254908702548006825490968401A46
:102680001B49086000F09AFC1948006800E001E06E
:10269000FFF7BEFD10480078012802D10020FFF7A7
:1026A000B7FD0D48007810B96420FEF7FDFEFEF777
:1026B000C7FD10490860FEF76BFE002010BD00004A
:1026C000002C014002000020010000200800002032
:1026D00018000020BC00002000000020BD000020E9
:1026E000BE000020CC00002000401C450040674593
:1026F0001000002014000020950000200C00002095
:10270000AC0000209C000020940000208C000020E1
:1027100090000020044800880348008820F0010051
:1027200001490880704700001008004021B102886C
:1027300042F08002028004E002884FF67F731A4064
:1027400002807047CA4302827047CA4302827047C0
:1027500021B1028842F00102028004E002884FF6B3
:10276000FE731A4002807047F0B50C4615461E46AF
:102770000021002200230189028B038C4FF6F87799
:10278000394021434FF6FC473A4040F201173A43A3
:102790004FF6DD773B404FF6FF7707EA06172F43EA
:1027A0003B43018102830384F0BD30B50246002023
:1027B00000230024158A05EA0103958905EA01042E
:1027C00013B10CB1012000E0002030BD70B505460A
:1027D0000C46244885420ED0234885420BD0B5F1E3
:1027E000804F08D02148854205D02148854202D03B
:1027F0002048854200D100E000BF208850B92389DD
:10280000A28861882846FFF769FDE188284600F024
:1028100092F825E0208804280AD12389A2886188BB
:102820002846FFF79BFDE188284600F08DF817E069
:10283000208808280AD12389A28861882846FFF7C2
:10284000D9FDE188284600F08CF809E02389A288A8
:1028500061882846FFF716FEE188284600F08AF8CE
:1028600070BD0000002C0140003401400004004015
:1028700000080040000C004000210180418001213F
:1028800081800021C180018170471AB183890B4387
:10289000838102E083898B438381704770B5002276
:1028A00000230024058C4EF6FF7635400584038C0A
:1028B0008488828B48F6FF752A404FF6FF452A40F0
:1028C0000D884FF6FF7606EA05252A434DF6FF757B
:1028D0002B400D8906EA05352B434D8806EA053560
:1028E0002B430B4DA84202D00A4DA84208D14BF60B
:1028F000FF752C408D894FF6FF7606EA85152C432F
:1029000084808283CD88A0F84050038470BD00008D
:10291000002C0140003401400A460021818B4FF217
:10292000FF7319404FF6FF7303EA022319438183B3
:10293000704781847047028B4FF6F3731A4002830D
:10294000028B0A4302837047028B4FF2FF331A4017
:102950000283028B4FF6FF7303EA01231A430283BB
:102960007047828B4FF6F3731A408283828B0A433F
:1029700082837047828B4FF2FF331A408283828BAF
:102980004FF6FF7303EA01231A4382837047000066
:10299000002202881D4B98420ED01D4B98420BD04E
:1029A000B0F1804F08D01B4B984205D01A4B98428B
:1029B00002D01A4B984204D14FF68F731A404B88BD
:1029C0001A43174B984207D0164B984204D04FF643
:1029D000FF431A40CB881A4302808B8883850B887B
:1029E00003850A4B98420BD0094B984208D00E4BF6
:1029F000984205D00D4B984202D00D4B984201D120
:102A00000B7A03860123838270470000002C01406B
:102A1000003401400004004000080040000C004069
:102A200000100040001400400040014000440140FC
:102A3000004801404FF6FF71818000210180C18074
:102A400041800172704700007FB505460C460121A8
:102A5000C802FFF7A5FAADF80850ADF80440002011
:102A6000ADF80A00ADF8060001A90D48FFF790FF88
:102A7000012211460A48FFF708FF19208DF80000CF
:102A800001208DF803008DF8010003208DF802006D
:102A90006846FEF77DFE01210148FFF759FE7FBD24
:102AA000002C014038B500BF97480078012820D19C
:102AB0000020954908709548006840F0200093492F
:102AC00008600846006840F080000860084600681A
:102AD00040F4006008600846006840F480500860D8
:102AE0008B48008840F0010089490880FEF792FE7B
:102AF00001E000F0C3FCFEF7F3FC0446012C01D119
:102B00008449087083480078012875D100208149E4
:102B10000870FEF77FFE01207B49087000207E4987
:102B200008807A48006820F020007849086008464C
:102B3000006820F0800008600846006820F400600B
:102B400008600846006820F48050086070480088DB
:102B500000F0FE006E490880D4E000BF00F0FAFAF1
:102B6000044600F0CFFE1E2000F0AEFB052C7DD108
:102B7000FEF750FEC2E000BF1E2000F0A5FB00F0F3
:102B8000E9FA044600F07CFF0B2C70D1FEF742FE00
:102B9000AEE000BF01F056F81E2000F095FB00F0FB
:102BA000D9FA04460B2C75D1FEF734FE9AE000BF2B
:102BB00001F024F91E2000F087FB00F0CBFA044658
:102BC0000B2C68D1FEF726FE86E000BF0F21032004
:102BD000FEF7F4FA054602F079F95049086001F071
:102BE000FBF9322000F070FB00F0B4FA04460C2C24
:102BF00003D1FEF70FFEDBE785E0052C6CD1FEF775
:102C000009FE0020464908700A2464E00F210320D1
:102C1000FEF7D4FA054602F059F940490860102041
:102C200002232246014600905820FEF7E9FF00F0FB
:102C3000DBF93C480078401C3A4908701E2000F03F
:102C400043FB38480078C82833DC374933480068EC
:102C500002F050FA21D835493048006802F04AF9AC
:102C60001BD82F480078401C2D4901E047E040E088
:102C700008700846007896280FDDFEF7CBFD0BE0C4
:102C800000202849087001F039FA00F063FA05289D
:102C900002D109E727E020E0F2E72248007814217A
:102CA00090FBF1F201FB1200012814D1601EC4B2A6
:102CB00011E000201B490870FEF7ACFD00F050FB4E
:102CC00040F6B83000F000FB4FF4FA6000F0FCFA78
:102CD000FEF7A0FD7AE799E777E70C2C02D1FEF723
:102CE00099FD57E763E70C2C02D1FEF793FD43E70C
:102CF0004FE70C2C02D1FEF78DFD2FE73BE70C2CA4
:102D000000D1D1E629E738BD0400002000040140CD
:102D10000C2C01400300002040040040180000205B
:102D2000200100202101002000807C4400C080445C
:102D300070B5054611480078012809D10F4908707F
:102D4000012400200E4908600E49C1F8B00100E0DE
:102D500000240D490D48006802F0CCF908D20C4956
:102D60000A48006802F0C6F802D2B5F52F7F03DAF0
:102D70000120024908700124204670BD0000002097
:102D8000B4812142008021420080224518000020A9
:102D90000000614510B540F225511D4800F04AF889
:102DA00010B31B4800F002F9C4B21A48008800F4BE
:102DB0000040C8B91748008800F4804060B10A2C70
:102DC00003D000201349088020E01248008840F416
:102DD00000401049088019E00D2C06D10D480088EC
:102DE00040F480400B49088010E00A480088C0F396
:102DF0000D0009490C5407480088401C054908800B
:102E000008460088C72801DD0020088010BD0000AA
:102E100000380140700000202401002021B1828987
:102E200042F40052828104E082894DF6FF731A4019
:102E30008281704770B502460024002300250020DF
:102E400040F66A16B14200D100BFC1F3421501F04D
:102E50001F03012606FA03F3012D02D196893340A0
:102E600006E0022D02D1168A334001E0968A3340F3
:102E70000C12012606FA04F41688344013B10CB182
:102E8000012000E0002070BDF0B5034600240026BC
:102E90000025002040F66A17B94200D100BF18464D
:102EA000C1F3421401F01F06012707FA06F5012CB1
:102EB00001D10C3004E0022C01D1103000E01430BC
:102EC0001AB107682F43076002E00768AF43076045
:102ED000F0BD00002DE9F04786B005460E460024FF
:102EE000A24600BFA1460027B08900B100BF2F460F
:102EF0002C8A4CF6FF700440F08804432C82AC8985
:102F00004EF6F3100440B0883189084371890843B4
:102F10000443AC81AC8A4FF6FF400440B0890443BF
:102F2000AC8201A8FFF75CF81F48874202D1DDF8A8
:102F300010A001E0DDF80CA0A88900F4004040B129
:102F40000AEBCA0000EB0A1031684900B0FBF1F847
:102F500007E00AEBCA0000EB0A1031688900B0FBF9
:102F6000F1F86420B8FBF0F004012009642101FBB2
:102F70001089A88900F4004040B1322000EBC9005C
:102F8000B0FBF1F000F00700044308E0322000EB52
:102F900009106421B0FBF1F000F00F0004432C8114
:102FA00006B0BDE8F087000000380140014688887F
:102FB000C0F30800704700BFFEE7000041F6F420B0
:102FC000074909684242914202DA4142044A1160CB
:102FD00003490968814201DD01490860704700002A
:102FE0001000002000BF704738B5012338220021AF
:102FF0001520FEF7C1FD0123392200212320FEF711
:10300000BBFD01233A2200213120FEF7B5FD01234B
:103010003B2200213F20FEF7AFFD01233C2200218F
:103020004D20FEF7A9FD01233D2200215B20FEF784
:10303000A3FD01233E2200216920FEF79DFD01230F
:103040003F2210210020FEF797FD0123402210218E
:103050000E20FEF791FD0123412210211C20FEF7D6
:103060008BFD01231C2210212E20FEF785FD01235C
:103070001C2210213520FEF77FFD01231C22102188
:103080003C20FEF779FD01231C2210214320FEF78E
:1030900073FD01231C2210214A20FEF76DFD012340
:1030A0001C2210215120FEF767FD01230C22202154
:1030B0000E20FEF761FD01232B2220211C20FEF7AC
:1030C0005BFD01232C2220212A20FEF755FD012340
:1030D000242220213820FEF74FFD01232522202124
:1030E0004620FEF749FD01232D2220215420FEF722
:1030F00043FD01232E2220216220FEF73DFD012009
:1031000010234122302100901820FEF79FFC01205F
:1031100010234422302100902020FEF797FC01204C
:1031200010234322302100902820FEF78FFC08480E
:10313000006801F093FE044610200423224630214B
:1031400000904E20FEF75CFDFEF75AFC38BD0000F3
:103150001800002010B51548007808B3144800681E
:1031600038B113481830006818B111481C30006895
:10317000B0B900200D490870322000F0A5F80C48C5
:10318000006808B9052010BD09481830006808B962
:103190000B20F8E706481C30006820B90C20F2E745
:1031A0000120024908700020EDE7000080000020A7
:1031B0001401214201462D48006828B92C48008896
:1031C000401C2B4A108002E00020294A108027482A
:1031D000006828B92748007810B90120254A1070E6
:1031E00025480078B0B923480078012807D1234842
:1031F0000078401C214A107001201F4A10701F489F
:103200000078022806D100201C4A10701C4A108049
:103210000220704715480068012804D10020154A93
:103220001070154A10701548007801281CD11448F8
:103230000088401C124A10801046008888420ADD2F
:103240000B480088884206DA00200C4A10700C4AAD
:1032500010800120DDE706480088884204DD002058
:10326000064A1070064A10800020D2E70801214269
:103270007E00002078000020790000207A000020E5
:103280007C00002010B56FF00400FEF7E1FF0A4853
:1032900000680A49B0FBF1F0094908700846007857
:1032A00000EB4001C1EBC0104FF6FF7101EAC00016
:1032B0000449088010BD00004000002000127A0080
:1032C000680000206A0000200146114A12884A4323
:1032D0004FF0E0235A6100229A611A46126942F0C7
:1032E00001021A6100BF4FF0E022106900F00102F4
:1032F0001AB100F48032002AF5D04FF0E0221269B2
:1033000022F001024FF0E0231A6100229A61704717
:103310006A0000200146114A12784A434FF0E02328
:103320005A6100229A611A46126942F001021A613A
:1033300000BF4FF0E022106900F001021AB100F462
:103340008032002AF5D04FF0E022126922F001020B
:103350004FF0E0231A6100229A6170476800002054
:1033600010B501230E2210211820FEF7C3FB012304
:103370000F2210212820FEF7BDFB01231022114649
:103380003820FEF7B7FB0123112210214820FEF759
:10339000B1FB0123122210215820FEF7ABFB0123C1
:1033A000132220211820FEF7A5FB0123142220213F
:1033B0002820FEF79FFB0123152220213820FEF74D
:1033C00099FB0123002220214820FEF793FB0123D3
:1033D0001A4620215820FEF78DFBFEF711FB10BD89
:1033E0000220FDF7A9FF0120FDF7A6FF4FF4A06022
:1033F000FEF706FAFFF746FF4FF47A70FFF764FF17
:103400004FF47A70FFF760FFFEF736F8FEF7E6F844
:10341000FEF74CFA4FF4FA3000F0C8FE002141F6F6
:103420001F40FEF765F9FDF7DBFCFDF71DF841F6DF
:103430001F413120FFF708FB0BE0FDF799FAFFF77A
:1034400031FB01200349087000BF024800780028C2
:10345000FBD1F2E7020000200146002901DA4842D0
:1034600000E00846704710B50246012000E05043D6
:103470000B1EA1F10104E1B2F9D110BD38B5FEA2D5
:1034800000210846FEF706FCFD48006801F0E6FC56
:1034900004460C2003232246002100902820FEF73A
:1034A000AFFBF8A200213920FEF7F4FBF649F448FF
:1034B000006801F053FD054601F0B4FC0A2190FBC1
:1034C000F1F201FB12040C2001232246002100909E
:1034D0003D20FEF795FBEDA200215F20FEF7DAFB11
:1034E000EB48006801F0BAFC04460C200223224697
:1034F000002100906C20FEF783FBE6A20A21002049
:10350000FEF7C8FBE548006801F0A8FC04460C2063
:10351000032322460A2100902820FEF771FBD9A23E
:103520000A213920FEF7B6FBD749DC48006801F0D4
:1035300015FD054601F076FC0A2190FBF1F201FB36
:1035400012040C200123224600903D20FEF758FB78
:10355000CEA20A215F20FEF79DFBD148006801F052
:103560007DFC04460C20022322460A2100906C2098
:10357000FEF746FBCBA214210020FEF78BFBCB48C5
:10358000006801F06BFC04460C2003232246142142
:1035900000902820FEF734FBBAA214213920FEF750
:1035A00079FBB949C148006801F0D8FC054601F033
:1035B00039FC0A2190FBF1F201FB12040C200123DB
:1035C0002246142100903D20FEF71AFBAFA21421E1
:1035D0005F20FEF75FFBB648006801F03FFC044641
:1035E0000C2002232246142100906C20FEF708FBD9
:1035F000B0A21E210020FEF74DFBB048006801F08C
:103600002DFC04460C20032322461E210090282076
:10361000FEF7F6FA9BA21E213920FEF73BFB9A49E2
:10362000A648006801F09AFC054601F0FBFB0A2160
:1036300090FBF1F201FB12040C20012322461E2113
:1036400000903D20FEF7DCFA90A21E215F20FEF7DD
:1036500021FB9B48006801F001FC04460C2002237A
:1036600022461E2100906C20FEF7CAFA4FF07E51D0
:103670009448006801F0A2FB20D101200C235922BC
:10368000002100904B20FEF7E1F901200C234E228F
:103690000A2100904B20FEF7D9F901200C234E227D
:1036A000142100904B20FEF7D1F901200C234E226B
:1036B0001E2100904B20FEF7C9F975E04FF08041C4
:1036C0008048006801F07AFB20D101200C234E22B3
:1036D000002100904B20FEF7B9F901200C2359225C
:1036E0000A2100904B20FEF7B1F901200C234E2255
:1036F000142100904B20FEF7A9F901200C234E2243
:103700001E2100904B20FEF7A1F94DE06E496D4857
:10371000006801F053FB20D101200C234E22002130
:1037200000904B20FEF792F901200C234E220A2133
:1037300000904B20FEF78AF901200C235922142116
:1037400000904B20FEF782F901200C234E221E210F
:1037500000904B20FEF77AF926E04FF0814159485E
:10376000006801F02BFB1FD101200C234E22002109
:1037700000904B20FEF76AF901200C234E220A210B
:1037800000904B20FEF762F901200C234E221421F9
:1037900000904B20FEF75AF901200C2359221E21DC
:1037A00000904B20FEF752F948A228215020FEF746
:1037B00071FA0C20052300904548282102685F20FB
:1037C000FEF71EFA43A228210020FEF763FA2DA27D
:1037D00028212920FEF75EFA40A228213F20FEF78B
:1037E00059FA3F480068642190FBF1F40C20022351
:1037F0002246282100901C20FEF702FA3848006873
:10380000642190FBF1F201FB12040C2002232246FA
:10381000282100903320FEF7F3F931480068642135
:1038200090FBF1F201FB12000A2807DA0C200223B8
:103830000022282100902D20FEF7E2F929A2322152
:103840005020FEF727FA0C2005230090264832214D
:1038500002685F20FEF7D4F924A232210020FEF78F
:1038600019FA2448006801F0F9FA04460C200423F0
:103870002246322100903FE0422D4B5000000000D4
:103880001C0000202E00000000002041413A0000F2
:1038900030000020422D4B4400000000200000209A
:1038A00034000020502D4B50000000002400002068
:1038B00038000020502D4B4400000000280000205C
:1038C0003C0000202C00002000004040543A000042
:1038D0000C000020564F4C3A00000000560000003B
:1038E00014000020503A0000080000204144433AF0
:1038F00000000000180000201E20FEF781F9FEF7EE
:103900007FF838BD10B50123002211461C20FEF7B8
:1039100033F901231A4600212A20FEF72DF901234D
:10392000022200213820FEF727F90123032200217B
:103930004620FEF721F90123042200215420FEF73E
:103940001BF90123052200216220FEF715F901234E
:10395000062200217020FEF70FF901230722102113
:103960000020FEF709F90123082210210E20FEF79E
:1039700003F90123092210211C20FEF7FDF8012381
:103980000A2210212A20FEF7F7F801230B2210212A
:103990003820FEF7F1F801230C2210214620FEF713
:1039A000EBF801230D2210215420FEF7E5F8012346
:1039B0000E2210216220FEF7DFF801230F221021D2
:1039C0007020FEF7D9F80123102220210020FEF7F5
:1039D000D3F80123112220210E20FEF7CDF8012378
:1039E000122220211C20FEF7C7F8012313222021D8
:1039F0002A20FEF7C1F80123142220213820FEF7E7
:103A0000BBF80123152220214620FEF7B5F801233B
:103A1000162220215420FEF7AFF80123172220217F
:103A20006220FEF7A9F80123182220217020FEF75A
:103A3000A3F80123192230210020FEF79DF801236D
:103A40001A2230210E20FEF797F801231B22302185
:103A50001C20FEF791F801231C2230212A20FEF7BA
:103A60008BF801231C2230212E20FEF785F801233C
:103A70001C2230213220FEF77FF8FDF7C1FF10BD78
:103A800010B501230C2200210846FEF775F801232A
:103A90001D2200210E20FEF76FF801231E220021B7
:103AA0001C20FEF769F801231F2200212A20FEF7BF
:103AB00063F80123202200213820FEF75DF801235E
:103AC000212200214620FEF757F80123222200215F
:103AD0005420FEF751F801230B2200216220FEF74B
:103AE0004BF80123232200217020FEF745F8012323
:103AF000242210210020FEF73FF801232522102167
:103B00000E20FEF739F80123262210211C20FEF793
:103B100033F80123272210212A20FEF72DF8012354
:103B2000282210213820FEF727F80123292210210E
:103B30004620FEF721F801232A2210215420FEF707
:103B40001BF801232B2210216220FEF715F8012318
:103B50002C2210217020FEF70FF801232D222021A6
:103B60000020FEF709F801232E2220210E20FEF767
:103B700003F80123132220211C20FDF7FDFF012360
:103B80002F2220212A20FDF7F7FF012330222021B8
:103B90003820FDF7F1FF0123312220214620FDF7D7
:103BA000EBFF0123322220215420FDF7E5FF012302
:103BB000332220216220FDF7DFFF0123182220217C
:103BC0007020FDF7D9FF0123292230210020FDF7C5
:103BD000D3FF0123342230210E20FDF7CDFF012336
:103BE000352230211C20FDF7C7FF01231822302188
:103BF0002A20FDF7C1FF0123192230213820FDF7CB
:103C0000BBFF0123362230214620FDF7B5FF0123FB
:103C1000372230215420FDF7AFFF01231C22302131
:103C20006220FDF7A9FF01231C2230216620FDF749
:103C3000A3FF01231C2230216A20FDF79DFFFDF721
:103C4000DFFE10BD10B50123422200210846FDF71A
:103C500093FF0123432200210E20FDF78DFF012356
:103C6000442200211C20FDF787FF0123242200218C
:103C70002A20FDF781FF0123252200213820FDF7AE
:103C80007BFF0123452200214620FDF775FF01231C
:103C9000022200215420FDF76FFF0123032200219F
:103CA0006220FDF769FF0123042200217020FDF747
:103CB00063FF0123462210210020FDF75DFF012351
:103CC000472210210E20FDF757FF01234822102123
:103CD0001C20FDF751FF0123492210212A20FDF766
:103CE0004BFF01234A2210213820FDF745FF012315
:103CF0004B2210214620FDF73FFF01234C221021CB
:103D00005420FDF739FF01234D2210216220FDF7D9
:103D100033FF01234E2210217020FDF72DFF0123D8
:103D20004F2220210020FDF727FF012350222021D0
:103D30000E20FDF721FF01230B2220211C20FDF77F
:103D40001BFF0123512220212A20FDF715FF01230B
:103D5000332220213820FDF70FFF01233C222021B0
:103D60004620FDF709FF01233D2220215420FDF7C5
:103D700003FF0123522220216220FDF7FDFE0123D3
:103D8000532220217020FDF7F7FE01235422302119
:103D90000020FDF7F1FE0123552230210E20FDF712
:103DA000EBFE01234D2230211C20FDF7E5FE01230F
:103DB0004E2230212A20FDF7DFFE0123562230213A
:103DC0003820FDF7D9FE0123572230214620FDF788
:103DD000D3FE01234C2230215420FDF7CDFE0123D8
:103DE000582230216220FDF7C7FE012359223021DD
:103DF0007020FDF7C1FEFDF703FE10BD10B50123D5
:103E0000232200210846FDF7B7FE01235A22002194
:103E10000E20FDF7B1FE0123242200211C20FDF716
:103E2000ABFE0123252200212A20FDF7A5FE012358
:103E3000262200213820FDF79FFE012327220021A2
:103E40004620FDF799FE0123282200215420FDF78A
:103E500093FE0123292200216220FDF78DFE01231C
:103E60005B2200217020FDF787FE01235C221021D8
:103E70000020FDF781FE01235D2210210920FDF7BE
:103E80007BFE01235E2210211220FDF775FE012327
:103E90004C2210211B20FDF76FFE01235F22102111
:103EA0002920FDF769FE0123392210213720FDF773
:103EB00063FE0123602210214520FDF75DFE0123F2
:103EC000612210214E20FDF757FE012360221021B0
:103ED0005720FDF751FE0123612210216020FDF7DC
:103EE0004BFE0123632210216920FDF745FE0123CB
:103EF000602220210020FDF73FFE012361222021C6
:103F00000920FDF739FE0123622220211220FDF74E
:103F100033FE0123612220211B20FDF72DFE01230A
:103F2000642220212420FDF727FE0123572220218F
:103F30003220FDF721FE01230B2220214020FDF736
:103F40001BFE0123512220214E20FDF715FE0123E7
:103F5000332220215C20FDF70FFE01234F22202178
:103F60006A20FDF709FE0123652230210020FDF7BC
:103F700003FE0123492230210E20FDF7FDFD012320
:103F80004A2230211C20FDF7F7FD01234B2230216E
:103F90002A20FDF7F1FD01234C2230213820FDF7C6
:103FA000EBFD01234D2230214620FDF7E5FD0123E5
:103FB0004E2230215420FDF7DFFD01231322302152
:103FC0006220FDF7D9FD01233C2230217020FDF74E
:103FD000D3FDFDF715FD10BD38B501233D220021AD
:103FE0000846FDF7C9FD0123312200210E20FDF70F
:103FF000C3FD0123662200211C20FDF7BDFD012326
:10400000332200212A20FDF7B7FD012314220021CD
:104010003820FDF7B1FD0123152200214620FDF7D0
:10402000ABFD0123162200215420FDF7A5FD01233D
:10403000172200216220FDF79FFD01231822002195
:104040007020FDF799FD0123192210210020FDF7B2
:1040500093FD0123672210210E20FDF78DFD012322
:10406000682210211C20FDF787FD01230722102163
:104070002A20FDF781FD0123082210213820FDF7B9
:104080007BFD01231C2210214620FDF775FD012335
:104090001C2210214A20FDF76FFD01231C22102154
:1040A0004E20FDF769FD01201023412228210090B8
:1040B0001820FDF7CBFC012010234422282100907A
:1040C0002020FDF7C3FC012010234322282100906B
:1040D0000846FDF7BBFC0848006800F0BFFE044638
:1040E000102004232246282100904E20FDF788FD51
:1040F000FDF786FC38BD00001800002010B5012334
:10410000002204212020FDF7F5FC01231A4604219A
:104110003020FDF7EFFC0123022204214020FDF7AF
:10412000E9FC0123032204215020FDF7E3FC0123D5
:10413000042218210846FDF7DDFC01230522182181
:104140002820FDF7D7FC0123062218213820FDF78F
:10415000D1FC0123072218214820FDF7CBFC0123C5
:10416000082218215820FDF7C5FC01230922182137
:104170006820FDF7BFFC01230A222C210020FDF757
:10418000B9FC01230B222C211020FDF7B3FC0123E5
:104190000C222C212020FDF7ADFC01230D222C2127
:1041A0003020FDF7A7FCFDF72BFC10BD10B586B045
:1041B0000446012144F20400FDF7F2FE4FF40070C2
:1041C000ADF8140003208DF8160018208DF81700A4
:1041D00005A91C48FCF73EFF4FF48060ADF81400C1
:1041E00004208DF8170005A91648FCF733FF252099
:1041F0008DF8000003208DF801008DF802000120E9
:104200008DF803006846FDF7C3FA01940020ADF86D
:104210000800ADF80A00ADF80C00ADF810000C2055
:10422000ADF80E0001A90848FEF754FE012240F245
:1042300025510548FEF728FE01210348FEF7EEFD53
:1042400006B010BD000801400038014021F00042D6
:10425000A2F16052B2F5801F01F0004328BFD2F1F5
:104260007F6C0BD95FEA001C43EAC20242EB50703C
:1042700018BF704728BF20F001007047B2F5801FBB
:10428000BCBF184670474FEA410C1CF5001F02D214
:10429000084600F02ABF70B500F0F6FA0000008969
:1042A000FFF7F6BF4FF00040A0F580007047000018
:1042B00010B591EA030F48BF83F0004300F140833B
:1042C000841A71EB030C05D2121943EB0C03001B8B
:1042D00061EB0C01DFF824E14FEA1154A4EB135C0D
:1042E0001EEA430F18BF9EEA445F73D023EA0E0311
:1042F000DCF1200E21EA045143F4801332D322FA78
:104300000CFE10EB0E0023FA0CFE41EB0E01CCF17B
:10431000200E03FA0EFE10EB0E0051F10001B1F574
:10432000801FCCF1200E32D201EB045112FA0EF2B2
:10433000BDE8104058BF7047401C38BF5FEA4202DA
:1043400018BF7047002814BF20F0010041F10001A0
:104350004FEA410313F5001F38BF7047A1F1C04178
:1043600000F0E0BA012A43EB0302ACF1200CDCF1CF
:104370001F0E32BF4FF0000E23FA0CF310EB0300B8
:1043800041EB0451B4EB115FD0D0A1EB045101F526
:10439000801149085FEA300001EB04510ED350F15F
:1043A000000038BF12FA0EFE08D1BDE81040C9E780
:1043B000401C38BF5FEA4202CAD1C3E7BDE81040E3
:1043C0004FEA410313F5001F38BF7047A1F1C04108
:1043D00000F0A8BA9EEA445F08D011EA5E0FBDE87B
:1043E000104004BF01F0004100207047BDE81040BC
:1043F00070B500F049FA00BF64FBBE3E0000E0FF6C
:104400002DE9C04130B4DFF8A0C23CEA111418BF56
:104410003CEA131400F0EC8081EA03051CEA111455
:1044200044EAD57418BF1CEA131500F0C780A4EB4A
:1044300005044FF0004545EAC12145EAC32341EA9E
:10444000505143EA525304F17F74994204F5003409
:104450004FEAC0204FEAC22208BF904200F09C8081
:104460004FEA13650FF24016765D4FEA134506FBDF
:1044700005F7C7F1807706FB07F74FEAD737A7FBA9
:1044800003687642C8F58038A7FB06CE38BFA8F18E
:10449000010807FB08E64FF0000EA6FB028CE6FBC6
:1044A00003CEDCF1000CCEF1004E38BFAEF1010EB0
:1044B000A6FB0C584FF000074FF00005E6FB0E87F7
:1044C000A1FB08C6A0FB07CE16EB0E0645F10005C2
:1044D000E1FB076515F1E04E7EBFA4F580345FEA8D
:1044E00046066D4116F1800745F100054FEA172792
:1044F0004FEA066647EA0567A6F1DE46B6F1805F39
:104500004FEA15251FD9384624F0010C05EBC4717C
:10451000BCF1FE6F01EB0C1102D8F0BCBDE80081CC
:1045200024425CBF01F5801E9EEAC47F02D4F0BC29
:10453000BDE80081244238D4F0BCA1F1C041BDE8FF
:10454000004100F0EFB94FEAD22242EA43524FEA6B
:10455000D323A7FB02864FEAD02040EA415007FB55
:1045600003661EEA0E0F4FEAD12105FB026658BF13
:10457000A6EB0056B6EB00564FEA520E4EEAC37E4B
:1045800018EB0E0E56EB530EBDD518EB02085E412C
:104590007F1C55F10005B6E74FF480154FF000077A
:1045A0004FF000064FF00008ADE7F0BC4FF0000000
:1045B00001F1C04101F00041BDE8008111EA0C1F8A
:1045C0000CEA131500D00CE013EA0C1F00F0258054
:1045D0004FF00000F0BC81EA030101F00041BDE8AA
:1045E0000081F0BCBDE8004181EA030100F09AB906
:1045F000F0BCBDE8004170B500F046F9097EFC3E14
:1046000000F007B881EA03014FF0000001F000411B
:10461000704781EA030100F085B9F0BCBDE80041B4
:104620004FF0000021497047FFFDFBF9F7F5F4F268
:10463000F0EEEDEBE9E8E6E4E3E1E0DEDDDBDAD83D
:10464000D7D5D4D3D1D0CFCDCCCBCAC8C7C6C5C49B
:10465000C2C1C0BFBEBDBCBBBAB9B8B7B6B5B4B3B2
:10466000B2B1B0AFAEADACABAAA9A8A8A7A6A5A49D
:10467000A3A3A2A1A09F9F9E9D9C9C9B9A99999861
:104680009797969595949393929191908F8F8E8E04
:104690008D8C8C8B8B8A8989888887878685858491
:1046A00084838382828181800000FF070000F87F7D
:1046B0004FEA41034FEA5353A3F58063D3F11E033E
:1046C000C8BFD3F1210C0CDD4FF0004242EAC122F9
:1046D00042EA505232FA03FC8CEAE17CACEBE17026
:1046E0007047102BC4BF0020704703F5787CBCF1E5
:1046F000FF3F04D06FF0004282EA2100704770B59E
:1047000000F0C2F84992248000207047F2E7B0FA26
:1047100080F310FA03F10AD0C3F11D0303F580639F
:104720004FEA41504FEA035202EBD12170474FF05C
:1047300000007047DFF848C170B51CEA111E1EBFAB
:104740001CEA13159EEA0C0F95EA0C0F00F06F801F
:1047500081EA030423EA4C134EEAD47E21EA4C1189
:1047600041F4801143F48013AE44A1FB024CA0FB42
:104770000365AEF17F7E361955EB0C05A1FB034CAA
:104780004CF10003A0FB021C16EB0C06654153F133
:104790000003094218BF46F0010613F4007F0BD155
:1047A0004FEA03314FEA0530340341EA155140EA3C
:1047B00016506FF003020AE04FEAC3214FEAC5200A
:1047C000F40241EA555140EA56506FF0020202EB02
:1047D0002E4201EB025585EACE710AD05FEA440C05
:1047E00018BF24F0004450F1000041F1000120EA1C
:1047F000D47040F2FE7C624500D270BDA84214BF66
:104800004FF080444FF04044002E08BF0024BEF11A
:10481000806FA8BFA1F1C041BDE8704080F28280E6
:104820004FF0000001F1C04101F0004170479EEAE5
:104830000C0F0CEA131518BF95EA0C0F06D04FF0B9
:10484000000081EA030E0EF0004170BD00F01CF87C
:104850008900013E00F007B800F009B84FEA430CA8
:104860005FEA5C5C08D081EA030100F05BB84FEAC4
:10487000410C5FEA5C5CF6D14FF0000001497047E3
:104880000000FF070000F87F0EF1020E2EF0030E6D
:104890005EF8046B364205D4012A43EB030515F597
:1048A000001F12D8012841EB010C1CF5001F0CD889
:1048B0000ED14FEAD17C15F5001F0CEB4C0C0CF11E
:1048C000020C08BF4CEBD37C04E04FF0080C01E075
:1048D0004FEAD37C0CEB4C0526FA05F606F00706EA
:1048E000B6F1040C06D20EEB860CBDE870404CF01D
:1048F000010C6047DFE80CF0090B02024FF00041A9
:104900004FF00000A1F5002170BD194610460128A6
:1049100051EB010418BFD4F5001484BF002001F04E
:10492000004170BD0808A0F500114FEA3101704741
:1049300010B591EA030F48BF83F000433FF5C0ACC8
:10494000841A71EB030C07D212198CF0004C43EB64
:104950000C03001B61EB0C01DFF8A4E14FEA1154DA
:10496000A4EB135C1EEA430F18BF9EEA445F00F0FD
:10497000B08023EA6E03524221EA0451C3EB6E0376
:1049800038BF5B1EDCF1200E25D322FA0CFE10EBA3
:104990000E0043FA0CFE41EB0E01CCF1200E03FA9F
:1049A0000EFE10EB0E0051F10001CCF1200E29D4C7
:1049B00012FA0EF201EB0451BDE8104058BF7047E7
:1049C000401C1CBFB2F1004F704700280CBF491CAF
:1049D00020F00100704712EB020E43EB030218BFF8
:1049E0004FF0010E4EEA4202ACF1200CDCF11E0E3B
:1049F00054D943FA0CFE10EB0E0051F1FF31CCF10B
:104A00001E0ED5D50EF1010E12FA0EFE404141EBFD
:104A1000010101EB445C5FEA5C5C10D910EBDE70D5
:104A200001EB045138BFBEF1004FBDE8104018BF84
:104A3000704700280CBF491C20F00100704730D29D
:104A40004FEAD42C11F5001124F400641BD0B1FA04
:104A500081F20B3AA41AA41ED2F12003914030FA3D
:104A600003F31943904001EBCC71002C01EB04518E
:104A7000BDE81040A8BF704701F1C0414FF00000F1
:104A800001F000417047B0FA80F310FA03F100D151
:104A900010BDE41A173C4805C90AE4E701EB0451CC
:104AA00010BD491001EB0451BDE810404FEA300041
:104AB00002E04FF0000170474A0008BF0042F8D002
:104AC000B2F5001F28BF704701F000414FF0000011
:104AD00070479EEA445F07D011EA5E0FBDE81040C0
:104AE00004BF002100207047BDE8104070B5FFF7FB
:104AF000CBFE00BF40DFF63E83F00041104670471A
:104B00000000E0FF43004FEAD30C4FEA3C0C434067
:104B10001FBF40070CF1605113F0FE4F70471CF0AF
:104B2000006F03D100200CF0004170470CF00043EF
:104B300043EA507010B540EACC0000F090FA00BF94
:104B4000000000924FEA0001FFF7ECBE4FF0004179
:104B50004FF00000A1F500217047000090EA010F1E
:104B600048BF81F0004100F1FE82421A3CBF801A2A
:104B700089184FEAD0524FF07F4C1CEA410FA2EB4C
:104B8000D15318BF9CEA026F00F03B804FF0004CFD
:104B90004CEA00204CEA012121FA03FC10EB0C0C3A
:104BA0001ED202F1FF325FEA1C2040EBC25038BF38
:104BB00070471CF07F0F4FEA400C18BFBCF17F4FCD
:104BC00038BF7047C3F12003994008BF20F00100AF
:104BD000BCF17F4F38BF7047A0F1C04000F085BAEC
:104BE0004FEA3C00000A40EBC25028BF1CF0FF0F08
:104BF0004FEA400CE6D018BFBCF17F4F38BF70477A
:104C0000EAE79CEA026F05D010EA5C0F08BF00F0EB
:104C10000040704710B500F022FA00BF64FBBE3EB2
:104C2000401058BFC0F14040491058BFC1F1404149
:104C30008142EFF3008070474FF47F0C1CEAD012E2
:104C40001EBF1CEAD11392EA0C0F93EA0C0F00F07E
:104C5000858090EA010F48BF42F4807240F4000C56
:104C600041F400002CF07F4120F07F4000B58142EC
:104C7000A2EB03020FF2081CACEB504EC0F1000097
:104C80009EF800E04FEA4E0E00FB0EFC38BF4900D4
:104C90004FEA2C1C02F5FA020CFB0EF34FEACE1E73
:104CA0004FEA112C4FEAC1210EEB635E42EB224228
:104CB0000EFB0CFC4FEA1C5300FB03114FEA112CB6
:104CC0004FEA01310EFB0CFC4FEADC4C00FB0C11EF
:104CD000C14228BF09184CEB03335DF804EB10EB1D
:104CE000410143EBC250B2F57C0F38BF704729D564
:104CF00012F0F00F1CBF00F1C04000F00040704700
:104D0000008182838485868788898B8C8D8E8F91A4
:104D10009293959697999A9C9D9FA0A2A3A5A7A8C8
:104D2000AAACAEB0B2B3B5B7B9BCBEC0C2C5C7C9F4
:104D3000CCCED1D4D7D9DCDFE2E6E9ECF0F3F7FA58
:104D4000FE0000004FEA400C0CF1807CBCF17E4F6D
:104D500028BF7047B0F1C04000F0C7B990EA010F1A
:104D60000CEAD11348BF42F48072624538BF6345F4
:104D700007D213F47F0F16D080EA010000F0004044
:104D8000704710B500F06BF9097EFC3E00F005B8E5
:104D900080EA010000F00040704780EA010000F066
:104DA000004000F0A2B912F47F0F04BF0248704720
:104DB00080EA010000F099B90000C07F50EA010CC0
:104DC00000F113801CF5000F58BFBCF5000F01D493
:104DD0008842704707D710F5000F58BF11F5000F34
:104DE00015D488427047894270471CF5000F04D5DE
:104DF000BCF5000FF7D5814270474FF0807C1CEB6B
:104E0000400F38BF1CEB410F01D28142704710B5F3
:104E100000F025F9922449004FF000504FF08051E6
:104E2000FFF7FEBE41000B0ED3F19E0208D950F4ED
:104E300000034FEA032323FA02F048BF40427047C1
:104E400010B500F00CF900BF499224800020704793
:104E50006FF0004282EA200070470000C10DD1F1DE
:104E60009E0206DB4FEA002343F0004323FA02F0E0
:104E70007047004207D54FEA4001B1F1FE4F02D220
:104E80004FF00000704710B500F0E9F84992248017
:104E9000002070476FEA20007047000010F00041CA
:104EA00048BF4042B0FA80F310FA03F2C3F19D0309
:104EB0000BD051EAC35101EB1220530638BF7047A3
:104EC00000F1010008BF20F001007047B0FA80F344
:104ED00010FA03F2C3F19D030AD0D90501EB1220A9
:104EE000530638BF704700F1010008BF20F00100F1
:104EF0007047000050EA010C00F113801CF5000F10
:104F000058BFBCF5000F01D48842704707D710F591
:104F1000000F58BF11F5000F15D488427047894221
:104F200070471CF5000F04D5BCF5000FF7D5814282
:104F300070474FF0807C1CEB400F38BF1CEB410FDB
:104F400001D28142704710B500F089F892244900DF
:104F50004FF000504FF08051FFF762BE4FF47F0CCE
:104F60001CEAD0121EBF1CEAD11392EA0C0F93EA7E
:104F70000C0F00F0478090EA010F48BF42F48072A6
:104F80004FF0004C4CEA00204CEA012102EB0302F6
:104F9000A0FB0113A2F50002002918BF43F0010392
:104FA0005B0028BF4FEA330342EB22425FEA132C37
:104FB0004CEBC2502EBFBCEB436FB2F57C0F704779
:104FC0004FEA036CBCF1004F08BF20F00100B2F5BE
:104FD0007C0F38BF70470BD582F0FF0212F5803F7F
:104FE000C8BF704700F1C040D8BF00F00040704714
:104FF00000F5000C5FEA4C0C48BF7047B0F1C040B0
:1050000000F073B890EA010F0CEAD11348BF42F4E4
:105010008072624538BF634504D280EA010000F027
:105020000040704710B500F01AF800BF8900013E3B
:1050300000F007B800F009B85FEA410C5FEA1C6CA9
:1050400008D080EA010000F050B85FEA400C5FEA47
:105050001C6CF6D14FF00040A0F5800070470EF1B7
:10506000020E2EF0030E5EF8044B244204D44FEAE5
:105070004102B2F17F4F11D84FEA4003B3F17F4FA5
:105080000CD80ED14FEAD07CB2F17F4F0CEB4C0C18
:105090000CF1020C08BF4CEBD17C04E04FF0080C83
:1050A00001E04FEAD17C0CEB4C0324FA03F404F04A
:1050B0000704B4F1040C06D20EEB840CBDE81040DA
:1050C0004CF0010C6047DFE80CF0070802024FF0DB
:1050D0000040A0F5800010BD0846420018BFD2F184
:1050E000807288BF00F0004010BDFF2141EAD0501F
:1050F000C005704751EA000C00F113801CF5000F49
:1051000058BFBCF5000F01D48142704707D711F595
:10511000000F58BF10F5000F15D481427047894227
:1051200070471CF5000F04D5BCF5000FF7D5884279
:1051300070474FF0807C1CEB410F38BF1CEB400FD9
:1051400001D28842704780EA010081EA000180EACA
:105150000100FFF7F8BE000090EA010F48BF81F0A0
:1051600000413FF502AD421A04D882F00042A0EBA4
:10517000020011444FEAD0524FF07F4C1CEA410F1D
:10518000A2EBD15318BF9CEA026F4AD04FF0004CFB
:105190004CEA00204CEA012121FA03FCB0EB0C0C94
:1051A0000FD412F0FE0F36D05FEA4C001DD500126E
:1051B00040EBC25038BF70471CF03F0F18BF70471C
:1051C0000BE0A2F101025FEA1C2040EBC25038BFA5
:1051D00070471CF07F0F18BF7047C3F12003994040
:1051E00014BF401E20F00100704780084FEA1223D0
:1051F00008BF7047B0FA80FCA2EB0C02CCF1280C7F
:1052000060FA0CF093EA122F04BF00EBC250704713
:105210004FEAC3707047130A5FEADC1008BF70479B
:10522000F6E79CEA026F04D010EA5C0F08BF00208A
:10523000704710B5FFF713FF40DFF63E81F00040E6
:1052400070470000000000000000000000000000A7
:10525000000000003F40000000000000000030009F
:10526000400030004000000009000BC03D000BC0B2
:105270003D00090018C024407FE02240318000003A
:10528000180024C01B000D803240018003801C40A8
:1052900027401C8007400040100060000000000014
:1052A000000000000000000000001F80204040209F
:1052B0000000402020401F80000000000900060080
:1052C0001F80060009000000040004003F80040065
:1052D000040000000010006000000000000000005A
:1052E000040004000400040004000000000000406A
:1052F0000000000000000000002001C0060038008F
:10530000400000001F802040204020401F800000FF
:10531000000010403FC000400000000018C02140C5
:1053200022402440184000001080204024402440A7
:105330001B80000002000D0011003FC00140000072
:105340003C80244024402440238000001F802440CF
:1053500024403440038000003000200027C0380083
:10536000200000001B802440244024401B800000BB
:105370001C0022C0224022401F80000000000000CC
:105380000840000000000000000000000460000071
:1053900000000000000004000A00110020804040CE
:1053A0000900090009000900090000000000404050
:1053B000208011000A00040018002000234024006F
:1053C000180000001F802040274029401F40000097
:1053D000004007C039000F0001C0004020403FC01E
:1053E000244024401B8000001F802040204020409B
:1053F0003080000020403FC0204020401F8000003F
:1054000020403FC024402E4030C0000020403FC01C
:1054100024402E00300000000F0010802040224069
:105420003380020020403FC0040004003FC0204001
:10543000204020403FC0204020400000006020204D
:1054400020203FC02000200020403FC024400B000F
:1054500030C0204020403FC020400040004000C0FD
:105460003FC03C0003C03C003FC0000020403FC0A4
:105470000C4023003FC020001F80204020402040DF
:105480001F80000020403FC024402400180000007E
:105490001F802140214020E01FA0000020403FC08D
:1054A0002440260019C0004018C024402440224057
:1054B00031800000300020403FC02040300000001C
:1054C00020003F80004000403F80200020003E0040
:1054D00001C0070038002000380007C03C0007C0AA
:1054E00038000000204039C0060039C020400000CC
:1054F0002000384007C0384020000000304021C064
:105500002640384020C00000000000007FE040201E
:1055100040200000000070000C00038000400000EC
:105520000000402040207FE000000000000020003C
:1055300040002000000000000010001000100010CB
:1055400000100010000000004000000000000000FB
:10555000000002800540054003C0004020003FC01D
:105560000440044003800000000003800440044025
:105570000640000000000380044024403FC000407B
:105580000000038005400540034000000000044087
:105590001FC0244024402000000002E005500550B8
:1055A0000650042020403FC00440040003C00040D7
:1055B0000000044027C00040000000000010001060
:1055C000041027E00000000020403FC00140070019
:1055D00004C00440204020403FC000400040000084
:1055E00007C0040007C0040003C00000044007C057
:1055F0000440040003C00040000003800440044055
:1056000003800000041007F00450044003800000F1
:10561000000003800440045007F00010044007C05D
:105620000240040004000000000006400540054060
:1056300004C00000000004001F800440004000007F
:10564000040007800040044007C000400400070039
:1056500004C0018006000400060001C0070001C06C
:1056600006000000044006C0010006C0044000001F
:105670000410071004E0018006000400000004404C
:1056800005C00640044000000000000004007BE06C
:1056900040200000000000000000FFF000000000BB
:1056A000000040207BE0040000000000400080007B
:1056B000400020002000400000000000000000002A
:1056C00000000000000000000000000000001FCCEF
:1056D000000C000000000000000008003000600026
:1056E0000800300060000000022003FC1E200220A1
:1056F00003FC1E200220000000000E1811043FFFD2
:1057000010840C78000000000F0010840F3800C0D7
:10571000077818840078000000780F8410C41124E2
:105720000E9800E400840008080068007000000083
:10573000000000000000000000000000000007E082
:10574000181820044002000000004002200418182D
:1057500007E00000000000000240024001800FF05E
:1057600001800240024000000080008000800FF8AD
:1057700000800080008000000001000D000E00008D
:105780000000000000000000000000800080008099
:1057900000800080008000800000000C000C0000F1
:1057A000000000000000000000000006001800607B
:1057B0000180060018002000000007F0080810040F
:1057C0001004080807F000000000080408041FFC8B
:1057D000000400040000000000000E0C101410244F
:1057E000104411840E0C000000000C181004110469
:1057F000110412880C700000000000E00320042453
:1058000008241FFC0024000000001F9810841104CD
:105810001104108810700000000007F008881104BF
:10582000110418880070000000001C00100010FC1B
:1058300013001C001000000000000E3811441084FA
:10584000108411440E38000000000700088C10443A
:105850001044088807F00000000000000000030C5E
:10586000030C000000000000000000000001010621
:105870000000000000000000000000800140022045
:105880000410080810040000022002200220022058
:10589000022002200220000000001004080804106A
:1058A000022001400080000000000E001200100CD9
:1058B000106C10800F00000003E00C1813E4142497
:1058C00017C4082807D000000004003C03C41C4093
:1058D000074000E4001C000410041FFC1104110424
:1058E00011040E880070000003E00C18100410046E
:1058F000100410081C10000010041FFC10041004F9
:105900001004080807F0000010041FFC1104110423
:1059100017C410040818000010041FFC1104110023
:1059200017C010000800000003E00C181004100459
:1059300010441C780040000010041FFC10840080FC
:10594000008010841FFC10040000100410041FFCD1
:1059500010041004000000000003000110011001F9
:105960001FFE10001000000010041FFC1104038033
:105970001464181C1004000010041FFC1004000420
:1059800000040004000C000010041FFC1F0000FCB9
:105990001F001FFC1004000010041FFC0C04030077
:1059A00000E010181FFC100007F008081004100495
:1059B0001004080807F0000010041FFC1084108079
:1059C000108010800F00000007F008181024102429
:1059D000101C080A07F2000010041FFC110411003B
:1059E00011C011300E0C000400000E1C11041084B4
:1059F000108410441C3800001800100010041FFC14
:105A0000100410001800000010001FF8100400041B
:105A1000000410041FF8100010001E0011E0001C0C
:105A2000007013801C0010001FC0103C00E01F001D
:105A300000E0103C1FC000001004180C163401C018
:105A400001C01634180C100410001C00130400FCD4
:105A500013041C00100000000804101C10641084C3
:105A600013041C04101800000000000000007FFE5A
:105A70004002400240020000000030000C000380A1
:105A80000060001C000300000000400240024002D1
:105A90007FFE000000000000000000002000400029
:105AA0004000400020000000000100010001000152
:105AB0000001000100010001000040004000200042
:105AC00000000000000000000000009801240144D4
:105AD0000144014400FC000410001FFC0088010484
