:020000040800F2
:10000000500B002095010008990100089B01000891
:100010009D0100089F010008A101000800000000E8
:10002000000000000000000000000000A301000824
:10003000A501000800000000A7010008A9010008B0
:10004000AB010008AB010008AB010008AB010008E0
:10005000AB010008AB010008AB010008AB010008D0
:10006000AB010008AB010008AB010008AB010008C0
:10007000AB010008AB010008AB010008AB010008B0
:10008000AB010008AB010008AB010008AB010008A0
:10009000AB010008AB010008AB010008B913000870
:1000A000AB010008911B0008AB010008AB01000880
:1000B00045130008AB010008AB010008AB010008C4
:1000C000AB010008AB010008AB010008AB01000860
:1000D000AB010008AB010008AB010008AB01000850
:1000E00013140008AB010008AB01000800F002F88F
:1000F00000F03AF80AA090E8000C82448344AAF188
:100100000107DA4501D100F02FF8AFF2090EBAE885
:100110000F0013F0010F18BFFB1A43F0010318473B
:1001200044E0000064E00000103A24BF78C878C1C1
:10013000FAD8520724BF30C830C144BF04680C60ED
:10014000704700000023002400250026103A28BF35
:1001500078C1FBD8520728BF30C148BF0B60704739
:100160001FB51FBD10B510BD02F099FF1146FFF776
:10017000F7FF00F02BF802F0B7FF03B4FFF7F2FF30
:1001800003BC00F017FA000030BF72B662B680F30D
:100190000888704708480047FEE7FEE7FEE7FEE7ED
:1001A000FEE7FEE7FEE7FEE7FEE7FEE70348044959
:1001B000044A054B70470000ED0000085005002080
:1001C000500B00205007002050070020092000F0AD
:1001D00098F9482000F038F8022000F07DF901205D
:1001E00000F07AF94FF47A7000F066F84FF47A7004
:1001F00000F062F800F05CFA01F0BAF800F094FD4B
:100200004FF4FA31482000F0EFF9002141F61F4089
:1002100000F080FF01F034F800F02AFE41F61F41A3
:10022000312000F037FF0BE001F0CEFF02F0EEFDD1
:1002300001200449087000BF024800780028FBD163
:10024000F2E70000020000204FF0E021096921F0F0
:1002500004014FF0E0221161C21700EB5272C2F3A9
:10026000C702234B1A701946097801EB4102C2EB11
:10027000C1114FF6FF7202EAC1011E4A1180704798
:1002800001461B4A12784A434FF0E0235A6100228C
:100290009A6101221A6100BF4FF0E022106900F05C
:1002A00001021AB100F48032002AF5D000224FF08A
:1002B000E0231A619A61704701460E4A12884A4348
:1002C0004FF0E0235A6100229A6101221A6100BFB7
:1002D0004FF0E022106900F001021AB100F4803200
:1002E000002AF5D000224FF0E0231A619A6170478E
:1002F000480000204A000020A34A0A400243A34BC2
:100300001A6070470146072323EA010212029F4B3D
:100310001B1D18684FF6FF0318409D4B18431043F0
:100320009A4B1B1D186070472DE9F041074688461F
:1003300014461D462846FFF7E5FFC5F1040007FAFD
:1003400000F60F20284100EA0800064306F00F06D9
:10035000E21704EBD2625211920002F1E022D2F8CD
:1003600000212146E31704EBD3635B11A4EB431C8C
:10037000012303FA0CF31A432046E31704EBD3637B
:100380005B119B0003F1E023C3F800218148005D6D
:1003900040EA06107F490855BDE8F08170B5044673
:1003A0000B46CE1701EB9676C6F38700CE1701EB0E
:1003B0009676B610A1EB8606B606350E764B9B698F
:1003C00043F00103744EB3614FEAB63353F8203063
:1003D0000F26AE40B343714E46F82030334653F8F3
:1003E000203004FA05F61E436C4B43F820606C4B3A
:1003F0001B6801268E403343694E336002F00103CF
:1004000043B1674B0C331B6801268E403343644E67
:100410000C36336002F0020343B1614B08331E68AF
:1004200001238B401E435E4B08331E6070BD00B538
:10043000002059490861C860142048610020886183
:10044000C8610846006840F001000860084640683E
:1004500054490840504948600846006852490840DD
:100460004D4908600846006820F48020086008466E
:10047000406820F4FE0048600020886000214FF0B2
:100480000060FFF739FF00BD10B540480830006834
:1004900040F004003D49083108603F48C06940F021
:1004A00080503D49C8614148406840F480703F49F0
:1004B00048600846006840F004000860084600688C
:1004C00040F002000860FFF75FFE10BD3048001DDD
:1004D0002E49091D08607047014649062E4A926957
:1004E00042F001022C4B9A612C4A083A526822F0E1
:1004F000E0622A4B083B5A601A4652680A435A6027
:10050000704730B504460025FFF791FF2248006888
:1005100040F480302049086000BF1F480068400C4C
:100520000028FAD04FF480601B494860A01EC4B276
:100530000846406840EA844048600846406840F405
:10054000803048601A48006840F03200184908605E
:100550001148006840F080700F49086000BF0E48E5
:100560000068400E0028FAD00B48406840F00200B6
:100570000949486005E008484068C0F3870505F070
:100580000305022DF7D130BD80FFFF1F08ED00E00D
:100590000000FA0500E400E00010024008000140FD
:1005A000000401400000FFF8FFFFF6FE007000406D
:1005B00000200240014600BF704700BF384A128841
:1005C00002F04002002AF9D0C2B2354B1B1D1A803E
:1005D00070473349091D088000BF3149098801F07F
:1005E00040010029F9D070472DE9F05F05460E461D
:1005F000300103F0C7FB81462A4905FB01F003F0F7
:10060000C1FB8246494603F073FA0746384603F0B9
:1006100081FB84B2204603F0B5FB8346394603F0E4
:10062000F6FC82464FF0834103F0F4FB814603F071
:1006300071FB80464FF6FF7000EA041404EB0800DB
:1006400084B21948806940F004001749886108465F
:10065000806940F4804088611448006820F47F601D
:10066000124908600846006840F40B6008600E48B4
:10067000C06840F480400C49C8600846C06820F457
:100680008040C860064808300480001D008842F29F
:100690000C01084302490C310880BDE8F09F0000BE
:1006A0000038014040420F000010024004080140A1
:1006B0001748806940F004001549886115480068B2
:1006C00020F47020134908600846006840F4403068
:1006D000086010480C30006840F010000D490C31E3
:1006E0000860704718B900210B4A11600FE00B49F0
:1006F0000968491C094A1160814208D10649096804
:10070000C943074AC2F890110021044A116070479A
:100710000010024000080140900121424C000020DE
:10072000000021427248806940F0040070498861ED
:100730007048006820F47F206E4908600846006811
:1007400040F408200860081F00686B4908406949A8
:10075000091F086008460068684908436549091F81
:10076000086064480830006840F0040061490831BE
:1007700008600846006840F080000860084600688D
:1007800040F0200008600846006840F4C05008604F
:10079000704701465A48006828B95A480088401CEA
:1007A000584A108002E00020564A108054480068E1
:1007B00028B95548007810B90120534A10705348A1
:1007C0000078B0B950480078012807D15048007827
:1007D000401C4F4A107001204C4A10704C48007861
:1007E000022806D100204A4A10704A4A108002208E
:1007F000704743480068012804D10020424A107025
:10080000424A10704248007801281CD141480088B3
:10081000401C404A10801046008888420ADD394852
:100820000088884206DA0020394A1070394A108060
:100830000120DDE733480088884204DD0020344A87
:100840001070344A10800020D2E710B5324800788A
:1008500018B32B480C30006838B1294824300068A0
:1008600018B1274828300068B8B900202A49087014
:100870003220FFF721FD22480C30006808B905201E
:1008800010BD1F482430006808B90B20F8E71C4849
:100890002830006820B90C20F2E701201E490870BA
:1008A0000020EDE71D48008848B91548143000685D
:1008B00028B91B480088401C1949088002E0002024
:1008C0001749088016480088142807DD01201349BD
:1008D0000880002012490880012070470F480088D6
:1008E000012802D100200D4908800020F5E7000012
:1008F0000010024004080140FFF00F0F0008808044
:100900000801214256000020500000205100002024
:100910005200002054000020580000205C000020FD
:100920005A00002010B50A461AB10123F74C236083
:1009300002E00023F54C2360002114E00023F44C76
:10094000236000F080031BB10123241F236003E018
:100950000023EF4C241F23600123ED4C236043064A
:10096000180E4B1CD9B20829E8DB0123E74C2360A1
:1009700010BD30B500241CE004F1B001C8B2002164
:10098000FFF7D0FF00210846FFF7CCFF0021102021
:10099000FFF7C8FF002508E0DE4901EBC501085D4F
:1009A0000121FFF7BFFF681CC5B2802DF4DB601C7E
:1009B000C4B2082CE0DB30BD00B500218D20FFF76C
:1009C000B1FF00211420FFF7ADFF0021AF20FFF79A
:1009D000A9FF00BD00B500218D20FFF7A3FF002176
:1009E0001020FFF79FFF0021AE20FFF79BFF00BD07
:1009F00030B500240CE0002506E00020C54901EBDD
:100A0000C5010855681CC5B2802DF6DB601CC4B258
:100A1000082CF0DBFFF7ADFF30BDF0B51446002623
:100A20007F2801DC3F2900DDF0BD0B46CF1701EB2D
:100A30005777FF10C7F10707FAB2CF1701EB5777C7
:100A4000FF10A1EBC707FDB2C5F107070123BB40AB
:100A5000DEB24CB1AF4B03EBC0039B5C3343AD4FF5
:100A600007EBC007BB5408E0AA4B03EBC0039B5C39
:100A7000B343A84F07EBC007BB5400BFD4E72DE931
:100A8000F04F80460C4615461E46A346A5F12000B1
:100A9000C5B200273EE00C2E07D105EB45009E496C
:100AA00001EB800010F8079004E09C4800EB051073
:100AB00010F807904FF0000A26E009F0800028B1F6
:100AC00021464046099AFFF7A8FF09E0099808B9AE
:100AD000012000E00020024621464046FFF79DFF2E
:100AE0004FEA49604FEA1069601CC4B2A4EB0B00E6
:100AF000B04205D15C4608F1010000F0FF0806E0B5
:100B00000AF1010000F0FF0ABAF1080FD5DB00BFBF
:100B1000781CC7B2B742BEDBBDE8F08F10B5024605
:100B2000012000E050430B1EA1F10104E1B2F9D114
:100B300010BD2DE9FF4F81B0074691461E460E9D20
:100B40004FF0000A002439E0301B401EC1B20A20D9
:100B5000FFF7E4FFB9FBF0F00A21B0FBF1F201FB73
:100B60001208BAF1000F16D1701EA04213DDB8F1C1
:100B7000000F0ED10120AB4605EBDB71491001FBE4
:100B800004710090C8B22B4620220299FFF777FF2C
:100B900012E04FF0010A0120AB4605EBDB71491072
:100BA00001FB04710090C8B208F13001CAB22B46B3
:100BB0000299FFF764FF00BF601CC4B2B442C3DBFC
:100BC00005B0BDE8F08F78B505460E46144618E02E
:100BD0007A2D03DD002506F11000C6B23A2E04DDA1
:100BE000002005460646FFF703FF0120009022780B
:100BF0000C2331462846FFF742FF05F10800C5B235
:100C0000641C20780028E3D178BD2DE9F04F074619
:100C10000C4690461D46A346002631E0404800EBB6
:100C2000C81010F826904FF0000A23E009F0800069
:100C300028B12A4621463846FFF7EFFE08E00DB9F5
:100C4000012000E00020024621463846FFF7E5FE7D
:100C50004FEA49604FEA1069601CC4B2A4EB0B0074
:100C6000102803D15C46781CC7B206E00AF10100E7
:100C700000F0FF0ABAF1080FD8DB00BF701CC6B243
:100C8000202ECBDBBDE8F08F2DE9F04F07460C4658
:100C900090461D46A346002633E0C8EBC800214914
:100CA00001EB001010F826904FF0000A23E009F045
:100CB000800028B12A4621463846FFF7AEFE08E0FC
:100CC0000DB9012000E00020024621463846FFF71A
:100CD000A4FE4FEA49604FEA1069601CC4B2A4EB5D
:100CE0000B00102803D15C46781CC7B206E00AF15D
:100CF000010000F0FF0ABAF1080FD8DB00BF701C3A
:100D0000C6B21C2EC9DBBDE8F08F0000BC01214239
:100D100094812142C400002010410008844500084D
:100D2000744B0008F4A1000810B54A48806940F0EF
:100D300008004849886148480068484908404649D1
:100D4000086008460068464908434349086041482E
:100D5000806940F004003F4988614248006820F003
:100D60007040404908600846006840F00050086044
:100D700000203D4908606420FFF79EFA01203B49AE
:100D8000C1F88C010021AE20FFF7CCFD0021D52059
:100D9000FFF7C8FD00215020FFF7C4FD0021A82067
:100DA000FFF7C0FD00213F20FFF7BCFD0021D3204D
:100DB000FFF7B8FD00210846FFF7B4FD00214020F1
:100DC000FFF7B0FD00218D20FFF7ACFD00211420BE
:100DD000FFF7A8FD00212020FFF7A4FD002102203D
:100DE000FFF7A0FD0021A120FFF79CFD0021C020FE
:100DF000FFF798FD0021DA20FFF794FD0021122073
:100E0000FFF790FD00218120FFF78CFD0021EF20EE
:100E1000FFF788FD0021D920FFF784FD0021F12094
:100E2000FFF780FD0021DB20FFF77CFD0021302053
:100E3000FFF778FD0021A420FFF774FD0021A62014
:100E4000FFF770FD0021AF20FFF76CFDFFF7D0FD2D
:100E500010BD000000100240000C0140FF0F00FF19
:100E600000202200040801408C81214200802142A0
:100E70007F48806940F004007D4988617D480068B2
:100E800020F070607B4908600846006820F47040DC
:100E900008607748806940F40070754988610846A9
:100EA000C06840F40070C8600846C06820F4007054
:100EB000C8600846406820F44040486008464068E2
:100EC00040F4004048606C4800686C4908406A493A
:100ED00008600846006808600846006820F48070D2
:100EE0000860081D006820F00200091D086008461F
:100EF000006820F4602008600846006840F4602024
:100F000008600846006840F48010086008460068E1
:100F100020F40060086058482830006820F4700011
:100F2000554928310860084600680020086052488A
:100F30000C30006820F070604F490C3108600846A2
:100F4000006840F4E01008600846006820F4704033
:100F500008600846006808604748001D006840F0C7
:100F600001004549091D08600846006840F0080076
:100F7000086000BF4048001D006800F0080000281D
:100F8000F8D13D48001D006840F004003A49091DB1
:100F9000086000BF3848001D006800F00400002809
:100FA000F8D17047014634483030006820F01F0007
:100FB000314A3032106010460068084310602E48F5
:100FC000001D006840F480002B4A121D106000BF15
:100FD0002948001F006800F002000028F8D02648C9
:100FE0004830006880B270472DE9F04F87B0062086
:100FF000FFF7D8FF019002F0E6FA80464FF0663224
:101000001F4B02F0F3FA00221E4BCDE9020102F061
:10101000EDFA00221C4BCDE9040102F0E7FA064686
:1010200000221A4B02F048F904460022184B02F045
:1010300043F9824602F098FA0690069807B0BDE898
:10104000F08F2DE9F04107460C460025002608E008
:101050003846FFF7A7FF0544C820FFF711F9701CB9
:10106000C6B2A642F4DBB5FBF4F080B2BDE8F08175
:10107000001002400008014004240140FFFFF0007E
:1010800066660A4000002640000059400000F03F1C
:101090000000B04070B505460C461348806940F426
:1010A00000601149886111480580001F04800F48C5
:1010B0002038008840F001000C492039088008469B
:1010C000008840F04000088008482C38008840F034
:1010D000010006492C39088002231922032101202E
:1010E000FFF722F970BD0000001002402C2C0140D7
:1010F0002F48806940F008002D4988612D4800681C
:1011000080B22C490860084600682B4908432949E9
:101110000860704700B503460A46FFF7E9FF244818
:10112000C06940F002002249C8610846806940F069
:10113000080088611F48001F006820F0FF001D495B
:10114000091F08600846006840F0BB0008601B48A3
:101150000380001F028019481038008840F4C04006
:101160001649103908800846008840F06000088061
:101170000846008840F4006008800846008840F077
:1011800008000880081D008840F48050091D088070
:101190000846008840F480700880802007492C3978
:1011A00008800846008840F00100088000BD00006B
:1011B00000100240040C0140000022222C040040D8
:1011C00010B56648C06940F001006449C86108462E
:1011D000806940F0040088616148006820F0FF00E9
:1011E0005F4908600846006840F044000860C80491
:1011F000808940F00100C90488810846808940F058
:101200004000888101231C2203211846FFF78CF837
:1012100000204FF0804108854FF6FF708885084612
:10122000008820F4407008800846008820F06000A4
:1012300008800846008B40F0010008830846008BB8
:1012400040F4807008830846008C20F00200088477
:101250000846008C20F0200008840846008B40F0EF
:10126000300008830846008940F00300088142F2FC
:10127000107088848006008840F00100088010BD4E
:101280003648C06940F004003449C86108468069A6
:1012900040F0080088613348006820F07F40314901
:1012A00008600846006840F08840086000202E4929
:1012B00008804FF6FF70091D08802B4828380088E9
:1012C00020F440702849283908800846008820F01A
:1012D0006000088024481038008840F0300022491F
:1012E0001039088020482038008840F003001E494B
:1012F0002039088042F210701B49091F08801A48E3
:101300002838008840F001001749283908807047C4
:101310000146022904D0032907D004290ED108E090
:101320004FF08042928C10B20AE0104A128810B23C
:1013300006E00D4A121F128810B201E0002000BF23
:1013400000BF70474FF08040008A4FF08040008A15
:1013500020F001004FF080410882704700100240E9
:1013600000080140000C014028080040240400400F
:1013700010B5FFF7D7F9012207210020FFF70EF87B
:10138000012205210020FFF709F801220B2100208E
:10139000FFF704F801220C210020FEF7FFFF0223D3
:1013A000172219461846FEF7BFFF022328221946C6
:1013B0001846FEF7B9FF10BD70B50520FEF77CFF9B
:1013C0006D48006838B96D48007808B9012000E020
:1013D00000206A49087068480830006898B9684871
:1013E0004FF07E510568006802F014FB64492C46FA
:1013F00008604FF08141204602F03CFC03D14FF0E1
:101400007E505F49086020205E49086080200860A7
:1014100070BD10B50520FEF74FFF57481C3000681F
:1014200068BB4FF07E515648006802F023FC08D19B
:10143000554801685548006802F0F4FD53490860BA
:101440002DE04FF080414E48006802F013FC08D1B7
:101450004F4801684F48006802F0E4FD4D490860BC
:101460001DE04D494648006802F004FC08D14B4895
:1014700001684B48006802F0D5FD494908600EE05C
:101480004FF081413E48006802F0F4FB07D1454827
:1014900001684548006802F0C5FD434908603648C8
:1014A0001830006868BB4FF07E513548006802F084
:1014B000E1FB08D1344801683448006802F0AAFA18
:1014C000324908602DE04FF080412D48006802F05D
:1014D000D1FB08D12E4801682E48006802F09AFA24
:1014E0002C4908601DE02C492548006802F0C2FB29
:1014F00008D12A4801682A48006802F08BFA284976
:1015000008600EE04FF081411D48006802F0B2FB18
:1015100007D1244801682448006802F07BFA224978
:10152000086000211948006802F040FC02D8002041
:101530001649086000211748006802F037FC02D8FD
:1015400000201449086000211548006802F02EFCB4
:1015500002D800201249086000211348006802F0F8
:1015600025FC02D80020104908604FF400600549AE
:1015700008604000086010BD1401214200000020F6
:101580003400002014040140380000201C0000201A
:101590003C000020200000200000404040000020CF
:1015A00024000020440000202800002010B54FF443
:1015B0000264FE480078012818D1FD49FD48006802
:1015C00002F0F4FC0CD2FC49FA48006802F0EEFB91
:1015D00006D20120F94908700020F949087005E099
:1015E0000120F74908700020F44908706420FFF7D3
:1015F000D0F8F449086008460068012801D1F24992
:101600000860F0480068022801D1EF490860EE4800
:101610000068012812D1ED480068401CEB490860C1
:10162000EB480068401CEA49086008460068A04290
:1016300004D10020E4490860E5490860E2480068F8
:10164000022812D1E1480068401EE0490860E048E5
:101650000068401CDE49086008460068A04204D1CA
:101660000020D9490860DA49086010BD0146002908
:1016700001DA484200E00846704700B50246002AF9
:1016800007DA0120D34908600020D349C1F8B4012A
:1016900006E00020CF4908600120CF49C1F8B4011D
:1016A0001046FFF7E3FFCD49088000BD41F6F42066
:1016B000CB4909684242914202DA4142C84A11606C
:1016C000C7490968814201DDC5490860704770B5A6
:1016D0000546B648007801280FD0C249B5480068D1
:1016E00002F064FB09D3C049B248006802F05EFC16
:1016F00003D340F2564085420BDA0120AB49087013
:1017000001240020B34908310860B349C1F8BC0185
:1017100000E00024204670BD2DE9FC478246AB491D
:101720000968AAEB010002F015FBB0490860B04857
:10173000006802F043F90446AE4AAF4B01F056FF91
:10174000064601F0DFFCAA490860A848006802F0DC
:1017500035F90646A74AA94B01F048FF04460D4655
:10176000A348006802F02AF9804622462B4601F081
:10177000FBFCCDE9000101F0C5FC9D490860A048D3
:1017800001689B48006802F04DFC9E49086098483B
:1017900000689B4908609C4801689A48006802F00C
:1017A00039FB0446994801689148006802F032FB11
:1017B0000546214602F02EF9954908600846006862
:1017C00002F08CFABDE8FC872DE9F0470546914907
:1017D000284602F027FC04468F480168204602F0A4
:1017E00021FC8E4908608E4801688C48006802F030
:1017F00011FB82468B48006880F00049214648462C
:1018000002F008FB8046514602F00CFC074602F04D
:1018100065FA0646804804603046BDE8F0872DE949
:10182000F04704460D46601B02F094FA7E490860BA
:10183000084601687D48006802F0ECF87B490860C2
:101840007B4801687848006802F0ECFB80467948E4
:101850000168404602F0DEFA06467448016800203E
:1018600002F0D8FA8046704801687348006802F0B8
:10187000D1FA8146414602F0CDF80746314602F0E2
:10188000C9F86E49086068480068694908606B4893
:10189000006802F023FABDE8F08710B568480078C8
:1018A00060BB68480078401C66490870664801883B
:1018B00066480068FFF7B3FF4949086042F66500D3
:1018C00061490880FFF7F2FE5E480078012816D1D2
:1018D0005E48006842F2FC61884205DB5B480068B4
:1018E00042F2247188420ADD00205649087042F213
:1018F00010705549088001202C49087003E03848D1
:101900000068FFF7BAFE52480088401C80B2504978
:101910000880002848D04F492648006802F046FB5E
:1019200042D24D492348006802F040FA3CD20020E0
:10193000474908804948008858B9494839490860EA
:1019400048483749086048483049086047482E49A8
:10195000086042480088401C4049088008460088CA
:101960000A2821DD01203649087012480068FFF777
:101970002BFF3F490860394800886D2815DD37483E
:1019800000886E280BD13B48264908603A48244914
:1019900008603A481D49086039481B4908607320AF
:1019A0002E49088037486FE099E07EE00000002073
:1019B0000080224518000020000061456E000020D4
:1019C0006F000020980000209C0000200C000020E8
:1019D000A0000020B081214200802142400400404C
:1019E0001000002000C00F4500C073459400002087
:1019F0008C0000209A9999999999E93F9999C93F42
:101A000080000020900000202800002024000020FA
:101A10008800002000C041457C0000208400002098
:101A2000200000201C000020A4000020AC000020AA
:101A3000B0000020300000202C000020A800002072
:101A400069000020700000206A00002008000020CB
:101A5000B400002000E02B4500A057456C0000209A
:101A60000000F04100001643000070410000FA43FE
:101A70006000002000004842000074430000C8419C
:101A800000001644680000200078401CC0B2944951
:101A90000870042813DD93480068FFF73DFE924963
:101AA000086000208E49087009E09048008890493D
:101AB00008608C480068FFF72FFE8B490860002003
:101AC0008C490880FFF7F2FD8B4800688649096859
:101AD000401A8A49086008460068FFF7CEFD884929
:101AE0008848006802F062FA05D287498548006894
:101AF00002F05CF91AD385480078022816DD844884
:101B0000008898B90120834908700020FFF7B5FDCF
:101B100078480088401C7749088008460088C82813
:101B200004DD0020088001207B4908707449754855
:101B3000006802F03BFA05D273497248006802F06F
:101B400035F907D371480078022803DD7048008812
:101B5000782805DC7148006840F25641884216DA60
:101B600096206B49088001206A4908700020FFF721
:101B700084FD60480088401C5E4908800846008853
:101B8000C82804DD0020088001206349087010BDCA
:101B900010B56348008800F00100002875D0604847
:101BA000008820F001005E4908805E480078012826
:101BB0000BD15D480078401CC0B25B4908700A2810
:101BC00003D100200870574908700420FFF7A0FBDC
:101BD000444908600F210320FFF733FA044602F05E
:101BE000D1F8484908604C48007848B94F48007817
:101BF000012805D14E48007810B9FFF74EFE4FE09E
:101C000045480078002841D14948007801283DD155
:101C100046480078C0BB4748007838B9012045499C
:101C200008700420FFF774FB3149086035480068EC
:101C3000FFF7CAFD3049086029480078401CC0B24F
:101C400027490870042808DD26480068FFF764FD6E
:101C50002549086000202249087030480068FFF7D5
:101C600036FD18B101202C49087019E0FFF71EFD60
:101C7000214800681C490968401A20490860084644
:101C80000068FFF7FAFC0BE000E026E0224800784D
:101C9000012805D10020FFF7F0FC0020254908703D
:101CA0001048006824490968401A244908600D4812
:101CB00000682149086021480068FFF7D7FC0F2819
:101CC00002DD0120144908706420FEF70BFDFFF7C8
:101CD0008BF912490860FFF769FC002010BD000075
:101CE0006800002008000020640000206A00002036
:101CF0000C000020B6000020600000201000002032
:101D0000008022451800002000006145700000207E
:101D1000B400002069000020000000201400002012
:101D2000102C014002000020010000206F00002064
:101D30006E00002071000020740000207800002058
:101D400038B5FEA200210846FEF73DFFFD480068B9
:101D500001F0E0FF04460C200323224600210090FE
:101D60002820FEF7E6FEF8A200213920FEF72BFF1F
:101D7000F649F448006802F04DF8054601F0AEFF60
:101D80000A2190FBF1F201FB12040C2001232246F0
:101D9000002100903D20FEF7CCFEEDA200215F2047
:101DA000FEF711FFEB48006801F0B4FF04460C2079
:101DB00002232246002100906C20FEF7BAFEE6A224
:101DC0000A210020FEF7FFFEE548006801F0A2FFAF
:101DD00004460C20032322460A2100902820FEF707
:101DE000A8FED9A20A213920FEF7EDFED749DC482A
:101DF000006802F00FF8054601F070FF0A2190FB21
:101E0000F1F201FB12040C200123224600903D2038
:101E1000FEF78FFECEA20A215F20FEF7D4FED14846
:101E2000006801F077FF04460C20022322460A21B5
:101E300000906C20FEF77DFECBA214210020FEF75F
:101E4000C2FECB48006801F065FF04460C20032366
:101E50002246142100902820FEF76BFEBAA214211E
:101E60003920FEF7B0FEB949C148006801F0D2FF41
:101E7000054601F033FF0A2190FBF1F201FB120449
:101E80000C2001232246142100903D20FEF751FE34
:101E9000AFA214215F20FEF796FEB648006801F05D
:101EA00039FF04460C2002232246142100906C20A6
:101EB000FEF73FFEB0A21E210020FEF784FEB048D0
:101EC000006801F027FF04460C20032322461E2150
:101ED00000902820FEF72DFE9BA21E213920FEF740
:101EE00072FE9A49A648006801F094FF054601F089
:101EF000F5FE0A2190FBF1F201FB12040C200123F4
:101F000022461E2100903D20FEF713FE90A21E21C6
:101F10005F20FEF758FE9B48006801F0FBFE044678
:101F20000C20022322461E2100906C20FEF701FEA9
:101F30004FF07E519448006801F09CFE20D10120B2
:101F40000C235922002100904B20FEF798FD012020
:101F50000C234E220A2100904B20FEF790FD012019
:101F60000C234E22142100904B20FEF788FD012007
:101F70000C234E221E2100904B20FEF780FD75E0C1
:101F80004FF080418048006801F074FE20D10120AC
:101F90000C234E22002100904B20FEF770FD012003
:101FA0000C2359220A2100904B20FEF768FD0120E6
:101FB0000C234E22142100904B20FEF760FD0120DF
:101FC0000C234E221E2100904B20FEF758FD4DE0C1
:101FD0006E496D48006801F04DFE20D101200C23B0
:101FE0004E22002100904B20FEF749FD01200C23DA
:101FF0004E220A2100904B20FEF741FD01200C23C8
:102000005922142100904B20FEF739FD01200C23AA
:102010004E221E2100904B20FEF731FD26E04FF0AE
:1020200081415948006801F025FE1FD101200C2391
:102030004E22002100904B20FEF721FD01200C23B1
:102040004E220A2100904B20FEF719FD01200C239F
:102050004E22142100904B20FEF711FD01200C238D
:1020600059221E2100904B20FEF709FD48A228218D
:102070005020FEF7A8FD0C2005230090454828219C
:1020800002685F20FEF755FD43A228210020FEF7DD
:102090009AFD2DA228212920FEF795FD40A2282196
:1020A0003F20FEF790FD3F480068642190FBF1F46B
:1020B0000C2002232246282100901C20FEF739FD27
:1020C00038480068642190FBF1F201FB12040C20F7
:1020D00002232246282100903320FEF72AFD3148B2
:1020E0000068642190FBF1F201FB12000A2807DA74
:1020F0000C2002230022282100902D20FEF719FD3C
:1021000029A232215020FEF75EFD0C20052300900D
:102110002648322102685F20FEF70BFD24A23221FF
:102120000020FEF750FD2448006801F0F3FD04464E
:102130000C2004232246322100903FE0422D4B50D8
:10214000000000001C0000202E00000000002041C4
:10215000413A000038000020422D4B4400000000AE
:10216000200000203C000020502D4B5000000000BB
:102170002400002040000020502D4B4400000000AF
:1021800028000020440000203400002000004040CF
:10219000543A00000C000020564F4C3A000000005A
:1021A0005600000014000020503A000008000020F3
:1021B0004144433A00000000180000201E20FEF7B2
:1021C000B8FCFEF7D6FB38BD10B50121FE4800680B
:1021D00000F080FDFD48006801F0BCFD04460221CE
:1021E00000F078FD0321002000F074FD032000F0D2
:1021F000C0FDF74908700020F649087012E000BFE2
:10220000F548008800F040000028F9D0F348F14973
:102210000978405CF049091D0880EE480078401CB0
:10222000EC490870EB480078E94909788842E6DB18
:1022300010BD10B50123002211461C20FEF724FD1D
:1022400001231A4600212A20FEF71EFD0123022247
:1022500000213820FEF718FD01230322002146202B
:10226000FEF712FD0123042200215420FEF70CFD8D
:102270000123052200216220FEF706FD012306222C
:1022800000217020FEF700FD01230722102100200D
:10229000FEF7FAFC0123082210210E20FEF7F4FCC1
:1022A0000123092210211C20FEF7EEFC01230A2243
:1022B00010212A20FEF7E8FC01230B2210213820F0
:1022C000FEF7E2FC01230C2210214620FEF7DCFC85
:1022D00001230D2210215420FEF7D6FC01230E22EB
:1022E00010216220FEF7D0FC01230F221021702064
:1022F000FEF7CAFC0123102220210020FEF7C4FCB7
:102300000123112220210E20FEF7BEFC0123122200
:1023100020211C20FEF7B8FC0123132220212A20B3
:10232000FEF7B2FC0123142220213820FEF7ACFC7A
:102330000123152220214620FEF7A6FC01231622A8
:1023400020215420FEF7A0FC012317222021622027
:10235000FEF79AFC0123182220217020FEF794FC3E
:102360000123192230210020FEF78EFC01231A22BE
:1023700030210E20FEF788FC01231B2230211C2077
:10238000FEF782FC01231C2230212A20FEF77CFC70
:1023900001231C2230212E20FEF776FC01231C2273
:1023A00030213220FEF770FCFEF7E3FA10BD10B5C5
:1023B00001230C2200210846FEF766FC01231D22A2
:1023C00000210E20FEF760FC01231E2200211C20AC
:1023D000FEF75AFC01231F2200212A20FEF754FC9D
:1023E0000123202200213820FEF74EFC0123212268
:1023F00000214620FEF748FC012322220021542020
:10240000FEF742FC01230B2200216220FEF73CFC78
:102410000123232200217020FEF736FC0123242211
:1024200010210020FEF730FC0123252210210E2070
:10243000FEF72AFC0123262210211C20FEF724FC93
:102440000123272210212A20FEF71EFC0123282227
:1024500010213820FEF718FC0123292210214620E4
:10246000FEF712FC01232A2210215420FEF70CFC57
:1024700001232B2210216220FEF706FC01232C22CF
:1024800010217020FEF700FC01232D2220210020C6
:10249000FEF7FAFB01232E2220210E20FEF7F4FB8B
:1024A0000123132220211C20FEF7EEFB01232F2203
:1024B00020212A20FEF7E8FB0123302220213820AA
:1024C000FEF7E2FB0123312220214620FEF7DCFB50
:1024D0000123322220215420FEF7D6FB0123332290
:1024E00020216220FEF7D0FB01231822202170203A
:1024F000FEF7CAFB0123292230210020FEF7C4FB8E
:102500000123342230210E20FEF7BEFB01233522A9
:1025100030211C20FEF7B8FB0123182230212A208D
:10252000FEF7B2FB0123192230213820FEF7ACFB65
:102530000123362230214620FEF7A6FB0123372255
:1025400030215420FEF7A0FB01231C223021622001
:10255000FEF79AFB01231C2230216620FEF794FB34
:1025600001231C2230216A20FEF78EFBFEF701FAC0
:1025700010BD10B501233C2200210846FEF745FBA3
:1025800001233D2200211020FEF73FFB01233E22C4
:1025900000212020FEF739FB0123072200213020F3
:1025A000FEF733FB0123082200214020FEF72DFB1C
:1025B00001233F2200215020FEF727FB0123402268
:1025C000002160200CE0000018000020080000201E
:1025D000BA000020B800002000380140C4040020E8
:1025E000FEF713FB0123412200217020FEF70DFBB3
:1025F0000123422210210020FEF707FB0123432282
:1026000010210846FEF701FB01234422102120205F
:10261000FEF7FBFA0123452210213020FEF7F5FAE0
:102620000123462210214020FEF7EFFA0123472222
:1026300010215020FEF7E9FA0123482210216020E2
:10264000FEF7E3FA0123492210217020FEF7DDFA9C
:1026500001234A2220210020FEF7D7FA01234B2232
:1026600020211020FEF7D1FA012313222021084651
:10267000FEF7CBFA01234C2220213020FEF7C5FAC9
:102680000123112220214020FEF7BFFA01234D2211
:1026900020215020FEF7B9FA0123302220216020AA
:1026A000FEF7B3FA0123052220217020FEF7ADFAD0
:1026B0000123062230210020FEF7A7FA012307227A
:1026C00030211020FEF7A1FA01230822302120201A
:1026D000FEF79BFA01231B2230210846FEF795FAEC
:1026E00001231C2230214020FEF78FFA01231D22F6
:1026F00030215020FEF789FA012311223021602079
:10270000FEF783FA0123292230217020FEF77DFA9B
:10271000FEF72FF910BD08B501234E22002108460F
:10272000FEF773FA0123072200211020FEF76DFA4D
:102730000123082200212020FEF767FA01232A2224
:1027400000213020FEF761FA01232B2200214020D6
:10275000FEF75BFA01232C2200215020FEF755FAE8
:1027600001232D2200216020FEF74FFA01234F2282
:1027700000217020FEF749FA01201023412219465A
:1027800000900020FEF77BF9012010234422194617
:1027900000900820FEF773F9012010234322194608
:1027A00000901846FEF76BF90123472210211820EC
:1027B000FEF72BFA01231F2210212820FEF725FA0D
:1027C0000123502210213820FEF71FFA1020042385
:1027D00040F2F232014600904820FEF7AAF90123A8
:1027E000212210216820FEF710FA1020042340F265
:1027F0000642202100900020FEF79BF901232222AF
:1028000020210846FEF701FA01232322202130204F
:10281000FEF7FBF90123112220214020FEF7F5F9F4
:1028200001234D2220215020FEF7EFF90123302211
:1028300020216020FEF7E9F90123132220217020D6
:10284000FEF7E3F90123512230210020FEF7DDF9E4
:1028500001233D2230211020FEF7D7F901233E222B
:1028600030212020FEF7D1F901230722302108462C
:10287000FEF7CBF90123082230214020FEF7C5F9ED
:1028800001233F2230215020FEF7BFF901234022CF
:1028900030216020FEF7B9F9012341223021702058
:1028A000FEF7B3F9FEF765F808BD38B501234222FB
:1028B00000210846FEF7A9F9012343220021102038
:1028C000FEF7A3F90123442200212020FEF79DF901
:1028D0000123452200213020FEF797F901234622EB
:1028E00000214020FEF791F90123472200215020CA
:1028F000FEF78BF90123482200216020FEF785F9BD
:102900000123492200217020FEF77FF901234A228A
:1029100010210020FEF779F901234B2210210846EF
:10292000FEF773F90123122210212020FEF76DF922
:102930000123052210213020FEF767F9012306222A
:1029400010214020FEF761F901232E221021502092
:10295000FEF75BF901232F2210216020FEF755F9C5
:102960000123302210217020FEF74FF901230922A4
:1029700020210020FEF749F901230A2220211020FE
:10298000FEF743F901230B2220210846FEF73DF90B
:1029900001230C2220213020FEF737F901230D22DC
:1029A00020214020FEF731F901230E222021502062
:1029B000FEF72BF90123382220216020FEF725F9AC
:1029C00001235E2220217020FEF71FF90120102331
:1029D0004122302100901820FEF751F801201023E9
:1029E0004422302100902020FEF749F801201023D6
:1029F0004322302100902820FEF741F8AD480068BE
:102A000001F088F90446102004232246302100906A
:102A10004E20FEF78EF8FDF7ACFF38BD38B5012328
:102A2000382200211520FEF72FF901233922002139
:102A30002320FEF729F901233A2200213120FEF755
:102A400023F901233B2200213F20FEF71DF901233A
:102A50003C2200214D20FEF717F901233D220021E1
:102A60005B20FEF711F901233E2200216920FEF7C9
:102A70000BF901233F2210210020FEF705F9012365
:102A8000402210210E20FEF7FFF8012341221021E1
:102A90001C20FEF7F9F801231C2210212E20FEF73E
:102AA000F3F801231C2210213520FEF7EDF8012355
:102AB0001C2210213C20FEF7E7F801231C221021E4
:102AC0004320FEF7E1F801231C2210214A20FEF7E3
:102AD000DBF801231C2210215120FEF7D5F8012339
:102AE0000C2220210E20FEF7CFF801232B222021DB
:102AF0001C20FEF7C9F801232C2220212A20FEF7F2
:102B0000C3F80123242220213820FEF7BDF8012339
:102B1000252220214620FEF7B7F801232D2220216F
:102B20005420FEF7B1F801232E2220216220FEF767
:102B3000ABF8012010234122302100901820FDF72E
:102B40009EFF012010234422302100902020FDF719
:102B500096FF012010234322302100902820FDF70A
:102B60008EFF5448006801F0D5F804461020042375
:102B70002246302100904E20FDF7DBFFFDF7F9FEE5
:102B800038BD10B50123052204212020FEF73DF8B1
:102B90000123062204213020FEF737F801232F22DB
:102BA00004214020FEF731F8012357220421502050
:102BB000FEF72BF80123092218210846FEF725F815
:102BC00001230A2218212820FEF71FF801230B22D7
:102BD00018213820FEF719F801230C22182148206B
:102BE000FEF713F801230D2218215820FEF70DF8E7
:102BF00001230E2218216820FEF707F8012358222E
:102C00002C210020FEF701F8012359222C2110204D
:102C1000FDF7FBFF01235A222C212020FDF7F5FFB1
:102C200001235B222C213020FDF7EFFFFDF7A1FEF1
:102C300010BD10B50123382210211820FDF7E5FF43
:102C400001235E2210212820FDF7DFFF01236422EB
:102C500010213820FDF7D9FF0123652210214820DB
:102C6000FDF7D3FF0123662210215820FDF7CDFF89
:102C70000123002220211820FDF7C7FF012367222E
:102C800020212820FDF7C1FF0123682220213820C0
:102C9000FDF7BBFF0123052220214820FDF7B5FFEA
:102CA0000123062220215820FDF7AFFFFDF761FE2A
:102CB00010BD00001800002030B503461C788C546D
:102CC0005D78541C0D559D78941C0D55DD78D41CF1
:102CD0000D5530BD13B50C460A2C00DC04B91CBDE3
:102CE0000B2C43D2DFE804F042060C12181E242AF3
:102CF00030363C00012244496846FFF7DDFF35E0ED
:102D0000052241496846FFF7D7FF2FE009223E49D7
:102D10006846FFF7D1FF29E00D223B496846FFF7DF
:102D2000CBFF23E0112238496846FFF7C5FF1DE0BD
:102D3000152235496846FFF7BFFF17E019223249CF
:102D40006846FFF7B9FF11E01D222F496846FFF7DB
:102D5000B3FF0BE021222C496846FFF7ADFF05E0E9
:102D6000252229496846FFF7A7FF00BF00BF00BF23
:102D7000B5E701460A2900DC09B900207047242084
:102D8000214A10700B293CD2DFE801F03B060B1002
:102D9000151A1F24292F350005201B4A50710620C3
:102DA000ECE70920184A50720A20E7E70D20164A7E
:102DB00050730E20E2E71120134A50741220DDE711
:102DC0001520114A50751620D8E719200E4A507662
:102DD0001A20D3E71D200C4A50771E20CEE7212071
:102DE000094A82F821002220C8E72520064A82F8F5
:102DF00025002620C2E72920034A82F829002A203C
:102E0000BCE70020BAE70000C404002038B500BFCA
:102E100096480078012820D10020944908709448F1
:102E2000006840F02000924908600846006840F0C1
:102E3000800008600846006840F4006008600846AA
:102E4000006840F4805008608A48008840F0010023
:102E500088490880FDF7CCFD01E0FEF771FFFDF722
:102E600021FD0446012C01D1834908708248007875
:102E7000012875D1002080490870FDF7B9FD0120B7
:102E80007A49087000207D4908807948006820F060
:102E90002000774908600846006820F0800008603C
:102EA0000846006820F4006008600846006820F4C6
:102EB000805008606F48008800F0FE006D4908806F
:102EC000D2E000BFFDF7C1FC0446FFF7B2F91E20B7
:102ED000FDF7F2F9052C7DD1FDF78AFDC0E000BFBA
:102EE0001E20FDF7E9F9FDF7B0FC0446FFF75FFA95
:102EF0000B2C70D1FDF77CFDACE000BFFFF739FB78
:102F00001E20FDF7D9F9FDF7A0FC04460B2C75D166
:102F1000FDF76EFD98E000BFFFF7FDFB1E20FDF7FB
:102F2000CBF9FDF792FC04460B2C68D1FDF760FD50
:102F300084E000BF0F210320FEF783F8054600F070
:102F400021FF4F490860FFF7B0FC3220FDF7B4F9CC
:102F5000FDF77BFC04460C2C03D1FDF749FDDBE7B4
:102F600083E0052C6AD1FDF743FD00204549087038
:102F70000A2462E00F210320FEF763F8054600F003
:102F800001FF3F49086010200223224601460090BD
:102F90005820FDF7CEFDFFF741FD3B480078401C6F
:102FA000394908701E20FDF787F937480078C8288E
:102FB00033DC36493248006800F0F8FF21D8344944
:102FC0002F48006800F0F2FE1BD82E480078401C05
:102FD0002C4901E045E03EE008700846007896285C
:102FE0000FDDFDF705FD0BE0002027490870FFF716
:102FF000C8FDFDF72AFC052802D109E725E01EE0FF
:10300000F2E721480078142190FBF1F201FB120055
:10301000012812D1601EC4B20FE000201A490870C6
:10302000FDF7E6FCFFF705FE40F6B830FDF744F982
:103030004FF4FA60FDF740F97CE79BE779E70C2C49
:1030400002D1FDF7D5FC59E765E70C2C02D1FDF75D
:10305000CFFC45E751E70C2C02D1FDF7C9FC31E765
:103060003DE70C2C00D1D3E62BE738BD040000204F
:10307000000401400C2C01400300002040040040EB
:1030800018000020C0000020C100002000807C4407
:1030900000C080447047704770477047704775465E
:1030A00000F02CF8AE4605006946534620F00700B4
:1030B000854618B020B5FDF779F8BDE820404FF0FF
:1030C00000064FF000074FF000084FF0000B21F012
:1030D0000701AC46ACE8C009ACE8C009ACE8C009DF
:1030E000ACE8C0098D46704710B50446AFF30080C8
:1030F0002046BDE81040FDF740B80000004870478A
:10310000F004002021F00042A2F16052B2F5801FCD
:1031100001F0004328BFD2F17F6C0BD95FEA001C9D
:1031200043EAC20242EB507018BF704728BF20F03C
:1031300001007047B2F5801FBCBF184670474FEAC8
:10314000410C1CF5001F02D2084600F02ABF70B5E2
:1031500000F0F6FA00000089FFF7F6BF4FF00040DC
:10316000A0F580007047000010B591EA030F48BF3A
:1031700083F0004300F14083841A71EB030C05D205
:10318000121943EB0C03001B61EB0C01DFF824E187
:103190004FEA1154A4EB135C1EEA430F18BF9EEADA
:1031A000445F73D023EA0E03DCF1200E21EA0451C0
:1031B00043F4801332D322FA0CFE10EB0E0023FAF4
:1031C0000CFE41EB0E01CCF1200E03FA0EFE10EBCB
:1031D0000E0051F10001B1F5801FCCF1200E32D26A
:1031E00001EB045112FA0EF2BDE8104058BF7047CF
:1031F000401C38BF5FEA420218BF7047002814BF66
:1032000020F0010041F100014FEA410313F5001FD6
:1032100038BF7047A1F1C04100F0E0BA012A43EB8A
:103220000302ACF1200CDCF11F0E32BF4FF0000E98
:1032300023FA0CF310EB030041EB0451B4EB115FE4
:10324000D0D0A1EB045101F5801149085FEA3000AC
:1032500001EB04510ED350F1000038BF12FA0EFEFC
:1032600008D1BDE81040C9E7401C38BF5FEA420200
:10327000CAD1C3E7BDE810404FEA410313F5001F70
:1032800038BF7047A1F1C04100F0A8BA9EEA445F80
:1032900008D011EA5E0FBDE8104004BF01F0004104
:1032A00000207047BDE8104070B500F049FA00BF3B
:1032B00064FBBE3E0000E0FF2DE9C04130B4DFF802
:1032C000A0C23CEA111418BF3CEA131400F0EC80D1
:1032D00081EA03051CEA111444EAD57418BF1CEAFC
:1032E000131500F0C780A4EB05044FF0004545EA34
:1032F000C12145EAC32341EA505143EA525304F144
:103300007F74994204F500344FEAC0204FEAC2228C
:1033100008BF904200F09C804FEA13650FF2401600
:10332000765D4FEA134506FB05F7C7F1807706FB8C
:1033300007F74FEAD737A7FB03687642C8F580380E
:10334000A7FB06CE38BFA8F1010807FB08E64FF03F
:10335000000EA6FB028CE6FB03CEDCF1000CCEF1E6
:10336000004E38BFAEF1010EA6FB0C584FF000071F
:103370004FF00005E6FB0E87A1FB08C6A0FB07CEB9
:1033800016EB0E0645F10005E1FB076515F1E04E71
:103390007EBFA4F580345FEA46066D4116F18007D2
:1033A00045F100054FEA17274FEA066647EA056729
:1033B000A6F1DE46B6F1805F4FEA15251FD93846E3
:1033C00024F0010C05EBC471BCF1FE6F01EB0C1194
:1033D00002D8F0BCBDE8008124425CBF01F5801E2C
:1033E0009EEAC47F02D4F0BCBDE80081244238D4F8
:1033F000F0BCA1F1C041BDE8004100F0EFB94FEAD7
:10340000D22242EA43524FEAD323A7FB02864FEA75
:10341000D02040EA415007FB03661EEA0E0F4FEA38
:10342000D12105FB026658BFA6EB0056B6EB00564D
:103430004FEA520E4EEAC37E18EB0E0E56EB530EB9
:10344000BDD518EB02085E417F1C55F10005B6E7BB
:103450004FF480154FF000074FF000064FF00008C2
:10346000ADE7F0BC4FF0000001F1C04101F00041B8
:10347000BDE8008111EA0C1F0CEA131500D00CE026
:1034800013EA0C1F00F025804FF00000F0BC81EA29
:10349000030101F00041BDE80081F0BCBDE800413E
:1034A00081EA030100F09AB9F0BCBDE8004170B5B3
:1034B00000F046F9097EFC3E00F007B881EA0301FE
:1034C0004FF0000001F00041704781EA030100F075
:1034D00085B9F0BCBDE800414FF0000021497047BC
:1034E000FFFDFBF9F7F5F4F2F0EEEDEBE9E8E6E4C9
:1034F000E3E1E0DEDDDBDAD8D7D5D4D3D1D0CFCD50
:10350000CCCBCAC8C7C6C5C4C2C1C0BFBEBDBCBB88
:10351000BAB9B8B7B6B5B4B3B2B1B0AFAEADACAB83
:10352000AAA9A8A8A7A6A5A4A3A3A2A1A09F9F9E5D
:103530009D9C9C9B9A99999897979695959493930F
:10354000929191908F8F8E8E8D8C8C8B8B8A8989A6
:103550008888878786858584848383828281818029
:103560000000FF070000F87F4FEA41034FEA535382
:10357000A3F58063D3F11E03C8BFD3F1210C0CDD8A
:103580004FF0004242EAC12242EA505232FA03FCB2
:103590008CEAE17CACEBE1707047102BC4BF0020DB
:1035A000704703F5787CBCF1FF3F04D06FF0004218
:1035B00082EA2100704770B500F0C2F84992248079
:1035C00000207047F2E7B0FA80F310FA03F10AD056
:1035D000C3F11D0303F580634FEA41504FEA0352E4
:1035E00002EBD12170474FF000007047DFF848C16F
:1035F00070B51CEA111E1EBF1CEA13159EEA0C0FC3
:1036000095EA0C0F00F06F8081EA030423EA4C1363
:103610004EEAD47E21EA4C1141F4801143F4801328
:10362000AE44A1FB024CA0FB0365AEF17F7E3619D0
:1036300055EB0C05A1FB034C4CF10003A0FB021C55
:1036400016EB0C06654153F10003094218BF46F022
:10365000010613F4007F0BD14FEA03314FEA053026
:10366000340341EA155140EA16506FF003020AE0B4
:103670004FEAC3214FEAC520F40241EA555140EA1E
:1036800056506FF0020202EB2E4201EB025585EA22
:10369000CE710AD05FEA440C18BF24F0004450F108
:1036A000000041F1000120EAD47040F2FE7C624546
:1036B00000D270BDA84214BF4FF080444FF0404488
:1036C000002E08BF0024BEF1806FA8BFA1F1C04149
:1036D000BDE8704080F282804FF0000001F1C041EF
:1036E00001F0004170479EEA0C0F0CEA131518BF59
:1036F00095EA0C0F06D04FF0000081EA030E0EF0A1
:10370000004170BD00F01CF88900013E00F007B8D0
:1037100000F009B84FEA430C5FEA5C5C08D081EA2C
:10372000030100F05BB84FEA410C5FEA5C5CF6D144
:103730004FF00000014970470000FF070000F87FCC
:103740000EF1020E2EF0030E5EF8046B364205D425
:10375000012A43EB030515F5001F12D8012841EBA0
:10376000010C1CF5001F0CD80ED14FEAD17C15F5C9
:10377000001F0CEB4C0C0CF1020C08BF4CEBD37C83
:1037800004E04FF0080C01E04FEAD37C0CEB4C0551
:1037900026FA05F606F00706B6F1040C06D20EEB83
:1037A000860CBDE870404CF0010C6047DFE80CF07F
:1037B000090B02024FF000414FF00000A1F500217B
:1037C00070BD19461046012851EB010418BFD4F50D
:1037D000001484BF002001F0004170BD0808A0F56E
:1037E00000114FEA3101704710B591EA030F48BF4D
:1037F00083F000433FF5C0AC841A71EB030C07D291
:1038000012198CF0004C43EB0C03001B61EB0C0114
:10381000DFF8A4E14FEA1154A4EB135C1EEA430F56
:1038200018BF9EEA445F00F0B08023EA6E03524264
:1038300021EA0451C3EB6E0338BF5B1EDCF1200E9E
:1038400025D322FA0CFE10EB0E0043FA0CFE41EBDE
:103850000E01CCF1200E03FA0EFE10EB0E0051F11A
:103860000001CCF1200E29D412FA0EF201EB045122
:10387000BDE8104058BF7047401C1CBFB2F1004F5C
:10388000704700280CBF491C20F00100704712EB64
:10389000020E43EB030218BF4FF0010E4EEA420244
:1038A000ACF1200CDCF11E0E54D943FA0CFE10EBE7
:1038B0000E0051F1FF31CCF11E0ED5D50EF1010EE7
:1038C00012FA0EFE404141EB010101EB445C5FEA5C
:1038D0005C5C10D910EBDE7001EB045138BFBEF117
:1038E000004FBDE8104018BF704700280CBF491CAE
:1038F00020F00100704730D24FEAD42C11F50011AE
:1039000024F400641BD0B1FA81F20B3AA41AA41E6D
:10391000D2F12003914030FA03F31943904001EBB8
:10392000CC71002C01EB0451BDE81040A8BF7047DA
:1039300001F1C0414FF0000001F000417047B0FAC2
:1039400080F310FA03F100D110BDE41A173C4805CA
:10395000C90AE4E701EB045110BD491001EB045121
:10396000BDE810404FEA300002E04FF00001704720
:103970004A0008BF0042F8D0B2F5001F28BF7047C8
:1039800001F000414FF0000070479EEA445F07D00D
:1039900011EA5E0FBDE8104004BF0021002070470F
:1039A000BDE8104070B5FFF7CBFE00BF40DFF63E2C
:1039B00083F00041104670470000E0FF43004FEAEB
:1039C000D30C4FEA3C0C43401FBF40070CF1605141
:1039D00013F0FE4F70471CF0006F03D100200CF075
:1039E000004170470CF0004343EA507010B540EAC4
:1039F000CC0000F090FA00BF000000924FEA0001F6
:103A0000FFF7ECBE4FF000414FF00000A1F50021A0
:103A10007047000090EA010F48BF81F0004100F1BB
:103A20000883421A3CBF801A89184FEAD0524FF0DF
:103A30007F4C1CEA410FA2EBD15318BF9CEA026FE6
:103A400000F03B804FF0004C4CEA00204CEA012192
:103A500021FA03FC10EB0C0C1ED202F1FF325FEADC
:103A60001C2040EBC25038BF70471CF07F0F4FEA5C
:103A7000400C18BFBCF17F4F38BF7047C3F1200323
:103A8000994008BF20F00100BCF17F4F38BF70475C
:103A9000A0F1C04000F085BA4FEA3C00000A40EBBC
:103AA000C25028BF1CF0FF0F4FEA400CE6D018BFF1
:103AB000BCF17F4F38BF7047EAE79CEA026F05D040
:103AC00010EA5C0F08BF00F00040704710B500F02E
:103AD00022FA00BF64FBBE3E401058BFC0F1404018
:103AE000491058BFC1F140418142EFF30080704757
:103AF0004FF47F0C1CEAD0121EBF1CEAD11392EACD
:103B00000C0F93EA0C0F00F0858090EA010F48BF7C
:103B100042F4807240F4000C41F400002CF07F412C
:103B200020F07F4000B58142A2EB03020FF2081C97
:103B3000ACEB504EC0F100009EF800E04FEA4E0E94
:103B400000FB0EFC38BF49004FEA2C1C02F5FA02BC
:103B50000CFB0EF34FEACE1E4FEA112C4FEAC121A7
:103B60000EEB635E42EB22420EFB0CFC4FEA1C5351
:103B700000FB03114FEA112C4FEA01310EFB0CFC44
:103B80004FEADC4C00FB0C11C14228BF09184CEB7A
:103B900003335DF804EB10EB410143EBC250B2F587
:103BA0007C0F38BF704729D512F0F00F1CBF00F111
:103BB000C04000F000407047008182838485868782
:103BC00088898B8C8D8E8F919293959697999A9CDC
:103BD0009D9FA0A2A3A5A7A8AAACAEB0B2B3B5B74B
:103BE000B9BCBEC0C2C5C7C9CCCED1D4D7D9DCDF21
:103BF000E2E6E9ECF0F3F7FAFE0000004FEA400CD1
:103C00000CF1807CBCF17E4F28BF7047B0F1C04002
:103C100000F0C7B990EA010F0CEAD11348BF42F493
:103C20008072624538BF634507D213F47F0F16D008
:103C300080EA010000F00040704710B500F06BF919
:103C4000097EFC3E00F005B880EA010000F000406B
:103C5000704780EA010000F0004000F0A2B912F4C1
:103C60007F0F04BF0248704780EA010000F099B955
:103C70000000C07F50EA010C00F113801CF5000F1A
:103C800058BFBCF5000F01D48842704707D710F524
:103C9000000F58BF11F5000F15D4884270478942B4
:103CA00070471CF5000F04D5BCF5000FF7D5814215
:103CB00070474FF0807C1CEB400F38BF1CEB410F6E
:103CC00001D28142704710B500F025F992244900D5
:103CD0004FF000504FF08051FFF7FEBE41000B0E39
:103CE000D3F19E0208D950F400034FEA032323FACC
:103CF00002F048BF4042704710B500F00CF900BF19
:103D000049922480002070476FF0004282EA200030
:103D100070470000C10DD1F19E0206DB4FEA00237F
:103D200043F0004323FA02F07047004207D54FEA00
:103D30004001B1F1FE4F02D24FF00000704710B5C4
:103D400000F0E9F849922480002070476FEA2000D3
:103D50007047000010F0004148BF4042B0FA80F3C5
:103D600010FA03F2C3F19D030BD051EAC35101EBEA
:103D70001220530638BF704700F1010008BF20F041
:103D800001007047B0FA80F310FA03F2C3F19D030B
:103D90000AD0D90501EB1220530638BF704700F155
:103DA000010008BF20F001007047000050EA010C3C
:103DB00000F113801CF5000F58BFBCF5000F01D4B3
:103DC0008842704707D710F5000F58BF11F5000F54
:103DD00015D488427047894270471CF5000F04D5FE
:103DE000BCF5000FF7D5814270474FF0807C1CEB8B
:103DF000400F38BF1CEB410F01D28142704710B514
:103E000000F089F8922449004FF000504FF08051A3
:103E1000FFF762BE4FF47F0C1CEAD0121EBF1CEAF3
:103E2000D11392EA0C0F93EA0C0F00F0478090EA4E
:103E3000010F48BF42F480724FF0004C4CEA002062
:103E40004CEA012102EB0302A0FB0113A2F50002E0
:103E5000002918BF43F001035B0028BF4FEA33037A
:103E600042EB22425FEA132C4CEBC2502EBFBCEB5C
:103E7000436FB2F57C0F70474FEA036CBCF1004F03
:103E800008BF20F00100B2F57C0F38BF70470BD59A
:103E900082F0FF0212F5803FC8BF704700F1C040BA
:103EA000D8BF00F00040704700F5000C5FEA4C0CF2
:103EB00048BF7047B0F1C04000F073B890EA010FFE
:103EC0000CEAD11348BF42F48072624538BF6345A3
:103ED00004D280EA010000F00040704710B500F005
:103EE0001AF800BF8900013E00F007B800F009B8D9
:103EF0005FEA410C5FEA1C6C08D080EA010000F028
:103F000050B85FEA400C5FEA1C6CF6D14FF00040FD
:103F1000A0F5800070470EF1020E2EF0030E5EF841
:103F2000044B244204D44FEA4102B2F17F4F11D82E
:103F30004FEA4003B3F17F4F0CD80ED14FEAD07C4B
:103F4000B2F17F4F0CEB4C0C0CF1020C08BF4CEBA8
:103F5000D17C04E04FF0080C01E04FEAD17C0CEB7F
:103F60004C0324FA03F404F00704B4F1040C06D261
:103F70000EEB840CBDE810404CF0010C6047DFE80C
:103F80000CF0070802024FF00040A0F5800010BDC1
:103F90000846420018BFD2F1807288BF00F000408E
:103FA00010BDFF2141EAD050C005704751EA000C16
:103FB00000F113801CF5000F58BFBCF5000F01D4B1
:103FC0008142704707D711F5000F58BF10F5000F59
:103FD00015D481427047894270471CF5000F04D503
:103FE000BCF5000FF7D5884270474FF0807C1CEB82
:103FF000410F38BF1CEB400F01D28842704780EA66
:10400000010081EA000180EA0100FFF7F8BE80F0BC
:10401000004090EA010F7FF504AD81F0004100F00F
:1040200008B8000090EA010F48BF81F000413FF559
:10403000F8AC421A04D882F00042A0EB020011440E
:104040004FEAD0524FF07F4C1CEA410FA2EBD15304
:1040500018BF9CEA026F4AD04FF0004C4CEA002097
:104060004CEA012121FA03FCB0EB0C0C0FD412F046
:10407000FE0F36D05FEA4C001DD5001240EBC25057
:1040800038BF70471CF03F0F18BF70470BE0A2F11C
:1040900001025FEA1C2040EBC25038BF70471CF0A1
:1040A0007F0F18BF7047C3F12003994014BF401E13
:1040B00020F00100704780084FEA122308BF7047C4
:1040C000B0FA80FCA2EB0C02CCF1280C60FA0CF0E8
:1040D00093EA122F04BF00EBC25070474FEAC3703F
:1040E0007047130A5FEADC1008BF7047F6E79CEAE6
:1040F000026F04D010EA5C0F08BF0020704710B5B3
:10410000FFF709FF40DFF63E81F0004070470000F6
:10411000000000000000000000000000000000009F
:104120003F40000000000000000030004000300070
:104130004000000009000BC03D000BC03D0009001D
:1041400018C024407FE0224031800000180024C0C5
:104150001B000D803240018003801C4027401C80E2
:104160000740004010006000000000000000000058
:104170000000000000001F80204040200000402080
:1041800020401F8000000000090006001F8006007C
:1041900009000000040004003F8004000400000047
:1041A0000010006000000000000000000400040097
:1041B00004000400040000000000004000000000B3
:1041C00000000000002001C0060038004000000090
:1041D0001F802040204020401F8000000000104031
:1041E0003FC000400000000018C021402240244091
:1041F0001840000010802040244024401B80000014
:1042000002000D0011003FC0014000003C8024402E
:1042100024402440238000001F8024402440344058
:10422000038000003000200027C03800200000007C
:104230001B802440244024401B8000001C0022C01E
:10424000224022401F8000000000000008400000C3
:1042500000000000000000000460000000000000FA
:10426000000004000A0011002080404009000900FD
:1042700009000900090000000000404020801100F2
:104280000A00040018002000234024001800000049
:104290001F802040274029401F400000004007C0E9
:1042A00039000F0001C0004020403FC0244024409E
:1042B0001B8000001F8020402040204030800000F4
:1042C00020403FC0204020401F80000020403FC0D1
:1042D00024402E4030C0000020403FC024402E002B
:1042E000300000000F001080204022403380020088
:1042F00020403FC0040004003FC020402040204038
:104300003FC02040204000000060202020203FC00F
:104310002000200020403FC024400B0030C020403F
:1043200020403FC020400040004000C03FC03C0053
:1043300003C03C003FC0000020403FC00C402300B1
:104340003FC020001F802040204020401F800000F0
:1043500020403FC024402400180000001F8021405E
:10436000214020E01FA0000020403FC02440260044
:1043700019C0004018C02440244022403180000071
:10438000300020403FC020403000000020003F802F
:10439000004000403F80200020003E0001C0070098
:1043A00038002000380007C03C0007C0380000007B
:1043B000204039C0060039C02040000020003840AD
:1043C00007C0384020000000304021C0264038405F
:1043D00020C00000000000007FE0402040200000DE
:1043E000000070000C00038000400000000040202E
:1043F00040207FE00000000000002000400020007E
:10440000000000000010001000100010001000104C
:1044100000000000400000000000000000000280DA
:104420000540054003C0004020003FC00440044058
:1044300003800000000003800440044006400000A8
:1044400000000380044024403FC00040000003807F
:104450000540054003400000000004401FC0244008
:1044600024402000000002E00550055006500420C2
:1044700020403FC00440040003C00040000004404E
:1044800027C000400000000000100010041027E0CA
:104490000000000020403FC00140070004C004406D
:1044A000204020403FC000400040000007C0040002
:1044B00007C0040003C00000044007C0044004001B
:1044C00003C000400000038004400440038000005B
:1044D000041007F004500440038000000000038033
:1044E0000440045007F00010044007C002400400DC
:1044F00004000000000006400540054004C0000024
:10450000000004001F8004400040000004000780F9
:104510000040044007C000400400070004C00180C0
:1045200006000400060001C0070001C006000000EC
:10453000044006C0010006C004400000041007103B
:1045400004E00180060004000000044005C00640AD
:10455000044000000000000004007BE04020000058
:10456000000000000000FFF00000000000004020FC
:104570007BE00400000000004000800040002000BC
:1045800020004000000000000000000000000000CB
:10459000000000000000000000001FCC000C000024
:1045A000000000000000080030006000080030003B
:1045B00060000000022003FC1E20022003FC1E20DD
:1045C0000220000000000E1811043FFF10840C7838
:1045D000000000000F0010840F3800C00778188416
:1045E0000078000000780F8410C411240E9800E4B5
:1045F000008400080800680070000000000000004F
:104600000000000000000000000007E0181820046F
:1046100040020000000040022004181807E00000DB
:10462000000000000240024001800FF001800240C3
:10463000024000000080008000800FF800800080B1
:10464000008000000001000D000E000000000000CE
:1046500000000000000000800080008000800080DA
:10466000008000800000000C000C00000000000032
:104670000000000000000006001800600180060035
:1046800018002000000007F00808100410040808B3
:1046900007F000000000080408041FFC00040004E8
:1046A0000000000000000E0C1014102410441184AF
:1046B0000E0C000000000C181004110411041288E4
:1046C0000C700000000000E00320042408241FFCFC
:1046D0000024000000001F981084110411041088A9
:1046E00010700000000007F00888110411041888F9
:1046F0000070000000001C00100010FC13001C00E3
:104700001000000000000E38114410841084114481
:104710000E38000000000700088C10441044088880
:1047200007F00000000000000000030C030C000074
:104730000000000000000000000101060000000071
:104740000000000000000080014002200410080862
:104750001004000002200220022002200220022079
:10476000022000000000100408080410022001408C
:104770000080000000000E001200100C106C108071
:104780000F00000003E00C1813E4142417C40828D9
:1047900007D000000004003C03C41C40074000E4B4
:1047A000001C000410041FFC1104110411040E88E5
:1047B0000070000003E00C1810041004100410082E
:1047C0001C10000010041FFC100410041004080842
:1047D00007F0000010041FFC1104110417C410049A
:1047E0000818000010041FFC1104110017C010006D
:1047F0000800000003E00C181004100410441C789A
:104800000040000010041FFC108400800080108411
:104810001FFC10040000100410041FFC10041004FE
:104820000000000000030001100110011FFE100035
:104830001000000010041FFC110403801464181CF5
:104840001004000010041FFC100400040004000405
:10485000000C000010041FFC1F0000FC1F001FFCC8
:104860001004000010041FFC0C04030000E01018EA
:104870001FFC100007F008081004100410040808BA
:1048800007F0000010041FFC1084108010801080BE
:104890000F00000007F0081810241024101C080A4C
:1048A00007F2000010041FFC1104110011C01130A8
:1048B0000E0C000400000E1C11041084108410441F
:1048C0001C3800001800100010041FFC1004100019
:1048D0001800000010001FF8100400040004100469
:1048E0001FF8100010001E0011E0001C0070138063
:1048F0001C0010001FC0103C00E01F0000E0103C36
:104900001FC000001004180C163401C001C016347A
:10491000180C100410001C00130400FC13041C00ED
:10492000100000000804101C1064108413041C0400
:10493000101800000000000000007FFE400240024E
:1049400040020000000030000C0003800060001CEA
:104950000003000000004002400240027FFE000011
:104960000000000000000000200040004000400067
:104970002000000000010001000100010001000111
:104980000001000100004000400020000000000085
:10499000000000000000009801240144014401448B
:1049A00000FC000410001FFC0088010401040088C2
:1049B0000070000000000070008801040104010480
:1049C0000088000000000070008801040104110844
:1049D0001FFC0004000000F80144014401440144AC
:1049E00000C800000000010401040FFC11041104C0
:1049F00011001800000000D601290129012901C970
:104A00000106000010041FFC0084010001000104E5
:104A100000FC000400000104190419FC0004000457
:104A2000000000000000000300010101190119FE4F
:104A30000000000010041FFC0024004001B4010C21
:104A4000010400000000100410041FFC0004000416
:104A500000000000010401FC0104010001FC01044C
:104A6000010000FC010401FC0084010001000104BC
:104A700000FC0004000000F801040104010401042A
:104A800000F80000010101FF008501040104008815
:104A9000007000000000007000880104010401059E
:104AA00001FF00010104010401FC00840104010074
:104AB00001800000000000CC012401240124012415
:104AC0000198000000000100010007F80104010442
:104AD00000000000010001F80004000400040108C7
:104AE00001FC0004010001800170000C0010016055
:104AF0000180010001F0010C003001C00030010C08
:104B000001F0010000000104018C00740170018CAF
:104B100001040000010101810171000E0018016013
:104B20000180010000000184010C01340144018472
:104B3000010C0000000000000000000001003EFC2D
:104B4000400240020000000000000000FFFF0000E3
:104B5000000000000000400240023EFC0100000096
:104B60000000000000006000800080004000400065
:104B700020002000020000000000000042000000B1
:104B80000000000033000000FE00000000000000F4
:104B900004000000000000000800000022000000E7
:104BA000000000002A000000FF0000002A000000B2
:104BB000A80000002A000000A8000000FE0000007D
:104BC000A80000002A000000AA0000002A0000003F
:104BD000A90000002A000000FE00000022000000E2
:104BE00000000000020000000000000000000000C3
:104BF0000000000008000000200000000800000085
:104C0000C00000000B00000000000000FF000000DA
:104C1000FF0000000900000000000000000000008C
:104C2000800000007F000000FF000000490000003D
:104C300002000000490000000400000049000000DC
:104C4000C0000000490000003000000049000000E2
:104C5000280000007F000000440000000000000069
:104C600082000000000000000200000000000000C0
:104C700000000000080000004200000008000000E2
:104C800041000000FF000000FE00000008000000DE
:104C9000800000000900000001000000000000008A
:104CA000060000007F000000F8000000490000003E
:104CB00000000000490000003F0000004900000023
:104CC000220000004F000000E20000004900000048
:104CD00022000000490000002200000079000000CE
:104CE0003F00000001000000000000000000000084
:104CF0000000000008000000200000000800000084
:104D0000220000000800000041000000FF00000039
:104D1000FE00000008000000800000000900000004
:104D20000100000000000000420000007F000000C1
:104D30005C00000049000000420000004900000043
:104D400041000000490000007F0000004900000011
:104D50004900000049000000490000007F000000F9
:104D600049000000000000004100000000000000B9
:104D7000000000000200000004000000020000002B
:104D80000800000042000000100000004200000087
:104D9000600000004200000000000000420000002F
:104DA000020000004200000001000000430000007B
:104DB000FE00000042000000000000004200000071
:104DC000000000004200000000000000420000005F
:104DD000400000004200000020000000020000002F
:104DE00010000000020000000C00000000000000A5
:104DF000000000000200000000000000420000006F
:104E00000000000033000000FC0000000000000073
:104E10000800000000000000110000007F000000FA
:104E2000FE000000410000000000000049000000FA
:104E30007800000049000000480000007F000000EA
:104E40004800000049000000480000004900000040
:104E50007A00000041000000010000007F00000017
:104E6000FE00000000000000000000000000000044
:104E700000000000200000000000000022000000F0
:104E800000000000220000000000000022000000DE
:104E900000000000FA0000000000000022000000F6
:104EA0000000000023000000FF00000022000000BE
:104EB00000000000220000000000000022000000AE
:104EC00010000000FA0000000800000022000000AE
:104ED0001000000023000000E0000000200000009F
:104EE00000000000200000000000000000000000A2
:104EF0000000000008000000400000000800000062
:104F0000420000000800000081000000FF000000D7
:104F1000FE00000009000000000000000200000088
:104F2000200000007800000022000000490000007E
:104F300027000000490000002A000000790000005E
:104F4000320000004F000000E20000007900000085
:104F500022000000490000002A0000004900000073
:104F60002600000078000000230000000000000080
:104F70000000000008000000200000000800000001
:104F8000C00000000B00000000000000FF00000057
:104F9000FF00000009000000000000000800000001
:104FA000C0000000010000000000000041000000FF
:104FB000000000004100000000000000410000006F
:104FC000000000007F000000FF0000004100000022
:104FD000000000004100000000000000410000004F
:104FE00000000000010000000000000000000000C0
:104FF0000000000008000000400000000800000061
:10500000420000000800000081000000FF000000D6
:10501000FE00000009000000000000000400000085
:105020000000000019000000010000001100000055
:105030002100000011000000D200000097000000D5
:1050400014000000710000000800000011000000C2
:105050001400000011000000E20000001500000034
:105060000100000019000000000000000000000026
:1050700000000000400000000000000040000000B0
:1050800000000000400000000000000040000000A0
:105090000000000040000000000000004000000090
:1050A000000000007F000000FF0000004000000042
:1050B000000000004000000000000000420000006E
:1050C000000000004100000000000000400000005F
:1050D0008000000040000000600000004000000070
:1050E0000000000040000000000000000000000080
:1050F00000000000000000000100000000000000AF
:10510000060000007F000000F800000044000000DE
:105110004000000044000000400000004400000087
:105120004000000044000000400000007F0000003C
:10513000FE000000440000004000000044000000A9
:105140004000000044000000420000004400000055
:10515000410000007F000000FE0000000000000091
:10516000000000000000000000000000000000003F
:10517000000000000000000000000000000000002F
:105180000100000000000000060000001F000000F9
:10519000F800000010000000800000001000000077
:1051A00080000000900000008000000070000000FF
:1051B00080000000100000008000000010000000CF
:1051C00080000000100000008000000010000000BF
:1051D000800000001F000000C00000000000000070
:1051E00000000000000000000000000000000000BF
:1051F000000000000800000040000000080000005F
:10520000420000000800000081000000FF000000D4
:10521000FE00000009000000000000000400000083
:105220000000000019000000010000001100000053
:105230002100000011000000D200000097000000D3
:1052400014000000710000000800000011000000C0
:105250001400000011000000E20000001500000032
:105260000100000019000000000000000000000024
:105270000000000002000000800000000C000000A0
:1052800080000000F7000000FE0000002400000085
:1052900084000000240000008A00000001000000DB
:1052A0006400000027000000180000003900000022
:1052B000E400000008000000220000002A000000B6
:1052C000A20000002A000000A2000000FF00000071
:1052D000FA0000002A000000A20000003E000000CA
:1052E000A2000000080000002200000000000000F2
:1052F000000000000100000000000000410000006C
:105300000100000041000000020000004100000018
:105310000C0000007F000000F000000041000000D1
:1053200000000000410000000000000041000000FB
:1053300000000000410000000000000041000000EB
:10534000000000007F000000FF000000410000009E
:1053500000000000410000000000000041000000CB
:10536000000000000100000000000000000000003C
:10537000000000000800000002000000080000001B
:10538000440000000F000000A8000000F80000002A
:105390001000000008000000680000000F0000007E
:1053A0008400000000000000000000000200000077
:1053B00000000000070000007F0000001A0000004D
:1053C00042000000E2000000420000000200000075
:1053D000420000000A000000420000000600000039
:1053E0007F0000000300000000000000000000003B
:1053F00000000000000000000000000000000000AD
:1054000000000000000000001A0000000000000082
:105410001C00000000000000000000000000000070
:10542000000000000000000000000000000000007C
:10543000000000000000000000000000000000006C
:10544000000000000000000000000000000000005C
:10545000000000000000000000000000000000004C
:10546000000000000000000000000000000000003C
:10547000000000000000000000000000000000002C
:105480000000000000000000180000000000000004
:1054900024000000000000002400000000000000C4
:1054A00018000000000000000000000000000000E4
:1054B00000000000000000000000000000000000EC
:1054C00000000000000000000000000000000000DC
:1054D00000000000000000000000000000000000CC
:1054E00000000000000000000000000000000000BC
:1054F000000000000800000040000000080000005C
:10550000420000000800000081000000FF000000D1
:10551000FE00000009000000000000000400000080
:1055200000000000180000008000000010000000D3
:1055300080000000100000008200000090000000C9
:105540008100000070000000FE000000100000005C
:105550008000000010000000800000001400000027
:105560008000000018000000800000000000000023
:1055700000000000020000000800000022000000FF
:105580003C00000023000000C800000022000000D2
:105590000800000022000000280000002200000097
:1055A0001D000000020000000200000008000000D2
:1055B0000C0000000800000070000000FF00000068
:1055C0008000000008000000020000000800000049
:1055D0000100000008000000020000000F000000B1
:1055E000FC000000000000000000000000000000BF
:1055F000000000000400000001000000080000009E
:105600000600000017000000F80000002400000061
:1056100090000000E4000000900000002400000062
:10562000900000002400000090000000270000000F
:10563000FE00000024000000900000002C0000008C
:105640009000000034000000920000000400000000
:105650009100000007000000FE00000000000000B4
:10566000000000000000000000000000000000003A
:1056700000000000000000008000000001000000A9
:105680000000000006000000000000001F000000F5
:10569000FF000000E0000000020000000800000021
:1056A0000200000009000000820000000800000065
:1056B0007A0000008800000002000000680000007E
:1056C00002000000080000000E00000008000000BA
:1056D000720000000B0000008200000008000000C3
:1056E00002000000000000000200000000000000B6
:1056F0000000000024000000100000002400000052
:105700006000000025000000800000007F00000015
:10571000FF000000C4000000800000004400000002
:105720006000000000000000000000000800000011
:10573000910000001000000091000000290000000E
:1057400022000000E60000005200000024000000DB
:10575000CC000000290000004800000030000000DC
:105760005000000000000000600000000000000089
:1057700000000000000000008000000001000000A8
:105780000000000006000000000000001F000000F4
:10579000FF000000E0000000000000000200000028
:1057A0000000000012000000400000001200000095
:1057B000D00000001700000048000000FA000000C0
:1057C00044000000120000004B0000001200000026
:1057D0005000000012000000600000000200000005
:1057E00000000000020000000000000000000000B7
:1057F0000000000000000000110000000000000098
:10580000660000003F000000800000002000000053
:10581000000000002B000000C60000002A0000006D
:10582000410000002A000000410000002A000000A2
:10583000490000002B000000D500000020000000FF
:1058400021000000FE0000004100000021000000D7
:1058500083000000A3000000400000006C00000076
:105860002400000020000000F30000000000000001
:105870000000000001000000100000000100000016
:1058800010000000790000002F0000004900000017
:105890002900000049000000490000004900000004
:1058A00049000000790000008F00000007000000A0
:1058B00000000000010000008000000079000000EE
:1058C0004F0000004D000000490000004B000000A8
:1058D00029000000490000002900000079000000B4
:1058E0001F00000001000000100000000000000088
:1058F0000000000000000000000000001F00000089
:10590000FE0000003000000084000000D000000015
:10591000840000001000000084000000100000005F
:10592000840000001F000000FE00000002000000D4
:10593000000000000C00000000000000F10000006A
:105940000000000010000000C20000001000000075
:105950000100000010000000020000001F00000015
:10596000FC0000000000000000000000000000003B
:105970000000000008000000010000000800000016
:10598000060000008F000000F80000006900000021
:1059900002000000090000000100000009000000F2
:1059A000FE000000080000000100000014000000DC
:1059B00006000000E4000000F800000024000000E1
:1059C0000400000027000000FE000000240000008A
:1059D0002200000024000000220000002700000038
:1059E0002200000020000000020000000000000073
:1059F000000000000400000080000000080000001B
:105A0000800000003400000080000000E70000007B
:105A1000FE000000240000008400000024000000BC
:105A200088000000000000000200000041000000AB
:105A30000200000041000000FE0000007F000000A6
:105A400002000000410000000200000041000000D0
:105A5000020000007F000000FE00000000000000C7
:105A60000200000000000000020000000000000032
:105A7000000000000100000000000000060000001F
:105A8000000000001F000000FF000000E000000018
:105A900000000000200000000100000027000000BE
:105AA0008100000024000000A2000000240000008B
:105AB000940000002400000088000000FF000000A7
:105AC000F400000024000000820000002400000018
:105AD0008200000024000000810000002700000078
