:020000040800F2
:10000000D00A002095010008990100089B01000812
:100010009D0100089F010008A101000800000000E8
:10002000000000000000000000000000A301000824
:10003000A501000800000000A7010008A9010008B0
:10004000AB010008AB010008AB010008AB010008E0
:10005000AB010008AB010008AB010008AB010008D0
:10006000AB010008AB010008AB010008AB010008C0
:10007000AB010008AB010008AB010008AB010008B0
:10008000AB010008AB010008AB010008AB010008A0
:10009000AB010008AB010008AB0100080514000823
:1000A000AB0100083B150008AB010008AB010008DC
:1000B00091130008AB010008AB010008AB01000878
:1000C000AB010008AB010008AB010008AB01000860
:1000D000AB010008AB010008AB010008AB01000850
:1000E00035140008AB010008AB01000800F002F86D
:1000F00000F03AF80AA090E8000C82448344AAF188
:100100000107DA4501D100F02FF8AFF2090EBAE885
:100110000F0013F0010F18BFFB1A43F0010318473B
:10012000E097000000980000103A24BF78C878C11A
:10013000FAD8520724BF30C830C144BF04680C60ED
:10014000704700000023002400250026103A28BF35
:1001500078C1FBD8520728BF30C148BF0B60704739
:100160001FB51FBD10B510BD02F040FF1146FFF7CF
:10017000F7FF00F02BF802F05EFF03B4FFF7F2FF89
:1001800003BC00F015FA000030BF72B662B680F30F
:100190000888704708480047FEE7FEE7FEE7FEE7ED
:1001A000FEE7FEE7FEE7FEE7FEE7FEE70348044959
:1001B000044A054B70470000ED000008D004002001
:1001C000D00A0020D0060020D0060020092000F030
:1001D00096F9482000F036F8022000F07BF9012063
:1001E00000F078F94FF47A7000F064F84FF47A7008
:1001F00000F060F800F05AFA01F0E0F800F0BAFD03
:100200004FF4FA31482000F0EDF9002141F61F408B
:1002100000F0A6FF01F05AF800F050FE41F61F4131
:10022000C72000F05DFF09E002F082FD01200449D3
:10023000087000BF024800780028FBD1F4E70000F6
:10024000020000204FF0E021096921F004014FF085
:10025000E0221161C21700EB5272C2F3C702234BB6
:100260001A701946097801EB4102C2EBC1114FF631
:10027000FF7202EAC1011E4A1180704701461B4A03
:1002800012784A434FF0E0235A6100229A6101221A
:100290001A6100BF4FF0E022106900F001021AB1AC
:1002A00000F48032002AF5D000224FF0E0231A61DA
:1002B0009A61704701460E4A12884A434FF0E02384
:1002C0005A6100229A6101221A6100BF4FF0E022B8
:1002D000106900F001021AB100F48032002AF5D052
:1002E00000224FF0E0231A619A6170471800002045
:1002F0001A000020A34A0A400243A34B1A60704729
:100300000146072323EA010212029F4B1B1D1868B6
:100310004FF6FF0318409D4B184310439A4B1B1D8B
:10032000186070472DE9F0410746884614461D467F
:100330002846FFF7E5FFC5F1040007FA00F60F2095
:10034000284100EA0800064306F00F06E21704EB16
:10035000D2625211920002F1E022D2F8002121462D
:10036000E31704EBD3635B11A4EB431C012303FAF3
:100370000CF31A432046E31704EBD3635B119B0095
:1003800003F1E023C3F800218148005D40EA061034
:100390007F490855BDE8F08170B504460B46CE177D
:1003A00001EB9676C6F38700CE1701EB9676B61072
:1003B000A1EB8606B606350E764B9B6943F001032A
:1003C000744EB3614FEAB63353F820300F26AE4077
:1003D000B343714E46F82030334653F8203004FAC8
:1003E00005F61E436C4B43F820606C4B1B680126DE
:1003F0008E403343694E336002F0010343B1674BD3
:100400000C331B6801268E403343644E0C36336038
:1004100002F0020343B1614B08331E6801238B4095
:100420001E435E4B08331E6070BD00B50020594965
:100430000861C8601420486100208861C8610846CE
:10044000006840F0010008600846406854490840D0
:100450005049486008460068524908404D490860C4
:100460000846006820F4802008600846406820F4B0
:10047000FE0048600020886000214FF00060FFF718
:1004800039FF00BD10B540480830006840F0040056
:100490003D49083108603F48C06940F080503D49FF
:1004A000C8614148406840F480703F494860084650
:1004B000006840F0040008600846006840F0020050
:1004C0000860FFF761FE10BD3048001D2E49091D70
:1004D00008607047014649062E4A926942F00102BF
:1004E0002C4B9A612C4A083A526822F0E0622A4B5F
:1004F000083B5A601A4652680A435A60704730B542
:1005000004460025FFF791FF2248006840F4803040
:100510002049086000BF1F480068400C0028FAD03E
:100520004FF480601B494860A01EC4B20846406872
:1005300040EA844048600846406840F480304860A3
:100540001A48006840F032001849086011480068F5
:1005500040F080700F49086000BF0E480068400EF0
:100560000028FAD00B48406840F002000949486072
:1005700005E008484068C0F3870505F00305022D33
:10058000F7D130BD80FFFF1F08ED00E00000FA0545
:1005900000E400E0001002400800014000040140B7
:1005A0000000FFF8FFFFF6FE007000400020024050
:1005B000014600BF704700BF384A128802F040026F
:1005C000002AF9D0C2B2354B1B1D1A80704733493F
:1005D000091D088000BF3149098801F04001002948
:1005E000F9D070472DE9F05F05460E46300104F062
:1005F000A5F981462A4905FB01F004F09FF98246DE
:10060000494604F085F80746384604F05FF984B29D
:10061000204604F093F98346394604F0D4FA824622
:100620004FF0834104F0D2F9814604F04FF980463F
:100630004FF6FF7000EA041404EB080084B2194876
:10064000806940F00400174988610846806940F4D9
:10065000804088611448006820F47F601249086077
:100660000846006840F40B6008600E48C06840F41B
:1006700080400C49C8600846C06820F48040C860CB
:10068000064808300480001D008842F20C0108432F
:1006900002490C310880BDE8F09F0000003801409D
:1006A00040420F00001002400408014017488069D2
:1006B00040F00400154988611548006820F4702056
:1006C000134908600846006840F44030086010484C
:1006D0000C30006840F010000D490C310860704784
:1006E00018B900210B4A11600FE00B490968491C39
:1006F000094A1160814208D106490968C943074A7D
:10070000C2F890110021044A1160704700100240A5
:1007100000080140900121421C00002000002142FD
:100720008448806940F004008249886182480068FA
:1007300020F47F20804908600846006840F40820C3
:100740000860081F00687D4908407B49091F086050
:10075000084600687A4908437749091F08607648C7
:100760000830006840F0040073490831086008460A
:10077000006840F0800008600846006840F02000F3
:1007800008600846006840F4C050086070470146A1
:100790006C48006828B96C480088401C6A4A108080
:1007A00002E00020684A10806648006828B967485F
:1007B000007810B90120654A107065480078B0B91A
:1007C00062480078012807D162480078401C614ADD
:1007D000107001205E4A10705E480078022806D131
:1007E00000205C4A10705C4A108002207047554817
:1007F0000068012804D10020544A1070544A107037
:100800005448007801281CD153480088401C524AA3
:1008100010801046008888420ADD4B4800888842D4
:1008200006DA00204B4A10704B4A10800120DDE7A9
:1008300045480088884204DD0020464A1070464A38
:1008400010800020D2E710B54448007818B33D4826
:100850000C30006838B13B482430006818B1394882
:1008600028300068B8B900203C4908703220FFF7F2
:1008700021FD34480C30006808B9052010BD31480E
:100880002430006808B90B20F8E72E4828300068AB
:1008900020B90C20F2E70120304908700020EDE774
:1008A0002F48008848B927481430006828B92D48D7
:1008B0000088401C2B49088002E00020294908805C
:1008C00028480088142807DD0120254908800020D9
:1008D000244908800120704721480088012802D15E
:1008E00000201F4908800020F5E71F48008840B914
:1008F0001448006828B91D480088401C1B4908801E
:1009000002E000201949088018480088C82807DD3F
:1009100001201549088000201449088001207047F3
:1009200011480088012802D100200F4908800020CA
:10093000F5E700000010024004080140FFF00F0F2F
:1009400000088080080121422600002020000020AD
:100950002100002022000020240000202800002088
:100960002C0000202A000020300000202E00002053
:1009700010B50A461AB10123F74C236002E00023A8
:10098000F54C2360002114E00023F44C236000F0B8
:1009900080031BB10123241F236003E00023EF4CDD
:1009A000241F23600123ED4C23604306180E4B1CCB
:1009B000D9B20829E8DB0123E74C236010BD30B52C
:1009C00000241CE004F1B001C8B20021FFF7D0FF01
:1009D00000210846FFF7CCFF00211020FFF7C8FFD9
:1009E000002508E0DE4901EBC501085D0121FFF7A4
:1009F000BFFF681CC5B2802DF4DB601CC4B2082C9C
:100A0000E0DB30BD00B500218D20FFF7B1FF0021F4
:100A10001420FFF7ADFF0021AF20FFF7A9FF00BDB5
:100A200000B500218D20FFF7A3FF00211020FFF764
:100A30009FFF0021AE20FFF79BFF00BD30B50024D3
:100A40000CE0002506E00020C54901EBC501085572
:100A5000681CC5B2802DF6DB601CC4B2082CF0DB2C
:100A6000FFF7ADFF30BDF0B5144600267F2801DC4E
:100A70003F2900DDF0BD0B46CF1701EB5777FF1084
:100A8000C7F10707FAB2CF1701EB5777FF10A1EBB9
:100A9000C707FDB2C5F107070123BB40DEB24CB169
:100AA000AF4B03EBC0039B5C3343AD4F07EBC00779
:100AB000BB5408E0AA4B03EBC0039B5CB343A84FB5
:100AC00007EBC007BB5400BFD4E72DE9F04F8046C9
:100AD0000C4615461E46A346A5F12000C5B20027C8
:100AE0003EE00C2E07D105EB45009E4901EB80004E
:100AF00010F8079004E09C4800EB051010F80790F0
:100B00004FF0000A26E009F0800028B12146404657
:100B1000099AFFF7A8FF09E0099808B9012000E049
:100B20000020024621464046FFF79DFF4FEA4960FC
:100B30004FEA1069601CC4B2A4EB0B00B04205D1AF
:100B40005C4608F1010000F0FF0806E00AF1010030
:100B500000F0FF0ABAF1080FD5DB00BF781CC7B25E
:100B6000B742BEDBBDE8F08F10B50246012000E0C1
:100B700050430B1EA1F10104E1B2F9D110BD2DE9E2
:100B8000FF4F81B0074691461E460E9D4FF0000A6A
:100B9000002439E0301B401EC1B20A20FFF7E4FFF9
:100BA000B9FBF0F00A21B0FBF1F201FB1208BAF137
:100BB000000F16D1701EA04213DDB8F1000F0ED148
:100BC0000120AB4605EBDB71491001FB047100907D
:100BD000C8B22B4620220299FFF777FF12E04FF0B0
:100BE000010A0120AB4605EBDB71491001FB0471E2
:100BF0000090C8B208F13001CAB22B460299FFF743
:100C000064FF00BF601CC4B2B442C3DB05B0BDE8E2
:100C1000F08F78B505460E46144618E07A2D03DDB0
:100C2000002506F11000C6B23A2E04DD002005466C
:100C30000646FFF703FF0120009022780C2331467F
:100C40002846FFF742FF05F10800C5B2641C207872
:100C50000028E3D178BD2DE9F04F07460C469046B9
:100C60001D46A346002631E0404800EBC81010F8AE
:100C700026904FF0000A23E009F0800028B12A46B0
:100C800021463846FFF7EFFE08E00DB9012000E0ED
:100C90000020024621463846FFF7E5FE4FEA49604C
:100CA0004FEA1069601CC4B2A4EB0B00102803D1FA
:100CB0005C46781CC7B206E00AF1010000F0FF0AAA
:100CC000BAF1080FD8DB00BF701CC6B2202ECBDBF8
:100CD000BDE8F08F2DE9F04F07460C4690461D46C3
:100CE000A346002633E0C8EBC800214901EB001001
:100CF00010F826904FF0000A23E009F0800028B198
:100D00002A4621463846FFF7AEFE08E00DB901201D
:100D100000E00020024621463846FFF7A4FE4FEAD5
:100D200049604FEA1069601CC4B2A4EB0B001028A4
:100D300003D15C46781CC7B206E00AF1010000F05E
:100D4000FF0ABAF1080FD8DB00BF701CC6B21C2E18
:100D5000C9DBBDE8F08F0000BC0121429481214233
:100D600070000020B84D00082C5200081C580008E4
:100D70001C63000810B54A48806940F008004849E3
:100D80008861484800684849084046490860084664
:100D9000006846490843434908604148806940F07B
:100DA00004003F4988614248006820F07040404993
:100DB00008600846006840F00050086000203D4987
:100DC00008606420FFF776FA01203B49C1F88C01E6
:100DD0000021AE20FFF7CCFD0021D520FFF7C8FD94
:100DE00000215020FFF7C4FD0021A820FFF7C0FD1F
:100DF00000213F20FFF7BCFD0021D320FFF7B8FD05
:100E000000210846FFF7B4FD00214020FFF7B0FDA8
:100E100000218D20FFF7ACFD00211420FFF7A8FD75
:100E200000212020FFF7A4FD00210220FFF7A0FDF4
:100E30000021A120FFF79CFD0021C020FFF798FDB5
:100E40000021DA20FFF794FD00211220FFF790FD2A
:100E500000218120FFF78CFD0021EF20FFF788FDA6
:100E60000021D920FFF784FD0021F120FFF780FD4C
:100E70000021DB20FFF77CFD00213020FFF778FD0B
:100E80000021A420FFF774FD0021A620FFF770FDCC
:100E90000021AF20FFF76CFDFFF7D0FD10BD000073
:100EA00000100240000C0140FF0F00FF0020220054
:100EB000040801408C812142008021427F488069E2
:100EC00040F004007D4988617D48006820F0706032
:100ED0007B4908600846006820F470400860774845
:100EE000806940F40070754988610846C06840F424
:100EF0000070C8600846C06820F40070C8600846EA
:100F0000406820F4404048600846406840F4004093
:100F100048606C4800686C4908406A4908600846A7
:100F2000006808600846006820F480700860081DAA
:100F3000006820F00200091D08600846006820F4DF
:100F4000602008600846006840F460200860084699
:100F5000006840F4801008600846006820F40060D3
:100F6000086058482830006820F47000554928313E
:100F70000860084600680020086052480C3000688D
:100F800020F070604F490C3108600846006840F45A
:100F9000E01008600846006820F4704008600846C9
:100FA000006808604748001D006840F0010045499E
:100FB000091D08600846006840F00800086000BF8E
:100FC0004048001D006800F008000028F8D13D48A6
:100FD000001D006840F004003A49091D086000BF88
:100FE0003848001D006800F004000028F8D1704760
:100FF000014634483030006820F01F00314A30325A
:10100000106010460068084310602E48001D0068FC
:1010100040F480002B4A121D106000BF2948001FB9
:10102000006800F002000028F8D026484830006828
:1010300080B270472DE9F04F87B00620FFF7D8FF48
:10104000019003F051F880464FF066321F4B03F0D9
:101050009BF800221E4BCDE9020103F095F8002217
:101060001C4BCDE9040103F08FF8064600221A4B11
:1010700002F060FE04460022184B02F05BFE82463E
:1010800002F0ECFF0690069807B0BDE8F08F2DE95E
:10109000F04107460C460025002608E03846FFF7D9
:1010A000A7FF0544C820FFF7E9F8701CC6B2A642A6
:1010B000F4DBB5FBF4F080B2BDE8F0810010024033
:1010C0000008014004240140FFFFF00066660A406A
:1010D00000002640000059400000F03F0000B040F2
:1010E00070B505460C461348806940F4006011490C
:1010F000886111480580001F04800F48203800884F
:1011000040F001000C49203908800846008840F072
:101110004000088008482C38008840F0010006494B
:101120002C3908800223192203210120FFF7FAF845
:1011300070BD0000001002402C2C01402F48806937
:1011400040F008002D4988612D48006880B22C4984
:101150000860084600682B49084329490860704721
:1011600000B503460A46FFF7E9FF2448C06940F08E
:1011700002002249C8610846806940F00800886181
:101180001F48001F006820F0FF001D49091F08606C
:101190000846006840F0BB0008601B480380001F41
:1011A000028019481038008840F4C04016491039B0
:1011B00008800846008840F06000088008460088E3
:1011C00040F4006008800846008840F0080008806D
:1011D000081D008840F48050091D088008460088DA
:1011E00040F480700880802007492C390880084628
:1011F000008840F00100088000BD0000001002409F
:10120000040C0140000022222C04004010B5664866
:10121000C06940F001006449C8610846806940F037
:10122000040088616148006820F0FF005F490860A1
:101230000846006840F044000860C804808940F017
:101240000100C90488810846808940F040008881F7
:1012500001231C2203211846FFF764F800204FF0F9
:10126000804108854FF6FF7088850846008820F485
:10127000407008800846008820F06000088008461A
:10128000008B40F0010008830846008B40F480701A
:1012900008830846008C20F0020008840846008C71
:1012A00020F0200008840846008B40F030000883BE
:1012B0000846008940F00300088142F210708884DB
:1012C0008006008840F00100088010BD3648C069E3
:1012D00040F004003449C8610846806940F00800C5
:1012E00088613348006820F07F4031490860084633
:1012F000006840F08840086000202E4908804FF6C2
:10130000FF70091D08802B482838008820F44070A1
:101310002849283908800846008820F060000880A5
:1013200024481038008840F03000224910390880E5
:1013300020482038008840F003001E4920390880EA
:1013400042F210701B49091F08801A48283800888B
:1013500040F00100174928390880704701460229EA
:1013600004D0032907D004290ED108E04FF08042B1
:10137000928C10B20AE0104A128810B206E00D4AB0
:10138000121F128810B201E0002000BF00BF70479A
:101390004FF08040008A4FF08040008A20F001002A
:1013A0004FF0804108827047001002400008014061
:1013B000000C0140280800402404004010B5FFF74D
:1013C000AFF9012207210020FEF7E6FF01220521E7
:1013D0000020FEF7E1FF01220B210020FEF7DCFFD9
:1013E00001220C210020FEF7D7FF02231722194605
:1013F0001846FEF797FF0223282219461846FEF7E3
:1014000091FF10BD10B50520FEF754FF124800688B
:1014100038B91248007808B9012000E000200F49CF
:1014200008700D480830006820200D4908608020B1
:10143000086010BD10B50520FEF73CFF06481C30C3
:1014400000680848D0F82C014FF400600449086097
:101450004000086010BD000014012142000000207F
:1014600014040140000021420146002901DA4842EB
:1014700000E00846704700B50246002A07DA01205E
:10148000FE4908600020FE49C1F8B40106E00020D2
:10149000FA4908600120FA49C1F8B4011046FFF783
:1014A000E3FFF849088000BD41F6F420F6490968D9
:1014B0004242914202DA4142F34A1160F24909681C
:1014C000814201DDF0490860704710B504460021F3
:1014D000204603F047FB01D2012010BD0021204629
:1014E00003F040FA02D24FF0FF30F6E70020F4E7B5
:1014F0002DE9F0410446E549204603F064FB074628
:1015000003F0C8F90546284603F000FA0746E0490B
:1015100003F05CFA06460021204603F023FB09D8BD
:10152000DC49204603F01EFA04D8DB49304603F0BC
:1015300055FB06463046BDE8F0812DE9F04F91B0ED
:10154000D648008800F0010000287DD0D3480088EC
:1015500020F00100D1490880D148007801280BD142
:10156000D0480078401CC0B2CE490870042803D18E
:1015700000200870CA4908700420FFF7EFFECA492E
:101580000860CA48006803F029F8CDE90E01C8498F
:101590000968C54A1268881A03F0B8F98346C54934
:1015A00003F0B6F8824603F019F88046C24AC34BEE
:1015B00002F0EAFD0646C24AC24B02F0E5FDCDE963
:1015C0000C01DDE90E2302F0B5FB044602F0C4FA7B
:1015D000BD490860B5480168BB48006803F0F6F9EA
:1015E0000446BA480168204603F024F8B749086069
:1015F000AD480068AE4908600A210320FFF747FDA7
:10160000044603F09BF9B249086008460068FFF7FA
:101610006FFF8146AF4903F07BF8044602F0DEFF1E
:101620000746A74AA74B02F0AFFD054602F094FA21
:10163000A9490860A9480168A748006803F0CEFAE4
:1016400004469A48016800E0E0E1204603F060F8B3
:10165000A3490860A0480068A04908609E48006847
:1016600002F0BCFF064602F02BF8044600229D4B18
:1016700002F0CAFE9C4A9D4BCDE90C0102F084FDAC
:10168000804689469648006802F0A8FF04460D4649
:101690009348006802F0A2FF0646954A954B02F077
:1016A00073FD22462B46CDE90C0102F06DFD42464A
:1016B0004B46CDE90E0102F081FA824602F04CFA67
:1016C0008D4908608448006802F088FF04468B4A10
:1016D0008B4B02F057FE35D27F48006802F07EFF48
:1016E0000446864A874B02F013FD2BD27C480168E2
:1016F0008548006803F06AF9064677480168834820
:10170000006803F063F907466F4801688048006885
:1017100003F05CF980466D4801687E48006803F07C
:1017200055F98146414602F085FF0546394602F0EB
:1017300081FF0446314602F07DFF80F0004076498B
:10174000086041E100216C48006803F00BFA03D205
:1017500000207149086037E170495C48006803F077
:1017600035F9099003F096F88346FFF77DFE0F21C7
:1017700090FBF1F0C0F1010A504602F09EFC804659
:1017800001F0ECFF04460D4650480068FFF79DFE4F
:10179000804602F092FC064622462B4602F0F4FCFC
:1017A000CDE90C014C48006802F018FF804601F0BA
:1017B00087FF82468B464A4801684F48006803F01D
:1017C00005F9804602F00AFF064652465B4602F0E3
:1017D000DBFC044602F0C0F90890FFF776FE6221B8
:1017E0004843099002F069FCCDE90A01DDE90C23C8
:1017F00002F0E4F9CDE90E0102F0AEF948490860C3
:101800003748006802F0EAFE04460D463448006896
:1018100002F0E4FE82468B462F48006802F0DEFEAE
:10182000CDE9060102F048F93E4A3F4BCDE90801F7
:1018300002F0AAFC064652465B4602F0A5FC804632
:1018400022462B4602F0A0FCCDE90C01344800688A
:1018500002F0C4FE0446184A344B02F095FC804660
:1018600089461D48006802F0B9FE064602F024F9D8
:1018700004461D4A1D4B02F087FC59E0B08121420D
:1018800000802142400400400C00002000C041457F
:10189000EA04B43D008083440000B443102C0140AE
:1018A0000200002001000020080000203800002075
:1018B00068000020000082443BDF4F8D976EA23FFE
:1018C000F1D4C853FB21094044000020400000200F
:1018D00014000020000034434C0000203C00002095
:1018E000500000200000F03FDCD781734694C63FD3
:1018F0002D431CEBE2366A3F340000206FF085C9AF
:1019000054C1E0BF54C1E03F6400002060000020EB
:101910005C00002058000020540000200000C84255
:1019200048000020355EBA490C02EB3F976E923FAB
:10193000824642464B4602F067FDCDE902014D4822
:10194000006802F04BFE064601F0BAFE04464A4A21
:101950004A4B02F019FCCDE90001DDE9022302F057
:1019600013FC474A474BCDE9040102F0E3F9CDE906
:1019700008014548006802F031FE8046434A444B66
:1019800002F002FC04460D464248006802F026FEC2
:101990008046414A414B02F0F7FB064622462B4661
:1019A00002F00CF9CDE90601DDE9082302F006F9A1
:1019B000CDE90A01DDE90C2302F026FDCDE90E0197
:1019C00002F0CAF83649086036493548006802F026
:1019D0009FFE0546344902F0F9FF044602F05AFF23
:1019E00032490860FFF760FD3148007820B92F4880
:1019F0000068FFF740FD02E00020FFF73CFD2C48A7
:101A00000078012802D10020FFF735FD2848007832
:101A100010B96420FEF764FEFFF70CFB254908604F
:101A2000002011B0BDE8F08F70B505462048007861
:101A3000012809D11E490870012400201E490860B0
:101A40001E49C1F8B00100E000241D491D4800688E
:101A500003F088F808D21C491A48006802F082FF97
:101A600002D2B5F52F7F03DA012011490870012455
:101A7000204670BD4C000020C7BAB88D06F0663F06
:101A8000613255302AA9533F44000020B1506B9A6F
:101A9000771C274048000020B537F8C264AAB03F41
:101AA00054000020000040410000E1450C000020EF
:101AB0000000002010000020B4812142008021425B
:101AC00000802245140000200000614500B585B06B
:101AD000FEA200210846FFF79CF8FDA20021242069
:101AE000FFF797F80021FB48006802F03BFF5CD24B
:101AF000F9A200212E20FFF78CF8F648006802F0CA
:101B0000C9FE404204900C200123009000213620A1
:101B1000049AFFF734F8F1A200213E20FFF779F88C
:101B2000EC48006802F0B6FE009002F0EFFE019073
:101B3000E8480168019803F046F880F00040E84961
:101B4000029002F043FF039002F0C0FE04900C20CC
:101B50000223009000214420049AFFF710F8E1A22C
:101B600000215C20FFF755F8DA48006802F092FE89
:101B7000019002F0CBFE0290D6480168029803F073
:101B800022F880F00040D649039002F01FFFD649AA
:101B9000049002F0E7FE5FD20C20012300221146E0
:101BA00000904420FEF7EBFF56E0D0A200212E204B
:101BB000FFF72FF8C748006802F06CFE04900C2075
:101BC0000123009000213620049AFEF7D8FFC3A21B
:101BD00000213E20FFF71DF8BE48006802F05AFEC3
:101BE000009002F093FE0190BA480168019802F05B
:101BF000EAFFBB49029002F0E9FE039002F066FEA4
:101C000004900C200223009000214420049AFEF747
:101C1000B6FFB4A200215C20FEF7FBFFAD480068D0
:101C200002F038FE019002F071FE0290A9480168AE
:101C3000029802F0C8FFAA49039002F0C7FEAA4921
:101C4000049002F08FFE07D20C20012300221146DF
:101C500000904420FEF793FF01236E220A2100200A
:101C6000FFF738F801236F2208210846FFF732F802
:101C7000012370220A211020FFF72CF80123712282
:101C80000A211820FFF726F8012372220A212020BA
:101C9000FFF720F88EA20A212420FEF7BAFF0021C8
:101CA0009348006802F05EFE5CD28BA20A212E20CF
:101CB000FEF7AFFF8E48006802F0ECFD4042049052
:101CC0000C20012300900A213620049AFEF757FFCA
:101CD00082A20A213E20FEF79CFF8548006802F0A0
:101CE000D9FD009002F012FE019081480168019830
:101CF00002F069FF80F000407949029002F066FE30
:101D0000039002F0E3FD04900C20022300900A21CE
:101D10004420049AFEF733FF76A20A215C20FEF7E6
:101D200078FF7348006802F0B5FD019002F0EEFD07
:101D300002906F480168029802F045FF80F0004071
:101D40006749039002F042FE6749049002F00AFEE0
:101D50005FD20C20012300220A2100904420FEF7CC
:101D60000EFF56E061A20A212E20FEF752FF6048C6
:101D7000006802F08FFD04900C20012300900A21DE
:101D80003620049AFEF7FBFE54A20A213E20FEF7FD
:101D900040FF5748006802F07DFD009002F0B6FD5C
:101DA000019053480168019802F00DFF4C490290E0
:101DB00002F00CFE039002F089FD04900C20022337
:101DC00000900A214420049AFEF7D9FE49A20A2174
:101DD0005C20FEF71EFF4648006802F05BFD0190A4
:101DE00002F094FD029042480168029802F0EBFE76
:101DF0003B49039002F0EAFD3B49049002F0B2FD3A
:101E000007D20C20012300220A2100904420FEF773
:101E1000B6FE01236C2215210020FEF75BFF2CA2E9
:101E200014212420FEF7F5FE00213348006802F05B
:101E300099FD78D228A214212E20FEF7EAFE2E4822
:101E4000006802F027FD404204900C20012300901E
:101E500014213620049AFEF792FE20A214213E207F
:101E6000FEF7D7FE2448006802F014FD009002F04F
:101E70004DFD019020480168019802F0A4FE80F019
:101E800000401749029002F0A1FD039002F01EFDF0
:101E900004900C200223009014214420049AFEF7A1
:101EA0006EFE16A214215C20FEF7B3FE12480068F5
:101EB00002F0F0FC019002F029FD02900E4801684A
:101EC000029802F080FE80F0004019E078000000E7
:101ED0003A000000400000202D0000002E0000000D
:101EE0000000C8426D0000000000204120000000FA
:101EF000440000206D2F73004C00002072616400CC
:101F0000FE49039002F062FDFD49049002F02AFDB3
:101F100063D20C2001230022142100904420FEF7FC
:101F20002EFE5AE0FFE7AFF23C0214212E20FEF70E
:101F300070FEF448006802F0ADFC04900C20012310
:101F4000009014213620049AFEF719FEAFF27402B5
:101F500014213E20FEF75DFEEA48006802F09AFC7C
:101F6000009002F0D3FC0190E6480168019802F06D
:101F70002AFEE249029002F029FD039002F0A6FC3D
:101F800004900C200223009014214420049AFEF7B0
:101F9000F6FDAFF2980214215C20FEF73AFED94814
:101FA000006802F077FC019002F0B0FC0290D54886
:101FB0000168029802F007FED049039002F006FD86
:101FC000CF49049002F0CEFC07D20C20012300225E
:101FD000142100904420FEF7D2FD01236C221F2122
:101FE0000020FEF777FE01236F221C210820FEF758
:101FF00071FE012370221E211020FEF76BFE0123CB
:1020000071221E211820FEF765FE012372221E2177
:102010002020FEF75FFEAFF248121E212420FEF7BB
:10202000F8FD0021B848006802F09CFC5ED2AFF2D7
:1020300058121E212E20FEF7ECFDB348006802F076
:1020400029FC404204900C20012300901E213620E0
:10205000049AFEF794FDAFF27C121E213E20FEF79B
:10206000D8FDA948006802F015FC009002F04EFC73
:102070000190A5480168019802F0A5FD80F000409C
:102080009E49029002F0A2FC039002F01FFC049013
:102090000C20022300901E214420049AFEF76FFDBD
:1020A0009AA21E215420FEF7B4FD9748006802F062
:1020B000F1FB019002F02AFC02909348016802981B
:1020C00002F081FD80F000408C49039002F07EFC1C
:1020D0008B49049002F046FC61D20C2001230022BF
:1020E0001E2100904420FEF74AFD58E0AFF2042282
:1020F0001E212E20FEF78DFD8348006802F0CAFBEA
:1021000004900C20012300901E213620049AFEF733
:1021100036FDAFF238221E213E20FEF77AFD7A48C6
:10212000006802F0B7FB009002F0F0FB01907648E7
:102130000168019802F047FD7049029002F046FCE8
:10214000039002F0C3FB04900C20022300901E2198
:102150004420049AFEF713FD6CA21E215420FEF7C2
:1021600058FD6948006802F095FB019002F0CEFB33
:10217000029065480168029802F025FD5F490390CE
:1021800002F024FC5E49049002F0ECFB07D20C2024
:10219000012300221E2100904420FEF7F0FC5DA2E6
:1021A00028210020FEF735FDAFF2D022282129207A
:1021B000FEF72FFD59A228213F20FEF72AFD58489F
:1021C0000068642190FBF1F004900C200223009041
:1021D00028211C20049AFEF7D2FC51480068642193
:1021E00090FBF1F201FB120004900C2002230090FE
:1021F00028213320049AFEF7C2FC49480068642174
:1022000090FBF1F201FB12000A2807DA0C200223EE
:102210000022282100902D20FEF7B1FC41A232219E
:102220005020FEF7F6FC0C20052300903E4832219A
:1022300002685F20FEF7A3FC3CA232210020FEF7DB
:10224000E8FC3C48006802F041FB04900C200423A9
:10225000009032211E20049AFEF791FCFEF7AFFB9E
:1022600005B000BD10B50123002211461C20FEF769
:1022700031FD01231A4600212A20FEF72BFD012300
:10228000022200213820FEF725FD01230322002130
:102290004620FEF71FFD0123042200215420FEF7F3
:1022A00019FD0123052200216220FEF713FD012301
:1022B000062200217020FEF70DFD012307221021C8
:1022C0000020FEF707FD0123082210210E20FEF753
:1022D00001FD0123092210211C20FEF7FBFC012334
:1022E0000A2210212A20FEF7F5FC01230B221021DF
:1022F0003820FEF7EFFC01230C221DE00000C8424D
:10230000000020414C000020500000207261642F2A
:1023100073000000564F4C3A0000000056000000C9
:1023200010000020503A0000080000204144433AC9
:10233000000000001400002010214620FEF7CAFC17
:1023400001230D2210215420FEF7C4FC01230E228C
:1023500010216220FEF7BEFC01230F221021702005
:10236000FEF7B8FC0123102220210020FEF7B2FC6A
:102370000123112220210E20FEF7ACFC01231222A2
:1023800020211C20FEF7A6FC0123132220212A2055
:10239000FEF7A0FC0123142220213820FEF79AFC2E
:1023A0000123152220214620FEF794FC012316224A
:1023B00020215420FEF78EFC0123172220216220C9
:1023C000FEF788FC0123182220217020FEF782FCF2
:1023D0000123192230210020FEF77CFC01231A2260
:1023E00030210E20FEF776FC01231B2230211C2019
:1023F000FEF770FC01231C2230212A20FEF76AFC24
:1024000001231C2230212E20FEF764FC01231C2214
:1024100030213220FEF75EFCFEF7D1FA10BD10B578
:1024200001230C2200210846FEF754FC01231D2243
:1024300000210E20FEF74EFC01231E2200211C204D
:10244000FEF748FC01231F2200212A20FEF742FC50
:102450000123202200213820FEF73CFC0123212209
:1024600000214620FEF736FC0123222200215420C1
:10247000FEF730FC01230B2200216220FEF72AFC2C
:102480000123232200217020FEF724FC01232422B3
:1024900010210020FEF71EFC0123252210210E2012
:1024A000FEF718FC0123262210211C20FEF712FC47
:1024B0000123272210212A20FEF70CFC01232822C9
:1024C00010213820FEF706FC012329221021462086
:1024D000FEF700FC01232A2210215420FEF7FAFB0C
:1024E00001232B2210216220FEF7F4FB01232C2272
:1024F00010217020FEF7EEFB01232D222021002069
:10250000FEF7E8FB01232E2220210E20FEF7E2FB3E
:102510000123132220211C20FEF7DCFB01232F22A4
:1025200020212A20FEF7D6FB01233022202138204B
:10253000FEF7D0FB0123312220214620FEF7CAFB03
:102540000123322220215420FEF7C4FB0123332231
:1025500020216220FEF7BEFB0123182220217020DB
:10256000FEF7B8FB0123292230210020FEF7B2FB41
:102570000123342230210E20FEF7ACFB012335224B
:1025800030211C20FEF7A6FB0123182230212A202F
:10259000FEF7A0FB0123192230213820FEF79AFB19
:1025A0000123362230214620FEF794FB01233722F7
:1025B00030215420FEF78EFB01231C2230216220A3
:1025C000FEF788FB01231C2230216620FEF782FBE8
:1025D00001231C2230216A20FEF77CFBFEF7EFF975
:1025E00010BD10B50123422200210846FEF772FB00
:1025F0000123432200210E20FEF76CFB012344221D
:1026000000211C20FEF766FB0123242200212A2042
:10261000FEF760FB0123252200213820FEF75AFB3C
:102620000123452200214620FEF754FB012302220C
:1026300000215420FEF74EFB0123032200216220DB
:10264000FEF748FB0123042200217020FEF742FB25
:102650000123462210210020FEF73CFB01234722E4
:1026600010210E20FEF736FB0123482210211C20EA
:10267000FEF730FB0123492210212A20FEF72AFB16
:1026800001234A2210213820FEF724FB01234B228C
:1026900010214620FEF71EFB01234C22102154205E
:1026A000FEF718FB01234D2210216220FEF712FBDA
:1026B00001234E2210217020FEF70CFB01234F2234
:1026C00020210020FEF706FB0123502220210E20AE
:1026D000FEF700FB01230B2220211C20FEF7FAFA53
:1026E0000123512220212A20FEF7F4FA012333226C
:1026F00020213820FEF7EEFA01233C22202146203B
:10270000FEF7E8FA01233D2220215420FEF7E2FAE9
:102710000123522220216220FEF7DCFA01235322FA
:1027200020217020FEF7D6FA012354223021002008
:10273000FEF7D0FA0123552230210E20FEF7CAFA07
:1027400001234D2230211C20FEF7C4FA01234E2222
:1027500030212A20FEF7BEFA0123562230213820EC
:10276000FEF7B8FA0123572230214620FEF7B2FACD
:1027700001234C2230215420FEF7ACFA01235822C9
:1027800030216220FEF7A6FA012359223021702061
:10279000FEF7A0FAFEF713F910BD10B501232322AE
:1027A00000210846FEF796FA01235A2200210E2046
:1027B000FEF790FA0123242200211C20FEF78AFA5A
:1027C0000123252200212A20FEF784FA0123262254
:1027D00000213820FEF77EFA01232722002146201F
:1027E000FEF778FA0123282200215420FEF772FA1E
:1027F0000123292200216220FEF76CFA01235B22CB
:1028000000217020FEF766FA01235C2210210020CF
:10281000FEF760FA01235D2210210920FEF75AFA23
:1028200001235E2210211220FEF754FA01234C22CC
:1028300010211B20FEF74EFA01235F2210212920D0
:10284000FEF748FA0123392210213720FEF742FA19
:102850000123602210214520FEF73CFA012361226A
:1028600010214E20FEF736FA012360221021572056
:10287000FEF730FA0123612210216020FEF72AFAC8
:102880000123632210216920FEF724FA012360222C
:1028900020210020FEF71EFA0123612220210920B9
:1028A000FEF718FA0123622220211220FEF712FA05
:1028B0000123612220211B20FEF70CFA0123642250
:1028C00020212420FEF706FA01235722202132205E
:1028D000FEF700FA01230B2220214020FEF7FAF92F
:1028E0000123512220214E20FEF7F4F90123332247
:1028F00020215C20FEF7EEF901234F2220216A20DF
:10290000FEF7E8F90123652230210020FEF7E2F905
:102910000123492230210E20FEF7DCF901234A224F
:1029200030211C20FEF7D6F901234B2230212A202A
:10293000FEF7D0F901234C2230213820FEF7CAF9E6
:1029400001234D2230214620FEF7C4F901234E22F7
:1029500030215420FEF7BEF90123132230216220DA
:10296000FEF7B8F901233C2230217020FEF7B2F9BE
:10297000FEF725F810BD38B501233D220021084699
:10298000FEF7A8F90123312200210E20FEF7A2F95B
:102990000123662200211C20FEF79CF9012333222B
:1029A00000212A20FEF796F9012314220021382065
:1029B000FEF790F90123152200214620FEF78AF93F
:1029C0000123162200215420FEF784F90123172247
:1029D00000216220FEF77EF90123182200217020D9
:1029E000FEF778F90123192210210020FEF772F971
:1029F0000123672210210E20FEF76CF901236822C3
:102A000010211C20FEF766F90123072210212A203D
:102A1000FEF760F90123082210213820FEF75AF949
:102A200001231C2210214620FEF754F901231C2209
:102A300010214A20FEF74EF901231C2210214E20BE
:102A4000FEF748F901201023412228210090182088
:102A5000FEF73BF80120102344222821009020207B
:102A6000FEF733F801201023432228210090084666
:102A7000FEF72BF8AD48006801F028FF044610204F
:102A800004232246282100904E20FEF778F8FDF717
:102A900096FF38BD38B50123382200211520FEF7F6
:102AA00019F90123392200212320FEF713F901230C
:102AB0003A2200213120FEF70DF901233B220021AB
:102AC0003F20FEF707F901233C2200214D20FEF7AD
:102AD00001F901233D2200215B20FEF7FBF80123D1
:102AE0003E2200216920FEF7F5F801233F22102144
:102AF0000020FEF7EFF80123402210210E20FEF700
:102B0000E9F80123412210211C20FEF7E3F80123FC
:102B10001C2210212E20FEF7DDF801231C2210219B
:102B20003520FEF7D7F801231C2210213C20FEF7A8
:102B3000D1F801231C2210214320FEF7CBF80123FA
:102B40001C2210214A20FEF7C5F801231C22102167
:102B50005120FEF7BFF801230C2220210E20FEF7A2
:102B6000B9F801232B2220211C20FEF7B3F8012302
:102B70002C2220212A20FEF7ADF801232422202137
:102B80003820FEF7A7F80123252220214620FEF752
:102B9000A1F801232D2220215420FEF79BF80123C8
:102BA0002E2220216220FEF795F8012010234122D9
:102BB000302100901820FDF788FF012010234422C7
:102BC000302100902020FDF780FF012010234322B8
:102BD000302100902820FDF778FF5448006801F06C
:102BE00075FE0446102004232246302100904E201A
:102BF000FDF7C5FFFDF7E3FE38BD10B50123002248
:102C000004212020FEF727F801231A460421302052
:102C1000FEF721F80123022204214020FEF71BF8D1
:102C20000123032204215020FEF715F8012304227A
:102C300018210846FEF70FF8012305221821282045
:102C4000FEF709F80123062218213820FEF703F8C1
:102C50000123072218214820FDF7FDFF0123082248
:102C600018215820FDF7F7FF0123092218216820B9
:102C7000FDF7F1FF01230A222C210020FDF7EBFFD5
:102C800001230B222C211020FDF7E5FF01230C224C
:102C90002C212020FDF7DFFF01230D222C213020E5
:102CA000FDF7D9FFFDF78BFE10BD10B501230E22F5
:102CB00010211820FDF7CFFF01230F22102128201B
:102CC000FDF7C9FF0123102211463820FDF7C3FF8D
:102CD0000123112210214820FDF7BDFF01231222FC
:102CE00010215820FDF7B7FF0123132220211820BF
:102CF000FDF7B1FF0123142220212820FDF7ABFFAF
:102D00000123152220213820FDF7A5FF01230022F1
:102D100020214820FDF79FFF01231A46202158203B
:102D2000FDF799FFFDF74BFE10BD000014000020D9
:102D300038B500BF97480078012820D10020954978
:102D400008709548006840F02000934908600846E4
:102D5000006840F0800008600846006840F40060A9
:102D600008600846006840F4805008608B4800887E
:102D700040F0010089490880FDF760FE01E0FEF7A0
:102D8000A5FEFDF78DFD0446012C01D18449087094
:102D900083480078012875D1002081490870FDF72B
:102DA0004DFE01207B49087000207E4908807A484A
:102DB000006820F02000784908600846006820F08C
:102DC000800008600846006820F40060086008463B
:102DD000006820F4805008607048008800F0FE0011
:102DE0006E490880D4E000BFFDF72DFD0446FFF7D3
:102DF00039FA1E20FDF75EFA052C7DD1FDF71EFE87
:102E0000C2E000BF1E20FDF755FAFDF71CFD044689
:102E1000FFF705FB0B2C70D1FDF710FEAEE000BFF5
:102E2000FFF7DFFB1E20FDF745FAFDF70CFD04461A
:102E30000B2C75D1FDF702FE9AE000BFFFF7ADFC49
:102E40001E20FDF737FAFDF7FEFC04460B2C68D177
:102E5000FDF7F4FD86E000BF0F210320FEF717F910
:102E6000054601F06BFD50490860FFF784FD3220F4
:102E7000FDF720FAFDF7E7FC04460C2C03D1FDF723
:102E8000DDFDDBE785E0052C6CD1FDF7D7FD0020EB
:102E9000464908700A2464E00F210320FEF7F7F882
:102EA000054601F04BFD40490860102002232246F0
:102EB000014600905820FDF762FEFFF7EBFD3C480D
:102EC0000078401C3A4908701E20FDF7F3F9384895
:102ED0000078C82833DC37493348006801F042FEE7
:102EE00021D835493048006801F03CFD1BD82F48F7
:102EF0000078401C2D4901E047E040E0087008469A
:102F0000007896280FDDFDF799FD0BE00020284999
:102F10000870FFF772FEFDF796FC052802D109E75D
:102F200027E020E0F2E722480078142190FBF1F23C
:102F300001FB1200012814D1601EC4B211E0002070
:102F40001B490870FDF77AFDFFF7AFFE40F6B83079
:102F5000FDF7B0F94FF4FA60FDF7ACF9FDF76EFD3F
:102F60007AE799E777E70C2C02D1FDF767FD57E781
:102F700063E70C2C02D1FDF761FD43E74FE70C2C12
:102F800002D1FDF75BFD2FE73BE70C2C00D1D1E62A
:102F900029E738BD04000020000401400C2C01404A
:102FA0000300002040040040140000206C000020BA
:102FB0006D00002000807C4400C080447047704752
:102FC00070477047704710B500F008F8006810BDF2
:102FD00010B5044600F002F8046010BD00487047C8
:102FE0007004002000487047700400207546FFF709
:102FF000F9FFAE4605006946534620F007008546B6
:1030000018B020B5FDF7D2F8BDE820404FF000061B
:103010004FF000074FF000084FF0000B21F00701C0
:10302000AC46ACE8C009ACE8C009ACE8C009ACE803
:10303000C0098D46704710B50446AFF300802046A6
:10304000BDE81040FDF799B8490050EAC12018BF0B
:1030500004204A0D18BF40F0010040F2FF72B2EBAD
:10306000515F08BF40F00200012808BF05207047EB
:103070002DE9F74F144694B00021C4E902111599C7
:10308000079121F00045C9498D4206DC1599C4E934
:10309000000117B00020BDE8F08FC549DFF814A388
:1030A000A9423CDD0799C44E0029C44FC44A159972
:1030B000534619DD01F0A8F9554506D0C14AC24B67
:1030C00001F0A2F9C4E900010AE04FF0D352BE4B6F
:1030D00001F09AF932463B4601F096F9C4E9000145
:1030E00017B00120BDE8F08F00F068FD554506D00F
:1030F000B44AB54B00F062FDC4E900010AE04FF0AC
:10310000D352B14B00F05AFD32463B4600F056FD1B
:10311000C4E9000117B04FF0FF30BDE8F08FAB49B4
:10312000A942159978DB21F0004183468846A84AD8
:10313000A84B01F029F80022A74B00F03FFD00F05A
:103140008DFF099000F0B9FF06460F469C4A534692
:1031500001F01AF843465A4601F04AF980468A4679
:10316000984A994B3046394601F00EF82A0D012550
:103170000B924246534601F03BF9032DC4E900018E
:1031800039D00B98C1F30A51401A05EB451111399A
:10319000814230DA9148C346784400EB0510CDF8FF
:1031A0000CA00C90D0E900233046394600F0ECFF2B
:1031B00002460B46049106905846039901F024F903
:1031C00080468A4602460B465846039901F01CF990
:1031D000049B069A01F018F983460C98039139462E
:1031E000D0E90223304600F0CFFF5A46039B01F09E
:1031F0000BF96D1CBDE707980028A2BF099817B00E
:10320000BDE8F08F616881F000416160099817B0F6
:103210004042BDE8F08FFFE784461598C1F31301E3
:10322000C0F30A50A0F2F5304FEA601800F01F0614
:10323000C6F12000139000200690079041F4801EF4
:1032400005206D4676B1664A08EB00017A4452F8D3
:10325000213002EB8101B3404A68139922FA01F14F
:10326000194305E05F4908EB0002794451F8221048
:10327000A1FB0E27A1FB0C131A449A4234BF012371
:10328000002303EB070A05EB8003D3E901B70F44E2
:103290008F4234BF0121002193448B4411B19345E7
:1032A00002D903E0934501D2012100E00021C3E9E6
:1032B00001B7514445F82010011EA0F10100C1DC06
:1032C0000298059F00F10050800F12900298DDE9EE
:1032D0000356800000F0F1FE834628460D9100F071
:1032E00003FF6FF01D0201F020FDCDE90E01304615
:1032F00000F0FAFE6FF03D0201F017FD80468A46AD
:10330000384600F0F1FE6FF05D0201F00EFD074659
:1033100042465346119100F051FCDDE90E2300F0C6
:103320004DFC5A460D9B00F049FC00250E465A46BE
:1033300028460D9B01F068F8DDE90E2301F064F8E2
:103340004246534601F060F83A46119B01F050F8AE
:10335000DFF898A0244A534600F016FF0746884637
:10336000234A244B3146284600F00EFF3A46434696
:1033700000F024FC074688464FF0A84253463146E9
:10338000284600F001FF3A46434600F017FC159A24
:1033900012F0004F04D0129A81F000415242129272
:1033A000C4E90001129817B0BDE8F08FFB21E93F96
:1033B0007CD90240FB21F93F7370032E8A19A33B8D
:1033C000000040543163621A61B4D03DFB213941A1
:1033D00083C8C96D305FE43F0000E03F74660000C1
:1033E000F0650000D2650000182D4454FB21F93D22
:1033F0003326A611460B113C2DE9FF4D21F0004864
:1034000007460C46B8F1795F08DA00F027FE00287D
:1034100001BF0020324904B0BDE8F08D3A46234692
:103420001046194600F0B0FE054602462D480E46ED
:103430000B460621784400F05DF82A46334600F03A
:10344000A3FEDDE9022382468B463846214600F082
:103450009BFE04460F4652465B462846314600F026
:1034600093FE22463B4600F0CFFF07468A464FF0C8
:10347000FF322846314601F058FC1B4A90450ADAD3
:103480003A46534600F0C0FF04B00022BDE8F04DBC
:10349000134B00F0ADBF154A4245A8BFA8F5001573
:1034A0004FF00004B8BF124D22462B4600F0ACFF8F
:1034B0000646884622462B460020094900F0A4FF14
:1034C00004460D463A4653463046414600F09CFFBE
:1034D00004B022462B46BDE8F04D00F089BF000045
:1034E0000000F03FA06300003333D33F0000E93F0A
:1034F0000000D23F2DE9F0414F1E00EBC70104460A
:10350000D1E9000115461E4637F006020DD02A46C5
:10351000334600F039FE7F1E04EBC703D3E90023D6
:1035200000F04CFB37F00602F1D1022F25D0042F1A
:1035300013D0062F18BFBDE8F0812A46334600F0AD
:1035400023FED4E90A2300F039FB2A46334600F073
:103550001BFED4E9082300F031FB2A46334600F075
:1035600013FED4E9062300F029FB2A46334600F077
:103570000BFED4E9042300F021FB2A46334600F079
:1035800003FED4E9022300F019FB2A46334600F07B
:10359000FBFDD4E90023BDE8F04100F00FBB0000C3
:1035A0002DE9FF4D054621F0004084B00C46B0F1F6
:1035B000795F0BDA2846FFF747FD042808BF00F0C3
:1035C00077F8284608B02146BDE8F08D2A460B461C
:1035D000104600F0D9FD06460F462A46234600F065
:1035E000D3FD804626488A4632463B46052178442C
:1035F000FFF780FF83461098029160B3214A224B67
:103600004046514600F0C0FDCDE900015A46404613
:103610005146029B00F0B8FD82468846DDE906016E
:103620004FF0FF3201F081FB5246434600F0ECFEC2
:1036300032463B4600F0A8FDDDE9062300F0E4FE3B
:10364000DDE9002300F0E0FE08B02A462346BDE88D
:10365000F04D00F0CDBE0B465A463046394600F0DC
:1036600093FD084A084B00F0A9FA4246534600F081
:103670008BFD08B02A462346BDE8F04D00F09EBA07
:10368000E6620000495555555555C5BF0022134601
:103690001046014900F04EBB0000F03F012201F04E
:1036A00044BB002213461046114600F043BB000005
:1036B000024A0020110701F038BB000001FDFFFFA6
:1036C00000B5244B21F0004287B09A42DCBF0022B3
:1036D000134629DD204B9A4208D140B94FF0010032
:1036E000FFF776FCFFF7DDFF07B000BD03DBFFF758
:1036F000D5FF07B000BD02AAFFF7BAFC10F0030126
:1037000004BF0DF1080C9CE80F000DD00120012929
:103710000ED0022914D00DF1080C00909CE80F0087
:10372000FFF73EFF07B000BDFFF766FE07B000BD24
:103730000DF1080C00909CE80F00FFF731FF05E049
:103740000DF1080C9CE80F00FFF756FE07B081F062
:10375000004100BDFB21E93F0000F07F2DE9F04D65
:10376000C84A002490B0914205DA21F00043934208
:1037700001D805D120B110B0BDE8F04DFFF78EBFE4
:10378000B1F5801F1BDA53EA000209D0002911DAD3
:103790000120FFF71DFC10B0BDE8F04DFFF781BF21
:1037A0000220FFF715FCFFF771FF10B081F0004118
:1037B000BDE8F08D6FF03504362201F0B6FA04EB67
:1037C0002152C1F31308B049A2F2FF33414401F47E
:1037D000801282F07F6103EB225281F0405100920F
:1037E00041EA08010022A94B00F00EFE044608F150
:1037F0000200A74EC0F313000D467E44032867D293
:10380000D6E90023204600F0EDFB1ED100980028E9
:1038100002BFD6E9000110B0BDE8F08D00F04DFC0C
:1038200007460C469B4A9C4B00F0AEFC06460D46F4
:103830009A4A9B4B3846214600F0A6FC10B032460F
:103840002B46BDE8F04D00F0B9B94FF05532954B1D
:103850002046294600F098FC0022934B00F0C8FD5A
:1038600006460F4622462B461046194600F08CFCB1
:1038700032463B4600F088FC064600980F46F0B101
:1038800000F01BFC80468A46824A834B00F07CFC99
:1038900032463B4600F0ACFD22462B4600F0B4FD1C
:1038A00005460C467D4A7E4B4046514600F06CFC76
:1038B00010B02A462346BDE8F04D00F0A5BD0B46EA
:1038C00010B0324620462946BDE8F04D00F09CBDC0
:1038D00000224FF08043204600F070F902460B466C
:1038E0002046294600F026FA06460F46009800F0CA
:1038F000E4FBCDE9040132463B461046394600F070
:1039000043FC0C9069480C9A4044019009910B4685
:10391000104600F039FC8246024665488B46C8F1E5
:1039200051080B4608F5D72803217844FFF7E2FD3C
:1039300052465B4600F028FC0A905E480D915246C4
:103940005B4604217844FFF7D5FD099B0C9A00F0F3
:103950001BFC844601980D9B40EA080860460A9AC1
:1039600000F02CF983460891B8F1000F4EDD4FF0BE
:10397000FF322046294601F0D8F922462B4600F0B6
:1039800003FC804600988A4660B3DDE90401414AA1
:10399000414B00F0F9FB099100905A4640465146D0
:1039A000089B00F00BF932463B4600F0EDFB099B0B
:1039B000009A00F003F94246534600F019FD2246F2
:1039C0002B4600F021FD04460D46DDE90401334A93
:1039D000334B00F0D9FB10B022462B46BDE8F04D2A
:1039E00000F012BD5A464046089B00F0E7F8324608
:1039F0003B4600F0C9FB4246534600F0F9FC10B0CC
:103A000022462B46BDE8F04D00F0F2BC009840B3D2
:103A1000DDE904011F4A204B00F0B6FB80468A46D0
:103A20005A4620462946089B00F0EEFC32463B46AB
:103A300000F0AAFB4246534600F0E6FC22462B4625
:103A400000F0E2FC04460D46DDE90401134A144B84
:103A500000F09AFB10B022462B46BDE8F04D00F076
:103A6000D3BC0B465A462046294600F0CDFC3246D0
:103A70003B4600F089FB10B022462B46BDE8F04DD6
:103A800000F0B6BC0000F07F645F09000000F03F6A
:103A90000A600000763C7935EF39EA3D0000E0FE2F
:103AA000422EE63F5555D53F0000E03F86EBF9FF3B
:103AB000725E0000705E000000B5254B21F00042F0
:103AC00087B09A4203DC0022134600922BE0214B80
:103AD0009A4208D140B94FF00100FFF779FAFFF799
:103AE000E0FD07B000BD03DBFFF7D8FD07B000BD68
:103AF00002AAFFF7BDFA10F003014FF001000DD04C
:103B0000012914D002291AD00DF1080C9CE80F00ED
:103B1000FFF772FC07B081F0004100BD0DF1080C09
:103B200000909CE80F00FFF73BFD07B000BD0DF1D2
:103B3000080C9CE80F00FFF75FFC07B000BD0DF11B
:103B4000080C00909CE80F00FFF72AFDE2E7000058
:103B5000FB21E93F0000F07F21F00042A2F160521A
:103B6000B2F5801F01F0004328BFD2F17F6C0BD962
:103B70005FEA001C43EAC20242EB507018BF704774
:103B800028BF20F001007047B2F5801FBCBF184667
:103B900070474FEA410C1CF5001F02D2084600F0A6
:103BA000DCBF70B500F09AFB00000089FFF7F6BF9C
:103BB0004FF00040A0F580007047000010B591EA7A
:103BC000030F48BF83F0004300F12684841A71EB91
:103BD000030C05D2121943EB0C03001B61EB0C0123
:103BE000DFF824E14FEA1154A4EB135C1EEA430F03
:103BF00018BF9EEA445F73D023EA0E03DCF1200E67
:103C000021EA045143F4801332D322FA0CFE10EB64
:103C10000E0023FA0CFE41EB0E01CCF1200E03FA4C
:103C20000EFE10EB0E0051F10001B1F5801FCCF13A
:103C3000200E32D201EB045112FA0EF2BDE8104010
:103C400058BF7047401C38BF5FEA420218BF704738
:103C5000002814BF20F0010041F100014FEA4103A8
:103C600013F5001F38BF7047A1F1C04100F084BBBD
:103C7000012A43EB0302ACF1200CDCF11F0E32BF32
:103C80004FF0000E23FA0CF310EB030041EB04514C
:103C9000B4EB115FD0D0A1EB045101F580114908BC
:103CA0005FEA300001EB04510ED350F1000038BF41
:103CB00012FA0EFE08D1BDE81040C9E7401C38BF1B
:103CC0005FEA4202CAD1C3E7BDE810404FEA4103B0
:103CD00013F5001F38BF7047A1F1C04100F04CBB85
:103CE0009EEA445F08D011EA5E0FBDE8104004BFB1
:103CF00001F0004100207047BDE8104070B500F0B1
:103D0000EDFA00BF64FBBE3E0000E0FF02494FF049
:103D1000000000F0D8BF00BF0000F87F491058BF76
:103D2000C1F140415B1058BFC3F140438B42EFF3F8
:103D3000008070472DE9C04130B4DFF8A0C23CEAF2
:103D4000111418BF3CEA131400F0EC8081EA03055B
:103D50001CEA111444EAD57418BF1CEA131500F0CC
:103D6000C780A4EB05044FF0004545EAC12145EAB0
:103D7000C32341EA505143EA525304F17F749942FC
:103D800004F500344FEAC0204FEAC22208BF904237
:103D900000F09C804FEA13650FF24016765D4FEA03
:103DA000134506FB05F7C7F1807706FB07F74FEAD7
:103DB000D737A7FB03687642C8F58038A7FB06CE45
:103DC00038BFA8F1010807FB08E64FF0000EA6FB7C
:103DD000028CE6FB03CEDCF1000CCEF1004E38BFC6
:103DE000AEF1010EA6FB0C584FF000074FF0000596
:103DF000E6FB0E87A1FB08C6A0FB07CE16EB0E065E
:103E000045F10005E1FB076515F1E04E7EBFA4F525
:103E100080345FEA46066D4116F1800745F10005E2
:103E20004FEA17274FEA066647EA0567A6F1DE461E
:103E3000B6F1805F4FEA15251FD9384624F0010CF2
:103E400005EBC471BCF1FE6F01EB0C1102D8F0BCA4
:103E5000BDE8008124425CBF01F5801E9EEAC47F5C
:103E600002D4F0BCBDE80081244238D4F0BCA1F1FA
:103E7000C041BDE8004100F07FBA4FEAD22242EAD9
:103E800043524FEAD323A7FB02864FEAD02040EAF1
:103E9000415007FB03661EEA0E0F4FEAD12105FBD6
:103EA000026658BFA6EB0056B6EB00564FEA520E1C
:103EB0004EEAC37E18EB0E0E56EB530EBDD518EB33
:103EC00002085E417F1C55F10005B6E74FF48015EE
:103ED0004FF000074FF000064FF00008ADE7F0BCD0
:103EE0004FF0000001F1C04101F00041BDE8008148
:103EF00011EA0C1F0CEA131500D00CE013EA0C1F9A
:103F000000F025804FF00000F0BC81EA030101F0D1
:103F10000041BDE80081F0BCBDE8004181EA030139
:103F200000F02ABAF0BCBDE8004170B500F0D6F947
:103F3000097EFC3E00F007B881EA03014FF0000063
:103F400001F00041704781EA030100F015BAF0BCAE
:103F5000BDE800414FF0000021497047FFFDFBF92B
:103F6000F7F5F4F2F0EEEDEBE9E8E6E4E3E1E0DEAC
:103F7000DDDBDAD8D7D5D4D3D1D0CFCDCCCBCAC81E
:103F8000C7C6C5C4C2C1C0BFBEBDBCBBBAB9B8B745
:103F9000B6B5B4B3B2B1B0AFAEADACABAAA9A8A838
:103FA000A7A6A5A4A3A3A2A1A09F9F9E9D9C9C9B06
:103FB0009A999998979796959594939392919190B1
:103FC0008F8F8E8E8D8C8C8B8B8A89898888878742
:103FD0008685858484838382828181800000FF07B7
:103FE0000000F87F51EA030C17D41CF5801F58BF5E
:103FF000BCF5801F00F10680994218BF704708BFCA
:104000009042704707D711F5801F58BF13F5801FE6
:1040100019D499427047894270471CF5801F08D512
:10402000BCF5801FF7D58B4218BF704708BF82428E
:1040300070474FF4001C1CEB410F38BF1CEB430FC3
:1040400001D28B42704770B500F048F992244900C4
:104050004FF000514FF08053FFF760BE4FEA41032D
:104060004FEA5353A3F58063D3F11E03C8BFD3F1C6
:10407000210C0CDD4FF0004242EAC12242EA5052CC
:1040800032FA03FC8CEAE17CACEBE1707047102B58
:10409000C4BF0020704703F5787CBCF1FF3F04D01B
:1040A0006FF0004282EA2100704770B500F016F907
:1040B0004992248000207047F2E710F0004248BF88
:1040C0004042B0FA80F310FA03F10AD0C3F11D03A5
:1040D00003F580634FEA415002EB035202EBD1211A
:1040E00070474FF000007047B0FA80F310FA03F108
:1040F0000AD0C3F11D0303F580634FEA41504FEA34
:10410000035202EBD12170474FF0000070470000CE
:1041100051EA030C17D41CF5801F58BFBCF5801F53
:1041200000F10680994218BF704708BF904270475F
:1041300007D711F5801F58BF13F5801F19D4994276
:104140007047894270471CF5801F08D5BCF5801F59
:10415000F7D58B4218BF704708BF824270474FF4B3
:10416000001C1CEB410F38BF1CEB430F01D28B42EC
:10417000704770B500F0B2F8922449004FF000513A
:104180004FF08053FFF7CABDDFF848C170B51CEA95
:10419000111E1EBF1CEA13159EEA0C0F95EA0C0FA8
:1041A00000F06F8081EA030423EA4C134EEAD47EC8
:1041B00021EA4C1141F4801143F48013AE44A1FB79
:1041C000024CA0FB0365AEF17F7E361955EB0C0562
:1041D000A1FB034C4CF10003A0FB021C16EB0C06E8
:1041E000654153F10003094218BF46F0010613F47C
:1041F000007F0BD14FEA03314FEA0530340341EA27
:10420000155140EA16506FF003020AE04FEAC3214D
:104210004FEAC520F40241EA555140EA56506FF08A
:10422000020202EB2E4201EB025585EACE710AD062
:104230005FEA440C18BF24F0004450F1000041F143
:10424000000120EAD47040F2FE7C624500D270BDCD
:10425000A84214BF4FF080444FF04044002E08BFE6
:104260000024BEF1806FA8BFA1F1C041BDE870403D
:1042700080F282804FF0000001F1C04101F0004166
:1042800070479EEA0C0F0CEA131518BF95EA0C0F45
:1042900006D04FF0000081EA030E0EF0004170BD21
:1042A00000F01CF88900013E00F007B800F009B8E2
:1042B0004FEA430C5FEA5C5C08D081EA030100F03E
:1042C0005BB84FEA410C5FEA5C5CF6D14FF000004E
:1042D000014970470000FF070000F87F0EF1020E51
:1042E0002EF0030E5EF8046B364205D4012A43EB30
:1042F000030515F5001F12D8012841EB010C1CF530
:10430000001F0CD80ED14FEAD17C15F5001F0CEB25
:104310004C0C0CF1020C08BF4CEBD37C04E04FF0CA
:10432000080C01E04FEAD37C0CEB4C0526FA05F6AD
:1043300006F00706B6F1040C06D20EEB860CBDE8BB
:1043400070404CF0010C6047DFE80CF0090B0202F2
:104350004FF000414FF00000A1F5002170BD19465B
:104360001046012851EB010418BFD4F5001484BF96
:10437000002001F0004170BD0808A0F500114FEACF
:104380003101704753EA010C17D41CF5801F58BF48
:10439000BCF5801F00F106808B4218BF704708BF34
:1043A0008242704707D713F5801F58BF11F5801F51
:1043B00019D48B4270479B4270471CF5801F08D56B
:1043C000BCF5801FF7D5994218BF704708BF9042CF
:1043D00070474FF4001C1CEB430F38BF1CEB410F20
:1043E00001D2994270470FB40CBC03BCFFF7C1BEA9
:1043F00091EA030F10B581F000413FF5E7AB83F080
:10440000004300F009B8000010B591EA030F48BF5F
:1044100083F000433FF5DAAB841A71EB030C07D24B
:1044200012198CF0004C43EB0C03001B61EB0C01E8
:10443000DFF8A4E14FEA1154A4EB135C1EEA430F2A
:1044400018BF9EEA445F00F0B08023EA6E03524238
:1044500021EA0451C3EB6E0338BF5B1EDCF1200E72
:1044600025D322FA0CFE10EB0E0043FA0CFE41EBB2
:104470000E01CCF1200E03FA0EFE10EB0E0051F1EE
:104480000001CCF1200E29D412FA0EF201EB0451F6
:10449000BDE8104058BF7047401C1CBFB2F1004F30
:1044A000704700280CBF491C20F00100704712EB38
:1044B000020E43EB030218BF4FF0010E4EEA420218
:1044C000ACF1200CDCF11E0E54D943FA0CFE10EBBB
:1044D0000E0051F1FF31CCF11E0ED5D50EF1010EBB
:1044E00012FA0EFE404141EB010101EB445C5FEA30
:1044F0005C5C10D910EBDE7001EB045138BFBEF1EB
:10450000004FBDE8104018BF704700280CBF491C81
:1045100020F00100704730D24FEAD42C11F5001181
:1045200024F400641BD0B1FA81F20B3AA41AA41E41
:10453000D2F12003914030FA03F31943904001EB8C
:10454000CC71002C01EB0451BDE81040A8BF7047AE
:1045500001F1C0414FF0000001F000417047B0FA96
:1045600080F310FA03F100D110BDE41A173C48059E
:10457000C90AE4E701EB045110BD491001EB0451F5
:10458000BDE810404FEA300002E04FF000017047F4
:104590004A0008BF0042F8D0B2F5001F28BF70479C
:1045A00001F000414FF0000070479EEA445F07D0E1
:1045B00011EA5E0FBDE8104004BF002100207047E3
:1045C000BDE8104070B5FFF789FE00BF40DFF63E42
:1045D00083F00041104670470000E0FF43004FEABF
:1045E000D30C4FEA3C0C43401FBF40070CF1605115
:1045F00013F0FE4F70471CF0006F03D100200CF049
:10460000004170470CF0004343EA507010B540EA97
:10461000CC0000F05CFA00BF000000924FEA0001FD
:10462000FFF7AABE4FF000414FF00000A1F50021B6
:104630007047000090EA010F48BF81F0004100F18F
:10464000D482421A3CBF801A89184FEAD0524FF0E8
:104650007F4C1CEA410FA2EBD15318BF9CEA026FBA
:1046600000F03B804FF0004C4CEA00204CEA012166
:1046700021FA03FC10EB0C0C1ED202F1FF325FEAB0
:104680001C2040EBC25038BF70471CF07F0F4FEA30
:10469000400C18BFBCF17F4F38BF7047C3F12003F7
:1046A000994008BF20F00100BCF17F4F38BF704730
:1046B000A0F1C04000F051BA4FEA3C00000A40EBC4
:1046C000C25028BF1CF0FF0F4FEA400CE6D018BFC5
:1046D000BCF17F4F38BF7047EAE79CEA026F05D014
:1046E00010EA5C0F08BF00F00040704710B500F002
:1046F000EEF900BF64FBBE3E401058BFC0F1404021
:10470000491058BFC1F140418142EFF3008070472A
:104710004FF47F0C1CEAD0121EBF1CEAD11392EAA0
:104720000C0F93EA0C0F00F0858090EA010F48BF50
:1047300042F4807240F4000C41F400002CF07F4100
:1047400020F07F4000B58142A2EB03020FF2081C6B
:10475000ACEB504EC0F100009EF800E04FEA4E0E68
:1047600000FB0EFC38BF49004FEA2C1C02F5FA0290
:104770000CFB0EF34FEACE1E4FEA112C4FEAC1217B
:104780000EEB635E42EB22420EFB0CFC4FEA1C5325
:1047900000FB03114FEA112C4FEA01310EFB0CFC18
:1047A0004FEADC4C00FB0C11C14228BF09184CEB4E
:1047B00003335DF804EB10EB410143EBC250B2F55B
:1047C0007C0F38BF704729D512F0F00F1CBF00F1E5
:1047D000C04000F000407047008182838485868756
:1047E00088898B8C8D8E8F919293959697999A9CB0
:1047F0009D9FA0A2A3A5A7A8AAACAEB0B2B3B5B71F
:10480000B9BCBEC0C2C5C7C9CCCED1D4D7D9DCDFF4
:10481000E2E6E9ECF0F3F7FAFE0000004FEA400CA4
:104820000CF1807CBCF17E4F28BF7047B0F1C040D6
:1048300000F093B990EA010F0CEAD11348BF42F49B
:104840008072624538BF634507D213F47F0F16D0DC
:1048500080EA010000F00040704710B500F037F921
:10486000097EFC3E00F005B880EA010000F000403F
:10487000704780EA010000F0004000F06EB912F4C9
:104880007F0F04BF0248704780EA010000F065B95D
:104890000000C07F41000B0ED3F19E0208D950F4F6
:1048A00000034FEA032323FA02F048BF4042704757
:1048B00010B500F00CF900BF499224800020704729
:1048C0006FF0004282EA200070470000C10DD1F174
:1048D0009E0206DB4FEA002343F0004323FA02F076
:1048E0007047004207D54FEA4001B1F1FE4F02D2B6
:1048F0004FF00000704710B500F0E9F849922480AD
:10490000002070476FEA20007047000010F000415F
:1049100048BF4042B0FA80F310FA03F2C3F19D039E
:104920000BD051EAC35101EB1220530638BF704738
:1049300000F1010008BF20F001007047B0FA80F3D9
:1049400010FA03F2C3F19D030AD0D90501EB12203E
:10495000530638BF704700F1010008BF20F0010086
:104960007047000050EA010C00F113801CF5000FA5
:1049700058BFBCF5000F01D48842704707D710F527
:10498000000F58BF11F5000F15D4884270478942B7
:1049900070471CF5000F04D5BCF5000FF7D5814218
:1049A00070474FF0807C1CEB400F38BF1CEB410F71
:1049B00001D28142704710B500F089F89224490075
:1049C0004FF000504FF08051FFF796BE4FF47F0C30
:1049D0001CEAD0121EBF1CEAD11392EA0C0F93EA14
:1049E0000C0F00F0478090EA010F48BF42F480723C
:1049F0004FF0004C4CEA00204CEA012102EB03028C
:104A0000A0FB0113A2F50002002918BF43F0010327
:104A10005B0028BF4FEA330342EB22425FEA132CCC
:104A20004CEBC2502EBFBCEB436FB2F57C0F70470E
:104A30004FEA036CBCF1004F08BF20F00100B2F553
:104A40007C0F38BF70470BD582F0FF0212F5803F14
:104A5000C8BF704700F1C040D8BF00F000407047A9
:104A600000F5000C5FEA4C0C48BF7047B0F1C04045
:104A700000F073B890EA010F0CEAD11348BF42F47A
:104A80008072624538BF634504D280EA010000F0BD
:104A90000040704710B500F01AF800BF8900013ED1
:104AA00000F007B800F009B85FEA410C5FEA1C6C3F
:104AB00008D080EA010000F050B85FEA400C5FEADD
:104AC0001C6CF6D14FF00040A0F5800070470EF14D
:104AD000020E2EF0030E5EF8044B244204D44FEA7B
:104AE0004102B2F17F4F11D84FEA4003B3F17F4F3B
:104AF0000CD80ED14FEAD07CB2F17F4F0CEB4C0CAE
:104B00000CF1020C08BF4CEBD17C04E04FF0080C18
:104B100001E04FEAD17C0CEB4C0324FA03F404F0DF
:104B20000704B4F1040C06D20EEB840CBDE810406F
:104B30004CF0010C6047DFE80CF0070802024FF070
:104B40000040A0F5800010BD0846420018BFD2F119
:104B5000807288BF00F0004010BDFF2141EAD050B4
:104B6000C005704751EA000C00F113801CF5000FDE
:104B700058BFBCF5000F01D48142704707D711F52B
:104B8000000F58BF10F5000F15D4814270478942BD
:104B900070471CF5000F04D5BCF5000FF7D588420F
:104BA00070474FF0807C1CEB410F38BF1CEB400F6F
:104BB00001D28842704780EA010081EA000180EA60
:104BC0000100FFF7F8BE80F0004090EA010F7FF58A
:104BD00038AD81F0004100F008B8000090EA010F04
:104BE00048BF81F000413FF52CAD421A04D882F055
:104BF0000042A0EB020011444FEAD0524FF07F4C2C
:104C00001CEA410FA2EBD15318BF9CEA026F4AD0B5
:104C10004FF0004C4CEA00204CEA012121FA03FC41
:104C2000B0EB0C0C0FD412F0FE0F36D05FEA4C0044
:104C30001DD5001240EBC25038BF70471CF03F0F2B
:104C400018BF70470BE0A2F101025FEA1C2040EBA5
:104C5000C25038BF70471CF07F0F18BF7047C3F1B8
:104C60002003994014BF401E20F0010070478008C7
:104C70004FEA122308BF7047B0FA80FCA2EB0C0287
:104C8000CCF1280C60FA0CF093EA122F04BF00EB71
:104C9000C25070474FEAC3707047130A5FEADC10D6
:104CA00008BF7047F6E79CEA026F04D010EA5C0F79
:104CB00008BF0020704710B5FFF709FF40DFF63E40
:104CC00081F0004070470CF00F03092B08BF08204B
:104CD00000F059800A2B0BD0082B18BF704708BF73
:104CE0001CF0400F0AD04FF000004FF00001704759
:104CF0001CF0400F18BF4FF0004070471CF0100F21
:104D000008D020F0704300F07F4242EAD3014FEA1E
:104D10004370704700F0604021F07F4242EA000299
:104D200001F07F4040EA727070474FF0FF0C4CF486
:104D3000E06C1CEA11531CBF9CEA030C9445C2BFF3
:104D4000DA4201EB02517047002B0DD0BCF1000F8D
:104D50000FD0002A01F00041A4BF41F0E04141F032
:104D60007F614FF00000704701F000414FF00000FC
:104D7000704750EA01334FF09B0C18BF4CF0806C29
:104D80007EF4C4AF70471CF4801F11D01CF4E02FD8
:104D900003D06FEACC31490070474FF04050EFF339
:104DA000008222F0704242EA000282F300887047DB
:104DB0004FF00000704700000000000000000000FD
:104DC00000000000000000003F4000000000000064
:104DD00000003000400030004000000009000BC01F
:104DE0003D000BC03D00090018C024407FE0224078
:104DF00031800000180024C01B000D80324001806B
:104E000003801C4027401C800740004010006000C9
:104E100000000000000000000000000000001F80F3
:104E2000204040200000402020401F800000000063
:104E3000090006001F8006000900000004000400AD
:104E40003F8004000400000000100060000000002B
:104E5000000000000400040004000400040000003E
:104E6000000000400000000000000000002001C021
:104E700006003800400000001F80204020402040F5
:104E80001F800000000010403FC0004000000000F4
:104E900018C02140224024401840000010802040CB
:104EA000244024401B80000002000D0011003FC080
:104EB000014000003C802440244024402380000026
:104EC0001F80244024403440038000003000200034
:104ED00027C03800200000001B80244024402440CC
:104EE0001B8000001C0022C0224022401F800000C6
:104EF000000000000840000000000000000000006A
:104F00000460000000000000000004000A0011001E
:104F10002080404009000900090009000900000044
:104F200000004040208011000A000400180020000A
:104F300023402400180000001F8020402740294003
:104F40001F400000004007C039000F0001C00040B2
:104F500020403FC0244024401B8000001F80204090
:104F6000204020403080000020403FC020402040B2
:104F70001F80000020403FC024402E4030C0000071
:104F800020403FC024402E00300000000F00108061
:104F9000204022403380020020403FC00400040033
:104FA0003FC02040204020403FC020402040000023
:104FB0000060202020203FC02000200020403FC073
:104FC00024400B0030C0204020403FC02040004023
:104FD000004000C03FC03C0003C03C003FC0000098
:104FE00020403FC00C4023003FC020001F802040D5
:104FF000204020401F80000020403FC0244024006B
:10500000180000001F802140214020E01FA0000068
:1050100020403FC02440260019C0004018C0244052
:105020002440224031800000300020403FC020401A
:105030003000000020003F80004000403F80200002
:1050400020003E0001C0070038002000380007C0E3
:105050003C0007C038000000204039C0060039C0BD
:10506000204000002000384007C0384020000000E9
:10507000304021C02640384020C000000000000021
:105080007FE0402040200000000070000C00038002
:10509000004000000000402040207FE000000000B1
:1050A0000000200040002000000000000010001060
:1050B0000010001000100010000000004000000070
:1050C00000000000000002800540054003C00040D1
:1050D00020003FC004400440038000000000038023
:1050E00004400440064000000000038004402440C7
:1050F0003FC0004000000380054005400340000021
:10510000000004401FC0244024402000000002E0B2
:10511000055005500650042020403FC004400400C4
:1051200003C000400000044027C000400000000011
:1051300000100010041027E00000000020403FC0D5
:105140000140070004C00440204020403FC0004010
:105150000040000007C0040007C0040003C00000B6
:10516000044007C00440040003C000400000038066
:105170000440044003800000041007F00450044081
:1051800003800000000003800440045007F000107A
:10519000044007C002400400040000000000064074
:1051A0000540054004C00000000004001F800440CA
:1051B00000400000040007800040044007C0004099
:1051C0000400070004C0018006000400060001C0BE
:1051D000070001C006000000044006C0010006C030
:1051E000044000000410071004E0018006000400E1
:1051F0000000044005C0064004400000000000001C
:1052000004007BE040200000000000000000FFF0F0
:1052100000000000000040207BE0040000000000CF
:1052200040008000400020002000400000000000FE
:10523000000000000000000000000000000000006E
:1052400000001FCC000C000000000000000008005F
:10525000300060000800300060000000022003FC05
:105260001E20022003FC1E200220000000000E1859
:1052700011043FFF10840C78000000000F00108420
:105280000F3800C0077818840078000000780F8479
:1052900010C411240E9800E400840008080068007F
:1052A000700000000000000000000000000000008E
:1052B000000007E01818200440020000000040022F
:1052C0002004181807E0000000000000024002401F
:1052D00001800FF001800240024000000080008049
:1052E00000800FF800800080008000000001000DA9
:1052F000000E000000000000000000000000008020
:105300000080008000800080008000800000000C91
:10531000000C00000000000000000000000000067B
:10532000001800600180060018002000000007F04F
:10533000080810041004080807F000000000080422
:1053400008041FFC000400040000000000000E0C14
:1053500010141024104411840E0C000000000C18CE
:1053600010041104110412880C700000000000E009
:105370000320042408241FFC0024000000001F98C0
:10538000108411041104108810700000000007F050
:1053900008881104110418880070000000001C0027
:1053A000100010FC13001C001000000000000E385C
:1053B00011441084108411440E38000000000700CE
:1053C000088C10441044088807F00000000000001A
:1053D0000000030C030C00000000000000000000AF
:1053E0000001010600000000000000000000008035
:1053F00001400220041008081004000002200220CE
:1054000002200220022002200220000000001004DE
:1054100008080410022001400080000000000E0077
:105420001200100C106C10800F00000003E00C182C
:1054300013E4142417C4082807D000000004003C1B
:1054400003C41C40074000E4001C000410041FFCBF
:105450001104110411040E880070000003E00C1800
:1054600010041004100410081C10000010041FFC8D
:10547000100410041004080807F0000010041FFCBA
:105480001104110417C410040818000010041FFCB4
:105490001104110017C010000800000003E00C18F0
:1054A0001004100410441C780040000010041FFC7D
:1054B00010840080008010841FFC10040000100481
:1054C00010041FFC10041004000000000003000181
:1054D000100110011FFE10001000000010041FFC3E
:1054E000110403801464181C1004000010041FFC35
:1054F0001004000400040004000C000010041FFC51
:105500001F0000FC1F001FFC1004000010041FFC03
:105510000C04030000E010181FFC100007F008083E
:10552000100410041004080807F0000010041FFC09
:1055300010841080108010800F00000007F0081801
:1055400010241024101C080A07F2000010041FFC8D
:105550001104110011C011300E0C000400000E1CCB
:1055600011041084108410441C380000180010002E
:1055700010041FFC100410001800000010001FF899
:1055800010040004000410041FF8100010001E0096
:1055900011E0001C007013801C0010001FC0103CA4
:1055A00000E01F0000E0103C1FC000001004180CB9
:1055B000163401C001C01634180C100410001C0071
:1055C000130400FC13041C00100000000804101C4D
:1055D0001064108413041C04101800000000000064
:1055E00000007FFE40024002400200000000300048
:1055F0000C0003800060001C00030000000040025B
:10560000400240027FFE0000000000000000000099
:105610002000400040004000200000000001000188
:105620000001000100010001000100010000400034
:105630004000200000000000000000000000009872
:10564000012401440144014400FC000410001FFC3B
:105650000088010401040088007000000000007050
:1056600000880104010401040088000000000070AB
:1056700000880104010411081FFC0004000000F868
:10568000014401440144014400C800000000010439
:1056900001040FFC1104110411001800000000D6D1
:1056A00001290129012901C90106000010041FFC7C
:1056B000008401000100010400FC0004000001045A
:1056C000190419FC0004000400000000000000039D
:1056D00000010101190119FE0000000010041FFC67
:1056E0000024004001B4010C01040000000010047B
:1056F00010041FFC0004000400000000010401FC71
:105700000104010001FC0104010000FC010401FC92
:10571000008401000100010400FC0004000000F806
:10572000010401040104010400F80000010101FF6B
:105730000085010401040088007000000000007072
:10574000008801040104010501FF000101040104B6
:1057500001FC00840104010001800000000000CC75
:10576000012401240124012401980000000001000B
:10577000010007F80104010400000000010001F825
:10578000000400040004010801FC00040100018081
:105790000170000C001001600180010001F0010C9B
:1057A000003001C00030010C01F0010000000104D4
:1057B000018C00740170018C010400000101018161
:1057C0000171000E001801600180010000000184D9
:1057D000010C013401440184010C000000000000B0
:1057E0000000000001003EFC4002400200000000FA
:1057F00000000000FFFF0000000000000000400269
:1058000040023EFC010000000000000000006000BB
:1058100080008000400040002000200002000000C6
:105820000000000042000000000000003300000003
:10583000FC00000000000000080000000000000064
:10584000110000007F000000FE0000004100000089
:10585000000000004900000078000000490000003E
:10586000480000007F0000004800000049000000E0
:1058700048000000490000007A00000041000000DC
:10588000010000007F000000FE000000000000009A
:1058900000000000000000000000000020000000E8
:1058A00000000000220000000000000022000000B4
:1058B000000000002200000000000000FA000000CC
:1058C0000000000022000000000000002300000093
:1058D000FF00000022000000000000002200000085
:1058E000000000002200000010000000FA0000008C
:1058F000080000002200000010000000230000004B
:10590000E000000020000000000000002000000077
:105910000000000000000000000000000000000087
:105920000100000000000000060000001F00000051
:10593000F80000001100000000000000110000004D
:105940000800000011000000040000001100000029
:10595000F80000001000000001000000100000002E
:1059600002000000FF0000008400000010000000A2
:1059700068000000900000001800000050000000C7
:10598000640000001300000082000000100000000E
:105990001F000000000000000000000010000000D8
:1059A00008000000100000000C00000010000000C3
:1059B000080000001F000000F800000010000000B8
:1059C0001000000010000000110000001000000096
:1059D00012000000080000000C0000000800000099
:1059E00070000000FF0000008000000008000000C0
:1059F0000200000008000000010000000800000094
:105A0000020000000F000000FC0000000000000089
:105A1000000000000000000000000000080000007E
:105A200040000000080000004200000008000000E4
:105A300081000000FF000000FE00000009000000DF
:105A40000000000004000000000000001900000039
:105A50000100000011000000210000001100000002
:105A6000D200000097000000140000007100000048
:105A700008000000110000001400000011000000E8
:105A8000E200000015000000010000001900000005
:105A900000000000000000000000000040000000C6
:105AA0000000000040000000000000004000000076
:105AB0000000000040000000000000004000000066
:105AC0000000000040000000000000007F00000017
:105AD000FF00000040000000000000004000000047
