:020000040800F2
:10000000180B002095010008990100089B010008C9
:100010009D0100089F010008A101000800000000E8
:10002000000000000000000000000000A301000824
:10003000A501000800000000A7010008A9010008B0
:10004000AB010008AB010008AB010008AB010008E0
:10005000AB010008AB010008AB010008AB010008D0
:10006000AB010008AB010008AB010008AB010008C0
:10007000AB010008AB010008AB010008AB010008B0
:10008000AB010008AB010008AB010008AB010008A0
:10009000AB010008AB010008AB01000889130008A0
:1000A000AB010008B7170008AB010008AB0100085E
:1000B00015130008AB010008FD120008AB01000891
:1000C000AB010008AB010008AB010008AB01000860
:1000D000AB010008AB010008AB010008AB01000850
:1000E000E3130008AB010008AB01000800F002F8C0
:1000F00000F03AF80AA090E8000C82448344AAF188
:100100000107DA4501D100F02FF8AFF2090EBAE885
:100110000F0013F0010F18BFFB1A43F0010318473B
:100120002C3900004C390000103A24BF78C878C13F
:10013000FAD8520724BF30C830C144BF04680C60ED
:10014000704700000023002400250026103A28BF35
:1001500078C1FBD8520728BF30C148BF0B60704739
:100160001FB51FBD10B510BD01F005FF1146FFF70B
:10017000F7FF00F02BF801F023FF03B4FFF7F2FFC5
:1001800003BC00F017FA000030BF72B662B680F30D
:100190000888704708480047FEE7FEE7FEE7FEE7ED
:1001A000FEE7FEE7FEE7FEE7FEE7FEE70348044959
:1001B000044A054B70470000ED00000818050020B8
:1001C000180B00201807002018070020092000F055
:1001D00098F9482000F038F8022000F07DF901205D
:1001E00000F07AF94FF47A7000F066F84FF47A7004
:1001F00000F062F800F05CFA01F0A2F800F0ADFC4B
:100200004FF4FA31482000F0EFF9002141F61F4089
:1002100000F02CFF00F0E0FF00F0DFFD41F61F4191
:10022000312000F0E3FE0BE001F0B4FD01200549B0
:10023000087001F06BFB00BF024800780028FBD17A
:10024000F2E70000020000204FF0E021096921F0F0
:1002500004014FF0E0221161C21700EB5272C2F3A9
:10026000C702234B1A701946097801EB4102C2EB11
:10027000C1114FF6FF7202EAC1011E4A1180704798
:1002800001461B4A12784A434FF0E0235A6100228C
:100290009A6101221A6100BF4FF0E022106900F05C
:1002A00001021AB100F48032002AF5D000224FF08A
:1002B000E0231A619A61704701460E4A12884A4348
:1002C0004FF0E0235A6100229A6101221A6100BFB7
:1002D0004FF0E022106900F001021AB100F4803200
:1002E000002AF5D000224FF0E0231A619A6170478E
:1002F0003C0000203E000020A34A0A400243A34BDA
:100300001A6070470146072323EA010212029F4B3D
:100310001B1D18684FF6FF0318409D4B18431043F0
:100320009A4B1B1D186070472DE9F041074688461F
:1003300014461D462846FFF7E5FFC5F1040007FAFD
:1003400000F60F20284100EA0800064306F00F06D9
:10035000E21704EBD2625211920002F1E022D2F8CD
:1003600000212146E31704EBD3635B11A4EB431C8C
:10037000012303FA0CF31A432046E31704EBD3637B
:100380005B119B0003F1E023C3F800218148005D6D
:1003900040EA06107F490855BDE8F08170B5044673
:1003A0000B46CE1701EB9676C6F38700CE1701EB0E
:1003B0009676B610A1EB8606B606350E764B9B698F
:1003C00043F00103744EB3614FEAB63353F8203063
:1003D0000F26AE40B343714E46F82030334653F8F3
:1003E000203004FA05F61E436C4B43F820606C4B3A
:1003F0001B6801268E403343694E336002F00103CF
:1004000043B1674B0C331B6801268E403343644E67
:100410000C36336002F0020343B1614B08331E68AF
:1004200001238B401E435E4B08331E6070BD00B538
:10043000002059490861C860142048610020886183
:10044000C8610846006840F001000860084640683E
:1004500054490840504948600846006852490840DD
:100460004D4908600846006820F48020086008466E
:10047000406820F4FE0048600020886000214FF0B2
:100480000060FFF739FF00BD10B540480830006834
:1004900040F004003D49083108603F48C06940F021
:1004A00080503D49C8614148406840F480703F49F0
:1004B00048600846006840F004000860084600688C
:1004C00040F002000860FFF75FFE10BD3048001DDD
:1004D0002E49091D08607047014649062E4A926957
:1004E00042F001022C4B9A612C4A083A526822F0E1
:1004F000E0622A4B083B5A601A4652680A435A6027
:10050000704730B504460025FFF791FF2248006888
:1005100040F480302049086000BF1F480068400C4C
:100520000028FAD04FF480601B494860A01EC4B276
:100530000846406840EA844048600846406840F405
:10054000803048601A48006840F03200184908605E
:100550001148006840F080700F49086000BF0E48E5
:100560000068400E0028FAD00B48406840F00200B6
:100570000949486005E008484068C0F3870505F070
:100580000305022DF7D130BD80FFFF1F08ED00E00D
:100590000000FA0500E400E00010024008000140FD
:1005A000000401400000FFF8FFFFF6FE007000406D
:1005B00000200240014600BF704700BF384A128841
:1005C00002F04002002AF9D0C2B2354B1B1D1A803E
:1005D00070473349091D088000BF3149098801F07F
:1005E00040010029F9D070472DE9F05F05460E461D
:1005F000300102F033FB81462A4905FB01F002F08D
:100600002DFB8246494602F0DFF90746384602F0E4
:10061000EDFA84B2204602F021FB8346394602F00F
:1006200062FC82464FF0834102F060FB814602F09B
:10063000DDFA80464FF6FF7000EA041404EB080070
:1006400084B21948806940F004001749886108465F
:10065000806940F4804088611448006820F47F601D
:10066000124908600846006840F40B6008600E48B4
:10067000C06840F480400C49C8600846C06820F457
:100680008040C860064808300480001D008842F29F
:100690000C01084302490C310880BDE8F09F0000BE
:1006A0000038014040420F000010024004080140A1
:1006B0001748806940F004001549886115480068B2
:1006C00020F47020134908600846006840F4403068
:1006D000086010480C30006840F010000D490C31E3
:1006E0000860704718B900210B4A11600FE00B49F0
:1006F0000968491C094A1160814208D10649096804
:10070000C943074AC2F890110021044A116070479A
:1007100000100240000801409001214240000020EA
:10072000000021424948806940F00400474988613F
:100730004748006820F47F20454908600846006863
:1007400040F408200860081F0068424908404049FA
:10075000091F0860084600683F4908433C49091FD3
:1007600008603B480830006840F004003849083110
:1007700008600846006840F080000860084600688D
:1007800040F0200008600846006840F4C05008604F
:10079000704701463148006828B931480088401C3C
:1007A0002F4A108002E000202D4A10802B4800685C
:1007B00028B92C48007810B901202A4A10702A481C
:1007C0000078B0B927480078012807D12748007879
:1007D000401C264A10700120234A107023480078DC
:1007E000022806D10020214A1070214A10800220E0
:1007F00070471A480068012804D10020194A107077
:10080000194A10701948007801281CD1184800882E
:10081000401C174A10801046008888420ADD1048A4
:100820000088884206DA0020104A1070104A1080B2
:100830000120DDE70A480088884204DD00200B4AD9
:1008400010700B4A10800020D2E700000010024018
:1008500004080140FFF00F0F0008808008012142CA
:100860004A000020440000204500002046000020EF
:100870004800002010B50A461AB10123FE4C23603F
:1008800002E00023FC4C2360002114E00023FB4C19
:10089000236000F080031BB10123241F236003E0C9
:1008A0000023F64C241F23600123F44C23604306ED
:1008B000180E4B1CD9B20829E8DB0123EE4C23604B
:1008C00010BD30B500241CE004F1B001C8B2002115
:1008D000FFF7D0FF00210846FFF7CCFF00211020D2
:1008E000FFF7C8FF002508E0E54901EBC501085DF9
:1008F0000121FFF7BFFF681CC5B2802DF4DB601C2F
:10090000C4B2082CE0DB30BD00B500218D20FFF71C
:10091000B1FF00211420FFF7ADFF0021AF20FFF74A
:10092000A9FF00BD00B500218D20FFF7A3FF002126
:100930001020FFF79FFF0021AE20FFF79BFF00BDB7
:1009400030B500240CE0002506E00020CC4901EB86
:10095000C5010855681CC5B2802DF6DB601CC4B209
:10096000082CF0DBFFF7ADFF30BDF0B514460026D4
:100970007F2801DC3F2900DDF0BD0B46CF1701EBDE
:100980005777FF10C7F10707FAB2CF1701EB577778
:10099000FF10A1EBC707FDB2C5F107070123BB405C
:1009A000DEB24CB1B64B03EBC0039B5C3343B44F98
:1009B00007EBC007BB5408E0B14B03EBC0039B5CE3
:1009C000B343AF4F07EBC007BB5400BFD4E72DE9DB
:1009D000F04F80460C4615461E46A346A5F1200062
:1009E000C5B200273EE00C2E07D105EB4500A54916
:1009F00001EB800010F8079004E0A34800EB05101D
:100A000010F807904FF0000A26E009F0800028B1A6
:100A100021464046099AFFF7A8FF09E0099808B95E
:100A2000012000E00020024621464046FFF79DFFDE
:100A30004FEA49604FEA1069601CC4B2A4EB0B0096
:100A4000B04205D15C4608F1010000F0FF0806E065
:100A50000AF1010000F0FF0ABAF1080FD5DB00BF70
:100A6000781CC7B2B742BEDBBDE8F08F10B50246B6
:100A7000012000E050430B1EA1F10104E1B2F9D1C5
:100A800010BD2DE9FF4F81B0074691461E460E9DD1
:100A90004FF0000A002439E0301B401EC1B20A208A
:100AA000FFF7E4FFB9FBF0F00A21B0FBF1F201FB24
:100AB0001208BAF1000F16D1701EA04213DDB8F172
:100AC000000F0ED10120AB4605EBDB71491001FB95
:100AD00004710090C8B22B4620220299FFF777FFDD
:100AE00012E04FF0010A0120AB4605EBDB71491023
:100AF00001FB04710090C8B208F13001CAB22B4664
:100B00000299FFF764FF00BF601CC4B2B442C3DBAC
:100B100005B0BDE8F08F78B505460E46144618E0DE
:100B20007A2D03DD002506F11000C6B23A2E04DD51
:100B3000002005460646FFF703FF012000902278BB
:100B40000C2331462846FFF742FF05F10800C5B2E5
:100B5000641C20780028E3D178BD10B54B4880692B
:100B600040F00800494988614948006849490840FF
:100B700047490860084600684749084344490860F7
:100B80004248806940F00400404988614348006859
:100B900020F07040414908600846006840F000506D
:100BA000086000203549083908606420FFF784FB9D
:100BB00001203B49C1F88C010021AE20FFF75AFE0D
:100BC0000021D520FFF756FE00215020FFF752FEEE
:100BD0000021A820FFF74EFE00213F20FFF74AFE2C
:100BE0000021D320FFF746FE00210846FFF742FE12
:100BF00000214020FFF73EFE00218D20FFF73AFE46
:100C000000211420FFF736FE00212020FFF732FEDE
:100C100000210220FFF72EFE0021A120FFF72AFE6F
:100C20000021C020FFF726FE0021DA20FFF722FE78
:100C300000211220FFF71EFE00218120FFF71AFE7F
:100C40000021EF20FFF716FE0021D920FFF712FE4A
:100C50000021F120FFF70EFE0021DB20FFF70AFE46
:100C600000213020FFF706FE0021A420FFF702FE3E
:100C70000021A62016E00000BC01214294812142FF
:100C800088000020E62F00085A34000800100240B7
:100C9000000C0140FF0F00FF00202200040801406B
:100CA00000802142FFF7E6FD0021AF20FFF7E2FDC3
:100CB000FFF746FE10BD000010B5C348806940F044
:100CC0000400C1498861C148006820F47040BF49F0
:100CD0000860BD48806940F40070BB4988610846DF
:100CE000C06840F40070C8600846C06820F4007016
:100CF000C8600846406820F44040486008464068A4
:100D000040F400404860B2480068B2490840B04929
:100D100008600846006808600846006820F4807093
:100D20000860081D006820F00200091D08600846E0
:100D3000006820F4602008600846006840F46020E5
:100D400008600846006840F48010086008460068A3
:100D500020F4006008609E482830006820F470008D
:100D60009B492831086008460068002008609848C0
:100D70000C30006820F4704095490C31086008463A
:100D8000006840F4606008609148001D006840F011
:100D900001008F49091D08600846006840F00800FE
:100DA000086000BF8A48001D006800F008000028A5
:100DB000F8D18748001D006840F004008449091DEF
:100DC000086000BF8248001D006800F00400002891
:100DD000F8D10120FFF770FA10BD10B57A4880698C
:100DE00040F00400784988617848006820F070601D
:100DF000764908607448806940F4007072498861DF
:100E00000846C06840F40070C8600846C06820F416
:100E10000070C8600846406820F4404048600846BA
:100E2000406840F4004048606948006869490840EB
:100E3000674908600846006808600846006820F4B2
:100E400080700860081D006820F00200091D08601D
:100E50000846006820F4602008600846006840F4F6
:100E6000602008600846006840F48010086008466A
:100E7000006820F40060086055482830006820F4BD
:100E80007000534928310860084600680020086057
:100E90004F480C30006820F070604D490C310860FC
:100EA0000846006840F4E01008604948001D0068EA
:100EB00040F001004649091D08600846006840F0FE
:100EC0000800086000BF4248001D006800F00800EC
:100ED0000028F8D13E48001D006840F004003C495D
:100EE000091D086000BF3A48001D006800F00400BA
:100EF0000028F8D1FFF7E0FE10BD0146344830303D
:100F0000006820F01F00324A30321060104600683E
:100F1000084310602E48001D006840F480002C4AF1
:100F2000121D106000BF2A48001F006800F0020078
:100F30000028F8D026484830006880B270472DE974
:100F4000F04F87B00620FFF7D8FF019001F0A7FA15
:100F500080464FF06632204B01F0B4FA00221F4B5E
:100F6000CDE9020101F0AEFA00221D4BCDE90401EA
:100F700001F0A8FA064600221A4B01F009F90446CE
:100F80000022194B01F004F9824601F059FA06904B
:100F9000069807B0BDE8F08F2DE9F04107460C46F2
:100FA0000025002608E03846FFF7A7FF0544C820C3
:100FB000FFF766F9701CC6B2A642F4DBB5FBF4F08D
:100FC00080B2BDE8F081000000100240000801403E
:100FD00004240140FFFFF00066660A40000026403E
:100FE000000059400000F03F0000B04070B50546D9
:100FF0000C461348806940F400601149886111482B
:101000000580001F04800F482038008840F0010050
:101010000C49203908800846008840F040000880CC
:1010200008482C38008840F0010006492C39088017
:101030000223192201210846FFF776F970BD00004E
:10104000001002402C2C01402F48806940F008001D
:101050002D4988612D48006880B22C4908600846F7
:1010600000682B49084329490860704700B50346CA
:101070000A46FFF7E9FF2448C06940F00200224910
:10108000C8610846806940F0080088611F48001F59
:10109000006820F0FF001D49091F0860084600682D
:1010A00040F0BB0008601B480380001F0280194805
:1010B0001038008840F4C0401649103908800846AE
:1010C000008840F0600008800846008840F4006016
:1010D00008800846008840F008000880081D008845
:1010E00040F48050091D08800846008840F4807054
:1010F0000880802007492C3908800846008840F085
:101100000100088000BD000000100240040C0140F6
:10111000000022222C04004010B58448C06940F031
:1011200001008249C8610846806940F00400886176
:101130007F48006820F0FF007D490860084600688D
:1011400040F044000860C804808940F00100C904F0
:1011500088810846808940F04000888101231C2254
:1011600003211846FFF7E0F800204FF08041088582
:101170004FF6FF7088850846008820F4407008808C
:101180000846008820F0600008800846008B40F088
:10119000010008830846008B40F4807008830846ED
:1011A000008C20F0020008840846008C20F020000B
:1011B00008840846008B40F0300008830846008908
:1011C00040F00300088142F2107088848006008895
:1011D00040F00100088010BD10B55448C06940F0CF
:1011E00004005249C8610846806940F008008861DF
:1011F0005048006820F07F404E490860084600686B
:1012000040F0884008604C48008840F001004A499E
:1012100008800846008840F04000088001231E2214
:1012200003211846FFF780F8002043491C3108804D
:101230004FF6FF70091D08803F480C38008820F4E5
:1012400040703D490C3908800846008820F0600055
:10125000088039480C30008840F0010036490C31D4
:1012600008800846008840F48070088032481430B6
:10127000008820F0020030491431088008460088B8
:1012800020F0200008802C480C30008840F030000E
:1012900029490C3108802848001F008840F00300CD
:1012A0002549091F088042F210702349183108802F
:1012B00021480C38008840F001001F490C39088093
:1012C00010BD0146022904D0032907D0042911D1F9
:1012D0000BE04FF08042928C10B20DE0174A12885A
:1012E00010B20022154B1A8006E0134A18321288F9
:1012F00010B201E0002000BF00BF70470E48001D83
:1013000000880D48001D008820F001000A49091DD1
:10131000088070474FF08040008A4FF08040008A7C
:1013200020F001004FF08041088270470010024019
:1013300000080140000C01400C080040240400405B
:1013400010B5FFF7EFF9012207210020FFF726F87B
:10135000012205210020FFF721F801220B210020A6
:10136000FFF71CF801220C210020FFF717F80223D9
:10137000172219461846FEF7D7FF022328221946DE
:101380001846FEF7D1FF10BD70B50520FEF794FF9B
:101390006D48006838B96D48007808B9012000E050
:1013A00000206A49087068480830006898B96848A1
:1013B0004FF07E510568006801F098FA64492C46A8
:1013C00008604FF08141204601F0C0FB03D14FF08F
:1013D0007E505F49086020205E49086080200860D8
:1013E00070BD10B50520FEF767FF57481C30006838
:1013F00068BB4FF07E515648006801F0A7FB08D14A
:10140000554801685548006801F078FD5349086067
:101410002DE04FF080414E48006801F097FB08D165
:101420004F4801684F48006801F068FD4D49086069
:101430001DE04D494648006801F088FB08D14B4843
:1014400001684B48006801F059FD494908600EE009
:101450004FF081413E48006801F078FB07D14548D4
:1014600001684548006801F049FD43490860364875
:101470001830006868BB4FF07E513548006801F0B5
:1014800065FB08D1344801683448006801F02EFA41
:10149000324908602DE04FF080412D48006801F08E
:1014A00055FB08D12E4801682E48006801F01EFA4D
:1014B0002C4908601DE02C492548006801F046FBD6
:1014C00008D12A4801682A48006801F00FFA284923
:1014D00008600EE04FF081411D48006801F036FBC6
:1014E00007D1244801682448006801F0FFF9224927
:1014F000086000211948006801F0C4FB02D80020F0
:101500001649086000211748006801F0BBFB02D8AB
:1015100000201449086000211548006801F0B2FB62
:1015200002D800201249086000211348006801F029
:10153000A9FB02D80020104908604FF4006005495B
:1015400008604000086010BD140121420000002026
:1015500028000020140401402C0000201800002066
:10156000300000201C00002000004040340000201B
:1015700020000020380000202400002010B54FF487
:1015800082646420FFF705F9BD49086008460068D9
:10159000012801D1BB490860B9480068022801D17F
:1015A000B8490860B7480068012812D1B6480068F9
:1015B000001DB5490860B5480068001DB3490860C2
:1015C00008460068A04204D10020AE490860AF4937
:1015D0000860AC480068022812D1AB480068001FC0
:1015E000A9490860A9480068001DA8490860084684
:1015F0000068A04204D10020A2490860A349086005
:1016000010BD0146002901DA484200E00846704753
:1016100000B50246002A07DD01209D490860002030
:101620009C49C1F8B40106E00020994908600120F6
:101630009849C1F8B4011046FFF7E3FF96490880C6
:1016400000BD70B505469548007801280AD1934938
:101650000870012400208E49083108608D49C1F8C6
:10166000BC0100E000248E498E48006801F00AFBAE
:1016700008D38D498B48006801F004FC02D3B5F50E
:101680002F7F02DA012085490870204670BD41F69F
:10169000F420864909684242914202DA4142834A73
:1016A000116082490968814201DD80490860704704
:1016B0002DE9FC47824674490968AAEB010001F054
:1016C000B5FA7B4908607B48006801F0E3F80446FE
:1016D000794A7A4B00F0F6FE064600F07FFC754929
:1016E00008607348006801F0D5F80646724A744BEA
:1016F00000F0E8FE04460D466E48006801F0CAF8A6
:10170000804622462B4600F09BFCCDE9000100F00C
:1017100065FC684908606B4801686648006801F02C
:10172000EDFB6949086063480068664908606748DE
:1017300001686548006801F0D9FA04466448016808
:101740005C48006801F0D2FA0546214601F0CEF867
:10175000604908600846006801F02CFABDE8FC8783
:101760002DE9F04705465C49284601F0C7FB0446D1
:101770005A480168204601F0C1FB594908605948A0
:1017800001685748006801F0B1FA8246564800687F
:1017900080F000492146484601F0A8FA80465146AB
:1017A00001F0ACFB074601F005FA06464B48046021
:1017B0003046BDE8F08710B54C48008800F00100C5
:1017C00000285BD04948008820F001004749088084
:1017D0004748007801280BD146480078401CC0B229
:1017E000444908700A2803D1002008704049087055
:1017F0000420FFF766FD404908600F210320FFF732
:10180000CBFB044601F02AFA264908600846006826
:10181000FFF7A6FF3949086039480078401CC0B27C
:1018200037490870042808DD33480068FFF740FF97
:101830003449086000203249087030480068314956
:101840000968401A19490860FFF721FF2E4800680F
:10185000FFF7F7FE1148007820B914480068FFF739
:10186000D7FE02E00020FFF7D3FE6420FEF73AFF28
:10187000FFF765FB24490860FFF780FE002010BDDC
:101880007400002078000020080000207C00002068
:10189000B08121420080214240040040000000202D
:1018A00000005C43140000200080E3440C00002092
:1018B00070000020680000209A9999999999E93F51
:1018C0009999C93F640000206C000020240000208A
:1018D000200000206000002000007F44580000200D
:1018E0005C0000201C00002018000020102C01408B
:1018F0000200002001000020040000204C00002015
:1019000055000020500000201000002038B5FEA235
:1019100000210846FFF7FFF8FD48006801F066F96E
:1019200004460C2003232246002100902820FFF7C4
:10193000A8F8F8A200213920FFF7EDF8F649F4489D
:10194000006801F0D3F9054601F034F90A2190FB53
:10195000F1F201FB12040C20012322460021009029
:101960003D20FFF78EF8EDA200215F20FFF7D3F8AE
:10197000EB48006801F03AF904460C2002232246A5
:10198000002100906C20FFF77CF8E6A20A210020DD
:10199000FFF7C1F8E548006801F028F904460C207B
:1019A000032322460A2100902820FFF76AF8D9A2D3
:1019B0000A213920FFF7AFF8D749DC48006801F069
:1019C00095F9054601F0F6F80A2190FBF1F201FBCA
:1019D00012040C200123224600903D20FFF751F80D
:1019E000CEA20A215F20FFF796F8D148006801F0E7
:1019F000FDF804460C20022322460A2100906C20A8
:101A0000FFF73FF8CBA214210020FFF784F8CB4862
:101A1000006801F0EBF804460C2003232246142151
:101A200000902820FFF72DF8BAA214213920FFF7E3
:101A300072F8B949C148006801F058F9054601F04B
:101A4000B9F80A2190FBF1F201FB12040C200123EA
:101A50002246142100903D20FFF713F8AFA2142175
:101A60005F20FFF758F8B648006801F0BFF8044659
:101A70000C2002232246142100906C20FFF701F86D
:101A8000B0A21E210020FFF746F8B048006801F020
:101A9000ADF804460C20032322461E210090282086
:101AA000FEF7EFFF9BA21E213920FFF734F89A4979
:101AB000A648006801F01AF9054601F07BF80A21F2
:101AC00090FBF1F201FB12040C20012322461E219F
:101AD00000903D20FEF7D5FF90A21E215F20FFF76A
:101AE0001AF89B48006801F081F804460C20022394
:101AF00022461E2100906C20FEF7C3FF4FF07E515E
:101B00009448006801F022F820D101200C235922CA
:101B1000002100904B20FEF75AFF01200C234E229B
:101B20000A2100904B20FEF752FF01200C234E2289
:101B3000142100904B20FEF74AFF01200C234E2277
:101B40001E2100904B20FEF742FF75E04FF08041D0
:101B50008048006800F0FAFF20D101200C234E22BB
:101B6000002100904B20FEF732FF01200C23592268
:101B70000A2100904B20FEF72AFF01200C234E2261
:101B8000142100904B20FEF722FF01200C234E224F
:101B90001E2100904B20FEF71AFF4DE06E496D4864
:101BA000006800F0D3FF20D101200C234E22002139
:101BB00000904B20FEF70BFF01200C234E220A2140
:101BC00000904B20FEF703FF01200C235922142123
:101BD00000904B20FEF7FBFE01200C234E221E211D
:101BE00000904B20FEF7F3FE26E04FF0814159486C
:101BF000006800F0ABFF1FD101200C234E22002112
:101C000000904B20FEF7E3FE01200C234E220A2118
:101C100000904B20FEF7DBFE01200C234E22142106
:101C200000904B20FEF7D3FE01200C2359221E21E9
:101C300000904B20FEF7CBFE48A228215020FEF753
:101C40006AFF0C20052300904548282102685F2088
:101C5000FEF717FF43A228210020FEF75CFF2DA20C
:101C600028212920FEF757FF40A228213F20FEF718
:101C700052FF3F480068642190FBF1F40C200223DE
:101C80002246282100901C20FEF7FBFE3848006801
:101C9000642190FBF1F201FB12040C200223224686
:101CA000282100903320FEF7ECFE314800686421C3
:101CB00090FBF1F201FB12000A2807DA0C20022344
:101CC0000022282100902D20FEF7DBFE29A23221E0
:101CD0005020FEF720FF0C200523009026483221DB
:101CE00002685F20FEF7CDFE24A232210020FEF71D
:101CF00012FF2448006800F079FF04460C200423FA
:101D00002246322100903FE0422D4B50000000005F
:101D1000180000202E00000000002041413A000081
:101D20002C000020422D4B44000000001C0000202D
:101D300030000020502D4B500000000020000020FB
:101D400034000020502D4B440000000024000020EF
:101D5000380000202800002000004040543A0000D5
:101D600008000020564F4C3A0000000056000000CA
:101D700010000020503A0000040000204144433A83
:101D800000000000140000201E20FEF77AFEFEF77F
:101D900098FD38BD10B501211948006800F04AF8D7
:101DA0001848006800F042FF0446022100F042F8A3
:101DB0000321002000F03EF8032000F08AF81249C9
:101DC000087000201149087012E000BF1048008818
:101DD00000F040000028F9D00E480C490978405C1A
:101DE0000B49091D088009480078401C0749087004
:101DF00006480078044909788842E6DB10BD0000F7
:101E00001400002004000020820000208000002038
:101E1000003801408804002030B503461C788C54FB
:101E20005D78541C0D559D78941C0D55DD78D41C9F
:101E30000D5530BD13B50C460A2C00DC04B91CBD91
:101E40000B2C43D2DFE804F042060C12181E242AA1
:101E500030363C00012244496846FFF7DDFF35E09B
:101E6000052241496846FFF7D7FF2FE009223E4986
:101E70006846FFF7D1FF29E00D223B496846FFF78E
:101E8000CBFF23E0112238496846FFF7C5FF1DE06C
:101E9000152235496846FFF7BFFF17E0192232497E
:101EA0006846FFF7B9FF11E01D222F496846FFF78A
:101EB000B3FF0BE021222C496846FFF7ADFF05E098
:101EC000252229496846FFF7A7FF00BF00BF00BFD2
:101ED000B5E701460A2900DC09B900207047242033
:101EE000214A10700B293CD2DFE801F03B060B10B1
:101EF000151A1F24292F350005201B4A5071062072
:101F0000ECE70920184A50720A20E7E70D20164A2C
:101F100050730E20E2E71120134A50741220DDE7BF
:101F20001520114A50751620D8E719200E4A507610
:101F30001A20D3E71D200C4A50771E20CEE721201F
:101F4000094A82F821002220C8E72520064A82F8A3
:101F500025002620C2E72920034A82F829002A20EA
:101F6000BCE70020BAE700008804002070477047F3
:101F7000704770477047754600F02CF8AE46050074
:101F80006946534620F00700854618B020B5FEF795
:101F90000DF9BDE820404FF000064FF000074FF06C
:101FA00000084FF0000B21F00701AC46ACE8C00977
:101FB000ACE8C009ACE8C009ACE8C0098D46704780
:101FC00010B50446AFF300802046BDE81040FEF790
:101FD000D4B8000000487047B404002021F000424B
:101FE000A2F16052B2F5801F01F0004328BFD2F188
:101FF0007F6C0BD95FEA001C43EAC20242EB5070CF
:1020000018BF704728BF20F001007047B2F5801F4D
:10201000BCBF184670474FEA410C1CF5001F02D2A6
:10202000084600F02ABF70B500F0F6FA00000089FB
:10203000FFF7F6BF4FF00040A0F5800070470000AA
:1020400010B591EA030F48BF83F0004300F14083CD
:10205000841A71EB030C05D2121943EB0C03001B1D
:1020600061EB0C01DFF824E14FEA1154A4EB135C9F
:102070001EEA430F18BF9EEA445F73D023EA0E03A3
:10208000DCF1200E21EA045143F4801332D322FA0A
:102090000CFE10EB0E0023FA0CFE41EB0E01CCF10E
:1020A000200E03FA0EFE10EB0E0051F10001B1F507
:1020B000801FCCF1200E32D201EB045112FA0EF245
:1020C000BDE8104058BF7047401C38BF5FEA42026D
:1020D00018BF7047002814BF20F0010041F1000133
:1020E0004FEA410313F5001F38BF7047A1F1C0410B
:1020F00000F0E0BA012A43EB0302ACF1200CDCF162
:102100001F0E32BF4FF0000E23FA0CF310EB03004A
:1021100041EB0451B4EB115FD0D0A1EB045101F5B8
:10212000801149085FEA300001EB04510ED350F1F1
:10213000000038BF12FA0EFE08D1BDE81040C9E712
:10214000401C38BF5FEA4202CAD1C3E7BDE8104075
:102150004FEA410313F5001F38BF7047A1F1C0419A
:1021600000F0A8BA9EEA445F08D011EA5E0FBDE80D
:10217000104004BF01F0004100207047BDE810404E
:1021800070B500F049FA00BF64FBBE3E0000E0FFFE
:102190002DE9C04130B4DFF8A0C23CEA111418BFE9
:1021A0003CEA131400F0EC8081EA03051CEA1114E8
:1021B00044EAD57418BF1CEA131500F0C780A4EBDD
:1021C00005044FF0004545EAC12145EAC32341EA31
:1021D000505143EA525304F17F74994204F500349C
:1021E0004FEAC0204FEAC22208BF904200F09C8014
:1021F0004FEA13650FF24016765D4FEA134506FB72
:1022000005F7C7F1807706FB07F74FEAD737A7FB3B
:1022100003687642C8F58038A7FB06CE38BFA8F120
:10222000010807FB08E64FF0000EA6FB028CE6FB58
:1022300003CEDCF1000CCEF1004E38BFAEF1010E42
:10224000A6FB0C584FF000074FF00005E6FB0E8789
:10225000A1FB08C6A0FB07CE16EB0E0645F1000554
:10226000E1FB076515F1E04E7EBFA4F580345FEA1F
:1022700046066D4116F1800745F100054FEA172724
:102280004FEA066647EA0567A6F1DE46B6F1805FCB
:102290004FEA15251FD9384624F0010C05EBC4710F
:1022A000BCF1FE6F01EB0C1102D8F0BCBDE800815F
:1022B00024425CBF01F5801E9EEAC47F02D4F0BCBC
:1022C000BDE80081244238D4F0BCA1F1C041BDE892
:1022D000004100F0EFB94FEAD22242EA43524FEAFE
:1022E000D323A7FB02864FEAD02040EA415007FBE8
:1022F00003661EEA0E0F4FEAD12105FB026658BFA6
:10230000A6EB0056B6EB00564FEA520E4EEAC37EDD
:1023100018EB0E0E56EB530EBDD518EB02085E41BE
:102320007F1C55F10005B6E74FF480154FF000070C
:102330004FF000064FF00008ADE7F0BC4FF0000092
:1023400001F1C04101F00041BDE8008111EA0C1F1C
:102350000CEA131500D00CE013EA0C1F00F02580E6
:102360004FF00000F0BC81EA030101F00041BDE83C
:102370000081F0BCBDE8004181EA030100F09AB998
:10238000F0BCBDE8004170B500F046F9097EFC3EA6
:1023900000F007B881EA03014FF0000001F00041AE
:1023A000704781EA030100F085B9F0BCBDE8004147
:1023B0004FF0000021497047FFFDFBF9F7F5F4F2FB
:1023C000F0EEEDEBE9E8E6E4E3E1E0DEDDDBDAD8D0
:1023D000D7D5D4D3D1D0CFCDCCCBCAC8C7C6C5C42E
:1023E000C2C1C0BFBEBDBCBBBAB9B8B7B6B5B4B345
:1023F000B2B1B0AFAEADACABAAA9A8A8A7A6A5A430
:10240000A3A3A2A1A09F9F9E9D9C9C9B9A999998F3
:102410009797969595949393929191908F8F8E8E96
:102420008D8C8C8B8B8A8989888887878685858423
:1024300084838382828181800000FF070000F87F0F
:102440004FEA41034FEA5353A3F58063D3F11E03D0
:10245000C8BFD3F1210C0CDD4FF0004242EAC1228B
:1024600042EA505232FA03FC8CEAE17CACEBE170B8
:102470007047102BC4BF0020704703F5787CBCF177
:10248000FF3F04D06FF0004282EA2100704770B530
:1024900000F0C2F84992248000207047F2E7B0FAB9
:1024A00080F310FA03F10AD0C3F11D0303F5806332
:1024B0004FEA41504FEA035202EBD12170474FF0EF
:1024C00000007047DFF848C170B51CEA111E1EBF3E
:1024D0001CEA13159EEA0C0F95EA0C0F00F06F80B2
:1024E00081EA030423EA4C134EEAD47E21EA4C111C
:1024F00041F4801143F48013AE44A1FB024CA0FBD5
:102500000365AEF17F7E361955EB0C05A1FB034C3C
:102510004CF10003A0FB021C16EB0C06654153F1C5
:102520000003094218BF46F0010613F4007F0BD1E7
:102530004FEA03314FEA0530340341EA155140EACE
:1025400016506FF003020AE04FEAC3214FEAC5209C
:10255000F40241EA555140EA56506FF0020202EB94
:102560002E4201EB025585EACE710AD05FEA440C97
:1025700018BF24F0004450F1000041F1000120EAAE
:10258000D47040F2FE7C624500D270BDA84214BFF8
:102590004FF080444FF04044002E08BF0024BEF1AD
:1025A000806FA8BFA1F1C041BDE8704080F2828079
:1025B0004FF0000001F1C04101F0004170479EEA78
:1025C0000C0F0CEA131518BF95EA0C0F06D04FF04C
:1025D000000081EA030E0EF0004170BD00F01CF80F
:1025E0008900013E00F007B800F009B84FEA430C3B
:1025F0005FEA5C5C08D081EA030100F05BB84FEA57
:10260000410C5FEA5C5CF6D14FF000000149704775
:102610000000FF070000F87F0EF1020E2EF0030EFF
:102620005EF8046B364205D4012A43EB030515F529
:10263000001F12D8012841EB010C1CF5001F0CD81B
:102640000ED14FEAD17C15F5001F0CEB4C0C0CF1B0
:10265000020C08BF4CEBD37C04E04FF0080C01E007
:102660004FEAD37C0CEB4C0526FA05F606F007067C
:10267000B6F1040C06D20EEB860CBDE870404CF0AF
:10268000010C6047DFE80CF0090B02024FF000413B
:102690004FF00000A1F5002170BD19461046012839
:1026A00051EB010418BFD4F5001484BF002001F0E1
:1026B000004170BD0808A0F500114FEA31017047D4
:1026C00010B591EA030F48BF83F000433FF5C0AC5B
:1026D000841A71EB030C07D212198CF0004C43EBF7
:1026E0000C03001B61EB0C01DFF8A4E14FEA11546D
:1026F000A4EB135C1EEA430F18BF9EEA445F00F090
:10270000B08023EA6E03524221EA0451C3EB6E0308
:1027100038BF5B1EDCF1200E25D322FA0CFE10EB35
:102720000E0043FA0CFE41EB0E01CCF1200E03FA31
:102730000EFE10EB0E0051F10001CCF1200E29D459
:1027400012FA0EF201EB0451BDE8104058BF704779
:10275000401C1CBFB2F1004F704700280CBF491C41
:1027600020F00100704712EB020E43EB030218BF8A
:102770004FF0010E4EEA4202ACF1200CDCF11E0ECD
:1027800054D943FA0CFE10EB0E0051F1FF31CCF19D
:102790001E0ED5D50EF1010E12FA0EFE404141EB90
:1027A000010101EB445C5FEA5C5C10D910EBDE7068
:1027B00001EB045138BFBEF1004FBDE8104018BF17
:1027C000704700280CBF491C20F00100704730D230
:1027D0004FEAD42C11F5001124F400641BD0B1FA97
:1027E00081F20B3AA41AA41ED2F12003914030FAD0
:1027F00003F31943904001EBCC71002C01EB045121
:10280000BDE81040A8BF704701F1C0414FF0000083
:1028100001F000417047B0FA80F310FA03F100D1E3
:1028200010BDE41A173C4805C90AE4E701EB04515E
:1028300010BD491001EB0451BDE810404FEA3000D3
:1028400002E04FF0000170474A0008BF0042F8D094
:10285000B2F5001F28BF704701F000414FF00000A3
:1028600070479EEA445F07D011EA5E0FBDE8104052
:1028700004BF002100207047BDE8104070B5FFF78D
:10288000CBFE00BF40DFF63E83F0004110467047AC
:102890000000E0FF43004FEAD30C4FEA3C0C4340FA
:1028A0001FBF40070CF1605113F0FE4F70471CF042
:1028B000006F03D100200CF0004170470CF0004382
:1028C00043EA507010B540EACC0000F090FA00BF27
:1028D000000000924FEA0001FFF7ECBE4FF000410C
:1028E0004FF00000A1F500217047000090EA010FB1
:1028F00048BF81F0004100F10883421A3CBF801AB2
:1029000089184FEAD0524FF07F4C1CEA410FA2EBDE
:10291000D15318BF9CEA026F00F03B804FF0004C8F
:102920004CEA00204CEA012121FA03FC10EB0C0CCC
:102930001ED202F1FF325FEA1C2040EBC25038BFCA
:1029400070471CF07F0F4FEA400C18BFBCF17F4F5F
:1029500038BF7047C3F12003994008BF20F0010041
:10296000BCF17F4F38BF7047A0F1C04000F085BA7E
:102970004FEA3C00000A40EBC25028BF1CF0FF0F9A
:102980004FEA400CE6D018BFBCF17F4F38BF70470C
:10299000EAE79CEA026F05D010EA5C0F08BF00F07E
:1029A0000040704710B500F022FA00BF64FBBE3E45
:1029B000401058BFC0F14040491058BFC1F14041DC
:1029C0008142EFF3008070474FF47F0C1CEAD01275
:1029D0001EBF1CEAD11392EA0C0F93EA0C0F00F011
:1029E000858090EA010F48BF42F4807240F4000CE9
:1029F00041F400002CF07F4120F07F4000B581427F
:102A0000A2EB03020FF2081CACEB504EC0F1000029
:102A10009EF800E04FEA4E0E00FB0EFC38BF490066
:102A20004FEA2C1C02F5FA020CFB0EF34FEACE1E05
:102A30004FEA112C4FEAC1210EEB635E42EB2242BA
:102A40000EFB0CFC4FEA1C5300FB03114FEA112C48
:102A50004FEA01310EFB0CFC4FEADC4C00FB0C1181
:102A6000C14228BF09184CEB03335DF804EB10EBAF
:102A7000410143EBC250B2F57C0F38BF704729D5F6
:102A800012F0F00F1CBF00F1C04000F00040704792
:102A9000008182838485868788898B8C8D8E8F9137
:102AA0009293959697999A9C9D9FA0A2A3A5A7A85B
:102AB000AAACAEB0B2B3B5B7B9BCBEC0C2C5C7C987
:102AC000CCCED1D4D7D9DCDFE2E6E9ECF0F3F7FAEB
:102AD000FE0000004FEA400C0CF1807CBCF17E4F00
:102AE00028BF7047B0F1C04000F0C7B990EA010FAD
:102AF0000CEAD11348BF42F48072624538BF634587
:102B000007D213F47F0F16D080EA010000F00040D6
:102B1000704710B500F06BF9097EFC3E00F005B877
:102B200080EA010000F00040704780EA010000F0F8
:102B3000004000F0A2B912F47F0F04BF02487047B2
:102B400080EA010000F099B90000C07F50EA010C52
:102B500000F113801CF5000F58BFBCF5000F01D425
:102B60008842704707D710F5000F58BF11F5000FC6
:102B700015D488427047894270471CF5000F04D570
:102B8000BCF5000FF7D5814270474FF0807C1CEBFD
:102B9000400F38BF1CEB410F01D28142704710B586
:102BA00000F025F9922449004FF000504FF0805179
:102BB000FFF7FEBE41000B0ED3F19E0208D950F480
:102BC00000034FEA032323FA02F048BF4042704754
:102BD00010B500F00CF900BF499224800020704726
:102BE0006FF0004282EA200070470000C10DD1F171
:102BF0009E0206DB4FEA002343F0004323FA02F073
:102C00007047004207D54FEA4001B1F1FE4F02D2B2
:102C10004FF00000704710B500F0E9F849922480A9
:102C2000002070476FEA20007047000010F000415C
:102C300048BF4042B0FA80F310FA03F2C3F19D039B
:102C40000BD051EAC35101EB1220530638BF704735
:102C500000F1010008BF20F001007047B0FA80F3D6
:102C600010FA03F2C3F19D030AD0D90501EB12203B
:102C7000530638BF704700F1010008BF20F0010083
:102C80007047000050EA010C00F113801CF5000FA2
:102C900058BFBCF5000F01D48842704707D710F524
:102CA000000F58BF11F5000F15D4884270478942B4
:102CB00070471CF5000F04D5BCF5000FF7D5814215
:102CC00070474FF0807C1CEB400F38BF1CEB410F6E
:102CD00001D28142704710B500F089F89224490072
:102CE0004FF000504FF08051FFF762BE4FF47F0C61
:102CF0001CEAD0121EBF1CEAD11392EA0C0F93EA11
:102D00000C0F00F0478090EA010F48BF42F4807238
:102D10004FF0004C4CEA00204CEA012102EB030288
:102D2000A0FB0113A2F50002002918BF43F0010324
:102D30005B0028BF4FEA330342EB22425FEA132CC9
:102D40004CEBC2502EBFBCEB436FB2F57C0F70470B
:102D50004FEA036CBCF1004F08BF20F00100B2F550
:102D60007C0F38BF70470BD582F0FF0212F5803F11
:102D7000C8BF704700F1C040D8BF00F000407047A6
:102D800000F5000C5FEA4C0C48BF7047B0F1C04042
:102D900000F073B890EA010F0CEAD11348BF42F477
:102DA0008072624538BF634504D280EA010000F0BA
:102DB0000040704710B500F01AF800BF8900013ECE
:102DC00000F007B800F009B85FEA410C5FEA1C6C3C
:102DD00008D080EA010000F050B85FEA400C5FEADA
:102DE0001C6CF6D14FF00040A0F5800070470EF14A
:102DF000020E2EF0030E5EF8044B244204D44FEA78
:102E00004102B2F17F4F11D84FEA4003B3F17F4F37
:102E10000CD80ED14FEAD07CB2F17F4F0CEB4C0CAA
:102E20000CF1020C08BF4CEBD17C04E04FF0080C15
:102E300001E04FEAD17C0CEB4C0324FA03F404F0DC
:102E40000704B4F1040C06D20EEB840CBDE810406C
:102E50004CF0010C6047DFE80CF0070802024FF06D
:102E60000040A0F5800010BD0846420018BFD2F116
:102E7000807288BF00F0004010BDFF2141EAD050B1
:102E8000C005704751EA000C00F113801CF5000FDB
:102E900058BFBCF5000F01D48142704707D711F528
:102EA000000F58BF10F5000F15D4814270478942BA
:102EB00070471CF5000F04D5BCF5000FF7D588420C
:102EC00070474FF0807C1CEB410F38BF1CEB400F6C
:102ED00001D28842704780EA010081EA000180EA5D
:102EE0000100FFF7F8BE80F0004090EA010F7FF587
:102EF00004AD81F0004100F008B8000090EA010F35
:102F000048BF81F000413FF5F8AC421A04D882F086
:102F10000042A0EB020011444FEAD0524FF07F4C28
:102F20001CEA410FA2EBD15318BF9CEA026F4AD0B2
:102F30004FF0004C4CEA00204CEA012121FA03FC3E
:102F4000B0EB0C0C0FD412F0FE0F36D05FEA4C0041
:102F50001DD5001240EBC25038BF70471CF03F0F28
:102F600018BF70470BE0A2F101025FEA1C2040EBA2
:102F7000C25038BF70471CF07F0F18BF7047C3F1B5
:102F80002003994014BF401E20F0010070478008C4
:102F90004FEA122308BF7047B0FA80FCA2EB0C0284
:102FA000CCF1280C60FA0CF093EA122F04BF00EB6E
:102FB000C25070474FEAC3707047130A5FEADC10D3
:102FC00008BF7047F6E79CEA026F04D010EA5C0F76
:102FD00008BF0020704710B5FFF709FF40DFF63E3D
:102FE00081F0004070470000000000000000000079
:102FF0000000000000003F40000000000000000052
:103000003000400030004000000009000BC03D00CF
:103010000BC03D00090018C024407FE022403180F1
:103020000000180024C01B000D8032400180038086
:103030001C4027401C80074000401000600000003A
:103040000000000000000000000000001F80204081
:1030500040200000402020401F80000000000900A8
:1030600006001F80060009000000040004003F80E5
:1030700004000400000000100060000000000000D8
:10308000000004000400040004000400000000002C
:1030900000400000000000000000002001C0060009
:1030A0003800400000001F802040204020401F804A
:1030B0000000000010403FC000400000000018C0A9
:1030C000214022402440184000001080204024402D
:1030D00024401B80000002000D0011003FC0014091
:1030E00000003C80244024402440238000001F80B6
:1030F000244024403440038000003000200027C0DA
:103100003800200000001B802440244024401B8005
:1031100000001C0022C0224022401F80000000004E
:1031200000000840000000000000000000000460F3
:10313000000000000000000004000A0011002080D0
:1031400040400900090009000900090000000000D2
:103150004040208011000A00040018002000234095
:103160002400180000001F802040274029401F40F5
:103170000000004007C039000F0001C0004020409F
:103180003FC0244024401B8000001F80204020407E
:1031900020403080000020403FC0204020401F8061
:1031A000000020403FC024402E4030C0000020409E
:1031B0003FC024402E00300000000F00108020404F
:1031C00022403380020020403FC0040004003FC082
:1031D0002040204020403FC02040204000000060B0
:1031E000202020203FC02000200020403FC024405D
:1031F0000B0030C0204020403FC020400040004035
:1032000000C03FC03C0003C03C003FC00000204065
:103210003FC00C4023003FC020001F8020402040C2
:1032200020401F80000020403FC0244024001800A0
:1032300000001F802140214020E01FA0000020400E
:103240003FC02440260019C0004018C0244024403C
:10325000224031800000300020403FC0204030003C
:10326000000020003F80004000403F802000200000
:103270003E0001C0070038002000380007C03C00B5
:1032800007C038000000204039C0060039C0204087
:1032900000002000384007C03840200000003040C7
:1032A00021C02640384020C00000000000007FE020
:1032B000402040200000000070000C00038000400F
:1032C00000000000402040207FE0000000000000DF
:1032D000200040002000000000000010001000103E
:1032E000001000100010000000004000000000006E
:1032F0000000000002800540054003C0004020009F
:103300003FC00440044003800000000003800440EC
:1033100004400640000000000380044024403FC0F9
:10332000004000000380054005400340000000000D
:1033300004401FC0244024402000000002E005504B
:1033400005500650042020403FC00440040003C044
:1033500000400000044027C00040000000000010B2
:103360000010041027E00000000020403FC0014092
:10337000070004C00440204020403FC000400040FF
:10338000000007C0040007C0040003C000000440A0
:1033900007C00440040003C0004000000380044054
:1033A000044003800000041007F004500440038030
:1033B0000000000003800440045007F000100440A7
:1033C00007C0024004000400000000000640054061
:1033D000054004C00000000004001F8004400040BD
:1033E0000000040007800040044007C000400400C3
:1033F000070004C0018006000400060001C00700A9
:1034000001C006000000044006C0010006C00440E0
:1034100000000410071004E0018006000400000012
:10342000044005C006400440000000000000040005
:103430007BE040200000000000000000FFF00000E2
:103440000000000040207BE004000000000040007D
:10345000800040002000200040000000000000002C
:10346000000000000000000000000000000000005C
:103470001FCC000C0000000000000000080030001D
:1034800060000800300060000000022003FC1E20E5
:10349000022003FC1E200220000000000E18110470
:1034A0003FFF10840C78000000000F0010840F38DC
:1034B00000C0077818840078000000780F8410C4DA
:1034C00011240E9800E400840008080068007000D1
:1034D00000000000000000000000000000000000EC
:1034E00007E01818200440020000000040022004F9
:1034F000181807E0000000000000024002400180B0
:103500000FF0018002400240000000800080008037
:103510000FF800800080008000000001000D000E08
:10352000000000000000000000000000008000809B
:10353000008000800080008000800000000C000CF3
:10354000000000000000000000000000000600185D
:1035500000600180060018002000000007F0080845
:1035600010041004080807F0000000000804080414
:103570001FFC000400040000000000000E0C1014EA
:103580001024104411840E0C000000000C181004CC
:103590001104110412880C700000000000E00320E8
:1035A000042408241FFC0024000000001F9810843D
:1035B00011041104108810700000000007F0088842
:1035C0001104110418880070000000001C00100095
:1035D00010FC13001C001000000000000E38114405
:1035E0001084108411440E38000000000700088C7D
:1035F00010441044088807F000000000000000009C
:10360000030C030C0000000000000000000000019B
:1036100001060000000000000000000000800140E2
:1036200002200410080810040000022002200220DA
:1036300002200220022002200000000010040808DE
:103640000410022001400080000000000E00120063
:10365000100C106C10800F00000003E00C1813E435
:10366000142417C4082807D000000004003C03C439
:103670001C40074000E4001C000410041FFC11045F
:10368000110411040E880070000003E00C181004EF
:103690001004100410081C10000010041FFC10047B
:1036A00010041004080807F0000010041FFC1104A7
:1036B000110417C410040818000010041FFC1104A2
:1036C000110017C010000800000003E00C181004DF
:1036D000100410441C780040000010041FFC1084EB
:1036E0000080008010841FFC1004000010041004EF
:1036F0001FFC100410040000000000030001100172
:1037000010011FFE10001000000010041FFC110427
:1037100003801464181C1004000010041FFC100423
:10372000000400040004000C000010041FFC1F0033
:1037300000FC1F001FFC1004000010041FFC0C0400
:10374000030000E010181FFC100007F00808100428
:1037500010041004080807F0000010041FFC108477
:103760001080108010800F00000007F0081810244F
:103770001024101C080A07F2000010041FFC11049A
:10378000110011C011300E0C000400000E1C1104B9
:103790001084108410441C3800001800100010041D
:1037A0001FFC100410001800000010001FF8100487
:1037B0000004000410041FF8100010001E0011E0A7
:1037C000001C007013801C0010001FC0103C00E0A3
:1037D0001F0000E0103C1FC000001004180C16343D
:1037E00001C001C01634180C100410001C00130492
:1037F00000FC13041C00100000000804101C1064DE
:10380000108413041C0410180000000000000000C5
:103810007FFE4002400240020000000030000C0029
:1038200003800060001C0003000000004002400212
:1038300040027FFE000000000000000000002000A9
:103840004000400040002000000000010001000195
:1038500000010001000100010001000040004000E3
:10386000200000000000000000000000009801247B
:1038700001440144014400FC000410001FFC0088C6
:10388000010401040088007000000000007000883E
:103890000104010401040088000000000070008899
:1038A0000104010411081FFC0004000000F8014499
:1038B00001440144014400C8000000000104010467
:1038C0000FFC1104110411001800000000D601299A
:1038D0000129012901C90106000010041FFC008410
:1038E00001000100010400FC0004000001041904AF
:1038F00019FC0004000400000000000000030001A7
:103900000101190119FE0000000010041FFC002431
:10391000004001B4010C0104000000001004100478
:103920001FFC0004000400000000010401FC01046D
:10393000010001FC0104010000FC010401FC008401
:1039400001000100010400FC0004000000F8010473
:1039500001040104010400F80000010101FF0085D9
:10396000010401040088007000000000007000885D
:1039700001040104010501FF00010104010401FC2F
:1039800000840104010001800000000000CC01243B
:10399000012401240124019800000000010001001D
:1039A00007F80104010400000000010001F8000410
:1039B00000040004010801FC000401000180017002
:1039C000000C001001600180010001F0010C0030CA
:1039D00001C00030010C01F0010000000104018C65
:1039E00000740170018C010400000101018101716A
:1039F000000E001801600180010000000184010C2C
:103A0000013401440184010C0000000000000000AA
:103A1000000001003EFC40024002000000000000E7
:103A20000000FFFF00000000000000004002400214
:103A30003EFC01000000000000000000600080006B
:103A40008000400040002000200000006C3A000888
:103A5000000000208800000028010008F43A000857
:103A600088000020900A00004401000801000000C6
:103A7000000000001027000000000000000000000F
:103A80000000000000004843000096430000204171
:103A9000000016430000803F0000A0400000A0414D
:103AA0000000803F000020410000000000000000F6
:103AB0000000000000000000000000000000000006
:103AC00000000000000000000000000000000000F6
:103AD00000000000000000000000000000000000E6
:103AE00000000000000000000000000000000000D6
:043AF00000000000D2
:04000005080000ED02
:00000001FF
