:020000040800F2
:10000000700B002095010008990100089B01000871
:100010009D0100089F010008A101000800000000E8
:10002000000000000000000000000000A301000824
:10003000A501000800000000A7010008A9010008B0
:10004000AB010008AB010008AB010008AB010008E0
:10005000AB010008AB010008AB010008AB010008D0
:10006000AB010008AB010008AB010008AB010008C0
:10007000AB010008AB010008AB010008AB010008B0
:10008000AB010008AB010008AB010008AB010008A0
:10009000AB010008AB010008AB010008B513000874
:1000A000AB010008F5160008AB010008AB01000821
:1000B00041130008AB010008AB010008AB010008C8
:1000C000AB010008AB010008AB010008AB01000860
:1000D000AB010008AB010008AB010008AB01000850
:1000E0000F140008AB010008AB01000800F002F893
:1000F00000F03AF80AA090E8000C82448344AAF188
:100100000107DA4501D100F02FF8AFF2090EBAE885
:100110000F0013F0010F18BFFB1A43F0010318473B
:10012000C4E20000E4E20000103A24BF78C878C1BD
:10013000FAD8520724BF30C830C144BF04680C60ED
:10014000704700000023002400250026103A28BF35
:1001500078C1FBD8520728BF30C148BF0B60704739
:100160001FB51FBD10B510BD03F05BF81146FFF7BA
:10017000F7FF00F02BF803F079F803B4FFF7F2FF74
:1001800003BC00F015FA000030BF72B662B680F30F
:100190000888704708480047FEE7FEE7FEE7FEE7ED
:1001A000FEE7FEE7FEE7FEE7FEE7FEE70348044959
:1001B000044A054B70470000ED0000087005002060
:1001C000700B00207007002070070020092000F04D
:1001D00096F9482000F036F8022000F07BF9012063
:1001E00000F078F94FF47A7000F064F84FF47A7008
:1001F00000F060F800F05AFA01F0B8F800F092FD53
:100200004FF4FA31482000F0EDF9002141F61F408B
:1002100000F07EFF01F032F800F028FE41F61F41A9
:10022000C72000F035FF09E002F0B2FE01200449CA
:10023000087000BF024800780028FBD1F4E70000F6
:10024000020000204FF0E021096921F004014FF085
:10025000E0221161C21700EB5272C2F3C702234BB6
:100260001A701946097801EB4102C2EBC1114FF631
:10027000FF7202EAC1011E4A1180704701461B4A03
:1002800012784A434FF0E0235A6100229A6101221A
:100290001A6100BF4FF0E022106900F001021AB1AC
:1002A00000F48032002AF5D000224FF0E0231A61DA
:1002B0009A61704701460E4A12884A434FF0E02384
:1002C0005A6100229A6101221A6100BF4FF0E022B8
:1002D000106900F001021AB100F48032002AF5D052
:1002E00000224FF0E0231A619A6170474800002015
:1002F0004A000020A34A0A400243A34B1A607047F9
:100300000146072323EA010212029F4B1B1D1868B6
:100310004FF6FF0318409D4B184310439A4B1B1D8B
:10032000186070472DE9F0410746884614461D467F
:100330002846FFF7E5FFC5F1040007FA00F60F2095
:10034000284100EA0800064306F00F06E21704EB16
:10035000D2625211920002F1E022D2F8002121462D
:10036000E31704EBD3635B11A4EB431C012303FAF3
:100370000CF31A432046E31704EBD3635B119B0095
:1003800003F1E023C3F800218148005D40EA061034
:100390007F490855BDE8F08170B504460B46CE177D
:1003A00001EB9676C6F38700CE1701EB9676B61072
:1003B000A1EB8606B606350E764B9B6943F001032A
:1003C000744EB3614FEAB63353F820300F26AE4077
:1003D000B343714E46F82030334653F8203004FAC8
:1003E00005F61E436C4B43F820606C4B1B680126DE
:1003F0008E403343694E336002F0010343B1674BD3
:100400000C331B6801268E403343644E0C36336038
:1004100002F0020343B1614B08331E6801238B4095
:100420001E435E4B08331E6070BD00B50020594965
:100430000861C8601420486100208861C8610846CE
:10044000006840F0010008600846406854490840D0
:100450005049486008460068524908404D490860C4
:100460000846006820F4802008600846406820F4B0
:10047000FE0048600020886000214FF00060FFF718
:1004800039FF00BD10B540480830006840F0040056
:100490003D49083108603F48C06940F080503D49FF
:1004A000C8614148406840F480703F494860084650
:1004B000006840F0040008600846006840F0020050
:1004C0000860FFF761FE10BD3048001D2E49091D70
:1004D00008607047014649062E4A926942F00102BF
:1004E0002C4B9A612C4A083A526822F0E0622A4B5F
:1004F000083B5A601A4652680A435A60704730B542
:1005000004460025FFF791FF2248006840F4803040
:100510002049086000BF1F480068400C0028FAD03E
:100520004FF480601B494860A01EC4B20846406872
:1005300040EA844048600846406840F480304860A3
:100540001A48006840F032001849086011480068F5
:1005500040F080700F49086000BF0E480068400EF0
:100560000028FAD00B48406840F002000949486072
:1005700005E008484068C0F3870505F00305022D33
:10058000F7D130BD80FFFF1F08ED00E00000FA0545
:1005900000E400E0001002400800014000040140B7
:1005A0000000FFF8FFFFF6FE007000400020024050
:1005B000014600BF704700BF384A128802F040026F
:1005C000002AF9D0C2B2354B1B1D1A80704733493F
:1005D000091D088000BF3149098801F04001002948
:1005E000F9D070472DE9F05F05460E46300103F063
:1005F00009FD81462A4905FB01F003F003FD82460F
:10060000494603F0B5FB0746384603F0C3FC84B205
:10061000204603F0F7FC8346394603F038FE824655
:100620004FF0834103F036FD814603F0B3FC804672
:100630004FF6FF7000EA041404EB080084B2194876
:10064000806940F00400174988610846806940F4D9
:10065000804088611448006820F47F601249086077
:100660000846006840F40B6008600E48C06840F41B
:1006700080400C49C8600846C06820F48040C860CB
:10068000064808300480001D008842F20C0108432F
:1006900002490C310880BDE8F09F0000003801409D
:1006A00040420F00001002400408014017488069D2
:1006B00040F00400154988611548006820F4702056
:1006C000134908600846006840F44030086010484C
:1006D0000C30006840F010000D490C310860704784
:1006E00018B900210B4A11600FE00B490968491C39
:1006F000094A1160814208D106490968C943074A7D
:10070000C2F890110021044A1160704700100240A5
:1007100000080140900121424C00002000002142CD
:100720007248806940F00400704988617048006830
:1007300020F47F206E4908600846006840F40820D5
:100740000860081F00686B4908406949091F086074
:1007500008460068684908436549091F08606448FD
:100760000830006840F0040061490831086008461C
:10077000006840F0800008600846006840F02000F3
:1007800008600846006840F4C050086070470146A1
:100790005A48006828B95A480088401C584A1080B6
:1007A00002E00020564A10805448006828B9554895
:1007B000007810B90120534A107053480078B0B93E
:1007C00050480078012807D150480078401C4F4A13
:1007D000107001204C4A10704C480078022806D155
:1007E00000204A4A10704A4A10800220704743484D
:1007F0000068012804D10020424A1070424A10705B
:100800004248007801281CD141480088401C404AD9
:1008100010801046008888420ADD394800888842E6
:1008200006DA0020394A1070394A10800120DDE7CD
:1008300033480088884204DD0020344A1070344A6E
:1008400010800020D2E710B53248007818B32B484A
:100850000C30006838B129482430006818B12748A6
:1008600028300068B8B900202A4908703220FFF704
:1008700021FD22480C30006808B9052010BD1F4832
:100880002430006808B90B20F8E71C4828300068BD
:1008900020B90C20F2E701201E4908700020EDE786
:1008A0001D48008848B915481430006828B91B480D
:1008B0000088401C1949088002E000201749088080
:1008C00016480088142807DD0120134908800020FD
:1008D00012490880012070470F480088012802D182
:1008E00000200D4908800020F5E7000000100240BC
:1008F00004080140FFF00F0F00088080080121422A
:10090000560000205000002051000020520000201E
:1009100054000020580000205C0000205A000020F5
:1009200010B50A461AB10123F74C236002E00023F8
:10093000F54C2360002114E00023F44C236000F008
:1009400080031BB10123241F236003E00023EF4C2D
:10095000241F23600123ED4C23604306180E4B1C1B
:10096000D9B20829E8DB0123E74C236010BD30B57C
:1009700000241CE004F1B001C8B20021FFF7D0FF51
:1009800000210846FFF7CCFF00211020FFF7C8FF29
:10099000002508E0DE4901EBC501085D0121FFF7F4
:1009A000BFFF681CC5B2802DF4DB601CC4B2082CEC
:1009B000E0DB30BD00B500218D20FFF7B1FF002145
:1009C0001420FFF7ADFF0021AF20FFF7A9FF00BD06
:1009D00000B500218D20FFF7A3FF00211020FFF7B5
:1009E0009FFF0021AE20FFF79BFF00BD30B5002424
:1009F0000CE0002506E00020C54901EBC5010855C3
:100A0000681CC5B2802DF6DB601CC4B2082CF0DB7C
:100A1000FFF7ADFF30BDF0B5144600267F2801DC9E
:100A20003F2900DDF0BD0B46CF1701EB5777FF10D4
:100A3000C7F10707FAB2CF1701EB5777FF10A1EB09
:100A4000C707FDB2C5F107070123BB40DEB24CB1B9
:100A5000AF4B03EBC0039B5C3343AD4F07EBC007C9
:100A6000BB5408E0AA4B03EBC0039B5CB343A84F05
:100A700007EBC007BB5400BFD4E72DE9F04F804619
:100A80000C4615461E46A346A5F12000C5B2002718
:100A90003EE00C2E07D105EB45009E4901EB80009E
:100AA00010F8079004E09C4800EB051010F8079040
:100AB0004FF0000A26E009F0800028B121464046A8
:100AC000099AFFF7A8FF09E0099808B9012000E09A
:100AD0000020024621464046FFF79DFF4FEA49604D
:100AE0004FEA1069601CC4B2A4EB0B00B04205D100
:100AF0005C4608F1010000F0FF0806E00AF1010081
:100B000000F0FF0ABAF1080FD5DB00BF781CC7B2AE
:100B1000B742BEDBBDE8F08F10B50246012000E011
:100B200050430B1EA1F10104E1B2F9D110BD2DE932
:100B3000FF4F81B0074691461E460E9D4FF0000ABA
:100B4000002439E0301B401EC1B20A20FFF7E4FF49
:100B5000B9FBF0F00A21B0FBF1F201FB1208BAF187
:100B6000000F16D1701EA04213DDB8F1000F0ED198
:100B70000120AB4605EBDB71491001FB04710090CD
:100B8000C8B22B4620220299FFF777FF12E04FF000
:100B9000010A0120AB4605EBDB71491001FB047132
:100BA0000090C8B208F13001CAB22B460299FFF793
:100BB00064FF00BF601CC4B2B442C3DB05B0BDE833
:100BC000F08F78B505460E46144618E07A2D03DD01
:100BD000002506F11000C6B23A2E04DD00200546BD
:100BE0000646FFF703FF0120009022780C233146D0
:100BF0002846FFF742FF05F10800C5B2641C2078C3
:100C00000028E3D178BD2DE9F04F07460C46904609
:100C10001D46A346002631E0404800EBC81010F8FE
:100C200026904FF0000A23E009F0800028B12A4600
:100C300021463846FFF7EFFE08E00DB9012000E03D
:100C40000020024621463846FFF7E5FE4FEA49609C
:100C50004FEA1069601CC4B2A4EB0B00102803D14A
:100C60005C46781CC7B206E00AF1010000F0FF0AFA
:100C7000BAF1080FD8DB00BF701CC6B2202ECBDB48
:100C8000BDE8F08F2DE9F04F07460C4690461D4613
:100C9000A346002633E0C8EBC800214901EB001051
:100CA00010F826904FF0000A23E009F0800028B1E8
:100CB0002A4621463846FFF7AEFE08E00DB901206E
:100CC00000E00020024621463846FFF7A4FE4FEA26
:100CD00049604FEA1069601CC4B2A4EB0B001028F5
:100CE00003D15C46781CC7B206E00AF1010000F0AF
:100CF000FF0ABAF1080FD8DB00BF701CC6B21C2E69
:100D0000C9DBBDE8F08F0000BC0121429481214283
:100D1000E00000209043000804480008F44D00085B
:100D200074A4000810B54A48806940F0080048499A
:100D300088614848006848490840464908600846B4
:100D4000006846490843434908604148806940F0CB
:100D500004003F4988614248006820F070404049E3
:100D600008600846006840F00050086000203D49D7
:100D700008606420FFF79EFA01203B49C1F88C010E
:100D80000021AE20FFF7CCFD0021D520FFF7C8FDE4
:100D900000215020FFF7C4FD0021A820FFF7C0FD6F
:100DA00000213F20FFF7BCFD0021D320FFF7B8FD55
:100DB00000210846FFF7B4FD00214020FFF7B0FDF9
:100DC00000218D20FFF7ACFD00211420FFF7A8FDC6
:100DD00000212020FFF7A4FD00210220FFF7A0FD45
:100DE0000021A120FFF79CFD0021C020FFF798FD06
:100DF0000021DA20FFF794FD00211220FFF790FD7B
:100E000000218120FFF78CFD0021EF20FFF788FDF6
:100E10000021D920FFF784FD0021F120FFF780FD9C
:100E20000021DB20FFF77CFD00213020FFF778FD5B
:100E30000021A420FFF774FD0021A620FFF770FD1C
:100E40000021AF20FFF76CFDFFF7D0FD10BD0000C3
:100E500000100240000C0140FF0F00FF00202200A4
:100E6000040801408C812142008021427F48806932
:100E700040F004007D4988617D48006820F0706082
:100E80007B4908600846006820F470400860774895
:100E9000806940F40070754988610846C06840F474
:100EA0000070C8600846C06820F40070C86008463A
:100EB000406820F4404048600846406840F40040E4
:100EC00048606C4800686C4908406A4908600846F8
:100ED000006808600846006820F480700860081DFB
:100EE000006820F00200091D08600846006820F430
:100EF000602008600846006840F4602008600846EA
:100F0000006840F4801008600846006820F4006023
:100F1000086058482830006820F47000554928318E
:100F20000860084600680020086052480C300068DD
:100F300020F070604F490C3108600846006840F4AA
:100F4000E01008600846006820F470400860084619
:100F5000006808604748001D006840F001004549EE
:100F6000091D08600846006840F00800086000BFDE
:100F70004048001D006800F008000028F8D13D48F6
:100F8000001D006840F004003A49091D086000BFD8
:100F90003848001D006800F004000028F8D17047B0
:100FA000014634483030006820F01F00314A3032AA
:100FB000106010460068084310602E48001D00684D
:100FC00040F480002B4A121D106000BF2948001F0A
:100FD000006800F002000028F8D026484830006879
:100FE00080B270472DE9F04F87B00620FFF7D8FF99
:100FF000019002F0B6FB80464FF066321F4B02F0C4
:10100000FFFB00221E4BCDE9020102F0F9FB00229A
:101010001C4BCDE9040102F0F3FB064600221A4BFB
:1010200002F018FA04460022184B02F013FA824626
:1010300002F068FB0690069807B0BDE8F08F2DE936
:10104000F04107460C460025002608E03846FFF729
:10105000A7FF0544C820FFF711F9701CC6B2A642CD
:10106000F4DBB5FBF4F080B2BDE8F0810010024083
:101070000008014004240140FFFFF00066660A40BA
:1010800000002640000059400000F03F0000B04042
:1010900070B505460C461348806940F4006011495C
:1010A000886111480580001F04800F48203800889F
:1010B00040F001000C49203908800846008840F0C3
:1010C0004000088008482C38008840F0010006499C
:1010D0002C3908800223192203210120FFF722F96D
:1010E00070BD0000001002402C2C01402F48806988
:1010F00040F008002D4988612D48006880B22C49D5
:101100000860084600682B49084329490860704771
:1011100000B503460A46FFF7E9FF2448C06940F0DE
:1011200002002249C8610846806940F008008861D1
:101130001F48001F006820F0FF001D49091F0860BC
:101140000846006840F0BB0008601B480380001F91
:10115000028019481038008840F4C0401649103900
:1011600008800846008840F0600008800846008833
:1011700040F4006008800846008840F008000880BD
:10118000081D008840F48050091D0880084600882A
:1011900040F480700880802007492C390880084678
:1011A000008840F00100088000BD000000100240EF
:1011B000040C0140000022222C04004010B56648B7
:1011C000C06940F001006449C8610846806940F088
:1011D000040088616148006820F0FF005F490860F2
:1011E0000846006840F044000860C804808940F068
:1011F0000100C90488810846808940F04000888148
:1012000001231C2203211846FFF78CF800204FF021
:10121000804108854FF6FF7088850846008820F4D5
:10122000407008800846008820F06000088008466A
:10123000008B40F0010008830846008B40F480706A
:1012400008830846008C20F0020008840846008CC1
:1012500020F0200008840846008B40F0300008830E
:101260000846008940F00300088142F2107088842B
:101270008006008840F00100088010BD3648C06933
:1012800040F004003449C8610846806940F0080015
:1012900088613348006820F07F4031490860084683
:1012A000006840F08840086000202E4908804FF612
:1012B000FF70091D08802B482838008820F44070F2
:1012C0002849283908800846008820F060000880F6
:1012D00024481038008840F0300022491039088036
:1012E00020482038008840F003001E49203908803B
:1012F00042F210701B49091F08801A4828380088DC
:1013000040F001001749283908807047014602293A
:1013100004D0032907D004290ED108E04FF0804201
:10132000928C10B20AE0104A128810B206E00D4A00
:10133000121F128810B201E0002000BF00BF7047EA
:101340004FF08040008A4FF08040008A20F001007A
:101350004FF08041088270470010024000080140B1
:10136000000C0140280800402404004010B5FFF79D
:10137000D7F9012207210020FFF70EF801220521ED
:101380000020FFF709F801220B210020FFF704F8E5
:1013900001220C210020FEF7FFFF0223172219462D
:1013A0001846FEF7BFFF0223282219461846FEF70B
:1013B000B9FF10BD70B50520FEF77CFF6D480068D1
:1013C00038B96D48007808B9012000E000206A496A
:1013D000087068480830006898B968484FF07E5136
:1013E0000568006802F056FC64492C4608604FF01E
:1013F0008141204602F07EFD03D14FF07E505F49CF
:10140000086020205E4908608020086070BD10B52B
:101410000520FEF74FFF57481C30006868BB4FF0AF
:101420007E515648006802F065FD08D155480168B4
:101430005548006802F036FF534908602DE04FF030
:1014400080414E48006802F055FD08D14F480168C0
:101450004F48006802F026FF4D4908601DE04D49E5
:101460004648006802F046FD08D14B4801684B48E9
:10147000006802F017FF494908600EE04FF0814113
:101480003E48006802F036FD07D1454801684548EE
:10149000006802F007FF43490860364818300068CA
:1014A00068BB4FF07E513548006802F023FD08D13B
:1014B000344801683448006802F0ECFB32490860A7
:1014C0002DE04FF080412D48006802F013FD08D157
:1014D0002E4801682E48006802F0DCFB2C490860A9
:1014E0001DE02C492548006802F004FD08D12A4877
:1014F00001682A48006802F0CDFB284908600EE028
:101500004FF081411D48006802F0F4FC07D12448E7
:1015100001682448006802F0BDFB224908600021F0
:101520001948006802F082FD02D8002016490860C0
:1015300000211748006802F079FD02D80020144904
:10154000086000211548006802F070FD02D80020F4
:101550001249086000211348006802F067FD02D8B4
:101560000020104908604FF4006005490860400001
:10157000086010BD1401214200000020340000204A
:1015800014040140380000201C0000203C00002012
:1015900020000020000040404000002024000020E7
:1015A00044000020280000202DE9F0411420FFF71E
:1015B000EEF8F949086008460068012801D1F749AA
:1015C0000860F5480068022801D1F4490860F34832
:1015D000006801281DD1F248006802F02FFB064682
:1015E000F04AF14B01F082FE044601F04DFEEC4959
:1015F0000860EE480068401CEC4908600846006836
:1016000040F26F11884204D10020E4490860E749A4
:101610000860E248006802281DD1E148006802F035
:101620000DFB0646DF4AE04B02F01EFA044601F0CD
:101630002BFEDB490860DD480068401CDB49086080
:101640000846006840F26F11884204D10020D34957
:101650000860D6490860BDE8F0810146002901DA3A
:10166000484200E00846704700B50246002A07DA03
:101670000120CF4908600020CE49C1F8B40106E03E
:101680000020CB4908600120CA49C1F8B4011046C6
:10169000FFF7E3FFC849088000BD41F65830C7494D
:1016A00009684242914202DA4142C44A1160C34988
:1016B0000968814201DDC149086070472DE9F041A8
:1016C000044640F61C40051B284602F083FC0746F2
:1016D000BB4902F0DFFC0646002C08DB40F21C4050
:1016E000844204DCB749304602F0DCFD0646304651
:1016F000BDE8F0812DE9FF5FB348008800F00100EC
:1017000000287DD0B048008820F00100AE49088054
:10171000AE48007801280BD1AD480078401CC0B21B
:10172000AB490870032803D100200870A74908704E
:101730000420FFF7EBFDA7490860A748006802F006
:101740007DFA06460F46A5490968A24A1268881A1A
:1017500002F040FCA249019002F00AFB83464FF0E0
:10176000804102F097FC824602F068FA80469D4A6A
:101770009D4B02F045F832463B46CDE9020101F0AF
:1017800069FE044601F080FD9849086092480168AE
:101790009648006802F07EFC0446954801682046A1
:1017A00002F078FA924908608A4800688B4908601C
:1017B0000F210320FFF743FC044602F023FC8D4970
:1017C00008600846006802F0C9FB8246FFF776FF12
:1017D0008146894902F0CCFA044602F02FFA074606
:1017E000804A814B02F00CF8054601F04DFD83491B
:1017F00008600846006880F000400860804800E00B
:101800007BE001687D48006802F04CFD04467248A8
:101810000168204602F0ACFA7A490860774800680F
:10182000774908607548006802F008FA0446764A6D
:10183000764B02F0E3F83BD27048006802F0FEF904
:101840000446714A724B01F09FFF31D26D48016826
:101850007048006802F01EFC0746684801686E4840
:10186000006802F017FC8046604801686B48006819
:1018700002F010FC81464A4801685D48006802F0A9
:1018800009FA824666480168504602F003FC0646A3
:10189000494602F0FFF90546414602F0FBF90446CD
:1018A000394602F0F7F980F000405E49086002E036
:1018B00000205C4908605C495A48006802F058FA08
:1018C00005465A4902F0E6FB044602F047FB3B4955
:1018D0000860FFF7E2FE5648007820B937480068F4
:1018E000FFF7C2FE02E00020FFF7BEFE504800787E
:1018F000012802D10020FFF7B7FE4D48007810B94B
:101900006420FEF7EDFEFFF76DFB4A490860FFF724
:101910004BFE002004B0BDE8F09F10B50446002146
:10192000204602F083FC01D2012010BD0021204698
:1019300002F07CFB02D24FF0FF30F6E70020F4E724
:101940002DE9F04705463C49284602F0ABFC044629
:101950003A480168204602F0A5FC39490860394838
:1019600001683748006802F095FB824636480068F7
:1019700080F000492146484602F08CFB80465146E3
:1019800002F090FC074602F0E9FA06462B48046094
:101990003046BDE8F0870000C8000020CC000020E1
:1019A00098000020EC51B81E85EBA13FD00000202C
:1019B000B0812142008021424004004010000020FC
:1019C000EA04B43D0000B443102C014002000020A2
:1019D0000100002008000020AC000020740000205E
:1019E00000008244F1D4C853FB2109408800002044
:1019F0008400002018000020000034438C000020E8
:101A00009400002090000020A7E8482EFF21E9BFA5
:101A1000FF21E93FA8000020A4000020A000002032
:101A20009C000020B0000020000040410000E14583
:101A3000000000201400002000C041457C00002070
:101A4000B4000020200000201C0000202DE9FC47ED
:101A500082463C490968AAEB010002F0BBFA3A4908
:101A600008603A48006802F0E9F80446384A394B01
:101A700001F0C6FE064601F007FC34490860324812
:101A8000006802F0DBF80646314A334B01F0B8FE3D
:101A900004460D462D48006802F0D0F880462246E4
:101AA0002B4601F023FCCDE9000101F0EDFB2749B5
:101AB00008602A4801682548006802F0F3FB2849BD
:101AC00008602248006825490860264801682448C3
:101AD000006802F0DFFA0446234801681B480068EA
:101AE00002F0D8FA0546214602F0D4F81F490860F2
:101AF0000846006802F032FABDE8FC8770B505467A
:101B00001B48007801280FD01A491B48006802F0D2
:101B10008DFA09D319491848006802F087FB03D3EE
:101B200040F2564085420ADA01201149087001242A
:101B30000020134908601349C1F8BC0100E00024EB
:101B4000204670BD0C000020C4000020BC00002016
:101B50009A9999999999E93F9999C93F80000020EC
:101B6000C00000202800002024000020B800002031
:101B70000000002000C00F451800002000C0734581
:101B8000B88121420080214200B585B0FEA200212B
:101B90000846FFF716F8FDA200212420FFF711F8F0
:101BA0000021FB48006802F041FA5CD2F9A2002152
:101BB0002E20FFF706F8F648006802F0CFF9404201
:101BC00004900C200123009000213620049AFEF797
:101BD000AEFFF1A200213E20FEF7F3FFEC480068C3
:101BE00002F0BCF9009002F0F5F90190E8480168B4
:101BF000019802F04CFB80F00040E849029002F0AE
:101C000049FA039002F0C6F904900C2002230090D8
:101C100000214420049AFEF78AFFE1A200215C2003
:101C2000FEF7CFFFDA48006802F098F9019002F061
:101C3000D1F90290D6480168029802F028FB80F0A2
:101C40000040D649039002F025FAD649049002F0EC
:101C5000EDF95FD20C2001230022114600904420B0
:101C6000FEF765FF56E0D0A200212E20FEF7A9FF67
:101C7000C748006802F072F904900C20012300901C
:101C800000213620049AFEF752FFC3A200213E2015
:101C9000FEF797FFBE48006802F060F9009002F07E
:101CA00099F90190BA480168019802F0F0FABB492D
:101CB000029002F0EFF9039002F06CF904900C200E
:101CC0000223009000214420049AFEF730FFB4A2C2
:101CD00000215C20FEF775FFAD48006802F03EF978
:101CE000019002F077F90290A9480168029802F089
:101CF000CEFAAA49039002F0CDF9AA49049002F065
:101D000095F907D20C2001230022114600904420AF
:101D1000FEF70DFF9CA20A210020FEF752FF0123CF
:101D20006F2208210846FEF7ADFF012370220A2129
:101D30001020FEF7A7FF012371220A211820FEF7C9
:101D4000A1FF012372220A212020FEF79BFF8FA210
:101D50000A212420FEF735FF00219448006802F094
:101D600065F95CD28BA20A212E20FEF72AFF8F484C
:101D7000006802F0F3F8404204900C200123009028
:101D80000A213620049AFEF7D2FE83A20A213E20C1
:101D9000FEF717FF8548006802F0E0F8009002F0B7
:101DA00019F9019081480168019802F070FA80F0F9
:101DB00000407A49029002F06DF9039002F0EAF8CF
:101DC00004900C20022300900A214420049AFEF77C
:101DD000AEFE77A20A215420FEF7F3FE7348006896
:101DE00002F0BCF8019002F0F5F802906F4801682B
:101DF000029802F04CFA80F000406849039002F02B
:101E000049F96849049002F011F95FD20C200123CE
:101E100000220A2100904420FEF789FE56E062A2CB
:101E20000A212E20FEF7CDFE6048006802F096F8E9
:101E300004900C20012300900A213620049AFEF71A
:101E400076FE55A20A213E20FEF7BBFE57480068E9
:101E500002F084F8009002F0BDF801905348016848
:101E6000019802F014FA4D49029002F013F9039020
:101E700002F090F804900C20022300900A214420E4
:101E8000049AFEF754FE4AA20A215420FEF799FE56
:101E90004648006802F062F8019002F09BF8029058
:101EA00042480168029802F0F2F93C49039002F0BE
:101EB000F1F83C49049002F0B9F807D20C20012354
:101EC00000220A2100904420FEF731FE01236C22FB
:101ED00015210020FEF7D6FE2CA214212420FEF7A7
:101EE00070FE00213448006802F0A0F878D229A2E0
:101EF00014212E20FEF765FE2F48006802F02EF810
:101F0000404204900C200123009014213620049AB2
:101F1000FEF70DFE20A214213E20FEF752FE2648B9
:101F2000006802F01BF8009002F054F8019022487B
:101F30000168019802F0ABF980F000401749029067
:101F400002F0A8F8039002F025F804900C20022378
:101F5000009014214420049AFEF7E9FD10A21421F8
:101F60005C20FEF72EFE1448006801F0F7FF019098
:101F700002F030F8029010480168029802F087F9E8
:101F800080F0004005491AE0610000003A000000BE
:101F90008C0000202D0000002E0000000000C84230
:101FA00072616400000020412000000090000020C9
:101FB0007261642F730000008400002010E0039021
:101FC00002F068F8FE49049002F030F862D20C206A
:101FD00001230022142100904420FEF7A8FD59E0BF
:101FE000AFF23C0214212E20FEF7EBFDF54800680D
:101FF00001F0B4FF04900C2001230090142136203E
:10200000049AFEF794FDAFF2700214213E20FEF711
:10201000D8FDEC48006801F0A1FF009001F0DAFF64
:102020000190E8480168019802F031F9E649029010
:1020300002F030F8039001F0ADFF04900C20022371
:10204000009014214420049AFEF771FDAFF2B00213
:1020500014215C20FEF7B5FDDA48006801F07EFF30
:10206000019001F0B7FF0290D6480168029802F093
:102070000EF9D549039002F00DF8D149049001F012
:10208000D5FF07D20C200123002214210090442008
:10209000FEF74DFD01236C221F210020FEF7F2FD0B
:1020A00001236F221C210820FEF7ECFD0123702282
:1020B0001E211020FEF7E6FD012371221E211820AB
:1020C000FEF7E0FD012372221E212020FEF7DAFD3B
:1020D000AFF248121E212420FEF773FD0021BB48F9
:1020E000006801F0A3FF5FD2AFF258121E212E202C
:1020F000FEF767FDB548006801F030FF40420490EC
:102100000C20012300901E213620049AFEF70FFDBB
:10211000AFF27C121E213E20FEF753FDAB48006853
:1021200001F01CFF009001F055FF0190A7480168E5
:10213000019802F0ACF880F00040A349029001F051
:10214000A9FF039001F026FF04900C2002230090C9
:102150001E214420049AFEF7EAFCAFF2AC121E21C5
:102160005420FEF72EFD9948006801F0F7FE01901B
:1021700001F030FF029095480168029802F087F85C
:1021800080F000409049039001F084FF8C49049056
:1021900001F04CFF62D20C20012300221E2100908E
:1021A0004420FEF7C4FC59E0AFF204221E212E2089
:1021B000FEF707FD8548006801F0D0FE04900C2072
:1021C000012300901E213620049AFEF7B0FCAFF2E6
:1021D00038221E213E20FEF7F4FC7C48006801F006
:1021E000BDFE009001F0F6FE01907848016801986C
:1021F00002F04DF87449029001F04CFF039001F099
:10220000C9FE04900C20022300901E214420049A51
:10221000FEF78DFCAFF268221E215420FEF7D1FCA0
:102220006A48006801F09AFE019001F0D3FE029026
:1022300066480168029802F02AF86349039001F0A9
:1022400029FF5F49049001F0F1FE07D20C20012321
:1022500000221E2100904420FEF769FC5CA2282188
:102260000020FEF7AEFCAFF2D02228212920FEF795
:10227000A8FC59A228213F20FEF7A3FC574800687C
:10228000642190FBF1F004900C200223009028219F
:102290001C20049AFEF74BFC50480068642190FB18
:1022A000F1F201FB120004900C200223009028217F
:1022B0003320049AFEF73BFC48480068642190FBF9
:1022C000F1F201FB12000A2807DA0C200223002297
:1022D000282100902D20FEF72AFC41A23221502017
:1022E000FEF76FFC0C20052300903E483221026867
:1022F0005F20FEF71CFC3CA232210020FEF761FCAF
:102300003B48006801F046FE04900C200423009036
:1023100032211E20049AFEF70AFCFEF728FB05B0C6
:1023200000BD10B501213248006800F095FD2D4830
:10233000006801F04FFE0446022100F08DFD0321EC
:10234000002000F089FD032000F0D5FD2949087028
:1023500000202949087012E000BF2848008800F0DA
:1023600040000028F9D0264823490978405C2349D9
:10237000091D088020480078401C1F4908701E482D
:1023800000781C4909788842E6DB10BD10B50123AE
:10239000002211461C20FEF775FC01231A4600217D
:1023A0002A20FEF76FFC0123022200213820FEF7CD
:1023B00069FC0123032200214620FEF763FC21E093
:1023C00000002041840000200000C8428800002056
:1023D000564F4C3A00000000560000001400002048
:1023E000503A0000080000204144433A0000000039
:1023F00018000020D6000020D40000200038014042
:10240000E00400200123042200215420FEF73AFCBE
:102410000123052200216220FEF734FC012306225D
:1024200000217020FEF72EFC01230722102100203E
:10243000FEF728FC0123082210210E20FEF722FCC3
:102440000123092210211C20FEF71CFC01230A2273
:1024500010212A20FEF716FC01230B221021382020
:10246000FEF710FC01230C2210214620FEF70AFC87
:1024700001230D2210215420FEF704FC01230E221B
:1024800010216220FEF7FEFB01230F221021702095
:10249000FEF7F8FB0123102220210020FEF7F2FBBB
:1024A0000123112220210E20FEF7ECFB0123122232
:1024B00020211C20FEF7E6FB0123132220212A20E5
:1024C000FEF7E0FB0123142220213820FEF7DAFB7F
:1024D0000123152220214620FEF7D4FB01231622DA
:1024E00020215420FEF7CEFB012317222021622059
:1024F000FEF7C8FB0123182220217020FEF7C2FB43
:102500000123192230210020FEF7BCFB01231A22EF
:1025100030210E20FEF7B6FB01231B2230211C20A8
:10252000FEF7B0FB01231C2230212A20FEF7AAFB74
:1025300001231C2230212E20FEF7A4FB01231C22A4
:1025400030213220FEF79EFBFEF711FA10BD10B5C8
:1025500001230C2200210846FEF794FB01231D22D3
:1025600000210E20FEF78EFB01231E2200211C20DD
:10257000FEF788FB01231F2200212A20FEF782FBA1
:102580000123202200213820FEF77CFB0123212299
:1025900000214620FEF776FB012322220021542051
:1025A000FEF770FB01230B2200216220FEF76AFB7D
:1025B0000123232200217020FEF764FB0123242243
:1025C00010210020FEF75EFB0123252210210E20A2
:1025D000FEF758FB0123262210211C20FEF752FB98
:1025E0000123272210212A20FEF74CFB0123282259
:1025F00010213820FEF746FB012329221021462016
:10260000FEF740FB01232A2210215420FEF73AFB5B
:1026100001232B2210216220FEF734FB01232C2200
:1026200010217020FEF72EFB01232D2220210020F7
:10263000FEF728FB01232E2220210E20FEF722FB8D
:102640000123132220211C20FEF71CFB01232F2233
:1026500020212A20FEF716FB0123302220213820DA
:10266000FEF710FB0123312220214620FEF70AFB52
:102670000123322220215420FEF704FB01233322C0
:1026800020216220FEF7FEFA01231822202170206B
:10269000FEF7F8FA0123292230210020FEF7F2FA92
:1026A0000123342230210E20FEF7ECFA01233522DB
:1026B00030211C20FEF7E6FA0123182230212A20BF
:1026C000FEF7E0FA0123192230213820FEF7DAFA6A
:1026D0000123362230214620FEF7D4FA0123372287
:1026E00030215420FEF7CEFA01231C223021622033
:1026F000FEF7C8FA01231C2230216620FEF7C2FA39
:1027000001231C2230216A20FEF7BCFAFEF72FF9C4
:1027100010BD10B501233C2200210846FEF773FAD4
:1027200001233D2200211020FEF76DFA01233E22F5
:1027300000212020FEF767FA012307220021302024
:10274000FEF761FA0123082200214020FEF75BFA20
:1027500001233F2200215020FEF755FA0123402299
:1027600000216020FEF74FFA012341220021702052
:10277000FEF749FA0123422210210020FEF743FA16
:102780000123432210210846FEF73DFA012344228B
:1027900010212020FEF737FA012345221021302096
:1027A000FEF731FA0123462210214020FEF72BFAD2
:1027B0000123472210215020FEF725FA0123482249
:1027C00010216020FEF71FFA0123492210217020FA
:1027D000FEF719FA01234A2220210020FEF713FAFE
:1027E00001234B2220211020FEF70DFA0123132292
:1027F00020210846FEF707FA01234C222021302031
:10280000FEF701FA0123112220214020FEF7FBF9F7
:1028100001234D2220215020FEF7F5F9012330221B
:1028200020216020FEF7EFF90123052220217020EE
:10283000FEF7E9F90123062230210020FEF7E3F933
:102840000123072230211020FEF7DDF901230822A1
:1028500030212020FEF7D7F901231B223021084622
:10286000FEF7D1F901231C2230214020FEF7CBF9DD
:1028700001231D2230215020FEF7C5F9012311222A
:1028800030216020FEF7BFF901232922302170207A
:10289000FEF7B9F9FEF76BF810BD08B501234E221B
:1028A00000210846FEF7AFF901230722002110207E
:1028B000FEF7A9F90123082200212020FEF7A3F941
:1028C00001232A2200213020FEF79DF901232B222B
:1028D00000214020FEF797F901232C2200215020EF
:1028E000FEF791F901232D2200216020FEF78BF9DC
:1028F00001234F2200217020FEF785F901201023CB
:102900004122194600900020FEF7B7F8012010235D
:102910004422194600900820FEF7AFF8012010234A
:102920004322194600901846FEF7A7F801234722D4
:1029300010211820FEF767F901231F2210212820FB
:10294000FEF761F90123502210213820FEF75BF9D0
:102950001020042340F2F232014600904820FEF796
:10296000E6F80123212210216820FEF74CF91020FF
:10297000042340F20642202100900020FEF7D7F801
:102980000123222220210846FEF73DF901232322BC
:1029900020213020FEF737F9012311222021402089
:1029A000FEF731F901234D2220215020FEF72BF9AB
:1029B0000123302220216020FEF725F90123132274
:1029C00020217020FEF71FF9012351223021002021
:1029D000FEF719F901233D2230211020FEF713F9EB
:1029E00001233E2230212020FEF70DF9012307228A
:1029F00030210846FEF707F9012308223021402044
:102A0000FEF701F901233F2230215020FEF7FBF8A9
:102A10000123402230216020FEF7F5F801234122F6
:102A200030217020FEF7EFF8FDF7A1FF08BD38B5A3
:102A30000123422200210846FEF7E5F80123432244
:102A400000211020FEF7DFF801234422002120207E
:102A5000FEF7D9F80123452200213020FEF7D3F8F4
:102A60000123462200214020FEF7CDF80123472212
:102A700000215020FEF7C7F80123482200216020E2
:102A8000FEF7C1F80123492200217020FEF7BBF8B0
:102A900001234A2210210020FEF7B5F801234B2222
:102AA00010210846FEF7AFF8012312221021202042
:102AB000FEF7A9F80123052210213020FEF7A3F824
:102AC0000123062210214020FEF79DF801232E222B
:102AD00010215020FEF797F801232F2210216020AB
:102AE000FEF791F80123302210217020FEF78BF8B9
:102AF0000123092220210020FEF785F801230A2264
:102B000020211020FEF77FF801230B222021084608
:102B1000FEF779F801230C2220213020FEF773F80C
:102B200001230D2220214020FEF76DF801230E2203
:102B300020215020FEF767F8012338222021602051
:102B4000FEF761F801235E2220217020FEF75BF87A
:102B5000012010234122302100901820FDF78DFF25
:102B6000012010234422302100902020FDF785FF12
:102B7000012010234322302100902820FDF77DFF03
:102B8000AD48006801F006FA0446102004232246EE
:102B9000302100904E20FDF7CAFFFDF7E8FE38BD5A
:102BA00038B50123382200211520FEF76BF80123E8
:102BB000392200212320FEF765F801233A22002163
:102BC0003120FEF75FF801233B2200213F20FEF772
:102BD00059F801233C2200214D20FEF753F8012330
:102BE0003D2200215B20FEF74DF801233E2200210B
:102BF0006920FEF747F801233F2210210020FEF74D
:102C000041F80123402210210E20FEF73BF801235A
:102C1000412210211C20FEF735F801231C2210212F
:102C20002E20FEF72FF801231C2210213520FEF75D
:102C300029F801231C2210213C20FEF723F8012350
:102C40001C2210214320FEF71DF801231C22102115
:102C50004A20FEF717F801231C2210215120FEF70D
:102C600011F801230C2220210E20FEF70BF801237E
:102C70002B2220211C20FEF705F801232C222021E5
:102C80002A20FDF7FFFF0123242220213820FDF711
:102C9000F9FF0123252220214620FDF7F3FF012320
:102CA0002D2220215420FDF7EDFF01232E2220218B
:102CB0006220FDF7E7FF0120102341223021009020
:102CC0001820FDF7DAFE0120102344223021009065
:102CD0002020FDF7D2FE0120102343223021009056
:102CE0002820FDF7CAFE5448006801F053F9044655
:102CF000102004232246302100904E20FDF717FFBC
:102D0000FDF735FE38BD10B5012305220421202032
:102D1000FDF779FF0123062204213020FDF773FF20
:102D200001232F2204214020FDF76DFF01235722AC
:102D300004215020FDF767FF0123092218210846CE
:102D4000FDF761FF01230A2218212820FDF75BFF10
:102D500001230B2218213820FDF755FF01230C22F7
:102D600018214820FDF74FFF01230D22182158207C
:102D7000FDF749FF01230E2218216820FDF743FFCC
:102D8000012358222C210020FDF73DFF0123592269
:102D90002C211020FDF737FF01235A222C2120205F
:102DA000FDF731FF01235B222C213020FDF72BFFA3
:102DB000FDF7DDFD10BD10B50123382210211820CC
:102DC000FDF721FF01235E2210212820FDF71BFFC4
:102DD0000123642210213820FDF715FF012365220D
:102DE00010214820FDF70FFF0123662210215820F3
:102DF000FDF709FF0123002220211820FDF703FF22
:102E00000123672220212820FDF7FDFE01236822EF
:102E100020213820FDF7F7FE01230522202148203C
:102E2000FDF7F1FE0123062220215820FDF7EBFEDD
:102E3000FDF79DFD10BD00001800002030B50346D1
:102E40001C788C545D78541C0D559D78941C0D5540
:102E5000DD78D41C0D5530BD13B50C460A2C00DCB2
:102E600004B91CBD0B2C43D2DFE804F042060C125F
:102E7000181E242A30363C00012244496846FFF7D8
:102E8000DDFF35E0052241496846FFF7D7FF2FE017
:102E900009223E496846FFF7D1FF29E00D223B4950
:102EA0006846FFF7CBFF23E0112238496846FFF759
:102EB000C5FF1DE0152235496846FFF7BFFF17E043
:102EC000192232496846FFF7B9FF11E01D222F4948
:102ED0006846FFF7B3FF0BE021222C496846FFF755
:102EE000ADFF05E0252229496846FFF7A7FF00BF8F
:102EF00000BF00BFB5E701460A2900DC09B9002080
:102F000070472420214A10700B293CD2DFE801F0E1
:102F10003B060B10151A1F24292F350005201B4ACC
:102F200050710620ECE70920184A50720A20E7E7A2
:102F30000D20164A50730E20E2E71120134A5074F8
:102F40001220DDE71520114A50751620D8E7192008
:102F50000E4A50761A20D3E71D200C4A50771E20C7
:102F6000CEE72120094A82F821002220C8E7252047
:102F7000064A82F825002620C2E72920034A82F863
:102F800029002A20BCE70020BAE70000E004002066
:102F900038B500BF96480078012820D10020944918
:102FA00008709448006840F0200092490860084684
:102FB000006840F0800008600846006840F4006047
:102FC00008600846006840F4805008608A4800881D
:102FD00040F0010088490880FDF708FD01E0FEF798
:102FE000D3FDFDF75DFC0446012C01D18349087037
:102FF00082480078012875D1002080490870FDF7CB
:10300000F5FC01207A49087000207D490880794844
:10301000006820F02000774908600846006820F02A
:10302000800008600846006820F4006008600846D8
:10303000006820F4805008606F48008800F0FE00AF
:103040006D490880D2E000BFFDF7FDFB0446FFF7A5
:103050009DF91E20FDF72EF9052C7DD1FDF7C6FC4C
:10306000C0E000BF1E20FDF725F9FDF7ECFB04468C
:10307000FFF76DFA0B2C70D1FDF7B8FCACE000BF88
:10308000FFF747FB1E20FDF715F9FDF7DCFB0446B3
:103090000B2C75D1FDF7AAFC98E000BFFFF7FDFBF4
:1030A0001E20FDF707F9FDF7CEFB04460B2C68D177
:1030B000FDF79CFC84E000BF0F210320FDF7BFFF5C
:1030C000054600F09FFF4F490860FFF7B0FC322033
:1030D000FDF7F0F8FDF7B7FB04460C2C03D1FDF724
:1030E00085FCDBE783E0052C6AD1FDF77FFC00203F
:1030F000454908700A2462E00F210320FDF79FFF75
:10310000054600F07FFF3F49086010200223224659
:10311000014600905820FDF70AFDFFF741FD3B48AE
:103120000078401C394908701E20FDF7C3F8374865
:103130000078C82833DC36493248006801F076F858
:1031400021D834492F48006800F070FF1BD82E4862
:103150000078401C2C4901E045E03EE0087008463C
:10316000007896280FDDFDF741FC0BE00020274991
:103170000870FFF7C8FDFDF766FB052802D109E7D7
:1031800025E01EE0F2E721480078142190FBF1F2DF
:1031900001FB1200012812D1601EC4B20FE0002012
:1031A0001A490870FDF722FCFFF705FE40F6B8301B
:1031B000FDF780F84FF4FA60FDF77CF87CE79BE7B9
:1031C00079E70C2C02D1FDF711FC59E765E70C2CCF
:1031D00002D1FDF70BFC45E751E70C2C02D1FDF7BE
:1031E00005FC31E73DE70C2C00D1D3E62BE738BDD9
:1031F00004000020000401400C2C014003000020CA
:103200004004004018000020DC000020DD00002009
:1032100000807C4400C0804470477047704770470E
:103220007047754600F02CF8AE46050069465346D7
:1032300020F00700854618B020B5FCF7B7FFBDE8C1
:1032400020404FF000064FF000074FF000084FF00D
:10325000000B21F00701AC46ACE8C009ACE8C0099E
:10326000ACE8C009ACE8C0098D46704710B504460B
:10327000AFF300802046BDE81040FCF77EBF0000A1
:10328000004870470C05002021F00042A2F1605276
:10329000B2F5801F01F0004328BFD2F17F6C0BD93B
:1032A0005FEA001C43EAC20242EB507018BF70474D
:1032B00028BF20F001007047B2F5801FBCBF184640
:1032C00070474FEA410C1CF5001F02D2084600F07F
:1032D000A8BF70B500F03EFB00000089FFF7F6BF05
:1032E0004FF00040A0F580007047000010B591EA53
:1032F000030F48BF83F0004300F1BE83841A71EBD3
:10330000030C05D2121943EB0C03001B61EB0C01FB
:10331000DFF824E14FEA1154A4EB135C1EEA430FDB
:1033200018BF9EEA445F73D023EA0E03DCF1200E3F
:1033300021EA045143F4801332D322FA0CFE10EB3D
:103340000E0023FA0CFE41EB0E01CCF1200E03FA25
:103350000EFE10EB0E0051F10001B1F5801FCCF113
:10336000200E32D201EB045112FA0EF2BDE81040E9
:1033700058BF7047401C38BF5FEA420218BF704711
:10338000002814BF20F0010041F100014FEA410381
:1033900013F5001F38BF7047A1F1C04100F028BBF2
:1033A000012A43EB0302ACF1200CDCF11F0E32BF0B
:1033B0004FF0000E23FA0CF310EB030041EB045125
:1033C000B4EB115FD0D0A1EB045101F58011490895
:1033D0005FEA300001EB04510ED350F1000038BF1A
:1033E00012FA0EFE08D1BDE81040C9E7401C38BFF4
:1033F0005FEA4202CAD1C3E7BDE810404FEA410389
:1034000013F5001F38BF7047A1F1C04100F0F0BABA
:103410009EEA445F08D011EA5E0FBDE8104004BF89
:1034200001F0004100207047BDE8104070B500F089
:1034300091FA00BF64FBBE3E0000E0FF491058BF98
:10344000C1F140415B1058BFC3F140438B42EFF3E1
:10345000008070472DE9C04130B4DFF8A0C23CEADB
:10346000111418BF3CEA131400F0EC8081EA030544
:103470001CEA111444EAD57418BF1CEA131500F0B5
:10348000C780A4EB05044FF0004545EAC12145EA99
:10349000C32341EA505143EA525304F17F749942E5
:1034A00004F500344FEAC0204FEAC22208BF904220
:1034B00000F09C804FEA13650FF24016765D4FEAEC
:1034C000134506FB05F7C7F1807706FB07F74FEAC0
:1034D000D737A7FB03687642C8F58038A7FB06CE2E
:1034E00038BFA8F1010807FB08E64FF0000EA6FB65
:1034F000028CE6FB03CEDCF1000CCEF1004E38BFAF
:10350000AEF1010EA6FB0C584FF000074FF000057E
:10351000E6FB0E87A1FB08C6A0FB07CE16EB0E0646
:1035200045F10005E1FB076515F1E04E7EBFA4F50E
:1035300080345FEA46066D4116F1800745F10005CB
:103540004FEA17274FEA066647EA0567A6F1DE4607
:10355000B6F1805F4FEA15251FD9384624F0010CDB
:1035600005EBC471BCF1FE6F01EB0C1102D8F0BC8D
:10357000BDE8008124425CBF01F5801E9EEAC47F45
:1035800002D4F0BCBDE80081244238D4F0BCA1F1E3
:10359000C041BDE8004100F02BBA4FEAD22242EA16
:1035A00043524FEAD323A7FB02864FEAD02040EADA
:1035B000415007FB03661EEA0E0F4FEAD12105FBBF
:1035C000026658BFA6EB0056B6EB00564FEA520E05
:1035D0004EEAC37E18EB0E0E56EB530EBDD518EB1C
:1035E00002085E417F1C55F10005B6E74FF48015D7
:1035F0004FF000074FF000064FF00008ADE7F0BCB9
:103600004FF0000001F1C04101F00041BDE8008130
:1036100011EA0C1F0CEA131500D00CE013EA0C1F82
:1036200000F025804FF00000F0BC81EA030101F0BA
:103630000041BDE80081F0BCBDE8004181EA030122
:1036400000F0D6B9F0BCBDE8004170B500F082F9D9
:10365000097EFC3E00F007B881EA03014FF000004C
:1036600001F00041704781EA030100F0C1B9F0BCEC
:10367000BDE800414FF0000021497047FFFDFBF914
:10368000F7F5F4F2F0EEEDEBE9E8E6E4E3E1E0DE95
:10369000DDDBDAD8D7D5D4D3D1D0CFCDCCCBCAC807
:1036A000C7C6C5C4C2C1C0BFBEBDBCBBBAB9B8B72E
:1036B000B6B5B4B3B2B1B0AFAEADACABAAA9A8A821
:1036C000A7A6A5A4A3A3A2A1A09F9F9E9D9C9C9BEF
:1036D0009A9999989797969595949393929191909A
:1036E0008F8F8E8E8D8C8C8B8B8A8989888887872B
:1036F0008685858484838382828181800000FF07A0
:103700000000F87F4FEA41034FEA5353A3F580636B
:10371000D3F11E03C8BFD3F1210C0CDD4FF00042E2
:1037200042EAC12242EA505232FA03FC8CEAE17CBE
:10373000ACEBE1707047102BC4BF0020704703F55D
:10374000787CBCF1FF3F04D06FF0004282EA210098
:10375000704770B500F0FEF8499224800020704751
:10376000F2E7B0FA80F310FA03F10AD0C3F11D03B7
:1037700003F580634FEA41504FEA035202EBD12137
:1037800070474FF00000704751EA030C17D41CF546
:10379000801F58BFBCF5801F00F10680994218BFFA
:1037A000704708BF9042704707D711F5801F58BF78
:1037B00013F5801F19D499427047894270471CF550
:1037C000801F08D5BCF5801FF7D58B4218BF704706
:1037D00008BF824270474FF4001C1CEB410F38BFFA
:1037E0001CEB430F01D28B42704770B500F0B2F86A
:1037F000922449004FF000514FF08053FFF71EBE56
:10380000DFF848C170B51CEA111E1EBF1CEA131573
:103810009EEA0C0F95EA0C0F00F06F8081EA03041A
:1038200023EA4C134EEAD47E21EA4C1141F4801174
:1038300043F48013AE44A1FB024CA0FB0365AEF140
:103840007F7E361955EB0C05A1FB034C4CF10003B0
:10385000A0FB021C16EB0C06654153F10003094264
:1038600018BF46F0010613F4007F0BD14FEA033175
:103870004FEA0530340341EA155140EA16506FF023
:1038800003020AE04FEAC3214FEAC520F40241EAED
:10389000555140EA56506FF0020202EB2E4201EB06
:1038A000025585EACE710AD05FEA440C18BF24F0B5
:1038B000004450F1000041F1000120EAD47040F2D0
:1038C000FE7C624500D270BDA84214BF4FF0804418
:1038D0004FF04044002E08BF0024BEF1806FA8BF07
:1038E000A1F1C041BDE8704080F282804FF000003D
:1038F00001F1C04101F0004170479EEA0C0F0CEA53
:10390000131518BF95EA0C0F06D04FF0000081EA9E
:10391000030E0EF0004170BD00F01CF88900013E5E
:1039200000F007B800F009B84FEA430C5FEA5C5CAE
:1039300008D081EA030100F05BB84FEA410C5FEA6E
:103940005C5CF6D14FF00000014970470000FF07B2
:103950000000F87F0EF1020E2EF0030E5EF8046BED
:10396000364205D4012A43EB030515F5001F12D892
:10397000012841EB010C1CF5001F0CD80ED14FEAB9
:10398000D17C15F5001F0CEB4C0C0CF1020C08BFA0
:103990004CEBD37C04E04FF0080C01E04FEAD37C01
:1039A0000CEB4C0526FA05F606F00706B6F1040CFA
:1039B00006D20EEB860CBDE870404CF0010C60475F
:1039C000DFE80CF0090B02024FF000414FF000005D
:1039D000A1F5002170BD19461046012851EB0104E4
:1039E00018BFD4F5001484BF002001F0004170BD61
:1039F0000808A0F500114FEA3101704753EA010CA5
:103A000017D41CF5801F58BFBCF5801F00F106803D
:103A10008B4218BF704708BF8242704707D713F523
:103A2000801F58BF11F5801F19D48B4270479B42ED
:103A300070471CF5801F08D5BCF5801FF7D599424B
:103A400018BF704708BF904270474FF4001C1CEB32
:103A5000430F38BF1CEB410F01D2994270470FB49E
:103A60000CBC03BCFFF7C1BE10B591EA030F48BF01
:103A700083F000433FF542AC841A71EB030C07D28C
:103A800012198CF0004C43EB0C03001B61EB0C0192
:103A9000DFF8A4E14FEA1154A4EB135C1EEA430FD4
:103AA00018BF9EEA445F00F0B08023EA6E035242E2
:103AB00021EA0451C3EB6E0338BF5B1EDCF1200E1C
:103AC00025D322FA0CFE10EB0E0043FA0CFE41EB5C
:103AD0000E01CCF1200E03FA0EFE10EB0E0051F198
:103AE0000001CCF1200E29D412FA0EF201EB0451A0
:103AF000BDE8104058BF7047401C1CBFB2F1004FDA
:103B0000704700280CBF491C20F00100704712EBE1
:103B1000020E43EB030218BF4FF0010E4EEA4202C1
:103B2000ACF1200CDCF11E0E54D943FA0CFE10EB64
:103B30000E0051F1FF31CCF11E0ED5D50EF1010E64
:103B400012FA0EFE404141EB010101EB445C5FEAD9
:103B50005C5C10D910EBDE7001EB045138BFBEF194
:103B6000004FBDE8104018BF704700280CBF491C2B
:103B700020F00100704730D24FEAD42C11F500112B
:103B800024F400641BD0B1FA81F20B3AA41AA41EEB
:103B9000D2F12003914030FA03F31943904001EB36
:103BA000CC71002C01EB0451BDE81040A8BF704758
:103BB00001F1C0414FF0000001F000417047B0FA40
:103BC00080F310FA03F100D110BDE41A173C480548
:103BD000C90AE4E701EB045110BD491001EB04519F
:103BE000BDE810404FEA300002E04FF0000170479E
:103BF0004A0008BF0042F8D0B2F5001F28BF704746
:103C000001F000414FF0000070479EEA445F07D08A
:103C100011EA5E0FBDE8104004BF0021002070478C
:103C2000BDE8104070B5FFF795FE00BF40DFF63EDF
:103C300083F00041104670470000E0FF43004FEA68
:103C4000D30C4FEA3C0C43401FBF40070CF16051BE
:103C500013F0FE4F70471CF0006F03D100200CF0F2
:103C6000004170470CF0004343EA507010B540EA41
:103C7000CC0000F090FA00BF000000924FEA000173
:103C8000FFF7B6BE4FF000414FF00000A1F5002154
:103C90007047000090EA010F48BF81F0004100F139
:103CA0000883421A3CBF801A89184FEAD0524FF05D
:103CB0007F4C1CEA410FA2EBD15318BF9CEA026F64
:103CC00000F03B804FF0004C4CEA00204CEA012110
:103CD00021FA03FC10EB0C0C1ED202F1FF325FEA5A
:103CE0001C2040EBC25038BF70471CF07F0F4FEADA
:103CF000400C18BFBCF17F4F38BF7047C3F12003A1
:103D0000994008BF20F00100BCF17F4F38BF7047D9
:103D1000A0F1C04000F085BA4FEA3C00000A40EB39
:103D2000C25028BF1CF0FF0F4FEA400CE6D018BF6E
:103D3000BCF17F4F38BF7047EAE79CEA026F05D0BD
:103D400010EA5C0F08BF00F00040704710B500F0AB
:103D500022FA00BF64FBBE3E401058BFC0F1404095
:103D6000491058BFC1F140418142EFF300807047D4
:103D70004FF47F0C1CEAD0121EBF1CEAD11392EA4A
:103D80000C0F93EA0C0F00F0858090EA010F48BFFA
:103D900042F4807240F4000C41F400002CF07F41AA
:103DA00020F07F4000B58142A2EB03020FF2081C15
:103DB000ACEB504EC0F100009EF800E04FEA4E0E12
:103DC00000FB0EFC38BF49004FEA2C1C02F5FA023A
:103DD0000CFB0EF34FEACE1E4FEA112C4FEAC12125
:103DE0000EEB635E42EB22420EFB0CFC4FEA1C53CF
:103DF00000FB03114FEA112C4FEA01310EFB0CFCC2
:103E00004FEADC4C00FB0C11C14228BF09184CEBF7
:103E100003335DF804EB10EB410143EBC250B2F504
:103E20007C0F38BF704729D512F0F00F1CBF00F18E
:103E3000C04000F0004070470081828384858687FF
:103E400088898B8C8D8E8F919293959697999A9C59
:103E50009D9FA0A2A3A5A7A8AAACAEB0B2B3B5B7C8
:103E6000B9BCBEC0C2C5C7C9CCCED1D4D7D9DCDF9E
:103E7000E2E6E9ECF0F3F7FAFE0000004FEA400C4E
:103E80000CF1807CBCF17E4F28BF7047B0F1C04080
:103E900000F0C7B990EA010F0CEAD11348BF42F411
:103EA0008072624538BF634507D213F47F0F16D086
:103EB00080EA010000F00040704710B500F06BF997
:103EC000097EFC3E00F005B880EA010000F00040E9
:103ED000704780EA010000F0004000F0A2B912F43F
:103EE0007F0F04BF0248704780EA010000F099B9D3
:103EF0000000C07F50EA010C00F113801CF5000F98
:103F000058BFBCF5000F01D48842704707D710F5A1
:103F1000000F58BF11F5000F15D488427047894231
:103F200070471CF5000F04D5BCF5000FF7D5814292
:103F300070474FF0807C1CEB400F38BF1CEB410FEB
:103F400001D28142704710B500F025F99224490052
:103F50004FF000504FF08051FFF7FEBE41000B0EB6
:103F6000D3F19E0208D950F400034FEA032323FA49
:103F700002F048BF4042704710B500F00CF900BF96
:103F800049922480002070476FF0004282EA2000AE
:103F900070470000C10DD1F19E0206DB4FEA0023FD
:103FA00043F0004323FA02F07047004207D54FEA7E
:103FB0004001B1F1FE4F02D24FF00000704710B542
:103FC00000F0E9F849922480002070476FEA200051
:103FD0007047000010F0004148BF4042B0FA80F343
:103FE00010FA03F2C3F19D030BD051EAC35101EB68
:103FF0001220530638BF704700F1010008BF20F0BF
:1040000001007047B0FA80F310FA03F2C3F19D0388
:104010000AD0D90501EB1220530638BF704700F1D2
:10402000010008BF20F001007047000050EA010CB9
:1040300000F113801CF5000F58BFBCF5000F01D430
:104040008842704707D710F5000F58BF11F5000FD1
:1040500015D488427047894270471CF5000F04D57B
:10406000BCF5000FF7D5814270474FF0807C1CEB08
:10407000400F38BF1CEB410F01D28142704710B591
:1040800000F089F8922449004FF000504FF0805121
:10409000FFF762BE4FF47F0C1CEAD0121EBF1CEA71
:1040A000D11392EA0C0F93EA0C0F00F0478090EACC
:1040B000010F48BF42F480724FF0004C4CEA0020E0
:1040C0004CEA012102EB0302A0FB0113A2F500025E
:1040D000002918BF43F001035B0028BF4FEA3303F8
:1040E00042EB22425FEA132C4CEBC2502EBFBCEBDA
:1040F000436FB2F57C0F70474FEA036CBCF1004F81
:1041000008BF20F00100B2F57C0F38BF70470BD517
:1041100082F0FF0212F5803FC8BF704700F1C04037
:10412000D8BF00F00040704700F5000C5FEA4C0C6F
:1041300048BF7047B0F1C04000F073B890EA010F7B
:104140000CEAD11348BF42F48072624538BF634520
:1041500004D280EA010000F00040704710B500F082
:104160001AF800BF8900013E00F007B800F009B856
:104170005FEA410C5FEA1C6C08D080EA010000F0A5
:1041800050B85FEA400C5FEA1C6CF6D14FF000407B
:10419000A0F5800070470EF1020E2EF0030E5EF8BF
:1041A000044B244204D44FEA4102B2F17F4F11D8AC
:1041B0004FEA4003B3F17F4F0CD80ED14FEAD07CC9
:1041C000B2F17F4F0CEB4C0C0CF1020C08BF4CEB26
:1041D000D17C04E04FF0080C01E04FEAD17C0CEBFD
:1041E0004C0324FA03F404F00704B4F1040C06D2DF
:1041F0000EEB840CBDE810404CF0010C6047DFE88A
:104200000CF0070802024FF00040A0F5800010BD3E
:104210000846420018BFD2F1807288BF00F000400B
:1042200010BDFF2141EAD050C005704751EA000C93
:1042300000F113801CF5000F58BFBCF5000F01D42E
:104240008142704707D711F5000F58BF10F5000FD6
:1042500015D481427047894270471CF5000F04D580
:10426000BCF5000FF7D5884270474FF0807C1CEBFF
:10427000410F38BF1CEB400F01D28842704780EAE3
:10428000010081EA000180EA0100FFF7F8BE80F03A
:10429000004090EA010F7FF504AD81F0004100F08D
:1042A00008B8000090EA010F48BF81F000413FF5D7
:1042B000F8AC421A04D882F00042A0EB020011448C
:1042C0004FEAD0524FF07F4C1CEA410FA2EBD15382
:1042D00018BF9CEA026F4AD04FF0004C4CEA002015
:1042E0004CEA012121FA03FCB0EB0C0C0FD412F0C4
:1042F000FE0F36D05FEA4C001DD5001240EBC250D5
:1043000038BF70471CF03F0F18BF70470BE0A2F199
:1043100001025FEA1C2040EBC25038BF70471CF01E
:104320007F0F18BF7047C3F12003994014BF401E90
:1043300020F00100704780084FEA122308BF704741
:10434000B0FA80FCA2EB0C02CCF1280C60FA0CF065
:1043500093EA122F04BF00EBC25070474FEAC370BC
:104360007047130A5FEADC1008BF7047F6E79CEA63
:10437000026F04D010EA5C0F08BF0020704710B530
:10438000FFF709FF40DFF63E81F000407047000074
:10439000000000000000000000000000000000001D
:1043A0003F400000000000000000300040003000EE
:1043B0004000000009000BC03D000BC03D0009009B
:1043C00018C024407FE0224031800000180024C043
:1043D0001B000D803240018003801C4027401C8060
:1043E00007400040100060000000000000000000D6
:1043F0000000000000001F802040402000004020FE
:1044000020401F8000000000090006001F800600F9
:1044100009000000040004003F80040004000000C4
:104420000010006000000000000000000400040014
:104430000400040004000000000000400000000030
:1044400000000000002001C006003800400000000D
:104450001F802040204020401F80000000001040AE
:104460003FC000400000000018C02140224024400E
:104470001840000010802040244024401B80000091
:1044800002000D0011003FC0014000003C802440AC
:1044900024402440238000001F80244024403440D6
:1044A000038000003000200027C0380020000000FA
:1044B0001B802440244024401B8000001C0022C09C
:1044C000224022401F800000000000000840000041
:1044D0000000000000000000046000000000000078
:1044E000000004000A00110020804040090009007B
:1044F0000900090009000000000040402080110070
:104500000A000400180020002340240018000000C6
:104510001F802040274029401F400000004007C066
:1045200039000F0001C0004020403FC0244024401B
:104530001B8000001F802040204020403080000071
:1045400020403FC0204020401F80000020403FC04E
:1045500024402E4030C0000020403FC024402E00A8
:10456000300000000F001080204022403380020005
:1045700020403FC0040004003FC0204020402040B5
:104580003FC02040204000000060202020203FC08D
:104590002000200020403FC024400B0030C02040BD
:1045A00020403FC020400040004000C03FC03C00D1
:1045B00003C03C003FC0000020403FC00C4023002F
:1045C0003FC020001F802040204020401F8000006E
:1045D00020403FC024402400180000001F802140DC
:1045E000214020E01FA0000020403FC024402600C2
:1045F00019C0004018C024402440224031800000EF
:10460000300020403FC020403000000020003F80AC
:10461000004000403F80200020003E0001C0070015
:1046200038002000380007C03C0007C038000000F8
:10463000204039C0060039C020400000200038402A
:1046400007C0384020000000304021C026403840DC
:1046500020C00000000000007FE04020402000005B
:10466000000070000C0003800040000000004020AB
:1046700040207FE0000000000000200040002000FB
:1046800000000000001000100010001000100010CA
:104690000000000040000000000000000000028058
:1046A0000540054003C0004020003FC004400440D6
:1046B0000380000000000380044004400640000026
:1046C00000000380044024403FC0004000000380FD
:1046D0000540054003400000000004401FC0244086
:1046E00024402000000002E0055005500650042040
:1046F00020403FC00440040003C0004000000440CC
:1047000027C000400000000000100010041027E047
:104710000000000020403FC00140070004C00440EA
:10472000204020403FC000400040000007C004007F
:1047300007C0040003C00000044007C00440040098
:1047400003C00040000003800440044003800000D8
:10475000041007F0045004400380000000000380B0
:104760000440045007F00010044007C00240040059
:1047700004000000000006400540054004C00000A1
:10478000000004001F800440004000000400078077
:104790000040044007C000400400070004C001803E
:1047A00006000400060001C0070001C0060000006A
:1047B000044006C0010006C00440000004100710B9
:1047C00004E00180060004000000044005C006402B
:1047D000044000000000000004007BE040200000D6
:1047E000000000000000FFF000000000000040207A
:1047F0007BE004000000000040008000400020003A
:104800002000400000000000000000000000000048
:10481000000000000000000000001FCC000C0000A1
:1048200000000000000008003000600008003000B8
:1048300060000000022003FC1E20022003FC1E205A
:104840000220000000000E1811043FFF10840C78B5
:10485000000000000F0010840F3800C00778188493
:104860000078000000780F8410C411240E9800E432
:1048700000840008080068007000000000000000CC
:104880000000000000000000000007E018182004ED
:1048900040020000000040022004181807E0000059
:1048A000000000000240024001800FF00180024041
:1048B000024000000080008000800FF8008000802F
:1048C000008000000001000D000E0000000000004C
:1048D0000000000000000080008000800080008058
:1048E000008000800000000C000C000000000000B0
:1048F00000000000000000060018006001800600B3
:1049000018002000000007F0080810041004080830
:1049100007F000000000080408041FFC0004000465
:104920000000000000000E0C10141024104411842C
:104930000E0C000000000C18100411041104128861
:104940000C700000000000E00320042408241FFC79
:104950000024000000001F98108411041104108826
:1049600010700000000007F0088811041104188876
:104970000070000000001C00100010FC13001C0060
:104980001000000000000E381144108410841144FF
:104990000E38000000000700088C104410440888FE
:1049A00007F00000000000000000030C030C0000F2
:1049B00000000000000000000001010600000000EF
:1049C00000000000000000800140022004100808E0
:1049D00010040000022002200220022002200220F7
:1049E000022000000000100408080410022001400A
:1049F0000080000000000E001200100C106C1080EF
:104A00000F00000003E00C1813E4142417C4082856
:104A100007D000000004003C03C41C40074000E431
:104A2000001C000410041FFC1104110411040E8862
:104A30000070000003E00C181004100410041008AB
:104A40001C10000010041FFC1004100410040808BF
:104A500007F0000010041FFC1104110417C4100417
:104A60000818000010041FFC1104110017C01000EA
:104A70000800000003E00C181004100410441C7817
:104A80000040000010041FFC10840080008010848F
:104A90001FFC10040000100410041FFC100410047C
:104AA0000000000000030001100110011FFE1000B3
:104AB0001000000010041FFC110403801464181C73
:104AC0001004000010041FFC100400040004000483
:104AD000000C000010041FFC1F0000FC1F001FFC46
:104AE0001004000010041FFC0C04030000E0101868
:104AF0001FFC100007F00808100410041004080838
:104B000007F0000010041FFC10841080108010803B
:104B10000F00000007F0081810241024101C080AC9
:104B200007F2000010041FFC1104110011C0113025
:104B30000E0C000400000E1C11041084108410449C
:104B40001C3800001800100010041FFC1004100096
:104B50001800000010001FF81004000400041004E6
:104B60001FF8100010001E0011E0001C00701380E0
:104B70001C0010001FC0103C00E01F0000E0103CB3
:104B80001FC000001004180C163401C001C01634F8
:104B9000180C100410001C00130400FC13041C006B
:104BA000100000000804101C1064108413041C047E
:104BB000101800000000000000007FFE40024002CC
:104BC00040020000000030000C0003800060001C68
:104BD0000003000000004002400240027FFE00008F
:104BE00000000000000000002000400040004000E5
:104BF000200000000001000100010001000100018F
:104C00000001000100004000400020000000000002
:104C10000000000000000098012401440144014408
:104C200000FC000410001FFC00880104010400883F
:104C300000700000000000700088010401040104FD
:104C400000880000000000700088010401041108C1
:104C50001FFC0004000000F8014401440144014429
:104C600000C800000000010401040FFC110411043D
:104C700011001800000000D601290129012901C9ED
:104C80000106000010041FFC008401000100010463
:104C900000FC000400000104190419FC00040004D5
:104CA000000000000000000300010101190119FECD
:104CB0000000000010041FFC0024004001B4010C9F
:104CC000010400000000100410041FFC0004000494
:104CD00000000000010401FC0104010001FC0104CA
:104CE000010000FC010401FC00840100010001043A
:104CF00000FC0004000000F80104010401040104A8
:104D000000F80000010101FF008501040104008892
:104D1000007000000000007000880104010401051B
:104D200001FF00010104010401FC008401040100F1
:104D300001800000000000CC012401240124012492
:104D40000198000000000100010007F801040104BF
:104D500000000000010001F8000400040004010844
:104D600001FC0004010001800170000C00100160D2
:104D70000180010001F0010C003001C00030010C85
:104D800001F0010000000104018C00740170018C2D
:104D900001040000010101810171000E0018016091
:104DA0000180010000000184010C013401440184F0
:104DB000010C0000000000000000000001003EFCAB
:104DC000400240020000000000000000FFFF000061
:104DD000000000000000400240023EFC0100000014
:104DE00000000000000060008000800040004000E3
:104DF000200020000200000000000000420000002F
:104E00000000000033000000FE0000000000000071
:104E10000400000000000000080000002200000064
:104E2000000000002A000000FF0000002A0000002F
:104E3000A80000002A000000A8000000FE000000FA
:104E4000A80000002A000000AA0000002A000000BC
:104E5000A90000002A000000FE000000220000005F
:104E60000000000002000000000000000000000040
:104E70000000000008000000200000000800000002
:104E8000C00000000B00000000000000FF00000058
:104E9000FF0000000900000000000000000000000A
:104EA000800000007F000000FF00000049000000BB
:104EB000020000004900000004000000490000005A
:104EC000C000000049000000300000004900000060
:104ED000280000007F0000004400000000000000E7
:104EE000820000000000000002000000000000003E
:104EF0000000000008000000420000000800000060
:104F000041000000FF000000FE000000080000005B
:104F10008000000009000000010000000000000007
:104F2000060000007F000000F800000049000000BB
:104F300000000000490000003F00000049000000A0
:104F4000220000004F000000E200000049000000C5
:104F5000220000004900000022000000790000004B
:104F60003F00000001000000000000000000000001
:104F70000000000008000000200000000800000001
:104F8000220000000800000041000000FF000000B7
:104F9000FE00000008000000800000000900000082
:104FA0000100000000000000420000007F0000003F
:104FB0005C000000490000004200000049000000C1
:104FC00041000000490000007F000000490000008F
:104FD0004900000049000000490000007F00000077
:104FE0004900000000000000410000000000000037
:104FF00000000000020000000400000002000000A9
:105000000800000042000000100000004200000004
:1050100060000000420000000000000042000000AC
:1050200002000000420000000100000043000000F8
:10503000FE000000420000000000000042000000EE
:1050400000000000420000000000000042000000DC
:1050500040000000420000002000000002000000AC
:1050600010000000020000000C0000000000000022
:1050700000000000020000000000000042000000EC
:105080000000000033000000FC00000000000000F1
:105090000800000000000000110000007F00000078
:1050A000FE00000041000000000000004900000078
:1050B0007800000049000000480000007F00000068
:1050C00048000000490000004800000049000000BE
:1050D0007A00000041000000010000007F00000095
:1050E000FE000000000000000000000000000000C2
:1050F000000000002000000000000000220000006E
:10510000000000002200000000000000220000005B
:1051100000000000FA000000000000002200000073
:105120000000000023000000FF000000220000003B
:10513000000000002200000000000000220000002B
:1051400010000000FA00000008000000220000002B
:105150001000000023000000E0000000200000001C
:10516000000000002000000000000000000000001F
:1051700000000000080000004000000008000000DF
:10518000420000000800000081000000FF00000055
:10519000FE00000009000000000000000200000006
:1051A00020000000780000002200000049000000FC
:1051B00027000000490000002A00000079000000DC
:1051C000320000004F000000E20000007900000003
:1051D00022000000490000002A00000049000000F1
:1051E00026000000780000002300000000000000FE
:1051F000000000000800000020000000080000007F
:10520000C00000000B00000000000000FF000000D4
:10521000FF0000000900000000000000080000007E
:10522000C00000000100000000000000410000007C
:1052300000000000410000000000000041000000EC
:10524000000000007F000000FF000000410000009F
:1052500000000000410000000000000041000000CC
:10526000000000000100000000000000000000003D
:1052700000000000080000004000000008000000DE
:10528000420000000800000081000000FF00000054
:10529000FE00000009000000000000000400000003
:1052A00000000000190000000100000011000000D3
:1052B0002100000011000000D20000009700000053
:1052C0001400000071000000080000001100000040
:1052D0001400000011000000E200000015000000B2
:1052E00001000000190000000000000000000000A4
:1052F000000000004000000000000000400000002E
:10530000000000004000000000000000400000001D
:10531000000000004000000000000000400000000D
:10532000000000007F000000FF00000040000000BF
:1053300000000000400000000000000042000000EB
:1053400000000000410000000000000040000000DC
:1053500080000000400000006000000040000000ED
:1053600000000000400000000000000000000000FD
:10537000000000000000000001000000000000002C
:10538000060000007F000000F8000000440000005C
:105390004000000044000000400000004400000005
:1053A0004000000044000000400000007F000000BA
:1053B000FE00000044000000400000004400000027
:1053C00040000000440000004200000044000000D3
:1053D000410000007F000000FE000000000000000F
:1053E00000000000000000000000000000000000BD
:1053F00000000000000000000000000000000000AD
:105400000100000000000000060000001F00000076
:10541000F8000000100000008000000010000000F4
:10542000800000009000000080000000700000007C
:10543000800000001000000080000000100000004C
:10544000800000001000000080000000100000003C
:10545000800000001F000000C000000000000000ED
:10546000000000000000000000000000000000003C
:1054700000000000080000004000000008000000DC
:10548000420000000800000081000000FF00000052
:10549000FE00000009000000000000000400000001
:1054A00000000000190000000100000011000000D1
:1054B0002100000011000000D20000009700000051
:1054C000140000007100000008000000110000003E
:1054D0001400000011000000E200000015000000B0
:1054E00001000000190000000000000000000000A2
:1054F0000000000002000000800000000C0000001E
:1055000080000000F7000000FE0000002400000002
:1055100084000000240000008A0000000100000058
:10552000640000002700000018000000390000009F
:10553000E400000008000000220000002A00000033
:10554000A20000002A000000A2000000FF000000EE
:10555000FA0000002A000000A20000003E00000047
:10556000A20000000800000022000000000000006F
:1055700000000000010000000000000041000000E9
:105580000100000041000000020000004100000096
:105590000C0000007F000000F0000000410000004F
:1055A0000000000041000000000000004100000079
:1055B0000000000041000000000000004100000069
:1055C000000000007F000000FF000000410000001C
:1055D0000000000041000000000000004100000049
:1055E00000000000010000000000000000000000BA
:1055F0000000000008000000020000000800000099
:10560000440000000F000000A8000000F8000000A7
:105610001000000008000000680000000F000000FB
:1056200084000000000000000000000002000000F4
:1056300000000000070000007F0000001A000000CA
:1056400042000000E20000004200000002000000F2
:10565000420000000A0000004200000006000000B6
:105660007F000000030000000000000000000000B8
:10567000000000000000000000000000000000002A
:1056800000000000000000001A0000000000000000
:105690001C000000000000000000000000000000EE
:1056A00000000000000000000000000000000000FA
:1056B00000000000000000000000000000000000EA
:1056C00000000000000000000000000000000000DA
:1056D00000000000000000000000000000000000CA
:1056E00000000000000000000000000000000000BA
:1056F00000000000000000000000000000000000AA
:105700000000000000000000180000000000000081
:105710002400000000000000240000000000000041
:105720001800000000000000000000000000000061
:105730000000000000000000000000000000000069
:105740000000000000000000000000000000000059
:105750000000000000000000000000000000000049
:105760000000000000000000000000000000000039
:1057700000000000080000004000000008000000D9
:10578000420000000800000081000000FF0000004F
:10579000FE000000090000000000000004000000FE
:1057A0000000000018000000800000001000000051
:1057B0008000000010000000820000009000000047
:1057C0008100000070000000FE00000010000000DA
:1057D00080000000100000008000000014000000A5
:1057E00080000000180000008000000000000000A1
:1057F000000000000200000008000000220000007D
:105800003C00000023000000C8000000220000004F
:105810000800000022000000280000002200000014
:105820001D0000000200000002000000080000004F
:105830000C0000000800000070000000FF000000E5
:1058400080000000080000000200000008000000C6
:105850000100000008000000020000000F0000002E
:10586000FC0000000000000000000000000000003C
:10587000000000000400000001000000080000001B
:105880000600000017000000F800000024000000DF
:1058900090000000E40000009000000024000000E0
:1058A000900000002400000090000000270000008D
:1058B000FE00000024000000900000002C0000000A
:1058C000900000003400000092000000040000007E
:1058D0009100000007000000FE0000000000000032
:1058E00000000000000000000000000000000000B8
:1058F0000000000000000000800000000100000027
:105900000000000006000000000000001F00000072
:10591000FF000000E000000002000000080000009E
:1059200002000000090000008200000008000000E2
:105930007A000000880000000200000068000000FB
:1059400002000000080000000E0000000800000037
:10595000720000000B000000820000000800000040
:105960000200000000000000020000000000000033
:1059700000000000240000001000000024000000CF
:105980006000000025000000800000007F00000093
:10599000FF000000C4000000800000004400000080
:1059A000600000000000000000000000080000008F
:1059B000910000001000000091000000290000008C
:1059C00022000000E6000000520000002400000059
:1059D000CC0000002900000048000000300000005A
:1059E0005000000000000000600000000000000007
:1059F0000000000000000000800000000100000026
:105A00000000000006000000000000001F00000071
:105A1000FF000000E00000000000000002000000A5
:105A20000000000012000000400000001200000012
:105A3000D00000001700000048000000FA0000003D
:105A400044000000120000004B00000012000000A3
:105A50005000000012000000600000000200000082
:105A60000000000002000000000000000000000034
:105A70000000000000000000110000000000000015
:105A8000660000003F0000008000000020000000D1
:105A9000000000002B000000C60000002A000000EB
:105AA000410000002A000000410000002A00000020
:105AB000490000002B000000D5000000200000007D
:105AC00021000000FE000000410000002100000055
:105AD00083000000A3000000400000006C000000F4
