:020000040800F2
:10000000500C0020CD01000819130008650F0008EE
:1000100065110008FD0700081B2A00080000000009
:10002000000000000000000000000000F91B0008B4
:10003000C109000800000000C91800084D1D000893
:10004000E7010008E7010008E7010008E7010008F0
:10005000E7010008E7010008E7010008E7010008E0
:10006000E7010008E7010008E7010008E7010008D0
:10007000E7010008E7010008E7010008E7010008C0
:10008000E7010008E7010008E7010008E7010008B0
:10009000E7010008E7010008E7010008590B000824
:1000A000E7010008F11F0008E7010008E701000868
:1000B000E7010008E701000881210008E7010008C6
:1000C000E7010008E7010008E7010008E701000870
:1000D000E7010008F9270008E7010008E701000828
:1000E000C5090008E7010008E7010008E70100086A
:1000F000E7010008E7010008E7010008E701000840
:10010000E7010008E7010008E7010008E70100082F
:10011000E7010008E7010008E7010008E70100081F
:10012000E7010008E7010008E7010008E70100080F
:1001300000F002F800F03AF80AA090E8000C8244BF
:100140008344AAF10107DA4501D100F02FF8AFF29C
:10015000090EBAE80F0013F0010F18BFFB1A43F0A5
:1001600001031847F0E9000010EA0000103A24BF2C
:1001700078C878C1FAD8520724BF30C830C144BF0C
:1001800004680C607047000000230024002500264E
:10019000103A28BF78C1FBD8520728BF30C148BFEA
:1001A0000B6070471FB51FBD10B510BD00F033F8D0
:1001B0001146FFF7F7FF02F045FE00F051F803B4D7
:1001C000FFF7F2FF03BC02F03FFC00000948804744
:1001D00009480047FEE7FEE7FEE7FEE7FEE7FEE729
:1001E000FEE7FEE7FEE7FEE704480549054A064B41
:1001F00070470000511D0008310100085006002022
:10020000500C002050080020500800207047704714
:10021000704770477047754600F02CF8AE460500F1
:100220006946534620F00700854618B020B5FFF711
:10023000DBFFBDE820404FF000064FF000074FF015
:1002400000084FF0000B21F00701AC46ACE8C009F4
:10025000ACE8C009ACE8C009ACE8C0098D467047FD
:1002600010B50446AFF300802046BDE81040FFF70C
:10027000A6BF000000487047EC05002021B182684D
:1002800042F00102826003E0826822F00102826093
:100290007047000010B504461248844208D101217D
:1002A000401501F0F7FB0021601501F0F3FB17E0AA
:1002B0000D48844208D10121001501F0EBFB00211B
:1002C000201501F0E7FB0BE00848844208D101212A
:1002D000C80301F0DFFB00214FF4004001F0DAFB1E
:1002E00010BD00000024014000280140003C0140F6
:1002F000014600208A6802F004020AB1012000E0F1
:10030000002070470146C86C80B27047024600204A
:1003100013680B400BB1012000E00020704701463C
:1003200000208A6802F008020AB1012000E00020E3
:100330007047000030B502460020002350680F4C83
:1003400020400D790C6844EA0524204350609068F1
:100350000B4C2040D1E902542C434D7944EA45042A
:1003600020439060D06A20F470000C7C641EE4B2DC
:10037000234340EA0350D06230BD0000FFFEF0FF8F
:10038000FDF7F1FFF0B504460D4600200021092DD0
:1003900011DDE068A5F10A0606EB4607072606FA16
:1003A00007F18843A5F10A0606EB460603FA06F1B3
:1003B0000843E0600CE0206905EB4507072606FAD4
:1003C00007F1884305EB450603FA06F1084320616F
:1003D000072A0FDA606B561E06EB86071F2606FA01
:1003E00007F18843561E06EB860605FA06F1084318
:1003F000606322E00D2A0FDA206BD61F06EB86071A
:100400001F2606FA07F18843D61F06EB860605FA73
:1004100006F10843206310E0E06AA2F10D0606EB46
:1004200086071F2606FA07F18843A2F10D0606EBA0
:10043000860605FA06F10843E062F0BD816841F0E6
:1004400008018160704721B1826842F4A002826095
:1004500003E0826822F4A00282607047816841F064
:10046000040181607047000000B587B001214FF49E
:10047000017001F0FFFA4FF4004001F0DFFA48206C
:10048000ADF8040000208DF8070001A9174800F01E
:1004900065FC1748FFF7FEFE002002908DF80C0067
:1004A0008DF80D004FF4602004900020059001208D
:1004B0008DF8180002A90E48FFF73CFF01210C48F7
:1004C000FFF7DCFE0A48FFF7B9FF00BF0848FFF757
:1004D00026FF0028FAD10648FFF7C0FF00BF0448F6
:1004E000FFF706FF0028FAD107B000BD0008014061
:1004F0000024014010B58448007860BB8348007830
:10050000401C82490870824801888248006801F0D6
:100510004BFA8149086042F665007D49088002F087
:100520007FFA7A480078012816D17A48006842F2AA
:10053000FC61884205DB7748006842F224718842FA
:100540000ADD00207149087042F21070704908807D
:1005500001207249087003E06F48006801F0C2FB97
:100560006F480088401C80B26D490880002872D016
:100570006C496D48006804F01BFA6CD26B496A48FC
:10058000006804F015F966D20020654908806848C3
:10059000008858B967486849086068486849086031
:1005A0006848694908606948694908606048008886
:1005B000401C5F490880084600880A284BDD01205E
:1005C000514908705848006800F0E2F86149086035
:1005D000574800886D2824DD554800886E280BD1C7
:1005E0005D48554908605D48554908605C48564972
:1005F00008605C485649086073204D4908805A4895
:100600000078401CC0B258490870042813DD4148E6
:10061000006801F05BF955490860002052490870F4
:1006200009E03B480088524908603A48006801F0F8
:100630004DF94E49086000204E49088002F0F0F95B
:100640004448006849490968401A33490860084627
:10065000006801F047FB48493348006804F0A8F9F6
:1006600005D246493048006804F0A2F81AD327485A
:100670000078022816DD2A48008898B9012022490E
:100680000870002001F02EFB3A480088401C3949D0
:10069000088008460088C82804DD00200880012062
:1006A0001E49087034492048006804F081F905D2D9
:1006B00032491D48006804F07BF807D313480078DE
:1006C000022803DD16480088782805DC2C480068DD
:1006D00040F25641884216DA9620114908800120DE
:1006E00009490870002001F0FDFA22480088401CEA
:1006F0002049088008460088C82804DD00200880BA
:1007000001200649087010BD9D000020A4000020B3
:100710009E000020080000201000002000000020A3
:10072000E800002000E02B451800002000A05745FD
:10073000A00000200000F0411C0000200000164333
:100740002000002000007041240000200000FA4337
:10075000280000209400002000004842000074435C
:100760000000C841000016449C00002098000020B2
:100770000C000020EA0000200080224500006145B6
:1007800014000020014908607047000000860D42F7
:100790002DE9F04705461449284604F03BF9044684
:1007A00012480168204604F035F9114908601148E3
:1007B00001680F48006804F02FF882460E48006870
:1007C00080F000492146484604F026F8804651460C
:1007D00004F020F9074603F083FF0646034804604F
:1007E0003046BDE8F087000000C04145B000002061
:1007F000B8000020200000201C00002000BFFEE701
:1008000010B501211948006800F088F81848006800
:1008100003F0A2FF0446022100F080F8032100202B
:1008200000F07CF8032000F02DF812490870002039
:100830001149087012E000BF1048008800F0400025
:100840000028F9D00E480C490978405C0B49091D75
:10085000088009480078401C07490870064800785D
:10086000044909788842E6DB10BD0000180000202A
:1008700008000020EE000020EC00002000380140BD
:10088000C005002001460A2900DC09B90020704794
:100890002420214A10700B293CD2DFE801F03B06EE
:1008A0000B10151A1F24292F350005201A4A5071E4
:1008B0000620ECE70920184A50720A20E7E70D20CD
:1008C000154A50730E20E2E71120134A507412208B
:1008D000DDE71520104A50751620D8E719200E4A7A
:1008E00050761A20D3E71D200B4A50771E20CEE702
:1008F0002120094A82F821002220C8E72520064A43
:1009000082F825002620C2E72920034A82F8290020
:100910002A20BCE70020BAE7C005002013B50C462A
:100920000A2C00DC04B91CBD0B2C43D2DFE804F018
:1009300042060C12181E242A30363C0001221F49A0
:10094000684600F0DDF935E005221C49684600F0F4
:10095000D7F92FE009221949684600F0D1F929E0BA
:100960000D221649684600F0CBF923E01122134905
:10097000684600F0C5F91DE015221049684600F0F0
:10098000BFF917E019220D49684600F0B9F911E0E6
:100990001D220A49684600F0B3F90BE021220749FD
:1009A000684600F0ADF905E025220449684600F0EC
:1009B000A7F900BF00BF00BFB5E70000C0050020D9
:1009C0007047000010B5052002F0B0F957480068E4
:1009D00068BB4FF07E515648006803F04DFE08D1C9
:1009E000544801685448006804F014F852490860FB
:1009F0002DE04FF080414E48006803F03DFE08D1E5
:100A00004E4801684E48006804F004F84C490860FC
:100A10001DE04C494648006803F02EFE08D14A48C4
:100A200001684A48006803F0F5FF484908600EE095
:100A30004FF081413E48006803F01EFE07D1444854
:100A400001684448006803F0E5FF42490860374800
:100A5000001F006868BB4FF07E513548006803F006
:100A60000BFE08D1334801683348006803F096FD57
:100A7000314908602DE04FF080412D48006803F0B7
:100A8000FBFD08D12D4801682D48006803F086FD64
:100A90002B4908601DE02B492548006803F0ECFD58
:100AA00008D1294801682948006803F077FD2749E3
:100AB00008600EE04FF081411D48006803F0DCFD46
:100AC00007D1234801682348006803F067FD2149E6
:100AD000086000211848006803F06AFE02D8002070
:100AE0001549086000211648006803F061FE02D82D
:100AF00000201349086000211448006803F058FEE4
:100B000002D800201149086000211248006803F053
:100B10004FFE02D800200F4908604FF4006000F03B
:100B20004FF84FF4805000F04BF810BD30012142D7
:100B300034000020380000201C0000203C00002071
:100B40002000002000004040400000202400002041
:100B5000440000202800002070B5052002F0E6F8CF
:100B60001448006838B91448007808B9012000E03A
:100B70000020114908700F480830006898B90F48E4
:100B80004FF07E510568006803F008FD0B492C46C4
:100B900008604FF08141204603F06EFD03D14FF015
:100BA0007E5006490860202000F00AF8802000F0FE
:100BB00007F870BD1401214200000020340000201D
:100BC00001490860704700001404014000212349D6
:100BD0008279002A3AD00A46126803689A430B4683
:100BE0001A600A1D126803689A430B1D1A60027985
:100BF00011440A6803681A430A60184A08321268E6
:100C000003689A43154B08331A601A1D126803686B
:100C10009A43124B0C331A604279102A0ED11A1FD4
:100C2000126803681A430D4B08331A601A1D1268C4
:100C300003681A43094B0C331A600DE007494279E7
:100C400011440A6803681A430A6005E002791144F6
:100C50000A6803689A430A60704700000004014074
:100C600000B587B00121042000F0F4FE0121082026
:100C700000F000FFC020ADF8000004208DF8030054
:100C800069461D4800F06AF804A801F009FC00203C
:100C9000ADF810004FF6FF70ADF814000020ADF86D
:100CA0001600ADF8120004A9144801F0A7FB0023B8
:100CB0001A460321114801F08DFA01A801F012FB38
:100CC0000A20ADF80C0001A90C4801F0B5FA012189
:100CD0000A4801F06DFA01221146084801F00BFBA9
:100CE00042F21071054801F05AFB0121034801F05E
:100CF00065FA07B000BD0000000C0140000800408C
:100D000030B503461C788C545D78541C0D559D7885
:100D1000941C0D55DD78D41C0D5530BD30B5002226
:100D20008B071C0F0F2303FA04F20B4B8C1053F8A4
:100D300024309343084C8D1044F8253023468C1002
:100D400053F824308C07240F00FA04F42343024C98
:100D50008D1044F8253030BD080001402DE9F041E8
:100D6000024600250026002000230024002791F8D9
:100D700003C00CF00F0591F803C00CF0100CBCF18F
:100D8000000F03D091F802C04CEA050591F800C0AD
:100D9000BCF1000F31D0146800202BE04FF0010CA3
:100DA0000CFA00F3B1F800C00CEA03069E4220D111
:100DB00083004FF00F0C0CFA03F7BC4305FA03FC59
:100DC0004CEA040491F803C0BCF1280F06D14FF09F
:100DD000010C0CFA00FCC2F814C00AE091F803C040
:100DE000BCF1480F05D14FF0010C0CFA00FCC2F821
:100DF00010C0401C0828D1D31460B1F800C0BCF169
:100E0000FF0F34DD546800202EE000F1080C4FF095
:100E1000010808FA0CF3B1F800C00CEA03069E4280
:100E200021D183004FF00F0C0CFA03F7BC4305FAF5
:100E300003FC4CEA040491F803C0BCF1280F05D16F
:100E400000F1080C08FA0CF8C2F8148091F803C0FD
:100E5000BCF1480F07D100F1080C4FF0010808FA67
:100E60000CF8C2F81080401C0828CED35460BDE8AE
:100E7000F0814161704701617047000010B5044680
:100E8000062C06D10723012221460D48FFF77AFAE6
:100E900007E0032C05D10023012221460848FFF773
:100EA00071FA01210648FFF7CEFA00BF022104487B
:100EB000FFF72CFA0028F9D00148FFF723FA10BDFC
:100EC000002401402DE9F04107460C46002500268C
:100ED00008E03846FFF7D2FF0544C82001F04CFF78
:100EE000701CC6B2A642F4DBB5FBF4F080B2BDE8DC
:100EF000F08100002DE9F04F87B00620FFF7BEFF1C
:100F0000019003F024F980464FF06632104B03F055
:100F100031F900220F4BCDE9020103F02BF9002239
:100F20000D4BCDE9040103F025F9064600220B4BD9
:100F300002F086FF04460022094B02F081FF824640
:100F400003F0D6F80690069807B0BDE8F08F0000D1
:100F500066660A4000002640000059400000F03F4D
:100F60000000B04000BFFEE701464906084A92690A
:100F700042F00102064B9A61064A526822F0E06292
:100F8000044B5A601A4652680A435A607047000080
:100F9000001002400000014008B50121042000F0CB
:100FA00069FD40F6A400ADF8000048208DF803006C
:100FB00069460248FFF7D2FE08BD00000008014064
:100FC00010B54FF402642E480078012818D12D493D
:100FD0002D48006803F0ECFC0CD22C492A4800682C
:100FE00003F0E6FB06D201202949087000202949B8
:100FF000087005E001202749087000202449087086
:10100000642001F009FE24490860084600680128B0
:1010100001D12249086020480068022801D11F49F7
:1010200008601E480068012812D11D480068401C55
:101030001B4908601B480068401C1A4908600846A4
:101040000068A04204D100201449086015490860D6
:1010500012480068022812D111480068401E104949
:10106000086010480068401C0E4908600846006887
:10107000A04204D10020094908600A49086010BD57
:10108000000000200080224518000020000061457B
:10109000A2000020A3000020CC000020D0000020EF
:1010A0000C000020D400002008B50121042000F02D
:1010B000E1FC1020ADF800008DF8030003208DF84E
:1010C000020069460348FFF749FE10210148FFF777
:1010D000D2FE08BD0008014018B90021094A11607C
:1010E0000FE009490968491C074A1160814208D18B
:1010F00004490968C943054AC2F890110021024A0F
:1011000011607047900121427C00002000002142C4
:101110001148008840B91148006828B91048008873
:10112000401C0F49088002E000200D4908800C484F
:101130000088142807DD012007490880002008499D
:1011400008800120704704480088012802D100204F
:10115000014908800020F5E78C0000201C01214295
:101160008A00002000BFFEE70EB50121084600F00E
:1011700081FCFFF711FF05210020FFF7CFFD2020A4
:10118000019000208DF808000C208DF80900012046
:101190008DF80A0001A8FFF719FD07210020FFF7CD
:1011A000BDFD8020019000208DF808000C208DF8F6
:1011B000090001208DF80A0001A8FFF707FD0B21A7
:1011C0000020FFF7ABFD4FF40060019000208DF888
:1011D00008000C208DF8090001208DF80A0001A8F4
:1011E000FFF7F4FC0C210020FFF798FD4FF480502E
:1011F000019000208DF808000C208DF809000120D6
:101200008DF80A0001A8FFF7E1FC17208DF8000017
:1012100002208DF801008DF8020001208DF80300F6
:10122000684600F07BF828208DF8000002208DF839
:1012300001008DF8020001208DF80300684600F0DF
:101240006DF80EBD08B50121082000F013FC4FF425
:101250004050ADF8000010208DF8030003208DF8F9
:10126000020069460448FFF779FD4FF440510248F7
:10127000FFF7FFFD08BD0000000C014030B589B04C
:1012800005460C46FFF7DEFF0121022000F0E2FBDD
:101290000121082000F0EEFB0220ADF8200018200C
:1012A0008DF8230003208DF8220008A91848FFF7C5
:1012B00055FDADF81850ADF814400120ADF81A00F6
:1012C0000020ADF8160005A9124801F097F860203B
:1012D000ADF804000120ADF806000020ADF80A00CA
:1012E000ADF80C004FF40070ADF8120001A90948E8
:1012F00001F00AF80821074801F044F801210548E7
:1013000000F04AFF0121034800F058FF09B030BD4A
:10131000000C0140000400407047000070B500213F
:1013200000230F22C47804B3154C246804F4E0644D
:10133000C4F5E064210AC1F10403CA40447804FA08
:1013400003F184781440214309010E4C0678A1551D
:10135000047804F01F050124AC4005786D11AD0040
:1013600005F1E025C5F8004109E0047804F01F0507
:101370000124AC40044D0678761145F8264070BD36
:101380000CED00E000E400E080E100E002490143F0
:10139000024A1160704700000000FA050CED00E001
:1013A00030B500240CE0002506E00020074901EBE1
:1013B000C5010855681CC5B2802DF6DB601CC4B29F
:1013C000082CF0DB00F0E2F830BD0000C001002086
:1013D000F0B5144600267F2801DC3F2900DDF0BD72
:1013E0000B46CF1701EB5777FF10C7F10707FAB28B
:1013F000CF1701EB5777FF10A1EBC707FDB2C5F17F
:1014000007070123BB40DEB24CB10A4B03EBC0031C
:101410009B5C3343074F07EBC007BB5408E0054B09
:1014200003EBC0039B5CB343024F07EBC007BB5405
:1014300000BFD4E7C001002008B50121082000F05A
:1014400019FB3820ADF8000010208DF803000220B1
:101450008DF8020069464948FFF780FC012104200D
:1014600000F008FB4FF40040ADF8000002208DF8BA
:10147000020010208DF8030069464148FFF76EFC1A
:10148000012000F01BFA002000F07EFB0020FFF797
:1014900079F9002000F012FA00203A49086064202F
:1014A00001F044FC01203849C1F88C010021AE2034
:1014B00000F0D8F90021D52000F0D4F90021502007
:1014C00000F0D0F90021A82000F0CCF900213F2045
:1014D00000F0C8F90021D32000F0C4F9002108462B
:1014E00000F0C0F90021402000F0BCF900218D205F
:1014F00000F0B8F90021142000F0B4F900212020F8
:1015000000F0B0F90021022000F0ACF90021A12088
:1015100000F0A8F90021C02000F0A4F90021DA2091
:1015200000F0A0F90021122000F09CF90021812098
:1015300000F098F90021EF2000F094F90021D92063
:1015400000F090F90021F12000F08CF90021DB205F
:1015500000F088F90021302000F084F90021A42057
:1015600000F080F90021A62000F07CF90021AF20D6
:1015700000F078F9FFF714FF08BD0000000C0140EF
:10158000000801408C8121420080214230B50024B6
:101590001CE004F1B001C8B2002100F063F90021A1
:1015A000084600F05FF90021102000F05BF90025EB
:1015B00008E0084901EBC501085D012100F052F97E
:1015C000681CC5B2802DF4DB601CC4B2082CE0DBC3
:1015D00030BD0000C00100202DE9F04F80460C46D0
:1015E00015461E46A346A5F12000C5B200273EE0E1
:1015F0000C2E07D105EB45001F4901EB800010F8C8
:10160000079004E01D4800EB051010F807904FF01C
:10161000000A26E009F0800028B121464046099AD8
:10162000FFF7D6FE09E0099808B9012000E0002084
:10163000024621464046FFF7CBFE4FEA49604FEA9B
:101640001069601CC4B2A4EB0B00B04205D15C462B
:1016500008F1010000F0FF0806E00AF1010000F0C7
:10166000FF0ABAF1080FD5DB00BF781CC7B2B7423A
:10167000BEDBBDE8F08F0000004B0008744F00088F
:101680002DE9F04F07460C4690461D46A34600261E
:1016900031E01B4800EBC81010F826904FF0000A0C
:1016A00023E009F0800028B12A4621463846FFF79A
:1016B0008FFE08E00DB9012000E00020024621461F
:1016C0003846FFF785FE4FEA49604FEA1069601C13
:1016D000C4B2A4EB0B00102803D15C46781CC7B23F
:1016E00006E00AF1010000F0FF0ABAF1080FD8DBAA
:1016F00000BF701CC6B2202ECBDBBDE8F08F00000F
:10170000645500082DE9F04F07460C4690461D46EB
:10171000A346002633E0C8EBC8001B4901EB0010CC
:1017200010F826904FF0000A23E009F0800028B15D
:101730002A4621463846FFF74BFE08E00DB9012046
:1017400000E00020024621463846FFF741FE4FEAFE
:1017500049604FEA1069601CC4B2A4EB0B0010286A
:1017600003D15C46781CC7B206E00AF1010000F024
:10177000FF0ABAF1080FD8DB00BF701CC6B21C2EDE
:10178000C9DBBDE8F08F0000E4AB00082DE9FF4F96
:1017900081B0074691461E460E9D4FF0000A002478
:1017A00039E0301B401EC1B20A2001F08EFBB9FBAC
:1017B000F0F00A21B0FBF1F201FB1208BAF1000FC0
:1017C00016D1701EA04213DDB8F1000F0ED101201A
:1017D000AB4605EBDB71491001FB04710090C8B208
:1017E0002B4620220299FFF7F7FE12E04FF0010A84
:1017F0000120AB4605EBDB71491001FB0471009041
:10180000C8B208F13001CAB22B460299FFF7E4FED4
:1018100000BF601CC4B2B442C3DB05B0BDE8F08FAA
:1018200078B505460E46144618E07A2D03DD0025EE
:1018300006F11000C6B23A2E04DD00200546064629
:10184000FFF7AEFD0120009022780C233146284698
:10185000FFF7C2FE05F10800C5B2641C207800281D
:10186000E3D178BD10B50A461AB10123114C2360AB
:1018700002E000230F4C2360002114E000230E4CF3
:10188000236000F080031BB10123241F236003E0C9
:101890000023094C241F23600123074C23604306C7
:1018A000180E4B1CD9B20829E8DB0123014C236038
:1018B00010BD0000BC01214294812142014908620F
:1018C0007047000000000E42704700002DE9FC4701
:1018D00082462A490968AAEB010002F03DFF284927
:1018E00008602848006802F02DFE0446264A274B6F
:1018F00002F040FC064602F0C9F92249086020487F
:10190000006802F01FFE06461F4A214B02F032FC1F
:1019100004460D461B48006802F014FE804622462D
:101920002B4602F0E5F9CDE9000102F0AFF91549C7
:101930000860184801681348006803F06BF81649FE
:10194000086010480068134908601448016812488C
:10195000006802F061FF0446114801680948006808
:1019600002F05AFF0546214602F018FE0D490860B4
:101970000846006802F0B4FEBDE8FC870C000020B9
:10198000C8000020C00000209A9999999999E93FD0
:101990009999C93FB4000020C4000020280000200D
:1019A00024000020BC0000202DE9F04704460D462D
:1019B000601B02F0D1FE1B490860084601681A4806
:1019C000006802F0EBFD18490860184801681548E6
:1019D000006803F01FF8804615480168404602F091
:1019E0001BFF064610480168002002F015FF8046E4
:1019F0000C4801680F48006802F00EFF814641461E
:101A000002F0CCFD0746314602F0C8FD0A490860E5
:101A100004480068054908600748006802F060FE55
:101A2000BDE8F087D8000020E0000020E40000209E
:101A3000300000202C000020DC00002001460020A7
:101A4000034A506820F4404008435060704700004B
:101A50000010024029B1064AD2690243044BDA6100
:101A600004E0034AD2698243014BDA617047000007
:101A70000010024029B1064A92690243044B9A6160
:101A800004E0034A92698243014B9A617047000067
:101A90000010024029B1064AD2680243044BDA60C2
:101AA00004E0034AD2688243014BDA6070470000C9
:101AB0000010024030B500210022002400232D4DEB
:101AC0006D6805F00C0121B1042905D0082923D146
:101AD00005E0294D056022E0274D05601FE0254DFA
:101AE0006D6805F47012234D6D6805F4803402258D
:101AF00005EB92421CB9214D554305600BE01D4D8D
:101B00006D6805F400351DB11C4D5543056002E0BC
:101B1000194D5543056002E0174D056000BF00BF39
:101B2000144D6D6805F0F0010909154D6B5C0568F1
:101B3000DD4045600F4D6D6805F4E061090A104D08
:101B40006B5C4568DD4085600A4D6D6805F4605149
:101B5000C90A0B4D6B5C4568DD40C560054D6D687D
:101B600005F44041890B074D6B5CC568B5FBF3F587
:101B7000056130BD0010024000127A0000093D00EE
:101B80005C0000206C00002000210B4A11700A4A02
:101B9000203A82F82010012802D0042808D103E05E
:101BA0000121054A117004E00521034A117000E08B
:101BB00000BF00BF7047000020100240014602290C
:101BC00004D0032907D004290DD108E04FF080424A
:101BD000928C10B209E0064A128810B205E0054A5C
:101BE000128810B201E0002000BF00BF7047000063
:101BF0002404004024080040704710B500F002F8AB
:101C000010BD00000CB50020019000903348006822
:101C100040F480303149086000BF3048006800F46B
:101C2000003000900198401C0190009818B901986C
:101C3000B0F5A06FF1D12948006800F4003010B170
:101C40000120009001E0002000900098012843D17D
:101C50002348006840F010002149086008460068E9
:101C600020F0030008600846006840F002000860A9
:101C70001A48406819494860084640684860084664
:101C8000406840F4806048600846406820F47C105A
:101C900048600846406840F4E8104860084600681C
:101CA00040F08070086000BF0C48006800F00070D1
:101CB0000028F9D00948406820F00300074948602F
:101CC0000846406840F00200486000BF0348406892
:101CD00000F00C000828F9D10CBD000000100240F3
:101CE0000020024000B50246002A07DA01200A4916
:101CF000086000200949C1F8B40106E00020064947
:101D0000086001200549C1F8B401104601F0D6F879
:101D10000349088000BD0000B081214200802142BB
:101D200040040040042808D14FF0E021096941F047
:101D300004014FF0E022116107E04FF0E021096952
:101D400021F004014FF0E02211617047704700005C
:101D500010B51348006840F00100114908600846BA
:101D60004068104908400E494860084600680E491E
:101D700008400B4908600846006820F4802008608D
:101D80000846406820F4FE0048604FF41F00886059
:101D9000FFF733FF4FF000600449086010BD0000FA
:101DA000001002400000FFF8FFFFF6FE08ED00E023
:101DB000F0B50C46154600220021068C4FF6FE7742
:101DC0003E400684028B018C4FF60C7632407E1C1E
:101DD00006EA03162E433243104EB0420ED0104E88
:101DE000B0420BD0B0F1804F08D00E4EB04205D0BB
:101DF0000D4EB04202D00D4EB04206D14FF6FD76E8
:101E0000314044F00106314305E04FF6F5763140AC
:101E100044F00106314302830184F0BD002C0140EF
:101E2000003401400004004000080040000C004065
:101E3000F0B50C461546002200210026078C4FF60F
:101E4000EF7C07EA0C070784028B018C4FF6FF77C3
:101E500007EA041640F6FF473A404FF6FF7707EAD5
:101E600003373A434FF6FF7707EA05273A43114F06
:101E7000B8420ED0104FB8420BD0B0F1804F08D00E
:101E80000E4FB84205D00E4FB84202D00D4FB842A7
:101E900006D14FF6DF77394046F01007394305E0A9
:101EA0004FF65F77394044F01007394302830184CD
:101EB000F0BD0000002C014000340140000400404F
:101EC00000080040000C0040F0B50C46154600220A
:101ED00000210026078C4FF6FF6C07EA0C070784E9
:101EE000828B018C4FF6FF7707EA04264FF60C77BA
:101EF0003A404FF6FF7707EA03172F433A43114F53
:101F0000B8420ED0104FB8420BD0B0F1804F08D07D
:101F10000E4FB84205D00E4FB84202D00D4FB84216
:101F200006D14FF6FF57394046F48077394305E034
:101F30004FF2FF57394044F480773943828301845C
:101F4000F0BD0000002C01400034014000040040BE
:101F500000080040000C0040F0B50C461546002279
:101F600000210026078C4EF6FF7C07EA0C07078449
:101F7000828B018C4FF6FF7707EA043640F6FF4765
:101F80003A404FF6FF7707EA05273A434FF6FF77C7
:101F900007EA03373A43114FB8420ED0104FB84208
:101FA0000BD0B0F1804F08D00E4FB84205D00E4F85
:101FB000B84202D00D4FB84206D14DF6FF773940F6
:101FC00046F48057394305E047F6FF57394044F45B
:101FD0008057394382830184F0BD0000002C01400A
:101FE000003401400004004000080040000C0040A4
:101FF00010B50121514800F00EF9002873D00121DD
:102000004E4800F0D8F84E48007801280BD14D48D2
:102010000078401CC0B24B4908700A2803D1002048
:102020000870474908700420FFF7C8FD464908605A
:102030000F210320FEF746FF044602F0A5FB4349AB
:1020400008604348007848B942480078012805D123
:102050004148007810B9FEF74DFA4FE03C4800784F
:10206000002841D13C48007801283DD1394800780A
:10207000C0BB3A48007838B90120384908700420BC
:10208000FFF79CFD3649086030480068FEF780FB8A
:102090003449086034480078401CC0B232490870A6
:1020A000042808DD28480068FFF710FC2F49086065
:1020B00000202D4908702E48006800F06DFB18B113
:1020C00001202349087019E000F0AAFC25480068A7
:1020D00026490968401A2749086008460068FFF742
:1020E00001FE0BE000E026E019480078012805D148
:1020F0000020FFF7F7FD002018490870124800681B
:102100001D490968401A1D4908600F4800681A49AE
:1021100008601A48006800F0D1FE0F2802DD012097
:102120000B4908706420FEF7D7FFFEF7E3FE104965
:102130000860FEF745FF002010BD0000002C0140A4
:1021400002000020010000200800002018000020EC
:1021500000000020A3000020A2000020A500002015
:102160000C000020940000209C000020980000201B
:102170001400002010000020A8000020AC00002067
:10218000044800880348008820F0010001490880C5
:10219000704700001008004021B1028842F0800220
:1021A000028004E002884FF67F731A400280704775
:1021B000CA4302827047CA430282704721B1028833
:1021C00042F00102028004E002884FF6FE731A40DA
:1021D00002807047F0B50C4615461E4600210022CD
:1021E00000230189028B038C4FF6F8773940214395
:1021F0004FF6FC473A4040F201173A434FF6DD777D
:102200003B404FF6FF7707EA06172F433B43018118
:1022100002830384F0BD30B5024600200023002471
:10222000158A05EA0103958905EA010413B10CB189
:10223000012000E0002030BD70B505460C46244862
:1022400085420ED0234885420BD0B5F1804F08D08F
:102250002148854205D02148854202D02048854248
:1022600000D100E000BF208850B92389A28861888E
:102270002846FFF79DFDE188284600F092F825E00A
:10228000208804280AD12389A28861882846FFF77C
:10229000CFFDE188284600F08DF817E02088082857
:1022A0000AD12389A28861882846FFF70DFEE188BC
:1022B000284600F08CF809E02389A2886188284626
:1022C000FFF74AFEE188284600F08AF870BD00005A
:1022D000002C014000340140000400400008004090
:1022E000000C0040002101804180012181800021FB
:1022F000C180018170471AB183890B43838102E059
:1023000083898B438381704770B5002200230024AA
:10231000058C4EF6FF7635400584038C8488828BCD
:1023200048F6FF752A404FF6FF452A400D884FF6C4
:10233000FF7606EA05252A434DF6FF752B400D89E9
:1023400006EA05352B434D8806EA05352B430B4D30
:10235000A84202D00A4DA84208D14BF6FF752C4086
:102360008D894FF6FF7606EA85152C43848082839B
:10237000CD88A0F84050038470BD0000002C0140BF
:10238000003401400A460021818B4FF2FF7319404F
:102390004FF6FF7303EA0223194381837047818458
:1023A0007047028B4FF6F3731A400283028B0A4385
:1023B00002837047028B4FF2FF331A400283028B75
:1023C0004FF6FF7303EA01231A4302837047828B9F
:1023D0004FF6F3731A408283828B0A4382837047DD
:1023E000828B4FF2FF331A408283828B4FF6FF734A
:1023F00003EA01231A438283704700000022028807
:102400001D4B98420ED01D4B98420BD0B0F1804F1F
:1024100008D01B4B984205D01A4B984202D01A4B59
:10242000984204D14FF68F731A404B881A43174BCA
:10243000984207D0164B984204D04FF6FF431A40FB
:10244000CB881A4302808B8883850B8803850A4BCF
:1024500098420BD0094B984208D00E4B984205D0B9
:102460000D4B984202D00D4B984201D10B7A038656
:102470000123838270470000002C0140003401409A
:102480000004004000080040000C00400010004024
:102490000014004000400140004401400048014059
:1024A0004FF6FF71818000210180C180418001725F
:1024B000704700007FB505460C460121C802FFF7B2
:1024C000D9FAADF80850ADF804400020ADF80A0084
:1024D000ADF8060001A90D48FFF790FF0122114653
:1024E0000A48FFF708FF19208DF8000001208DF839
:1024F00003008DF8010003208DF802006846FEF706
:102500000DFF01210148FFF759FE7FBD002C01405E
:1025100038B500BF96480078012820D100209449A2
:1025200008709448006840F020009249086008460E
:10253000006840F0800008600846006840F40060D1
:1025400008600846006840F4805008608A480088A7
:1025500040F0010088490880FEF722FF01E000F00A
:10256000BFFCFEF7D5FD0446012C01D1834908705C
:1025700082480078012875D1002080490870FEF754
:102580000FFF01207A49087000207D4908807948B2
:10259000006820F02000774908600846006820F0B5
:1025A000800008600846006820F400600860084663
:1025B000006820F4805008606F48008800F0FE003A
:1025C0006D490880D2E000BF00F0F6FA044600F042
:1025D000CBFE1E2000F0AAFB052C7DD1FEF7E0FE0D
:1025E000C0E000BF1E2000F0A1FB00F0E5FA0446A9
:1025F00000F078FF0B2C70D1FEF7D2FEACE000BFEC
:1026000001F052F81E2000F091FB00F0D5FA0446CC
:102610000B2C75D1FEF7C4FE98E000BF01F008F95D
:102620001E2000F083FB00F0C7FA04460B2C68D193
:10263000FEF7B6FE84E000BF0F210320FEF742FC48
:10264000054602F0A1F84F49086001F0BBF93220BD
:1026500000F06CFB00F0B0FA04460C2C03D1FEF73E
:102660009FFEDBE783E0052C6AD1FEF799FE002090
:10267000454908700A2462E00F210320FEF722FC7E
:10268000054602F081F83F490860102002232246E7
:10269000014600905820FFF779F800F0D7F93B4841
:1026A0000078401C394908701E2000F03FFB374875
:1026B0000078C82833DC36493248006802F078F9DF
:1026C00021D834492F48006802F072F81BD82E48F0
:1026D0000078401C2C4901E045E03EE008700846C7
:1026E000007896280FDDFEF75BFE0BE000202749FF
:1026F000087001F023FA00F05FFA052802D109E71B
:1027000025E01EE0F2E721480078142190FBF1F269
:1027100001FB1200012812D1601EC4B20FE000209C
:102720001A490870FEF73CFE00F04CFB40F6B8304A
:1027300000F0FCFA4FF4FA6000F0F8FA7CE79BE74F
:1027400079E70C2C02D1FEF72BFE59E765E70C2C3C
:1027500002D1FEF725FE45E751E70C2C02D1FEF72A
:102760001FFE31E73DE70C2C00D1D3E62BE738BD47
:1027700004000020000401400C2C01400300002054
:102780004004004018000020F4000020F500002064
:1027900000807C4400C0804470B505461048007835
:1027A00001280FD00F491048006802F001F809D342
:1027B0000E490D48006802F0FBF803D340F2564082
:1027C00085420ADA012006490870012400200849E0
:1027D00008600849C1F8BC0100E00024204670BD33
:1027E0000000002000C00F451800002000C0734505
:1027F000B88121420080214210B540F225511D4888
:1028000000F04AF810B31B4800F002F9C4B21A48AD
:10281000008800F40040C8B91748008800F48040E0
:1028200060B10A2C03D000201349088020E0124830
:10283000008840F400401049088019E00D2C06D1B2
:102840000D48008840F480400B49088010E00A4899
:102850000088C0F30D0009490C5407480088401C4B
:102860000549088008460088C72801DD0020088047
:1028700010BD00000038014078000020F800002062
:1028800021B1828942F40052828104E082894DF6AE
:10289000FF731A408281704770B5024600240023FE
:1028A0000025002040F66A16B14200D100BFC1F3F6
:1028B000421501F01F03012606FA03F3012D02D190
:1028C0009689334006E0022D02D1168A334001E09A
:1028D000968A33400C12012606FA04F41688344016
:1028E00013B10CB1012000E0002070BDF0B503462B
:1028F000002400260025002040F66A17B94200D1C6
:1029000000BF1846C1F3421401F01F06012707FA61
:1029100006F5012C01D10C3004E0022C01D110305D
:1029200000E014301AB107682F43076002E007681F
:10293000AF430760F0BD00002DE9F04786B00546C3
:102940000E460024A24600BFA1460027B08900B170
:1029500000BF2F462C8A4CF6FF700440F0880443D9
:102960002C82AC894EF6F3100440B08831890843BC
:10297000718908430443AC81AC8A4FF6FF400440A0
:10298000B0890443AC8201A8FFF794F81F4887423E
:1029900002D1DDF810A001E0DDF80CA0A88900F458
:1029A000004040B10AEBCA0000EB0A103168490050
:1029B000B0FBF1F807E00AEBCA0000EB0A1031683F
:1029C0008900B0FBF1F86420B8FBF0F004012009A5
:1029D000642101FB1089A88900F4004040B1322035
:1029E00000EBC900B0FBF1F000F00700044308E081
:1029F000322000EB09106421B0FBF1F000F00F0071
:102A000004432C8106B0BDE8F08700000038014087
:102A100001468888C0F30800704700BFFEE7000049
:102A200041F6F420074909684242914202DA4142E4
:102A3000044A116003490968814201DD01490860C7
:102A4000704700001000002000BF704738B5012318
:102A5000382200211520FEF755FE012339220021DE
:102A60002320FEF74FFE01233A2200213120FEF7FA
:102A700049FE01233B2200213F20FEF743FE0123B4
:102A80003C2200214D20FEF73DFE01233D22002186
:102A90005B20FEF737FE01233E2200216920FEF76E
:102AA00031FE01233F2210210020FEF72BFE0123DF
:102AB000402210210E20FEF725FE01234122102185
:102AC0001C20FEF71FFE01231C2210212E20FEF7E2
:102AD00019FE01231C2210213520FEF713FE0123CD
:102AE0001C2210213C20FEF70DFE01231C22102188
:102AF0004320FEF707FE01231C2210214A20FEF787
:102B000001FE01231C2210215120FEF7FBFD0123B1
:102B10000C2220210E20FEF7F5FD01232B2220217F
:102B20001C20FEF7EFFD01232C2220212A20FEF796
:102B3000E9FD0123242220213820FEF7E3FD0123B3
:102B4000252220214620FEF7DDFD01232D22202114
:102B50005420FEF7D7FD01232E2220216220FEF70C
:102B6000D1FD012010234122302100901820FEF7D2
:102B700033FD012010234422302100902020FEF755
:102B80002BFD012010234322302100902820FEF746
:102B900023FD0848006801F0BFFD0446102004230F
:102BA0002246302100904E20FEF7F0FDFEF7EEFCAD
:102BB00038BD00001800002010B51548007808B393
:102BC0001448006838B113481830006818B111482B
:102BD0001C300068B0B900200D490870322000F0A8
:102BE000A5F80C48006808B9052010BD0948183040
:102BF000006808B90B20F8E706481C30006820B9C7
:102C00000C20F2E70120024908700020EDE70000E7
:102C1000880000201401214201462D48006828B98F
:102C20002C480088401C2B4A108002E00020294AD2
:102C300010802748006828B92748007810B901207B
:102C4000254A107025480078B0B92348007801283B
:102C500007D123480078401C214A107001201F4AE8
:102C600010701F480078022806D100201C4A1070FE
:102C70001C4A10800220704715480068012804D1C2
:102C80000020154A1070154A107015480078012868
:102C90001CD114480088401C124A1080104600883D
:102CA00088420ADD0B480088884206DA00200C4A78
:102CB00010700C4A10800120DDE706480088884229
:102CC00004DD0020064A1070064A10800020D2E77A
:102CD00008012142860000208000002081000020A1
:102CE000820000208400002010B56FF00400FFF780
:102CF00019F80A4800680A49B0FBF1F00949087060
:102D00000846007800EB4001C1EBC0104FF6FF71A0
:102D100001EAC0000449088010BD000048000020FE
:102D200000127A0070000020720000200146114A53
:102D300012884A434FF0E0235A6100229A611A46F2
:102D4000126942F001021A6100BF4FF0E0221069DF
:102D500000F001021AB100F48032002AF5D04FF0E1
:102D6000E022126922F001024FF0E0231A610022F2
:102D70009A617047720000200146114A12784A4356
:102D80004FF0E0235A6100229A611A46126942F01C
:102D900001021A6100BF4FF0E022106900F0010249
:102DA0001AB100F48032002AF5D04FF0E022126907
:102DB00022F001024FF0E0231A6100229A6170476D
:102DC0007000002010B50123382210211820FEF7D2
:102DD00057FC01235E2210212820FEF751FC01231D
:102DE000642210213820FEF74BFC012365221021BC
:102DF0004820FEF745FC0123662210215820FEF7EB
:102E00003FFC0123002220211820FEF739FC01237A
:102E1000672220212820FEF733FC0123682220218D
:102E20003820FEF72DFC0123052220214820FEF743
:102E300027FC0123062220215820FEF721FCFEF763
:102E4000A5FB10BD0220FEF78FF80120FEF78CF8DD
:102E50004FF4A060FEF79AFAFFF746FF4FF47A703E
:102E6000FFF764FF4FF47A70FFF760FFFEF71CF97D
:102E7000FEF77AF9FEF7E0FA4FF4FA3000F0B6FE0A
:102E8000002141F61F40FEF7F9F9FDF7E9FEFDF7D5
:102E9000EBFA41F61F413120FFF70CFB0BE0FDF789
:102EA000AFFCFFF735FB01200349087000BF024863
:102EB00000780028FBD1F2E702000020014600293B
:102EC00001DA484200E00846704710B5024601208A
:102ED00000E050430B1EA1F10104E1B2F9D110BD95
:102EE00038B5FEA200210846FEF79AFCFD480068AE
:102EF00001F012FC04460C2003232246002100901E
:102F00002820FEF743FCF8A200213920FEF788FCB8
:102F1000F649F448006801F07FFC054601F0E0FB4B
:102F20000A2190FBF1F201FB12040C20012322463E
:102F3000002100903D20FEF729FCEDA200215F203A
:102F4000FEF76EFCEB48006801F0E6FB04460C203F
:102F500002232246002100906C20FEF717FCE6A217
:102F60000A210020FEF75CFCE548006801F0D4FB74
:102F700004460C20032322460A2100902820FEF755
:102F800005FCD9A20A213920FEF74AFCD749DC48C2
:102F9000006801F041FC054601F0A2FB0A2190FB0C
:102FA000F1F201FB12040C200123224600903D2087
:102FB000FEF7ECFBCEA20A215F20FEF731FCD148E0
:102FC000006801F0A9FB04460C20022322460A21D6
:102FD00000906C20FEF7DAFBCBA214210020FEF754
:102FE0001FFCCB48006801F097FB04460C2003232C
:102FF0002246142100902820FEF7C8FBBAA2142113
:103000003920FEF70DFCB949C148006801F004FC05
:10301000054601F065FB0A2190FBF1F201FB120469
:103020000C2001232246142100903D20FEF7AEFB28
:10303000AFA214215F20FEF7F3FBB648006801F051
:103040006BFB04460C2002232246142100906C20C6
:10305000FEF79CFBB0A21E210020FEF7E1FBB0486A
:10306000006801F059FB04460C20032322461E2170
:1030700000902820FEF78AFB9BA21E213920FEF734
:10308000CFFB9A49A648006801F0C6FB054601F04F
:1030900027FB0A2190FBF1F201FB12040C20012313
:1030A00022461E2100903D20FEF770FB90A21E21BB
:1030B0005F20FEF7B5FB9B48006801F02DFB04463E
:1030C0000C20022322461E2100906C20FEF75EFB9E
:1030D0004FF07E519448006801F0CEFA20D10120D3
:1030E0000C235922002100904B20FEF775FA012095
:1030F0000C234E220A2100904B20FEF76DFA01208E
:103100000C234E22142100904B20FEF765FA01207B
:103110000C234E221E2100904B20FEF75DFA75E035
:103120004FF080418048006801F0A6FA20D10120CC
:103130000C234E22002100904B20FEF74DFA012077
:103140000C2359220A2100904B20FEF745FA01205A
:103150000C234E22142100904B20FEF73DFA012053
:103160000C234E221E2100904B20FEF735FA4DE035
:103170006E496D48006801F07FFA20D101200C23D0
:103180004E22002100904B20FEF726FA01200C234E
:103190004E220A2100904B20FEF71EFA01200C233C
:1031A0005922142100904B20FEF716FA01200C231F
:1031B0004E221E2100904B20FEF70EFA26E04FF023
:1031C00081415948006801F057FA1FD101200C23B2
:1031D0004E22002100904B20FEF7FEF901200C2327
:1031E0004E220A2100904B20FEF7F6F901200C2315
:1031F0004E22142100904B20FEF7EEF901200C2303
:1032000059221E2100904B20FEF7E6F948A2282102
:103210005020FEF705FB0C2005230090454828218F
:1032200002685F20FEF7B2FA43A228210020FEF7D1
:10323000F7FA2DA228212920FEF7F2FA40A2282130
:103240003F20FEF7EDFA3F480068642190FBF1F45F
:103250000C2002232246282100901C20FEF796FA1B
:1032600038480068642190FBF1F201FB12040C2045
:1032700002232246282100903320FEF787FA3148A6
:103280000068642190FBF1F201FB12000A2807DAC2
:103290000C2002230022282100902D20FEF776FA30
:1032A00029A232215020FEF7BBFA0C200523009002
:1032B0002648322102685F20FEF768FA24A23221F4
:1032C0000020FEF7ADFA2448006801F025FA044614
:1032D0000C2004232246322100903FE0422D4B5027
:1032E000000000001C0000202E0000000000204113
:1032F000413A000038000020422D4B4400000000FD
:10330000200000203C000020502D4B500000000009
:103310002400002040000020502D4B4400000000FD
:10332000280000204400002034000020000040401D
:10333000543A00000C000020564F4C3A00000000A8
:103340005600000014000020503A00000800002041
:103350004144433A00000000180000201E20FEF700
:1033600015FAFEF713F938BD10B5012300221146F6
:103370001C20FEF7C7F901231A4600212A20FEF778
:10338000C1F90123022200213820FEF7BBF90123F5
:10339000032200214620FEF7B5F901230422002173
:1033A0005420FEF7AFF90123052200216220FEF729
:1033B000A9F90123062200217020FEF7A3F90123B9
:1033C000072210210020FEF79DF901230822102179
:1033D0000E20FEF797F90123092210211C20FEF789
:1033E00091F901230A2210212A20FEF78BF90123EB
:1033F0000B2210213820FEF785F901230C22102121
:103400004620FEF77FF901230D2210215420FEF7FC
:1034100079F901230E2210216220FEF773F90123AE
:103420000F2210217020FEF76DF9012310222021B8
:103430000020FEF767F90123112220210E20FEF75C
:1034400061F90123122220211C20FEF75BF90123E0
:10345000132220212A20FEF755F9012314222021CE
:103460003820FEF74FF90123152220214620FEF7D0
:1034700049F90123162220215420FEF743F90123A4
:10348000172220216220FEF73DF901231822202176
:103490007020FEF737F90123192230210020FEF7B2
:1034A00031F901231A2230210E20FEF72BF90123D6
:1034B0001B2230211C20FEF725F901231C2230217C
:1034C0002A20FEF71FF901231C2230212E20FEF7AF
:1034D00019F901231C2230213220FEF713F9FEF7DF
:1034E00055F810BD10B501230C2200210846FEF747
:1034F00009F901231D2200210E20FEF703F9012303
:103500001E2200211C20FEF7FDF801231F220021AE
:103510002A20FEF7F7F80123202200213820FEF7A9
:10352000F1F80123212200214620FEF7EBF80123C8
:10353000222200215420FEF7E5F801230B2200216E
:103540006220FEF7DFF80123232200217020FEF71E
:10355000D9F80123242210210020FEF7D3F80123FB
:10356000252210210E20FEF7CDF80123262210215E
:103570001C20FEF7C7F80123272210212A20FEF77E
:10358000C1F80123282210213820FEF7BBF80123BF
:10359000292210214620FEF7B5F801232A22102106
:1035A0005420FEF7AFF801232B2210216220FEF7F2
:1035B000A9F801232C2210217020FEF7A3F8012383
:1035C0002D2220210020FEF79DF801232E2220210C
:1035D0000E20FEF797F80123132220211C20FEF76E
:1035E00091F801232F2220212A20FEF78BF80123B6
:1035F000302220213820FEF785F8012331222021B6
:103600004620FEF77FF80123322220215420FEF7C6
:1036100079F80123332220216220FEF773F8012379
:10362000182220217020FEF76DF801232922302175
:103630000020FEF767F80123342230210E20FEF728
:1036400061F80123352230211C20FEF75BF80123AD
:10365000182230212A20FEF755F8012319223021A3
:103660003820FEF74FF80123362230214620FEF79E
:1036700049F80123372230215420FEF743F8012373
:103680001C2230216220FEF73DF801231C2230214C
:103690006620FEF737F801231C2230216A20FEF74E
:1036A00031F8FDF773FF10BD10B501233C22002156
:1036B0000846FDF7E5FF01233D2200211020FDF71C
:1036C000DFFF01233E2200212020FDF7D9FF012347
:1036D000072200213020FDF7D3FF0123082200211B
:1036E0004020FDF7CDFF01233F2200215020FDF7B0
:1036F000C7FF0123402200216020FDF7C1FF012305
:10370000412200217020FDF7BBFF0123422210213E
:103710000020FDF7B5FF0123432210210846FDF7E5
:10372000AFFF0123442210212020FDF7A9FF012330
:10373000452210213020FDF7A3FF0123462210214E
:103740004020FDF79DFF0123472210215020FDF767
:1037500097FF0123482210216020FDF791FF0123EC
:10376000492210217020FDF78BFF01234A222021DE
:103770000020FDF785FF01234B2220211020FDF7BB
:103780007FFF0123132220210846FDF779FF012343
:103790004C2220213020FDF773FF0123112220212C
:1037A0004020FDF76DFF01234D2220215020FDF721
:1037B00067FF0123302220216020FDF761FF0123F4
:1037C000052220217020FDF75BFF01230622302116
:1037D0000020FDF755FF0123072230211020FDF7BF
:1037E0004FFF0123082230212020FDF749FF01234C
:1037F0001B2230210846FDF743FF01231C22302104
:103800004020FDF73DFF01231D2230215020FDF710
:1038100037FF0123112230216020FDF731FF012302
:10382000292230217020FDF72BFFFDF7AFFE10BDE0
:1038300008B501234E2200210846FDF721FF012390
:10384000072200211020FDF71BFF01230822002181
:103850002020FDF715FF01232A2200213020FDF74B
:103860000FFF01232B2200214020FDF709FF012338
:103870002C2200215020FDF703FF01232D220021DF
:103880006020FDF7FDFE01234F2200217020FDF78F
:10389000F7FE012010234122194600900020FDF779
:1038A0009BFE012010234422194600900820FDF7BA
:1038B00093FE012010234322194600901846FDF77D
:1038C0008BFE0123472210211820FDF7D9FE01238A
:1038D0001F2210212820FDF7D3FE012350221021A2
:1038E0003820FDF7CDFE1020042340F2F2320146CD
:1038F00000904820FDF74AFF012321221021682073
:10390000FDF7BEFE1020042340F206422021009065
:103910000020FDF73BFF0123222220210846FDF76E
:10392000AFFE0123232220213020FDF7A9FE012331
:10393000112220214020FDF7A3FE01234D2220214A
:103940005020FDF79DFE0123302220216020FDF74D
:1039500097FE0123132220217020FDF791FE012301
:10396000512230210020FDF78BFE01233D22302122
:103970001020FDF785FE01233E2230212020FDF797
:103980007FFE0123072230210846FDF779FE01233F
:10399000082230214020FDF773FE01233F22302111
:1039A0005020FDF76DFE0123402230216020FDF7FD
:1039B00067FE0123412230217020FDF761FEFDF7F3
:1039C000E5FD08BD38B50123422200210846FDF778
:1039D00057FE0123432200211020FDF751FE012351
:1039E000442200212020FDF74BFE01234522002127
:1039F0003020FDF745FE0123462200214020FDF73F
:103A00003FFE0123472200215020FDF739FE01230C
:103A1000482200216020FDF733FE012349220021C6
:103A20007020FDF72DFE01234A2210210020FDF712
:103A300027FE01234B2210210846FDF721FE01231A
:103A4000122210212020FDF71BFE01230522102148
:103A50003020FDF715FE0123062210214020FDF73E
:103A60000FFE01232E2210215020FDF709FE012315
:103A70002F2210216020FDF703FE012330221021A8
:103A80007020FDF7FDFD0123092220210020FDF714
:103A9000F7FD01230A2220211020FDF7F1FD01236B
:103AA0000B2220210846FDF7EBFD01230C222021EB
:103AB0003020FDF7E5FD01230D2220214020FDF7F8
:103AC000DFFD01230E2220215020FDF7D9FD012327
:103AD000382220216020FDF7D3FD01235E22202122
:103AE0007020FDF7CDFD01201023412230210090F0
:103AF0001820FDF771FD0120102344223021009091
:103B00002020FDF769FD0120102343223021009081
:103B10002820FDF761FD0848006800F0FDFD04461F
:103B2000102004232246302100904E20FDF72EFE67
:103B3000FDF72CFD38BD00001800002010B5012352
:103B4000052204212020FDF79BFD012306220421EC
:103B50003020FDF795FD01232F2204214020FDF7A1
:103B60008FFD0123572204215020FDF789FD0123F9
:103B7000092218210846FDF783FD01230A22182196
:103B80002820FDF77DFD01230B2218213820FDF7A9
:103B900077FD01230C2218214820FDF771FD012338
:103BA0000D2218215820FDF76BFD01230E2218214C
:103BB0006820FDF765FD012358222C210020FDF728
:103BC0005FFD012359222C211020FDF759FD01230F
:103BD0005A222C212020FDF753FD01235B222C21AA
:103BE0003020FDF74DFDFDF7D1FC10BD10B586B0BE
:103BF0000446012144F20400FDF73CFF4FF400703D
:103C0000ADF8140003208DF8160018208DF8170069
:103C100005A91C48FDF7A2F84FF48060ADF8140028
:103C200004208DF8170005A91648FDF797F8252000
:103C30008DF8000003208DF801008DF802000120AE
:103C40008DF803006846FDF769FB01940020ADF88C
:103C50000800ADF80A00ADF80C00ADF810000C201B
:103C6000ADF80E0001A90848FEF766FE012240F2F9
:103C700025510548FEF73AFE01210348FEF700FEF4
:103C800006B010BD000801400038014021F000429C
:103C9000A2F16052B2F5801F01F0004328BFD2F1BB
:103CA0007F6C0BD95FEA001C43EAC20242EB507002
:103CB00018BF704728BF20F001007047B2F5801F81
:103CC000BCBF184670474FEA410C1CF5001F02D2DA
:103CD000084600F068BE70B500F0F6FA00000089F2
:103CE000FFF7F6BF4FF00040A0F5800070470000DE
:103CF00010B591EA030F48BF83F0004300F1408301
:103D0000841A71EB030C05D2121943EB0C03001B50
:103D100061EB0C01DFF824E14FEA1154A4EB135CD2
:103D20001EEA430F18BF9EEA445F73D023EA0E03D6
:103D3000DCF1200E21EA045143F4801332D322FA3D
:103D40000CFE10EB0E0023FA0CFE41EB0E01CCF141
:103D5000200E03FA0EFE10EB0E0051F10001B1F53A
:103D6000801FCCF1200E32D201EB045112FA0EF278
:103D7000BDE8104058BF7047401C38BF5FEA4202A0
:103D800018BF7047002814BF20F0010041F1000166
:103D90004FEA410313F5001F38BF7047A1F1C0413E
:103DA00000F0E0BA012A43EB0302ACF1200CDCF195
:103DB0001F0E32BF4FF0000E23FA0CF310EB03007E
:103DC00041EB0451B4EB115FD0D0A1EB045101F5EC
:103DD000801149085FEA300001EB04510ED350F125
:103DE000000038BF12FA0EFE08D1BDE81040C9E746
:103DF000401C38BF5FEA4202CAD1C3E7BDE81040A9
:103E00004FEA410313F5001F38BF7047A1F1C041CD
:103E100000F0A8BA9EEA445F08D011EA5E0FBDE840
:103E2000104004BF01F0004100207047BDE8104081
:103E300070B500F049FA00BF64FBBE3E0000E0FF31
:103E40002DE9C04130B4DFF8A0C23CEA111418BF1C
:103E50003CEA131400F0EC8081EA03051CEA11141B
:103E600044EAD57418BF1CEA131500F0C780A4EB10
:103E700005044FF0004545EAC12145EAC32341EA64
:103E8000505143EA525304F17F74994204F50034CF
:103E90004FEAC0204FEAC22208BF904200F09C8047
:103EA0004FEA13650FF24016765D4FEA134506FBA5
:103EB00005F7C7F1807706FB07F74FEAD737A7FB6F
:103EC00003687642C8F58038A7FB06CE38BFA8F154
:103ED000010807FB08E64FF0000EA6FB028CE6FB8C
:103EE00003CEDCF1000CCEF1004E38BFAEF1010E76
:103EF000A6FB0C584FF000074FF00005E6FB0E87BD
:103F0000A1FB08C6A0FB07CE16EB0E0645F1000587
:103F1000E1FB076515F1E04E7EBFA4F580345FEA52
:103F200046066D4116F1800745F100054FEA172757
:103F30004FEA066647EA0567A6F1DE46B6F1805FFE
:103F40004FEA15251FD9384624F0010C05EBC47142
:103F5000BCF1FE6F01EB0C1102D8F0BCBDE8008192
:103F600024425CBF01F5801E9EEAC47F02D4F0BCEF
:103F7000BDE80081244238D4F0BCA1F1C041BDE8C5
:103F8000004100F0EFB94FEAD22242EA43524FEA31
:103F9000D323A7FB02864FEAD02040EA415007FB1B
:103FA00003661EEA0E0F4FEAD12105FB026658BFD9
:103FB000A6EB0056B6EB00564FEA520E4EEAC37E11
:103FC00018EB0E0E56EB530EBDD518EB02085E41F2
:103FD0007F1C55F10005B6E74FF480154FF0000740
:103FE0004FF000064FF00008ADE7F0BC4FF00000C6
:103FF00001F1C04101F00041BDE8008111EA0C1F50
:104000000CEA131500D00CE013EA0C1F00F0258019
:104010004FF00000F0BC81EA030101F00041BDE86F
:104020000081F0BCBDE8004181EA030100F09AB9CB
:10403000F0BCBDE8004170B500F046F9097EFC3ED9
:1040400000F007B881EA03014FF0000001F00041E1
:10405000704781EA030100F085B9F0BCBDE800417A
:104060004FF0000021497047FFFDFBF9F7F5F4F22E
:10407000F0EEEDEBE9E8E6E4E3E1E0DEDDDBDAD803
:10408000D7D5D4D3D1D0CFCDCCCBCAC8C7C6C5C461
:10409000C2C1C0BFBEBDBCBBBAB9B8B7B6B5B4B378
:1040A000B2B1B0AFAEADACABAAA9A8A8A7A6A5A463
:1040B000A3A3A2A1A09F9F9E9D9C9C9B9A99999827
:1040C0009797969595949393929191908F8F8E8ECA
:1040D0008D8C8C8B8B8A8989888887878685858457
:1040E00084838382828181800000FF070000F87F43
:1040F0004FEA41034FEA5353A3F58063D3F11E0304
:10410000C8BFD3F1210C0CDD4FF0004242EAC122BE
:1041100042EA505232FA03FC8CEAE17CACEBE170EB
:104120007047102BC4BF0020704703F5787CBCF1AA
:10413000FF3F04D06FF0004282EA2100704770B563
:1041400000F0C2F84992248000207047F2E7B0FAEC
:1041500080F310FA03F10AD0C3F11D0303F5806365
:104160004FEA41504FEA035202EBD12170474FF022
:1041700000007047DFF848C170B51CEA111E1EBF71
:104180001CEA13159EEA0C0F95EA0C0F00F06F80E5
:1041900081EA030423EA4C134EEAD47E21EA4C114F
:1041A00041F4801143F48013AE44A1FB024CA0FB08
:1041B0000365AEF17F7E361955EB0C05A1FB034C70
:1041C0004CF10003A0FB021C16EB0C06654153F1F9
:1041D0000003094218BF46F0010613F4007F0BD11B
:1041E0004FEA03314FEA0530340341EA155140EA02
:1041F00016506FF003020AE04FEAC3214FEAC520D0
:10420000F40241EA555140EA56506FF0020202EBC7
:104210002E4201EB025585EACE710AD05FEA440CCA
:1042200018BF24F0004450F1000041F1000120EAE1
:10423000D47040F2FE7C624500D270BDA84214BF2B
:104240004FF080444FF04044002E08BF0024BEF1E0
:10425000806FA8BFA1F1C041BDE8704080F28280AC
:104260004FF0000001F1C04101F0004170479EEAAB
:104270000C0F0CEA131518BF95EA0C0F06D04FF07F
:10428000000081EA030E0EF0004170BD00F01CF842
:104290008900013E00F007B800F009B84FEA430C6E
:1042A0005FEA5C5C08D081EA030100F05BB84FEA8A
:1042B000410C5FEA5C5CF6D14FF0000001497047A9
:1042C0000000FF070000F87F0EF1020E2EF0030E33
:1042D0005EF8046B364205D4012A43EB030515F55D
:1042E000001F12D8012841EB010C1CF5001F0CD84F
:1042F0000ED14FEAD17C15F5001F0CEB4C0C0CF1E4
:10430000020C08BF4CEBD37C04E04FF0080C01E03A
:104310004FEAD37C0CEB4C0526FA05F606F00706AF
:10432000B6F1040C06D20EEB860CBDE870404CF0E2
:10433000010C6047DFE80CF0090B02024FF000416E
:104340004FF00000A1F5002170BD1946104601286C
:1043500051EB010418BFD4F5001484BF002001F014
:10436000004170BD0808A0F500114FEA3101704707
:1043700010B591EA030F48BF83F000433FF5C0AC8E
:10438000841A71EB030C07D212198CF0004C43EB2A
:104390000C03001B61EB0C01DFF8A4E14FEA1154A0
:1043A000A4EB135C1EEA430F18BF9EEA445F00F0C3
:1043B000B08023EA6E03524221EA0451C3EB6E033C
:1043C00038BF5B1EDCF1200E25D322FA0CFE10EB69
:1043D0000E0043FA0CFE41EB0E01CCF1200E03FA65
:1043E0000EFE10EB0E0051F10001CCF1200E29D48D
:1043F00012FA0EF201EB0451BDE8104058BF7047AD
:10440000401C1CBFB2F1004F704700280CBF491C74
:1044100020F00100704712EB020E43EB030218BFBD
:104420004FF0010E4EEA4202ACF1200CDCF11E0E00
:1044300054D943FA0CFE10EB0E0051F1FF31CCF1D0
:104440001E0ED5D50EF1010E12FA0EFE404141EBC3
:10445000010101EB445C5FEA5C5C10D910EBDE709B
:1044600001EB045138BFBEF1004FBDE8104018BF4A
:10447000704700280CBF491C20F00100704730D263
:104480004FEAD42C11F5001124F400641BD0B1FACA
:1044900081F20B3AA41AA41ED2F12003914030FA03
:1044A00003F31943904001EBCC71002C01EB045154
:1044B000BDE81040A8BF704701F1C0414FF00000B7
:1044C00001F000417047B0FA80F310FA03F100D117
:1044D00010BDE41A173C4805C90AE4E701EB045192
:1044E00010BD491001EB0451BDE810404FEA300007
:1044F00002E04FF0000170474A0008BF0042F8D0C8
:10450000B2F5001F28BF704701F000414FF00000D6
:1045100070479EEA445F07D011EA5E0FBDE8104085
:1045200004BF002100207047BDE8104070B5FFF7C0
:10453000CBFE00BF40DFF63E83F0004110467047DF
:104540000000E0FF43004FEAD30C4FEA3C0C43402D
:104550001FBF40070CF1605113F0FE4F70471CF075
:10456000006F03D100200CF0004170470CF00043B5
:1045700043EA507010B540EACC0000F0CEF900BF1D
:10458000000000924FEA0001FFF7ECBE4FF000413F
:104590004FF00000A1F500217047000090EA010FE4
:1045A00048BF81F0004100F13C82421A3CBF801AB2
:1045B00089184FEAD0524FF07F4C1CEA410FA2EB12
:1045C000D15318BF9CEA026F00F03B804FF0004CC3
:1045D0004CEA00204CEA012121FA03FC10EB0C0C00
:1045E0001ED202F1FF325FEA1C2040EBC25038BFFE
:1045F00070471CF07F0F4FEA400C18BFBCF17F4F93
:1046000038BF7047C3F12003994008BF20F0010074
:10461000BCF17F4F38BF7047A0F1C04000F0C3B974
:104620004FEA3C00000A40EBC25028BF1CF0FF0FCD
:104630004FEA400CE6D018BFBCF17F4F38BF70473F
:10464000EAE79CEA026F05D010EA5C0F08BF00F0B1
:104650000040704710B500F060F900BF64FBBE3E3B
:10466000401058BFC0F14040491058BFC1F140410F
:104670008142EFF30080704750EA010C00F1138093
:104680001CF5000F58BFBCF5000F01D488427047DD
:1046900007D710F5000F58BF11F5000F15D4884249
:1046A0007047894270471CF5000F04D5BCF5000F18
:1046B000F7D5814270474FF0807C1CEB400F38BF2C
:1046C0001CEB410F01D28142704710B500F025F973
:1046D000922449004FF000504FF08051FFF7C0BFC7
:1046E00041000B0ED3F19E0208D950F400034FEAAB
:1046F000032323FA02F048BF4042704710B500F090
:104700000CF900BF49922480002070476FF00042EE
:1047100082EA200070470000C10DD1F19E0206DB45
:104720004FEA002343F0004323FA02F070470042AF
:1047300007D54FEA4001B1F1FE4F02D24FF0000021
:10474000704710B500F0E9F84992248000207047C6
:104750006FEA20007047000010F0004148BF40425F
:10476000B0FA80F310FA03F2C3F19D030BD051EAC3
:10477000C35101EB1220530638BF704700F101000E
:1047800008BF20F001007047B0FA80F310FA03F27E
:10479000C3F19D030AD0D90501EB1220530638BF9F
:1047A000704700F1010008BF20F0010070470000D1
:1047B00050EA010C00F113801CF5000F58BFBCF546
:1047C000000F01D48842704707D710F5000F58BF7B
:1047D00011F5000F15D488427047894270471CF5C7
:1047E000000F04D5BCF5000FF7D5814270474FF09C
:1047F000807C1CEB400F38BF1CEB410F01D2814283
:10480000704710B500F089F8922449004FF000502D
:104810004FF08051FFF724BF4FF47F0C1CEAD012F9
:104820001EBF1CEAD11392EA0C0F93EA0C0F00F0A2
:10483000478090EA010F48BF42F480724FF0004C6D
:104840004CEA00204CEA012102EB0302A0FB011319
:10485000A2F50002002918BF43F001035B0028BF46
:104860004FEA330342EB22425FEA132C4CEBC25077
:104870002EBFBCEB436FB2F57C0F70474FEA036C61
:10488000BCF1004F08BF20F00100B2F57C0F38BF2B
:1048900070470BD582F0FF0212F5803FC8BF70470A
:1048A00000F1C040D8BF00F00040704700F5000C98
:1048B0005FEA4C0C48BF7047B0F1C04000F073B8DD
:1048C00090EA010F0CEAD11348BF42F480726245AE
:1048D00038BF634504D280EA010000F00040704711
:1048E00010B500F01AF800BF8900013E00F007B8CB
:1048F00000F009B85FEA410C5FEA1C6C08D080EA5E
:10490000010000F050B85FEA400C5FEA1C6CF6D181
:104910004FF00040A0F5800070470EF1020E2EF01F
:10492000030E5EF8044B244204D44FEA4102B2F174
:104930007F4F11D84FEA4003B3F17F4F0CD80ED10F
:104940004FEAD07CB2F17F4F0CEB4C0C0CF1020C17
:1049500008BF4CEBD17C04E04FF0080C01E04FEABB
:10496000D17C0CEB4C0324FA03F404F00704B4F1FB
:10497000040C06D20EEB840CBDE810404CF0010C88
:104980006047DFE80CF0070802024FF00040A0F596
:10499000800010BD0846420018BFD2F1807288BF67
:1049A00000F0004010BDFF2141EAD050C005704723
:1049B00051EA000C00F113801CF5000F58BFBCF544
:1049C000000F01D48142704707D711F5000F58BF7F
:1049D00010F5000F15D481427047894270471CF5CD
:1049E000000F04D5BCF5000FF7D5884270474FF093
:1049F000807C1CEB410F38BF1CEB400F01D288427A
:104A0000704780EA010081EA000180EA0100FFF7B7
:104A1000F8BE000090EA010F48BF81F000413FF569
:104A2000C4AD421A04D882F00042A0EB0200114447
:104A30004FEAD0524FF07F4C1CEA410FA2EBD1530A
:104A400018BF9CEA026F4AD04FF0004C4CEA00209D
:104A50004CEA012121FA03FCB0EB0C0C0FD412F04C
:104A6000FE0F36D05FEA4C001DD5001240EBC2505D
:104A700038BF70471CF03F0F18BF70470BE0A2F122
:104A800001025FEA1C2040EBC25038BF70471CF0A7
:104A90007F0F18BF7047C3F12003994014BF401E19
:104AA00020F00100704780084FEA122308BF7047CA
:104AB000B0FA80FCA2EB0C02CCF1280C60FA0CF0EE
:104AC00093EA122F04BF00EBC25070474FEAC37045
:104AD0007047130A5FEADC1008BF7047F6E79CEAEC
:104AE000026F04D010EA5C0F08BF0020704710B5B9
:104AF000FFF713FF40DFF63E81F0004070470000F3
:104B000000000000000000000000000000000000A5
:104B10003F40000000000000000030004000300076
:104B20004000000009000BC03D000BC03D00090023
:104B300018C024407FE0224031800000180024C0CB
:104B40001B000D803240018003801C4027401C80E8
:104B5000074000401000600000000000000000005E
:104B60000000000000001F80204040200000402086
:104B700020401F8000000000090006001F80060082
:104B800009000000040004003F800400040000004D
:104B9000001000600000000000000000040004009D
:104BA00004000400040000000000004000000000B9
:104BB00000000000002001C0060038004000000096
:104BC0001F802040204020401F8000000000104037
:104BD0003FC000400000000018C021402240244097
:104BE0001840000010802040244024401B8000001A
:104BF00002000D0011003FC0014000003C80244035
:104C000024402440238000001F802440244034405E
:104C1000038000003000200027C038002000000082
:104C20001B802440244024401B8000001C0022C024
:104C3000224022401F8000000000000008400000C9
:104C40000000000000000000046000000000000000
:104C5000000004000A001100208040400900090003
:104C600009000900090000000000404020801100F8
:104C70000A0004001800200023402400180000004F
:104C80001F802040274029401F400000004007C0EF
:104C900039000F0001C0004020403FC024402440A4
:104CA0001B8000001F8020402040204030800000FA
:104CB00020403FC0204020401F80000020403FC0D7
:104CC00024402E4030C0000020403FC024402E0031
:104CD000300000000F00108020402240338002008E
:104CE00020403FC0040004003FC02040204020403E
:104CF0003FC02040204000000060202020203FC016
:104D00002000200020403FC024400B0030C0204045
:104D100020403FC020400040004000C03FC03C0059
:104D200003C03C003FC0000020403FC00C402300B7
:104D30003FC020001F802040204020401F800000F6
:104D400020403FC024402400180000001F80214064
:104D5000214020E01FA0000020403FC0244026004A
:104D600019C0004018C02440244022403180000077
:104D7000300020403FC020403000000020003F8035
:104D8000004000403F80200020003E0001C007009E
:104D900038002000380007C03C0007C03800000081
:104DA000204039C0060039C02040000020003840B3
:104DB00007C0384020000000304021C02640384065
:104DC00020C00000000000007FE0402040200000E4
:104DD000000070000C000380004000000000402034
:104DE00040207FE000000000000020004000200084
:104DF0000000000000100010001000100010001053
:104E000000000000400000000000000000000280E0
:104E10000540054003C0004020003FC0044004405E
:104E200003800000000003800440044006400000AE
:104E300000000380044024403FC000400000038085
:104E40000540054003400000000004401FC024400E
:104E500024402000000002E00550055006500420C8
:104E600020403FC00440040003C000400000044054
:104E700027C000400000000000100010041027E0D0
:104E80000000000020403FC00140070004C0044073
:104E9000204020403FC000400040000007C0040008
:104EA00007C0040003C00000044007C00440040021
:104EB00003C0004000000380044004400380000061
:104EC000041007F004500440038000000000038039
:104ED0000440045007F00010044007C002400400E2
:104EE00004000000000006400540054004C000002A
:104EF000000004001F800440004000000400078000
:104F00000040044007C000400400070004C00180C6
:104F100006000400060001C0070001C006000000F2
:104F2000044006C0010006C0044000000410071041
:104F300004E00180060004000000044005C00640B3
:104F4000044000000000000004007BE0402000005E
:104F5000000000000000FFF0000000000000402002
:104F60007BE00400000000004000800040002000C2
:104F700020004000000000000000000000000000D1
:104F8000000000000000000000001FCC000C00002A
:104F90000000000000000800300060000800300041
:104FA00060000000022003FC1E20022003FC1E20E3
:104FB0000220000000000E1811043FFF10840C783E
:104FC000000000000F0010840F3800C0077818841C
:104FD0000078000000780F8410C411240E9800E4BB
:104FE0000084000808006800700000000000000055
:104FF0000000000000000000000007E01818200476
:1050000040020000000040022004181807E00000E1
:10501000000000000240024001800FF001800240C9
:10502000024000000080008000800FF800800080B7
:10503000008000000001000D000E000000000000D4
:1050400000000000000000800080008000800080E0
:10505000008000800000000C000C00000000000038
:10506000000000000000000600180060018006003B
:1050700018002000000007F00808100410040808B9
:1050800007F000000000080408041FFC00040004EE
:105090000000000000000E0C1014102410441184B5
:1050A0000E0C000000000C181004110411041288EA
:1050B0000C700000000000E00320042408241FFC02
:1050C0000024000000001F981084110411041088AF
:1050D00010700000000007F00888110411041888FF
:1050E0000070000000001C00100010FC13001C00E9
:1050F0001000000000000E38114410841084114488
:105100000E38000000000700088C10441044088886
:1051100007F00000000000000000030C030C00007A
:105120000000000000000000000101060000000077
:105130000000000000000080014002200410080868
:10514000100400000220022002200220022002207F
:105150000220000000001004080804100220014092
:105160000080000000000E001200100C106C108077
:105170000F00000003E00C1813E4142417C40828DF
:1051800007D000000004003C03C41C40074000E4BA
:10519000001C000410041FFC1104110411040E88EB
:1051A0000070000003E00C18100410041004100834
:1051B0001C10000010041FFC100410041004080848
:1051C00007F0000010041FFC1104110417C41004A0
:1051D0000818000010041FFC1104110017C0100073
:1051E0000800000003E00C181004100410441C78A0
:1051F0000040000010041FFC108400800080108418
:105200001FFC10040000100410041FFC1004100404
:105210000000000000030001100110011FFE10003B
:105220001000000010041FFC110403801464181CFB
:105230001004000010041FFC10040004000400040B
:10524000000C000010041FFC1F0000FC1F001FFCCE
:105250001004000010041FFC0C04030000E01018F0
:105260001FFC100007F008081004100410040808C0
:1052700007F0000010041FFC1084108010801080C4
:105280000F00000007F0081810241024101C080A52
:1052900007F2000010041FFC1104110011C01130AE
:1052A0000E0C000400000E1C110410841084104425
:1052B0001C3800001800100010041FFC100410001F
:1052C0001800000010001FF810040004000410046F
:1052D0001FF8100010001E0011E0001C0070138069
:1052E0001C0010001FC0103C00E01F0000E0103C3C
:1052F0001FC000001004180C163401C001C0163481
:10530000180C100410001C00130400FC13041C00F3
:10531000100000000804101C1064108413041C0406
:10532000101800000000000000007FFE4002400254
:1053300040020000000030000C0003800060001CF0
:105340000003000000004002400240027FFE000017
:10535000000000000000000020004000400040006D
:105360002000000000010001000100010001000117
:10537000000100010000400040002000000000008B
:105380000000000000000098012401440144014491
:1053900000FC000410001FFC0088010401040088C8
:1053A0000070000000000070008801040104010486
:1053B000008800000000007000880104010411084A
:1053C0001FFC0004000000F80144014401440144B2
:1053D00000C800000000010401040FFC11041104C6
:1053E00011001800000000D601290129012901C976
:1053F0000106000010041FFC0084010001000104EC
:1054000000FC000400000104190419FC000400045D
:10541000000000000000000300010101190119FE55
:105420000000000010041FFC0024004001B4010C27
:10543000010400000000100410041FFC000400041C
:1054400000000000010401FC0104010001FC010452
:10545000010000FC010401FC0084010001000104C2
:1054600000FC0004000000F8010401040104010430
:1054700000F80000010101FF00850104010400881B
:1054800000700000000000700088010401040105A4
:1054900001FF00010104010401FC0084010401007A
:1054A00001800000000000CC01240124012401241B
:1054B0000198000000000100010007F80104010448
:1054C00000000000010001F80004000400040108CD
:1054D00001FC0004010001800170000C001001605B
:1054E0000180010001F0010C003001C00030010C0E
:1054F00001F0010000000104018C00740170018CB6
:1055000001040000010101810171000E0018016019
:105510000180010000000184010C01340144018478
:10552000010C0000000000000000000001003EFC33
:10553000400240020000000000000000FFFF0000E9
:10554000000000000000400240023EFC010000009C
:10555000000000000000600080008000400040006B
:1055600020002000020000000000000042000000B7
:105570000000000033000000FE00000000000000FA
:1055800004000000000000000800000022000000ED
:10559000000000002A000000FF0000002A000000B8
:1055A000A80000002A000000A8000000FE00000083
:1055B000A80000002A000000AA0000002A00000045
:1055C000A90000002A000000FE00000022000000E8
:1055D00000000000020000000000000000000000C9
:1055E000000000000800000020000000080000008B
:1055F000C00000000B00000000000000FF000000E1
:10560000FF00000009000000000000000000000092
:10561000800000007F000000FF0000004900000043
:1056200002000000490000000400000049000000E2
:10563000C0000000490000003000000049000000E8
:10564000280000007F00000044000000000000006F
:1056500082000000000000000200000000000000C6
:1056600000000000080000004200000008000000E8
:1056700041000000FF000000FE00000008000000E4
:105680008000000009000000010000000000000090
:10569000060000007F000000F80000004900000044
:1056A00000000000490000003F0000004900000029
:1056B000220000004F000000E2000000490000004E
:1056C00022000000490000002200000079000000D4
:1056D0003F0000000100000000000000000000008A
:1056E000000000000800000020000000080000008A
:1056F000220000000800000041000000FF00000040
:10570000FE0000000800000080000000090000000A
:105710000100000000000000420000007F000000C7
:105720005C00000049000000420000004900000049
:1057300041000000490000007F0000004900000017
:105740004900000049000000490000007F000000FF
:1057500049000000000000004100000000000000BF
:105760000000000002000000040000000200000031
:10577000080000004200000010000000420000008D
:105780006000000042000000000000004200000035
:105790000200000042000000010000004300000081
:1057A000FE00000042000000000000004200000077
:1057B0000000000042000000000000004200000065
:1057C0004000000042000000200000000200000035
:1057D00010000000020000000C00000000000000AB
:1057E0000000000002000000000000004200000075
:1057F0000000000033000000FC000000000000007A
:105800000800000000000000110000007F00000000
:10581000FE00000041000000000000004900000000
:105820007800000049000000480000007F000000F0
:105830004800000049000000480000004900000046
:105840007A00000041000000010000007F0000001D
:10585000FE0000000000000000000000000000004A
:1058600000000000200000000000000022000000F6
:1058700000000000220000000000000022000000E4
:1058800000000000FA0000000000000022000000FC
:105890000000000023000000FF00000022000000C4
:1058A00000000000220000000000000022000000B4
:1058B00010000000FA0000000800000022000000B4
:1058C0001000000023000000E000000020000000A5
:1058D00000000000200000000000000000000000A8
:1058E0000000000008000000400000000800000068
:1058F000420000000800000081000000FF000000DE
:10590000FE0000000900000000000000020000008E
:105910002000000078000000220000004900000084
:1059200027000000490000002A0000007900000064
:10593000320000004F000000E2000000790000008B
:1059400022000000490000002A0000004900000079
:105950002600000078000000230000000000000086
:105960000000000008000000200000000800000007
:10597000C00000000B00000000000000FF0000005D
:10598000FF00000009000000000000000800000007
:10599000C000000001000000000000004100000005
:1059A0000000000041000000000000004100000075
:1059B000000000007F000000FF0000004100000028
:1059C0000000000041000000000000004100000055
:1059D00000000000010000000000000000000000C6
:1059E0000000000008000000400000000800000067
:1059F000420000000800000081000000FF000000DD
:105A0000FE0000000900000000000000040000008B
:105A1000000000001900000001000000110000005B
:105A20002100000011000000D200000097000000DB
:105A300014000000710000000800000011000000C8
:105A40001400000011000000E2000000150000003A
:105A5000010000001900000000000000000000002C
:105A600000000000400000000000000040000000B6
:105A700000000000400000000000000040000000A6
:105A80000000000040000000000000004000000096
:105A9000000000007F000000FF0000004000000048
:105AA0000000000040000000000000004200000074
:105AB0000000000041000000000000004000000065
:105AC0008000000040000000600000004000000076
:105AD0000000000040000000000000000000000086
